{
	"ITransaction.sol": {
		"Marketplace": {
			"abi": [
				{
					"inputs": [],
					"name": "checkBalance",
					"outputs": [
						{
							"internalType": "uint256",
							"name": "",
							"type": "uint256"
						}
					],
					"stateMutability": "view",
					"type": "function"
				},
				{
					"inputs": [
						{
							"internalType": "uint256",
							"name": "amount",
							"type": "uint256"
						}
					],
					"name": "deposit",
					"outputs": [],
					"stateMutability": "payable",
					"type": "function"
				},
				{
					"inputs": [
						{
							"internalType": "uint256",
							"name": "amount",
							"type": "uint256"
						}
					],
					"name": "withdraw",
					"outputs": [],
					"stateMutability": "nonpayable",
					"type": "function"
				}
			],
			"devdoc": {
				"kind": "dev",
				"methods": {},
				"version": 1
			},
			"evm": {
				"assembly": "    /* \"ITransaction.sol\":258:890  contract Marketplace is ITransaction {... */\n  mstore(0x40, 0x80)\n  callvalue\n  dup1\n  iszero\n  tag_1\n  jumpi\n  revert(0x00, 0x00)\ntag_1:\n  pop\n  dataSize(sub_0)\n  dup1\n  dataOffset(sub_0)\n  0x00\n  codecopy\n  0x00\n  return\nstop\n\nsub_0: assembly {\n        /* \"ITransaction.sol\":258:890  contract Marketplace is ITransaction {... */\n      mstore(0x40, 0x80)\n      jumpi(tag_1, lt(calldatasize, 0x04))\n      shr(0xe0, calldataload(0x00))\n      dup1\n      0x2e1a7d4d\n      eq\n      tag_2\n      jumpi\n      dup1\n      0xb6b55f25\n      eq\n      tag_3\n      jumpi\n      dup1\n      0xc71daccb\n      eq\n      tag_4\n      jumpi\n    tag_1:\n      revert(0x00, 0x00)\n        /* \"ITransaction.sol\":546:768  function withdraw(uint256 amount) external override {... */\n    tag_2:\n      callvalue\n      dup1\n      iszero\n      tag_5\n      jumpi\n      revert(0x00, 0x00)\n    tag_5:\n      pop\n      tag_6\n      0x04\n      dup1\n      calldatasize\n      sub\n      dup2\n      add\n      swap1\n      tag_7\n      swap2\n      swap1\n      tag_8\n      jump\t// in\n    tag_7:\n      tag_9\n      jump\t// in\n    tag_6:\n      stop\n        /* \"ITransaction.sol\":355:538  function deposit(uint256 amount) external payable override {... */\n    tag_3:\n      tag_10\n      0x04\n      dup1\n      calldatasize\n      sub\n      dup2\n      add\n      swap1\n      tag_11\n      swap2\n      swap1\n      tag_8\n      jump\t// in\n    tag_11:\n      tag_12\n      jump\t// in\n    tag_10:\n      stop\n        /* \"ITransaction.sol\":776:887  function checkBalance() external view override returns (uint256) {... */\n    tag_4:\n      callvalue\n      dup1\n      iszero\n      tag_13\n      jumpi\n      revert(0x00, 0x00)\n    tag_13:\n      pop\n      tag_14\n      tag_15\n      jump\t// in\n    tag_14:\n      mload(0x40)\n      tag_16\n      swap2\n      swap1\n      tag_17\n      jump\t// in\n    tag_16:\n      mload(0x40)\n      dup1\n      swap2\n      sub\n      swap1\n      return\n        /* \"ITransaction.sol\":546:768  function withdraw(uint256 amount) external override {... */\n    tag_9:\n        /* \"ITransaction.sol\":641:647  amount */\n      dup1\n        /* \"ITransaction.sol\":617:625  balances */\n      0x00\n        /* \"ITransaction.sol\":617:637  balances[msg.sender] */\n      0x00\n        /* \"ITransaction.sol\":626:636  msg.sender */\n      caller\n        /* \"ITransaction.sol\":617:637  balances[msg.sender] */\n      0xffffffffffffffffffffffffffffffffffffffff\n      and\n      0xffffffffffffffffffffffffffffffffffffffff\n      and\n      dup2\n      mstore\n      0x20\n      add\n      swap1\n      dup2\n      mstore\n      0x20\n      add\n      0x00\n      keccak256\n      sload\n        /* \"ITransaction.sol\":617:647  balances[msg.sender] >= amount */\n      lt\n      iszero\n        /* \"ITransaction.sol\":609:672  require(balances[msg.sender] >= amount, \"Insufficient balance\") */\n      tag_19\n      jumpi\n      mload(0x40)\n      0x08c379a000000000000000000000000000000000000000000000000000000000\n      dup2\n      mstore\n      0x04\n      add\n      tag_20\n      swap1\n      tag_21\n      jump\t// in\n    tag_20:\n      mload(0x40)\n      dup1\n      swap2\n      sub\n      swap1\n      revert\n    tag_19:\n        /* \"ITransaction.sol\":707:713  amount */\n      dup1\n        /* \"ITransaction.sol\":683:691  balances */\n      0x00\n        /* \"ITransaction.sol\":683:703  balances[msg.sender] */\n      0x00\n        /* \"ITransaction.sol\":692:702  msg.sender */\n      caller\n        /* \"ITransaction.sol\":683:703  balances[msg.sender] */\n      0xffffffffffffffffffffffffffffffffffffffff\n      and\n      0xffffffffffffffffffffffffffffffffffffffff\n      and\n      dup2\n      mstore\n      0x20\n      add\n      swap1\n      dup2\n      mstore\n      0x20\n      add\n      0x00\n      keccak256\n      0x00\n        /* \"ITransaction.sol\":683:713  balances[msg.sender] -= amount */\n      dup3\n      dup3\n      sload\n      tag_22\n      swap2\n      swap1\n      tag_23\n      jump\t// in\n    tag_22:\n      swap3\n      pop\n      pop\n      dup2\n      swap1\n      sstore\n      pop\n        /* \"ITransaction.sol\":732:742  msg.sender */\n      caller\n        /* \"ITransaction.sol\":724:752  payable(msg.sender).transfer */\n      0xffffffffffffffffffffffffffffffffffffffff\n      and\n        /* \"ITransaction.sol\":724:760  payable(msg.sender).transfer(amount) */\n      0x08fc\n        /* \"ITransaction.sol\":753:759  amount */\n      dup3\n        /* \"ITransaction.sol\":724:760  payable(msg.sender).transfer(amount) */\n      swap1\n      dup2\n      iszero\n      mul\n      swap1\n      mload(0x40)\n      0x00\n      mload(0x40)\n      dup1\n      dup4\n      sub\n      dup2\n      dup6\n      dup9\n      dup9\n      call\n      swap4\n      pop\n      pop\n      pop\n      pop\n      iszero\n      dup1\n      iszero\n      tag_25\n      jumpi\n      returndatacopy(0x00, 0x00, returndatasize)\n      revert(0x00, returndatasize)\n    tag_25:\n      pop\n        /* \"ITransaction.sol\":546:768  function withdraw(uint256 amount) external override {... */\n      pop\n      jump\t// out\n        /* \"ITransaction.sol\":355:538  function deposit(uint256 amount) external payable override {... */\n    tag_12:\n        /* \"ITransaction.sol\":446:452  amount */\n      dup1\n        /* \"ITransaction.sol\":433:442  msg.value */\n      callvalue\n        /* \"ITransaction.sol\":433:452  msg.value == amount */\n      eq\n        /* \"ITransaction.sol\":425:489  require(msg.value == amount, \"Amount does not match sent Ether\") */\n      tag_27\n      jumpi\n      mload(0x40)\n      0x08c379a000000000000000000000000000000000000000000000000000000000\n      dup2\n      mstore\n      0x04\n      add\n      tag_28\n      swap1\n      tag_29\n      jump\t// in\n    tag_28:\n      mload(0x40)\n      dup1\n      swap2\n      sub\n      swap1\n      revert\n    tag_27:\n        /* \"ITransaction.sol\":524:530  amount */\n      dup1\n        /* \"ITransaction.sol\":500:508  balances */\n      0x00\n        /* \"ITransaction.sol\":500:520  balances[msg.sender] */\n      0x00\n        /* \"ITransaction.sol\":509:519  msg.sender */\n      caller\n        /* \"ITransaction.sol\":500:520  balances[msg.sender] */\n      0xffffffffffffffffffffffffffffffffffffffff\n      and\n      0xffffffffffffffffffffffffffffffffffffffff\n      and\n      dup2\n      mstore\n      0x20\n      add\n      swap1\n      dup2\n      mstore\n      0x20\n      add\n      0x00\n      keccak256\n      0x00\n        /* \"ITransaction.sol\":500:530  balances[msg.sender] += amount */\n      dup3\n      dup3\n      sload\n      tag_30\n      swap2\n      swap1\n      tag_31\n      jump\t// in\n    tag_30:\n      swap3\n      pop\n      pop\n      dup2\n      swap1\n      sstore\n      pop\n        /* \"ITransaction.sol\":355:538  function deposit(uint256 amount) external payable override {... */\n      pop\n      jump\t// out\n        /* \"ITransaction.sol\":776:887  function checkBalance() external view override returns (uint256) {... */\n    tag_15:\n        /* \"ITransaction.sol\":832:839  uint256 */\n      0x00\n        /* \"ITransaction.sol\":859:867  balances */\n      0x00\n        /* \"ITransaction.sol\":859:879  balances[msg.sender] */\n      0x00\n        /* \"ITransaction.sol\":868:878  msg.sender */\n      caller\n        /* \"ITransaction.sol\":859:879  balances[msg.sender] */\n      0xffffffffffffffffffffffffffffffffffffffff\n      and\n      0xffffffffffffffffffffffffffffffffffffffff\n      and\n      dup2\n      mstore\n      0x20\n      add\n      swap1\n      dup2\n      mstore\n      0x20\n      add\n      0x00\n      keccak256\n      sload\n        /* \"ITransaction.sol\":852:879  return balances[msg.sender] */\n      swap1\n      pop\n        /* \"ITransaction.sol\":776:887  function checkBalance() external view override returns (uint256) {... */\n      swap1\n      jump\t// out\n        /* \"#utility.yul\":88:205   */\n    tag_34:\n        /* \"#utility.yul\":197:198   */\n      0x00\n        /* \"#utility.yul\":194:195   */\n      0x00\n        /* \"#utility.yul\":187:199   */\n      revert\n        /* \"#utility.yul\":334:411   */\n    tag_36:\n        /* \"#utility.yul\":371:378   */\n      0x00\n        /* \"#utility.yul\":400:405   */\n      dup2\n        /* \"#utility.yul\":389:405   */\n      swap1\n      pop\n        /* \"#utility.yul\":334:411   */\n      swap2\n      swap1\n      pop\n      jump\t// out\n        /* \"#utility.yul\":417:539   */\n    tag_37:\n        /* \"#utility.yul\":490:514   */\n      tag_52\n        /* \"#utility.yul\":508:513   */\n      dup2\n        /* \"#utility.yul\":490:514   */\n      tag_36\n      jump\t// in\n    tag_52:\n        /* \"#utility.yul\":483:488   */\n      dup2\n        /* \"#utility.yul\":480:515   */\n      eq\n        /* \"#utility.yul\":470:533   */\n      tag_53\n      jumpi\n        /* \"#utility.yul\":529:530   */\n      0x00\n        /* \"#utility.yul\":526:527   */\n      0x00\n        /* \"#utility.yul\":519:531   */\n      revert\n        /* \"#utility.yul\":470:533   */\n    tag_53:\n        /* \"#utility.yul\":417:539   */\n      pop\n      jump\t// out\n        /* \"#utility.yul\":545:684   */\n    tag_38:\n        /* \"#utility.yul\":591:596   */\n      0x00\n        /* \"#utility.yul\":629:635   */\n      dup2\n        /* \"#utility.yul\":616:636   */\n      calldataload\n        /* \"#utility.yul\":607:636   */\n      swap1\n      pop\n        /* \"#utility.yul\":645:678   */\n      tag_55\n        /* \"#utility.yul\":672:677   */\n      dup2\n        /* \"#utility.yul\":645:678   */\n      tag_37\n      jump\t// in\n    tag_55:\n        /* \"#utility.yul\":545:684   */\n      swap3\n      swap2\n      pop\n      pop\n      jump\t// out\n        /* \"#utility.yul\":690:1019   */\n    tag_8:\n        /* \"#utility.yul\":749:755   */\n      0x00\n        /* \"#utility.yul\":798:800   */\n      0x20\n        /* \"#utility.yul\":786:795   */\n      dup3\n        /* \"#utility.yul\":777:784   */\n      dup5\n        /* \"#utility.yul\":773:796   */\n      sub\n        /* \"#utility.yul\":769:801   */\n      slt\n        /* \"#utility.yul\":766:885   */\n      iszero\n      tag_57\n      jumpi\n        /* \"#utility.yul\":804:883   */\n      tag_58\n      tag_34\n      jump\t// in\n    tag_58:\n        /* \"#utility.yul\":766:885   */\n    tag_57:\n        /* \"#utility.yul\":924:925   */\n      0x00\n        /* \"#utility.yul\":949:1002   */\n      tag_59\n        /* \"#utility.yul\":994:1001   */\n      dup5\n        /* \"#utility.yul\":985:991   */\n      dup3\n        /* \"#utility.yul\":974:983   */\n      dup6\n        /* \"#utility.yul\":970:992   */\n      add\n        /* \"#utility.yul\":949:1002   */\n      tag_38\n      jump\t// in\n    tag_59:\n        /* \"#utility.yul\":939:1002   */\n      swap2\n      pop\n        /* \"#utility.yul\":895:1012   */\n      pop\n        /* \"#utility.yul\":690:1019   */\n      swap3\n      swap2\n      pop\n      pop\n      jump\t// out\n        /* \"#utility.yul\":1025:1143   */\n    tag_39:\n        /* \"#utility.yul\":1112:1136   */\n      tag_61\n        /* \"#utility.yul\":1130:1135   */\n      dup2\n        /* \"#utility.yul\":1112:1136   */\n      tag_36\n      jump\t// in\n    tag_61:\n        /* \"#utility.yul\":1107:1110   */\n      dup3\n        /* \"#utility.yul\":1100:1137   */\n      mstore\n        /* \"#utility.yul\":1025:1143   */\n      pop\n      pop\n      jump\t// out\n        /* \"#utility.yul\":1149:1371   */\n    tag_17:\n        /* \"#utility.yul\":1242:1246   */\n      0x00\n        /* \"#utility.yul\":1280:1282   */\n      0x20\n        /* \"#utility.yul\":1269:1278   */\n      dup3\n        /* \"#utility.yul\":1265:1283   */\n      add\n        /* \"#utility.yul\":1257:1283   */\n      swap1\n      pop\n        /* \"#utility.yul\":1293:1364   */\n      tag_63\n        /* \"#utility.yul\":1361:1362   */\n      0x00\n        /* \"#utility.yul\":1350:1359   */\n      dup4\n        /* \"#utility.yul\":1346:1363   */\n      add\n        /* \"#utility.yul\":1337:1343   */\n      dup5\n        /* \"#utility.yul\":1293:1364   */\n      tag_39\n      jump\t// in\n    tag_63:\n        /* \"#utility.yul\":1149:1371   */\n      swap3\n      swap2\n      pop\n      pop\n      jump\t// out\n        /* \"#utility.yul\":1377:1546   */\n    tag_40:\n        /* \"#utility.yul\":1461:1472   */\n      0x00\n        /* \"#utility.yul\":1495:1501   */\n      dup3\n        /* \"#utility.yul\":1490:1493   */\n      dup3\n        /* \"#utility.yul\":1483:1502   */\n      mstore\n        /* \"#utility.yul\":1535:1539   */\n      0x20\n        /* \"#utility.yul\":1530:1533   */\n      dup3\n        /* \"#utility.yul\":1526:1540   */\n      add\n        /* \"#utility.yul\":1511:1540   */\n      swap1\n      pop\n        /* \"#utility.yul\":1377:1546   */\n      swap3\n      swap2\n      pop\n      pop\n      jump\t// out\n        /* \"#utility.yul\":1552:1722   */\n    tag_41:\n        /* \"#utility.yul\":1692:1714   */\n      0x496e73756666696369656e742062616c616e6365000000000000000000000000\n        /* \"#utility.yul\":1688:1689   */\n      0x00\n        /* \"#utility.yul\":1680:1686   */\n      dup3\n        /* \"#utility.yul\":1676:1690   */\n      add\n        /* \"#utility.yul\":1669:1715   */\n      mstore\n        /* \"#utility.yul\":1552:1722   */\n      pop\n      jump\t// out\n        /* \"#utility.yul\":1728:2094   */\n    tag_42:\n        /* \"#utility.yul\":1870:1873   */\n      0x00\n        /* \"#utility.yul\":1891:1958   */\n      tag_67\n        /* \"#utility.yul\":1955:1957   */\n      0x14\n        /* \"#utility.yul\":1950:1953   */\n      dup4\n        /* \"#utility.yul\":1891:1958   */\n      tag_40\n      jump\t// in\n    tag_67:\n        /* \"#utility.yul\":1884:1958   */\n      swap2\n      pop\n        /* \"#utility.yul\":1967:2060   */\n      tag_68\n        /* \"#utility.yul\":2056:2059   */\n      dup3\n        /* \"#utility.yul\":1967:2060   */\n      tag_41\n      jump\t// in\n    tag_68:\n        /* \"#utility.yul\":2085:2087   */\n      0x20\n        /* \"#utility.yul\":2080:2083   */\n      dup3\n        /* \"#utility.yul\":2076:2088   */\n      add\n        /* \"#utility.yul\":2069:2088   */\n      swap1\n      pop\n        /* \"#utility.yul\":1728:2094   */\n      swap2\n      swap1\n      pop\n      jump\t// out\n        /* \"#utility.yul\":2100:2519   */\n    tag_21:\n        /* \"#utility.yul\":2266:2270   */\n      0x00\n        /* \"#utility.yul\":2304:2306   */\n      0x20\n        /* \"#utility.yul\":2293:2302   */\n      dup3\n        /* \"#utility.yul\":2289:2307   */\n      add\n        /* \"#utility.yul\":2281:2307   */\n      swap1\n      pop\n        /* \"#utility.yul\":2353:2362   */\n      dup2\n        /* \"#utility.yul\":2347:2351   */\n      dup2\n        /* \"#utility.yul\":2343:2363   */\n      sub\n        /* \"#utility.yul\":2339:2340   */\n      0x00\n        /* \"#utility.yul\":2328:2337   */\n      dup4\n        /* \"#utility.yul\":2324:2341   */\n      add\n        /* \"#utility.yul\":2317:2364   */\n      mstore\n        /* \"#utility.yul\":2381:2512   */\n      tag_70\n        /* \"#utility.yul\":2507:2511   */\n      dup2\n        /* \"#utility.yul\":2381:2512   */\n      tag_42\n      jump\t// in\n    tag_70:\n        /* \"#utility.yul\":2373:2512   */\n      swap1\n      pop\n        /* \"#utility.yul\":2100:2519   */\n      swap2\n      swap1\n      pop\n      jump\t// out\n        /* \"#utility.yul\":2525:2705   */\n    tag_43:\n        /* \"#utility.yul\":2573:2650   */\n      0x4e487b7100000000000000000000000000000000000000000000000000000000\n        /* \"#utility.yul\":2570:2571   */\n      0x00\n        /* \"#utility.yul\":2563:2651   */\n      mstore\n        /* \"#utility.yul\":2670:2674   */\n      0x11\n        /* \"#utility.yul\":2667:2668   */\n      0x04\n        /* \"#utility.yul\":2660:2675   */\n      mstore\n        /* \"#utility.yul\":2694:2698   */\n      0x24\n        /* \"#utility.yul\":2691:2692   */\n      0x00\n        /* \"#utility.yul\":2684:2699   */\n      revert\n        /* \"#utility.yul\":2711:2905   */\n    tag_23:\n        /* \"#utility.yul\":2751:2755   */\n      0x00\n        /* \"#utility.yul\":2771:2791   */\n      tag_73\n        /* \"#utility.yul\":2789:2790   */\n      dup3\n        /* \"#utility.yul\":2771:2791   */\n      tag_36\n      jump\t// in\n    tag_73:\n        /* \"#utility.yul\":2766:2791   */\n      swap2\n      pop\n        /* \"#utility.yul\":2805:2825   */\n      tag_74\n        /* \"#utility.yul\":2823:2824   */\n      dup4\n        /* \"#utility.yul\":2805:2825   */\n      tag_36\n      jump\t// in\n    tag_74:\n        /* \"#utility.yul\":2800:2825   */\n      swap3\n      pop\n        /* \"#utility.yul\":2849:2850   */\n      dup3\n        /* \"#utility.yul\":2846:2847   */\n      dup3\n        /* \"#utility.yul\":2842:2851   */\n      sub\n        /* \"#utility.yul\":2834:2851   */\n      swap1\n      pop\n        /* \"#utility.yul\":2873:2874   */\n      dup2\n        /* \"#utility.yul\":2867:2871   */\n      dup2\n        /* \"#utility.yul\":2864:2875   */\n      gt\n        /* \"#utility.yul\":2861:2898   */\n      iszero\n      tag_75\n      jumpi\n        /* \"#utility.yul\":2878:2896   */\n      tag_76\n      tag_43\n      jump\t// in\n    tag_76:\n        /* \"#utility.yul\":2861:2898   */\n    tag_75:\n        /* \"#utility.yul\":2711:2905   */\n      swap3\n      swap2\n      pop\n      pop\n      jump\t// out\n        /* \"#utility.yul\":2911:3093   */\n    tag_44:\n        /* \"#utility.yul\":3051:3085   */\n      0x416d6f756e7420646f6573206e6f74206d617463682073656e74204574686572\n        /* \"#utility.yul\":3047:3048   */\n      0x00\n        /* \"#utility.yul\":3039:3045   */\n      dup3\n        /* \"#utility.yul\":3035:3049   */\n      add\n        /* \"#utility.yul\":3028:3086   */\n      mstore\n        /* \"#utility.yul\":2911:3093   */\n      pop\n      jump\t// out\n        /* \"#utility.yul\":3099:3465   */\n    tag_45:\n        /* \"#utility.yul\":3241:3244   */\n      0x00\n        /* \"#utility.yul\":3262:3329   */\n      tag_79\n        /* \"#utility.yul\":3326:3328   */\n      0x20\n        /* \"#utility.yul\":3321:3324   */\n      dup4\n        /* \"#utility.yul\":3262:3329   */\n      tag_40\n      jump\t// in\n    tag_79:\n        /* \"#utility.yul\":3255:3329   */\n      swap2\n      pop\n        /* \"#utility.yul\":3338:3431   */\n      tag_80\n        /* \"#utility.yul\":3427:3430   */\n      dup3\n        /* \"#utility.yul\":3338:3431   */\n      tag_44\n      jump\t// in\n    tag_80:\n        /* \"#utility.yul\":3456:3458   */\n      0x20\n        /* \"#utility.yul\":3451:3454   */\n      dup3\n        /* \"#utility.yul\":3447:3459   */\n      add\n        /* \"#utility.yul\":3440:3459   */\n      swap1\n      pop\n        /* \"#utility.yul\":3099:3465   */\n      swap2\n      swap1\n      pop\n      jump\t// out\n        /* \"#utility.yul\":3471:3890   */\n    tag_29:\n        /* \"#utility.yul\":3637:3641   */\n      0x00\n        /* \"#utility.yul\":3675:3677   */\n      0x20\n        /* \"#utility.yul\":3664:3673   */\n      dup3\n        /* \"#utility.yul\":3660:3678   */\n      add\n        /* \"#utility.yul\":3652:3678   */\n      swap1\n      pop\n        /* \"#utility.yul\":3724:3733   */\n      dup2\n        /* \"#utility.yul\":3718:3722   */\n      dup2\n        /* \"#utility.yul\":3714:3734   */\n      sub\n        /* \"#utility.yul\":3710:3711   */\n      0x00\n        /* \"#utility.yul\":3699:3708   */\n      dup4\n        /* \"#utility.yul\":3695:3712   */\n      add\n        /* \"#utility.yul\":3688:3735   */\n      mstore\n        /* \"#utility.yul\":3752:3883   */\n      tag_82\n        /* \"#utility.yul\":3878:3882   */\n      dup2\n        /* \"#utility.yul\":3752:3883   */\n      tag_45\n      jump\t// in\n    tag_82:\n        /* \"#utility.yul\":3744:3883   */\n      swap1\n      pop\n        /* \"#utility.yul\":3471:3890   */\n      swap2\n      swap1\n      pop\n      jump\t// out\n        /* \"#utility.yul\":3896:4087   */\n    tag_31:\n        /* \"#utility.yul\":3936:3939   */\n      0x00\n        /* \"#utility.yul\":3955:3975   */\n      tag_84\n        /* \"#utility.yul\":3973:3974   */\n      dup3\n        /* \"#utility.yul\":3955:3975   */\n      tag_36\n      jump\t// in\n    tag_84:\n        /* \"#utility.yul\":3950:3975   */\n      swap2\n      pop\n        /* \"#utility.yul\":3989:4009   */\n      tag_85\n        /* \"#utility.yul\":4007:4008   */\n      dup4\n        /* \"#utility.yul\":3989:4009   */\n      tag_36\n      jump\t// in\n    tag_85:\n        /* \"#utility.yul\":3984:4009   */\n      swap3\n      pop\n        /* \"#utility.yul\":4032:4033   */\n      dup3\n        /* \"#utility.yul\":4029:4030   */\n      dup3\n        /* \"#utility.yul\":4025:4034   */\n      add\n        /* \"#utility.yul\":4018:4034   */\n      swap1\n      pop\n        /* \"#utility.yul\":4053:4056   */\n      dup1\n        /* \"#utility.yul\":4050:4051   */\n      dup3\n        /* \"#utility.yul\":4047:4057   */\n      gt\n        /* \"#utility.yul\":4044:4080   */\n      iszero\n      tag_86\n      jumpi\n        /* \"#utility.yul\":4060:4078   */\n      tag_87\n      tag_43\n      jump\t// in\n    tag_87:\n        /* \"#utility.yul\":4044:4080   */\n    tag_86:\n        /* \"#utility.yul\":3896:4087   */\n      swap3\n      swap2\n      pop\n      pop\n      jump\t// out\n\n    auxdata: 0xa26469706673582212206e52d5a8ca0caa94bde98b0da545ecfd24e7211bec9024cb9f08fd96b0eea78c64736f6c634300081f0033\n}\n",
				"bytecode": {
					"linkReferences": {},
					"object": "6080604052348015600e575f5ffd5b506104ca8061001c5f395ff3fe608060405260043610610033575f3560e01c80632e1a7d4d14610037578063b6b55f251461005f578063c71daccb1461007b575b5f5ffd5b348015610042575f5ffd5b5061005d600480360381019061005891906102ce565b6100a5565b005b610079600480360381019061007491906102ce565b6101bd565b005b348015610086575f5ffd5b5061008f610254565b60405161009c9190610308565b60405180910390f35b805f5f3373ffffffffffffffffffffffffffffffffffffffff1673ffffffffffffffffffffffffffffffffffffffff1681526020019081526020015f20541015610124576040517f08c379a000000000000000000000000000000000000000000000000000000000815260040161011b9061037b565b60405180910390fd5b805f5f3373ffffffffffffffffffffffffffffffffffffffff1673ffffffffffffffffffffffffffffffffffffffff1681526020019081526020015f205f82825461016f91906103c6565b925050819055503373ffffffffffffffffffffffffffffffffffffffff166108fc8290811502906040515f60405180830381858888f193505050501580156101b9573d5f5f3e3d5ffd5b5050565b8034146101ff576040517f08c379a00000000000000000000000000000000000000000000000000000000081526004016101f690610443565b60405180910390fd5b805f5f3373ffffffffffffffffffffffffffffffffffffffff1673ffffffffffffffffffffffffffffffffffffffff1681526020019081526020015f205f82825461024a9190610461565b9250508190555050565b5f5f5f3373ffffffffffffffffffffffffffffffffffffffff1673ffffffffffffffffffffffffffffffffffffffff1681526020019081526020015f2054905090565b5f5ffd5b5f819050919050565b6102ad8161029b565b81146102b7575f5ffd5b50565b5f813590506102c8816102a4565b92915050565b5f602082840312156102e3576102e2610297565b5b5f6102f0848285016102ba565b91505092915050565b6103028161029b565b82525050565b5f60208201905061031b5f8301846102f9565b92915050565b5f82825260208201905092915050565b7f496e73756666696369656e742062616c616e63650000000000000000000000005f82015250565b5f610365601483610321565b915061037082610331565b602082019050919050565b5f6020820190508181035f83015261039281610359565b9050919050565b7f4e487b71000000000000000000000000000000000000000000000000000000005f52601160045260245ffd5b5f6103d08261029b565b91506103db8361029b565b92508282039050818111156103f3576103f2610399565b5b92915050565b7f416d6f756e7420646f6573206e6f74206d617463682073656e742045746865725f82015250565b5f61042d602083610321565b9150610438826103f9565b602082019050919050565b5f6020820190508181035f83015261045a81610421565b9050919050565b5f61046b8261029b565b91506104768361029b565b925082820190508082111561048e5761048d610399565b5b9291505056fea26469706673582212206e52d5a8ca0caa94bde98b0da545ecfd24e7211bec9024cb9f08fd96b0eea78c64736f6c634300081f0033",
					"opcodes": "PUSH1 0x80 PUSH1 0x40 MSTORE CALLVALUE DUP1 ISZERO PUSH1 0xE JUMPI PUSH0 PUSH0 REVERT JUMPDEST POP PUSH2 0x4CA DUP1 PUSH2 0x1C PUSH0 CODECOPY PUSH0 RETURN INVALID PUSH1 0x80 PUSH1 0x40 MSTORE PUSH1 0x4 CALLDATASIZE LT PUSH2 0x33 JUMPI PUSH0 CALLDATALOAD PUSH1 0xE0 SHR DUP1 PUSH4 0x2E1A7D4D EQ PUSH2 0x37 JUMPI DUP1 PUSH4 0xB6B55F25 EQ PUSH2 0x5F JUMPI DUP1 PUSH4 0xC71DACCB EQ PUSH2 0x7B JUMPI JUMPDEST PUSH0 PUSH0 REVERT JUMPDEST CALLVALUE DUP1 ISZERO PUSH2 0x42 JUMPI PUSH0 PUSH0 REVERT JUMPDEST POP PUSH2 0x5D PUSH1 0x4 DUP1 CALLDATASIZE SUB DUP2 ADD SWAP1 PUSH2 0x58 SWAP2 SWAP1 PUSH2 0x2CE JUMP JUMPDEST PUSH2 0xA5 JUMP JUMPDEST STOP JUMPDEST PUSH2 0x79 PUSH1 0x4 DUP1 CALLDATASIZE SUB DUP2 ADD SWAP1 PUSH2 0x74 SWAP2 SWAP1 PUSH2 0x2CE JUMP JUMPDEST PUSH2 0x1BD JUMP JUMPDEST STOP JUMPDEST CALLVALUE DUP1 ISZERO PUSH2 0x86 JUMPI PUSH0 PUSH0 REVERT JUMPDEST POP PUSH2 0x8F PUSH2 0x254 JUMP JUMPDEST PUSH1 0x40 MLOAD PUSH2 0x9C SWAP2 SWAP1 PUSH2 0x308 JUMP JUMPDEST PUSH1 0x40 MLOAD DUP1 SWAP2 SUB SWAP1 RETURN JUMPDEST DUP1 PUSH0 PUSH0 CALLER PUSH20 0xFFFFFFFFFFFFFFFFFFFFFFFFFFFFFFFFFFFFFFFF AND PUSH20 0xFFFFFFFFFFFFFFFFFFFFFFFFFFFFFFFFFFFFFFFF AND DUP2 MSTORE PUSH1 0x20 ADD SWAP1 DUP2 MSTORE PUSH1 0x20 ADD PUSH0 KECCAK256 SLOAD LT ISZERO PUSH2 0x124 JUMPI PUSH1 0x40 MLOAD PUSH32 0x8C379A000000000000000000000000000000000000000000000000000000000 DUP2 MSTORE PUSH1 0x4 ADD PUSH2 0x11B SWAP1 PUSH2 0x37B JUMP JUMPDEST PUSH1 0x40 MLOAD DUP1 SWAP2 SUB SWAP1 REVERT JUMPDEST DUP1 PUSH0 PUSH0 CALLER PUSH20 0xFFFFFFFFFFFFFFFFFFFFFFFFFFFFFFFFFFFFFFFF AND PUSH20 0xFFFFFFFFFFFFFFFFFFFFFFFFFFFFFFFFFFFFFFFF AND DUP2 MSTORE PUSH1 0x20 ADD SWAP1 DUP2 MSTORE PUSH1 0x20 ADD PUSH0 KECCAK256 PUSH0 DUP3 DUP3 SLOAD PUSH2 0x16F SWAP2 SWAP1 PUSH2 0x3C6 JUMP JUMPDEST SWAP3 POP POP DUP2 SWAP1 SSTORE POP CALLER PUSH20 0xFFFFFFFFFFFFFFFFFFFFFFFFFFFFFFFFFFFFFFFF AND PUSH2 0x8FC DUP3 SWAP1 DUP2 ISZERO MUL SWAP1 PUSH1 0x40 MLOAD PUSH0 PUSH1 0x40 MLOAD DUP1 DUP4 SUB DUP2 DUP6 DUP9 DUP9 CALL SWAP4 POP POP POP POP ISZERO DUP1 ISZERO PUSH2 0x1B9 JUMPI RETURNDATASIZE PUSH0 PUSH0 RETURNDATACOPY RETURNDATASIZE PUSH0 REVERT JUMPDEST POP POP JUMP JUMPDEST DUP1 CALLVALUE EQ PUSH2 0x1FF JUMPI PUSH1 0x40 MLOAD PUSH32 0x8C379A000000000000000000000000000000000000000000000000000000000 DUP2 MSTORE PUSH1 0x4 ADD PUSH2 0x1F6 SWAP1 PUSH2 0x443 JUMP JUMPDEST PUSH1 0x40 MLOAD DUP1 SWAP2 SUB SWAP1 REVERT JUMPDEST DUP1 PUSH0 PUSH0 CALLER PUSH20 0xFFFFFFFFFFFFFFFFFFFFFFFFFFFFFFFFFFFFFFFF AND PUSH20 0xFFFFFFFFFFFFFFFFFFFFFFFFFFFFFFFFFFFFFFFF AND DUP2 MSTORE PUSH1 0x20 ADD SWAP1 DUP2 MSTORE PUSH1 0x20 ADD PUSH0 KECCAK256 PUSH0 DUP3 DUP3 SLOAD PUSH2 0x24A SWAP2 SWAP1 PUSH2 0x461 JUMP JUMPDEST SWAP3 POP POP DUP2 SWAP1 SSTORE POP POP JUMP JUMPDEST PUSH0 PUSH0 PUSH0 CALLER PUSH20 0xFFFFFFFFFFFFFFFFFFFFFFFFFFFFFFFFFFFFFFFF AND PUSH20 0xFFFFFFFFFFFFFFFFFFFFFFFFFFFFFFFFFFFFFFFF AND DUP2 MSTORE PUSH1 0x20 ADD SWAP1 DUP2 MSTORE PUSH1 0x20 ADD PUSH0 KECCAK256 SLOAD SWAP1 POP SWAP1 JUMP JUMPDEST PUSH0 PUSH0 REVERT JUMPDEST PUSH0 DUP2 SWAP1 POP SWAP2 SWAP1 POP JUMP JUMPDEST PUSH2 0x2AD DUP2 PUSH2 0x29B JUMP JUMPDEST DUP2 EQ PUSH2 0x2B7 JUMPI PUSH0 PUSH0 REVERT JUMPDEST POP JUMP JUMPDEST PUSH0 DUP2 CALLDATALOAD SWAP1 POP PUSH2 0x2C8 DUP2 PUSH2 0x2A4 JUMP JUMPDEST SWAP3 SWAP2 POP POP JUMP JUMPDEST PUSH0 PUSH1 0x20 DUP3 DUP5 SUB SLT ISZERO PUSH2 0x2E3 JUMPI PUSH2 0x2E2 PUSH2 0x297 JUMP JUMPDEST JUMPDEST PUSH0 PUSH2 0x2F0 DUP5 DUP3 DUP6 ADD PUSH2 0x2BA JUMP JUMPDEST SWAP2 POP POP SWAP3 SWAP2 POP POP JUMP JUMPDEST PUSH2 0x302 DUP2 PUSH2 0x29B JUMP JUMPDEST DUP3 MSTORE POP POP JUMP JUMPDEST PUSH0 PUSH1 0x20 DUP3 ADD SWAP1 POP PUSH2 0x31B PUSH0 DUP4 ADD DUP5 PUSH2 0x2F9 JUMP JUMPDEST SWAP3 SWAP2 POP POP JUMP JUMPDEST PUSH0 DUP3 DUP3 MSTORE PUSH1 0x20 DUP3 ADD SWAP1 POP SWAP3 SWAP2 POP POP JUMP JUMPDEST PUSH32 0x496E73756666696369656E742062616C616E6365000000000000000000000000 PUSH0 DUP3 ADD MSTORE POP JUMP JUMPDEST PUSH0 PUSH2 0x365 PUSH1 0x14 DUP4 PUSH2 0x321 JUMP JUMPDEST SWAP2 POP PUSH2 0x370 DUP3 PUSH2 0x331 JUMP JUMPDEST PUSH1 0x20 DUP3 ADD SWAP1 POP SWAP2 SWAP1 POP JUMP JUMPDEST PUSH0 PUSH1 0x20 DUP3 ADD SWAP1 POP DUP2 DUP2 SUB PUSH0 DUP4 ADD MSTORE PUSH2 0x392 DUP2 PUSH2 0x359 JUMP JUMPDEST SWAP1 POP SWAP2 SWAP1 POP JUMP JUMPDEST PUSH32 0x4E487B7100000000000000000000000000000000000000000000000000000000 PUSH0 MSTORE PUSH1 0x11 PUSH1 0x4 MSTORE PUSH1 0x24 PUSH0 REVERT JUMPDEST PUSH0 PUSH2 0x3D0 DUP3 PUSH2 0x29B JUMP JUMPDEST SWAP2 POP PUSH2 0x3DB DUP4 PUSH2 0x29B JUMP JUMPDEST SWAP3 POP DUP3 DUP3 SUB SWAP1 POP DUP2 DUP2 GT ISZERO PUSH2 0x3F3 JUMPI PUSH2 0x3F2 PUSH2 0x399 JUMP JUMPDEST JUMPDEST SWAP3 SWAP2 POP POP JUMP JUMPDEST PUSH32 0x416D6F756E7420646F6573206E6F74206D617463682073656E74204574686572 PUSH0 DUP3 ADD MSTORE POP JUMP JUMPDEST PUSH0 PUSH2 0x42D PUSH1 0x20 DUP4 PUSH2 0x321 JUMP JUMPDEST SWAP2 POP PUSH2 0x438 DUP3 PUSH2 0x3F9 JUMP JUMPDEST PUSH1 0x20 DUP3 ADD SWAP1 POP SWAP2 SWAP1 POP JUMP JUMPDEST PUSH0 PUSH1 0x20 DUP3 ADD SWAP1 POP DUP2 DUP2 SUB PUSH0 DUP4 ADD MSTORE PUSH2 0x45A DUP2 PUSH2 0x421 JUMP JUMPDEST SWAP1 POP SWAP2 SWAP1 POP JUMP JUMPDEST PUSH0 PUSH2 0x46B DUP3 PUSH2 0x29B JUMP JUMPDEST SWAP2 POP PUSH2 0x476 DUP4 PUSH2 0x29B JUMP JUMPDEST SWAP3 POP DUP3 DUP3 ADD SWAP1 POP DUP1 DUP3 GT ISZERO PUSH2 0x48E JUMPI PUSH2 0x48D PUSH2 0x399 JUMP JUMPDEST JUMPDEST SWAP3 SWAP2 POP POP JUMP INVALID LOG2 PUSH5 0x6970667358 0x22 SLT KECCAK256 PUSH15 0x52D5A8CA0CAA94BDE98B0DA545ECFD 0x24 SWAPN 0x21 SHL EOFCREATE 0x90 0x24 0xCB SWAP16 ADDMOD REVERT SWAP7 0xB0 RETURNCONTRACT 0xA7 DUP13 PUSH5 0x736F6C6343 STOP ADDMOD 0x1F STOP CALLER "
				},
				"gasEstimates": {
					"creation": {
						"codeDepositCost": "245200",
						"executionCost": "285",
						"totalCost": "245485"
					},
					"external": {
						"checkBalance()": "2540",
						"deposit(uint256)": "infinite",
						"withdraw(uint256)": "infinite"
					}
				},
				"methodIdentifiers": {
					"checkBalance()": "c71daccb",
					"deposit(uint256)": "b6b55f25",
					"withdraw(uint256)": "2e1a7d4d"
				}
			},
			"storageLayout": {
				"storage": [
					{
						"astId": 23,
						"contract": "ITransaction.sol:Marketplace",
						"label": "balances",
						"offset": 0,
						"slot": "0",
						"type": "t_mapping(t_address,t_uint256)"
					}
				],
				"types": {
					"t_address": {
						"encoding": "inplace",
						"label": "address",
						"numberOfBytes": "20"
					},
					"t_mapping(t_address,t_uint256)": {
						"encoding": "mapping",
						"key": "t_address",
						"label": "mapping(address => uint256)",
						"numberOfBytes": "32",
						"value": "t_uint256"
					},
					"t_uint256": {
						"encoding": "inplace",
						"label": "uint256",
						"numberOfBytes": "32"
					}
				}
			},
			"userdoc": {
				"kind": "user",
				"methods": {},
				"version": 1
			}
		}
	}
}