{
	"PalengkeLedger.sol": {
		"PalengkeLedger": {
			"abi": [
				{
					"inputs": [],
					"name": "isTransactionSuccessful",
					"outputs": [
						{
							"internalType": "bool",
							"name": "",
							"type": "bool"
						}
					],
					"stateMutability": "view",
					"type": "function"
				},
				{
					"inputs": [
						{
							"internalType": "address",
							"name": "_vendor",
							"type": "address"
						},
						{
							"internalType": "string",
							"name": "_vendorName",
							"type": "string"
						},
						{
							"internalType": "uint256",
							"name": "_saleAmount",
							"type": "uint256"
						}
					],
					"name": "recordSale",
					"outputs": [],
					"stateMutability": "nonpayable",
					"type": "function"
				},
				{
					"inputs": [],
					"name": "totalSales",
					"outputs": [
						{
							"internalType": "uint256",
							"name": "",
							"type": "uint256"
						}
					],
					"stateMutability": "view",
					"type": "function"
				},
				{
					"inputs": [],
					"name": "transactionStatus",
					"outputs": [
						{
							"internalType": "bool",
							"name": "",
							"type": "bool"
						}
					],
					"stateMutability": "view",
					"type": "function"
				},
				{
					"inputs": [],
					"name": "vendorName",
					"outputs": [
						{
							"internalType": "string",
							"name": "",
							"type": "string"
						}
					],
					"stateMutability": "view",
					"type": "function"
				},
				{
					"inputs": [
						{
							"internalType": "address",
							"name": "",
							"type": "address"
						}
					],
					"name": "vendorSales",
					"outputs": [
						{
							"internalType": "uint256",
							"name": "",
							"type": "uint256"
						}
					],
					"stateMutability": "view",
					"type": "function"
				}
			],
			"devdoc": {
				"kind": "dev",
				"methods": {},
				"version": 1
			},
			"evm": {
				"assembly": "    /* \"PalengkeLedger.sol\":60:724  contract PalengkeLedger {... */\n  mstore(0x40, 0x80)\n  callvalue\n  dup1\n  iszero\n  tag_1\n  jumpi\n  revert(0x00, 0x00)\ntag_1:\n  pop\n  dataSize(sub_0)\n  dup1\n  dataOffset(sub_0)\n  0x00\n  codecopy\n  0x00\n  return\nstop\n\nsub_0: assembly {\n        /* \"PalengkeLedger.sol\":60:724  contract PalengkeLedger {... */\n      mstore(0x40, 0x80)\n      callvalue\n      dup1\n      iszero\n      tag_1\n      jumpi\n      revert(0x00, 0x00)\n    tag_1:\n      pop\n      jumpi(tag_2, lt(calldatasize, 0x04))\n      shr(0xe0, calldataload(0x00))\n      dup1\n      0x16dd1f69\n      eq\n      tag_3\n      jumpi\n      dup1\n      0x390493be\n      eq\n      tag_4\n      jumpi\n      dup1\n      0x4e4ffcb8\n      eq\n      tag_5\n      jumpi\n      dup1\n      0x4ed224d0\n      eq\n      tag_6\n      jumpi\n      dup1\n      0x6605ff66\n      eq\n      tag_7\n      jumpi\n      dup1\n      0xc2bb3d0f\n      eq\n      tag_8\n      jumpi\n    tag_2:\n      revert(0x00, 0x00)\n        /* \"PalengkeLedger.sol\":213:242  bool public transactionStatus */\n    tag_3:\n      tag_9\n      tag_10\n      jump\t// in\n    tag_9:\n      mload(0x40)\n      tag_11\n      swap2\n      swap1\n      tag_12\n      jump\t// in\n    tag_11:\n      mload(0x40)\n      dup1\n      swap2\n      sub\n      swap1\n      return\n        /* \"PalengkeLedger.sol\":150:174  string public vendorName */\n    tag_4:\n      tag_13\n      tag_14\n      jump\t// in\n    tag_13:\n      mload(0x40)\n      tag_15\n      swap2\n      swap1\n      tag_16\n      jump\t// in\n    tag_15:\n      mload(0x40)\n      dup1\n      swap2\n      sub\n      swap1\n      return\n        /* \"PalengkeLedger.sol\":316:602  function recordSale(... */\n    tag_5:\n      tag_17\n      0x04\n      dup1\n      calldatasize\n      sub\n      dup2\n      add\n      swap1\n      tag_18\n      swap2\n      swap1\n      tag_19\n      jump\t// in\n    tag_18:\n      tag_20\n      jump\t// in\n    tag_17:\n      stop\n        /* \"PalengkeLedger.sol\":261:307  mapping(address => uint256) public vendorSales */\n    tag_6:\n      tag_21\n      0x04\n      dup1\n      calldatasize\n      sub\n      dup2\n      add\n      swap1\n      tag_22\n      swap2\n      swap1\n      tag_23\n      jump\t// in\n    tag_22:\n      tag_24\n      jump\t// in\n    tag_21:\n      mload(0x40)\n      tag_25\n      swap2\n      swap1\n      tag_26\n      jump\t// in\n    tag_25:\n      mload(0x40)\n      dup1\n      swap2\n      sub\n      swap1\n      return\n        /* \"PalengkeLedger.sol\":181:206  uint256 public totalSales */\n    tag_7:\n      tag_27\n      tag_28\n      jump\t// in\n    tag_27:\n      mload(0x40)\n      tag_29\n      swap2\n      swap1\n      tag_26\n      jump\t// in\n    tag_29:\n      mload(0x40)\n      dup1\n      swap2\n      sub\n      swap1\n      return\n        /* \"PalengkeLedger.sol\":616:721  function isTransactionSuccessful() public view returns (bool) {... */\n    tag_8:\n      tag_30\n      tag_31\n      jump\t// in\n    tag_30:\n      mload(0x40)\n      tag_32\n      swap2\n      swap1\n      tag_12\n      jump\t// in\n    tag_32:\n      mload(0x40)\n      dup1\n      swap2\n      sub\n      swap1\n      return\n        /* \"PalengkeLedger.sol\":213:242  bool public transactionStatus */\n    tag_10:\n      0x02\n      0x00\n      swap1\n      sload\n      swap1\n      0x0100\n      exp\n      swap1\n      div\n      0xff\n      and\n      dup2\n      jump\t// out\n        /* \"PalengkeLedger.sol\":150:174  string public vendorName */\n    tag_14:\n      0x00\n      dup1\n      sload\n      tag_33\n      swap1\n      tag_34\n      jump\t// in\n    tag_33:\n      dup1\n      0x1f\n      add\n      0x20\n      dup1\n      swap2\n      div\n      mul\n      0x20\n      add\n      mload(0x40)\n      swap1\n      dup2\n      add\n      0x40\n      mstore\n      dup1\n      swap3\n      swap2\n      swap1\n      dup2\n      dup2\n      mstore\n      0x20\n      add\n      dup3\n      dup1\n      sload\n      tag_35\n      swap1\n      tag_34\n      jump\t// in\n    tag_35:\n      dup1\n      iszero\n      tag_36\n      jumpi\n      dup1\n      0x1f\n      lt\n      tag_37\n      jumpi\n      0x0100\n      dup1\n      dup4\n      sload\n      div\n      mul\n      dup4\n      mstore\n      swap2\n      0x20\n      add\n      swap2\n      jump(tag_36)\n    tag_37:\n      dup3\n      add\n      swap2\n      swap1\n      0x00\n      mstore\n      keccak256(0x00, 0x20)\n      swap1\n    tag_38:\n      dup2\n      sload\n      dup2\n      mstore\n      swap1\n      0x01\n      add\n      swap1\n      0x20\n      add\n      dup1\n      dup4\n      gt\n      tag_38\n      jumpi\n      dup3\n      swap1\n      sub\n      0x1f\n      and\n      dup3\n      add\n      swap2\n    tag_36:\n      pop\n      pop\n      pop\n      pop\n      pop\n      dup2\n      jump\t// out\n        /* \"PalengkeLedger.sol\":316:602  function recordSale(... */\n    tag_20:\n        /* \"PalengkeLedger.sol\":466:477  _vendorName */\n      dup2\n        /* \"PalengkeLedger.sol\":453:463  vendorName */\n      0x00\n        /* \"PalengkeLedger.sol\":453:477  vendorName = _vendorName */\n      swap1\n      dup2\n      tag_40\n      swap2\n      swap1\n      tag_41\n      jump\t// in\n    tag_40:\n      pop\n        /* \"PalengkeLedger.sol\":502:513  _saleAmount */\n      dup1\n        /* \"PalengkeLedger.sol\":488:498  totalSales */\n      0x01\n      0x00\n        /* \"PalengkeLedger.sol\":488:513  totalSales += _saleAmount */\n      dup3\n      dup3\n      sload\n      tag_42\n      swap2\n      swap1\n      tag_43\n      jump\t// in\n    tag_42:\n      swap3\n      pop\n      pop\n      dup2\n      swap1\n      sstore\n      pop\n        /* \"PalengkeLedger.sol\":548:559  _saleAmount */\n      dup1\n        /* \"PalengkeLedger.sol\":524:535  vendorSales */\n      0x03\n        /* \"PalengkeLedger.sol\":524:544  vendorSales[_vendor] */\n      0x00\n        /* \"PalengkeLedger.sol\":536:543  _vendor */\n      dup6\n        /* \"PalengkeLedger.sol\":524:544  vendorSales[_vendor] */\n      0xffffffffffffffffffffffffffffffffffffffff\n      and\n      0xffffffffffffffffffffffffffffffffffffffff\n      and\n      dup2\n      mstore\n      0x20\n      add\n      swap1\n      dup2\n      mstore\n      0x20\n      add\n      0x00\n      keccak256\n      0x00\n        /* \"PalengkeLedger.sol\":524:559  vendorSales[_vendor] += _saleAmount */\n      dup3\n      dup3\n      sload\n      tag_44\n      swap2\n      swap1\n      tag_43\n      jump\t// in\n    tag_44:\n      swap3\n      pop\n      pop\n      dup2\n      swap1\n      sstore\n      pop\n        /* \"PalengkeLedger.sol\":590:594  true */\n      0x01\n        /* \"PalengkeLedger.sol\":570:587  transactionStatus */\n      0x02\n      0x00\n        /* \"PalengkeLedger.sol\":570:594  transactionStatus = true */\n      0x0100\n      exp\n      dup2\n      sload\n      dup2\n      0xff\n      mul\n      not\n      and\n      swap1\n      dup4\n      iszero\n      iszero\n      mul\n      or\n      swap1\n      sstore\n      pop\n        /* \"PalengkeLedger.sol\":316:602  function recordSale(... */\n      pop\n      pop\n      pop\n      jump\t// out\n        /* \"PalengkeLedger.sol\":261:307  mapping(address => uint256) public vendorSales */\n    tag_24:\n      mstore(0x20, 0x03)\n      dup1\n      0x00\n      mstore\n      keccak256(0x00, 0x40)\n      0x00\n      swap2\n      pop\n      swap1\n      pop\n      sload\n      dup2\n      jump\t// out\n        /* \"PalengkeLedger.sol\":181:206  uint256 public totalSales */\n    tag_28:\n      sload(0x01)\n      dup2\n      jump\t// out\n        /* \"PalengkeLedger.sol\":616:721  function isTransactionSuccessful() public view returns (bool) {... */\n    tag_31:\n        /* \"PalengkeLedger.sol\":672:676  bool */\n      0x00\n        /* \"PalengkeLedger.sol\":696:713  transactionStatus */\n      0x02\n      0x00\n      swap1\n      sload\n      swap1\n      0x0100\n      exp\n      swap1\n      div\n      0xff\n      and\n        /* \"PalengkeLedger.sol\":689:713  return transactionStatus */\n      swap1\n      pop\n        /* \"PalengkeLedger.sol\":616:721  function isTransactionSuccessful() public view returns (bool) {... */\n      swap1\n      jump\t// out\n        /* \"#utility.yul\":7:97   */\n    tag_46:\n        /* \"#utility.yul\":41:48   */\n      0x00\n        /* \"#utility.yul\":84:89   */\n      dup2\n        /* \"#utility.yul\":77:90   */\n      iszero\n        /* \"#utility.yul\":70:91   */\n      iszero\n        /* \"#utility.yul\":59:91   */\n      swap1\n      pop\n        /* \"#utility.yul\":7:97   */\n      swap2\n      swap1\n      pop\n      jump\t// out\n        /* \"#utility.yul\":103:212   */\n    tag_47:\n        /* \"#utility.yul\":184:205   */\n      tag_93\n        /* \"#utility.yul\":199:204   */\n      dup2\n        /* \"#utility.yul\":184:205   */\n      tag_46\n      jump\t// in\n    tag_93:\n        /* \"#utility.yul\":179:182   */\n      dup3\n        /* \"#utility.yul\":172:206   */\n      mstore\n        /* \"#utility.yul\":103:212   */\n      pop\n      pop\n      jump\t// out\n        /* \"#utility.yul\":218:428   */\n    tag_12:\n        /* \"#utility.yul\":305:309   */\n      0x00\n        /* \"#utility.yul\":343:345   */\n      0x20\n        /* \"#utility.yul\":332:341   */\n      dup3\n        /* \"#utility.yul\":328:346   */\n      add\n        /* \"#utility.yul\":320:346   */\n      swap1\n      pop\n        /* \"#utility.yul\":356:421   */\n      tag_95\n        /* \"#utility.yul\":418:419   */\n      0x00\n        /* \"#utility.yul\":407:416   */\n      dup4\n        /* \"#utility.yul\":403:420   */\n      add\n        /* \"#utility.yul\":394:400   */\n      dup5\n        /* \"#utility.yul\":356:421   */\n      tag_47\n      jump\t// in\n    tag_95:\n        /* \"#utility.yul\":218:428   */\n      swap3\n      swap2\n      pop\n      pop\n      jump\t// out\n        /* \"#utility.yul\":434:533   */\n    tag_48:\n        /* \"#utility.yul\":486:492   */\n      0x00\n        /* \"#utility.yul\":520:525   */\n      dup2\n        /* \"#utility.yul\":514:526   */\n      mload\n        /* \"#utility.yul\":504:526   */\n      swap1\n      pop\n        /* \"#utility.yul\":434:533   */\n      swap2\n      swap1\n      pop\n      jump\t// out\n        /* \"#utility.yul\":539:708   */\n    tag_49:\n        /* \"#utility.yul\":623:634   */\n      0x00\n        /* \"#utility.yul\":657:663   */\n      dup3\n        /* \"#utility.yul\":652:655   */\n      dup3\n        /* \"#utility.yul\":645:664   */\n      mstore\n        /* \"#utility.yul\":697:701   */\n      0x20\n        /* \"#utility.yul\":692:695   */\n      dup3\n        /* \"#utility.yul\":688:702   */\n      add\n        /* \"#utility.yul\":673:702   */\n      swap1\n      pop\n        /* \"#utility.yul\":539:708   */\n      swap3\n      swap2\n      pop\n      pop\n      jump\t// out\n        /* \"#utility.yul\":714:853   */\n    tag_50:\n        /* \"#utility.yul\":803:809   */\n      dup3\n        /* \"#utility.yul\":798:801   */\n      dup2\n        /* \"#utility.yul\":793:796   */\n      dup4\n        /* \"#utility.yul\":787:810   */\n      mcopy\n        /* \"#utility.yul\":844:845   */\n      0x00\n        /* \"#utility.yul\":835:841   */\n      dup4\n        /* \"#utility.yul\":830:833   */\n      dup4\n        /* \"#utility.yul\":826:842   */\n      add\n        /* \"#utility.yul\":819:846   */\n      mstore\n        /* \"#utility.yul\":714:853   */\n      pop\n      pop\n      pop\n      jump\t// out\n        /* \"#utility.yul\":859:961   */\n    tag_51:\n        /* \"#utility.yul\":900:906   */\n      0x00\n        /* \"#utility.yul\":951:953   */\n      0x1f\n        /* \"#utility.yul\":947:954   */\n      not\n        /* \"#utility.yul\":942:944   */\n      0x1f\n        /* \"#utility.yul\":935:940   */\n      dup4\n        /* \"#utility.yul\":931:945   */\n      add\n        /* \"#utility.yul\":927:955   */\n      and\n        /* \"#utility.yul\":917:955   */\n      swap1\n      pop\n        /* \"#utility.yul\":859:961   */\n      swap2\n      swap1\n      pop\n      jump\t// out\n        /* \"#utility.yul\":967:1344   */\n    tag_52:\n        /* \"#utility.yul\":1055:1058   */\n      0x00\n        /* \"#utility.yul\":1083:1122   */\n      tag_101\n        /* \"#utility.yul\":1116:1121   */\n      dup3\n        /* \"#utility.yul\":1083:1122   */\n      tag_48\n      jump\t// in\n    tag_101:\n        /* \"#utility.yul\":1138:1209   */\n      tag_102\n        /* \"#utility.yul\":1202:1208   */\n      dup2\n        /* \"#utility.yul\":1197:1200   */\n      dup6\n        /* \"#utility.yul\":1138:1209   */\n      tag_49\n      jump\t// in\n    tag_102:\n        /* \"#utility.yul\":1131:1209   */\n      swap4\n      pop\n        /* \"#utility.yul\":1218:1283   */\n      tag_103\n        /* \"#utility.yul\":1276:1282   */\n      dup2\n        /* \"#utility.yul\":1271:1274   */\n      dup6\n        /* \"#utility.yul\":1264:1268   */\n      0x20\n        /* \"#utility.yul\":1257:1262   */\n      dup7\n        /* \"#utility.yul\":1253:1269   */\n      add\n        /* \"#utility.yul\":1218:1283   */\n      tag_50\n      jump\t// in\n    tag_103:\n        /* \"#utility.yul\":1308:1337   */\n      tag_104\n        /* \"#utility.yul\":1330:1336   */\n      dup2\n        /* \"#utility.yul\":1308:1337   */\n      tag_51\n      jump\t// in\n    tag_104:\n        /* \"#utility.yul\":1303:1306   */\n      dup5\n        /* \"#utility.yul\":1299:1338   */\n      add\n        /* \"#utility.yul\":1292:1338   */\n      swap2\n      pop\n        /* \"#utility.yul\":1059:1344   */\n      pop\n        /* \"#utility.yul\":967:1344   */\n      swap3\n      swap2\n      pop\n      pop\n      jump\t// out\n        /* \"#utility.yul\":1350:1663   */\n    tag_16:\n        /* \"#utility.yul\":1463:1467   */\n      0x00\n        /* \"#utility.yul\":1501:1503   */\n      0x20\n        /* \"#utility.yul\":1490:1499   */\n      dup3\n        /* \"#utility.yul\":1486:1504   */\n      add\n        /* \"#utility.yul\":1478:1504   */\n      swap1\n      pop\n        /* \"#utility.yul\":1550:1559   */\n      dup2\n        /* \"#utility.yul\":1544:1548   */\n      dup2\n        /* \"#utility.yul\":1540:1560   */\n      sub\n        /* \"#utility.yul\":1536:1537   */\n      0x00\n        /* \"#utility.yul\":1525:1534   */\n      dup4\n        /* \"#utility.yul\":1521:1538   */\n      add\n        /* \"#utility.yul\":1514:1561   */\n      mstore\n        /* \"#utility.yul\":1578:1656   */\n      tag_106\n        /* \"#utility.yul\":1651:1655   */\n      dup2\n        /* \"#utility.yul\":1642:1648   */\n      dup5\n        /* \"#utility.yul\":1578:1656   */\n      tag_52\n      jump\t// in\n    tag_106:\n        /* \"#utility.yul\":1570:1656   */\n      swap1\n      pop\n        /* \"#utility.yul\":1350:1663   */\n      swap3\n      swap2\n      pop\n      pop\n      jump\t// out\n        /* \"#utility.yul\":1669:1744   */\n    tag_53:\n        /* \"#utility.yul\":1702:1708   */\n      0x00\n        /* \"#utility.yul\":1735:1737   */\n      0x40\n        /* \"#utility.yul\":1729:1738   */\n      mload\n        /* \"#utility.yul\":1719:1738   */\n      swap1\n      pop\n        /* \"#utility.yul\":1669:1744   */\n      swap1\n      jump\t// out\n        /* \"#utility.yul\":1750:1867   */\n    tag_54:\n        /* \"#utility.yul\":1859:1860   */\n      0x00\n        /* \"#utility.yul\":1856:1857   */\n      0x00\n        /* \"#utility.yul\":1849:1861   */\n      revert\n        /* \"#utility.yul\":1873:1990   */\n    tag_55:\n        /* \"#utility.yul\":1982:1983   */\n      0x00\n        /* \"#utility.yul\":1979:1980   */\n      0x00\n        /* \"#utility.yul\":1972:1984   */\n      revert\n        /* \"#utility.yul\":1996:2122   */\n    tag_56:\n        /* \"#utility.yul\":2033:2040   */\n      0x00\n        /* \"#utility.yul\":2073:2115   */\n      0xffffffffffffffffffffffffffffffffffffffff\n        /* \"#utility.yul\":2066:2071   */\n      dup3\n        /* \"#utility.yul\":2062:2116   */\n      and\n        /* \"#utility.yul\":2051:2116   */\n      swap1\n      pop\n        /* \"#utility.yul\":1996:2122   */\n      swap2\n      swap1\n      pop\n      jump\t// out\n        /* \"#utility.yul\":2128:2224   */\n    tag_57:\n        /* \"#utility.yul\":2165:2172   */\n      0x00\n        /* \"#utility.yul\":2194:2218   */\n      tag_112\n        /* \"#utility.yul\":2212:2217   */\n      dup3\n        /* \"#utility.yul\":2194:2218   */\n      tag_56\n      jump\t// in\n    tag_112:\n        /* \"#utility.yul\":2183:2218   */\n      swap1\n      pop\n        /* \"#utility.yul\":2128:2224   */\n      swap2\n      swap1\n      pop\n      jump\t// out\n        /* \"#utility.yul\":2230:2352   */\n    tag_58:\n        /* \"#utility.yul\":2303:2327   */\n      tag_114\n        /* \"#utility.yul\":2321:2326   */\n      dup2\n        /* \"#utility.yul\":2303:2327   */\n      tag_57\n      jump\t// in\n    tag_114:\n        /* \"#utility.yul\":2296:2301   */\n      dup2\n        /* \"#utility.yul\":2293:2328   */\n      eq\n        /* \"#utility.yul\":2283:2346   */\n      tag_115\n      jumpi\n        /* \"#utility.yul\":2342:2343   */\n      0x00\n        /* \"#utility.yul\":2339:2340   */\n      0x00\n        /* \"#utility.yul\":2332:2344   */\n      revert\n        /* \"#utility.yul\":2283:2346   */\n    tag_115:\n        /* \"#utility.yul\":2230:2352   */\n      pop\n      jump\t// out\n        /* \"#utility.yul\":2358:2497   */\n    tag_59:\n        /* \"#utility.yul\":2404:2409   */\n      0x00\n        /* \"#utility.yul\":2442:2448   */\n      dup2\n        /* \"#utility.yul\":2429:2449   */\n      calldataload\n        /* \"#utility.yul\":2420:2449   */\n      swap1\n      pop\n        /* \"#utility.yul\":2458:2491   */\n      tag_117\n        /* \"#utility.yul\":2485:2490   */\n      dup2\n        /* \"#utility.yul\":2458:2491   */\n      tag_58\n      jump\t// in\n    tag_117:\n        /* \"#utility.yul\":2358:2497   */\n      swap3\n      swap2\n      pop\n      pop\n      jump\t// out\n        /* \"#utility.yul\":2503:2620   */\n    tag_60:\n        /* \"#utility.yul\":2612:2613   */\n      0x00\n        /* \"#utility.yul\":2609:2610   */\n      0x00\n        /* \"#utility.yul\":2602:2614   */\n      revert\n        /* \"#utility.yul\":2626:2743   */\n    tag_61:\n        /* \"#utility.yul\":2735:2736   */\n      0x00\n        /* \"#utility.yul\":2732:2733   */\n      0x00\n        /* \"#utility.yul\":2725:2737   */\n      revert\n        /* \"#utility.yul\":2749:2929   */\n    tag_62:\n        /* \"#utility.yul\":2797:2874   */\n      0x4e487b7100000000000000000000000000000000000000000000000000000000\n        /* \"#utility.yul\":2794:2795   */\n      0x00\n        /* \"#utility.yul\":2787:2875   */\n      mstore\n        /* \"#utility.yul\":2894:2898   */\n      0x41\n        /* \"#utility.yul\":2891:2892   */\n      0x04\n        /* \"#utility.yul\":2884:2899   */\n      mstore\n        /* \"#utility.yul\":2918:2922   */\n      0x24\n        /* \"#utility.yul\":2915:2916   */\n      0x00\n        /* \"#utility.yul\":2908:2923   */\n      revert\n        /* \"#utility.yul\":2935:3216   */\n    tag_63:\n        /* \"#utility.yul\":3018:3045   */\n      tag_122\n        /* \"#utility.yul\":3040:3044   */\n      dup3\n        /* \"#utility.yul\":3018:3045   */\n      tag_51\n      jump\t// in\n    tag_122:\n        /* \"#utility.yul\":3010:3016   */\n      dup2\n        /* \"#utility.yul\":3006:3046   */\n      add\n        /* \"#utility.yul\":3148:3154   */\n      dup2\n        /* \"#utility.yul\":3136:3146   */\n      dup2\n        /* \"#utility.yul\":3133:3155   */\n      lt\n        /* \"#utility.yul\":3112:3130   */\n      0xffffffffffffffff\n        /* \"#utility.yul\":3100:3110   */\n      dup3\n        /* \"#utility.yul\":3097:3131   */\n      gt\n        /* \"#utility.yul\":3094:3156   */\n      or\n        /* \"#utility.yul\":3091:3179   */\n      iszero\n      tag_123\n      jumpi\n        /* \"#utility.yul\":3159:3177   */\n      tag_124\n      tag_62\n      jump\t// in\n    tag_124:\n        /* \"#utility.yul\":3091:3179   */\n    tag_123:\n        /* \"#utility.yul\":3199:3209   */\n      dup1\n        /* \"#utility.yul\":3195:3197   */\n      0x40\n        /* \"#utility.yul\":3188:3210   */\n      mstore\n        /* \"#utility.yul\":2978:3216   */\n      pop\n        /* \"#utility.yul\":2935:3216   */\n      pop\n      pop\n      jump\t// out\n        /* \"#utility.yul\":3222:3351   */\n    tag_64:\n        /* \"#utility.yul\":3256:3262   */\n      0x00\n        /* \"#utility.yul\":3283:3303   */\n      tag_126\n      tag_53\n      jump\t// in\n    tag_126:\n        /* \"#utility.yul\":3273:3303   */\n      swap1\n      pop\n        /* \"#utility.yul\":3312:3345   */\n      tag_127\n        /* \"#utility.yul\":3340:3344   */\n      dup3\n        /* \"#utility.yul\":3332:3338   */\n      dup3\n        /* \"#utility.yul\":3312:3345   */\n      tag_63\n      jump\t// in\n    tag_127:\n        /* \"#utility.yul\":3222:3351   */\n      swap2\n      swap1\n      pop\n      jump\t// out\n        /* \"#utility.yul\":3357:3665   */\n    tag_65:\n        /* \"#utility.yul\":3419:3423   */\n      0x00\n        /* \"#utility.yul\":3509:3527   */\n      0xffffffffffffffff\n        /* \"#utility.yul\":3501:3507   */\n      dup3\n        /* \"#utility.yul\":3498:3528   */\n      gt\n        /* \"#utility.yul\":3495:3551   */\n      iszero\n      tag_129\n      jumpi\n        /* \"#utility.yul\":3531:3549   */\n      tag_130\n      tag_62\n      jump\t// in\n    tag_130:\n        /* \"#utility.yul\":3495:3551   */\n    tag_129:\n        /* \"#utility.yul\":3569:3598   */\n      tag_131\n        /* \"#utility.yul\":3591:3597   */\n      dup3\n        /* \"#utility.yul\":3569:3598   */\n      tag_51\n      jump\t// in\n    tag_131:\n        /* \"#utility.yul\":3561:3598   */\n      swap1\n      pop\n        /* \"#utility.yul\":3653:3657   */\n      0x20\n        /* \"#utility.yul\":3647:3651   */\n      dup2\n        /* \"#utility.yul\":3643:3658   */\n      add\n        /* \"#utility.yul\":3635:3658   */\n      swap1\n      pop\n        /* \"#utility.yul\":3357:3665   */\n      swap2\n      swap1\n      pop\n      jump\t// out\n        /* \"#utility.yul\":3671:3819   */\n    tag_66:\n        /* \"#utility.yul\":3769:3775   */\n      dup3\n        /* \"#utility.yul\":3764:3767   */\n      dup2\n        /* \"#utility.yul\":3759:3762   */\n      dup4\n        /* \"#utility.yul\":3746:3776   */\n      calldatacopy\n        /* \"#utility.yul\":3810:3811   */\n      0x00\n        /* \"#utility.yul\":3801:3807   */\n      dup4\n        /* \"#utility.yul\":3796:3799   */\n      dup4\n        /* \"#utility.yul\":3792:3808   */\n      add\n        /* \"#utility.yul\":3785:3812   */\n      mstore\n        /* \"#utility.yul\":3671:3819   */\n      pop\n      pop\n      pop\n      jump\t// out\n        /* \"#utility.yul\":3825:4250   */\n    tag_67:\n        /* \"#utility.yul\":3903:3908   */\n      0x00\n        /* \"#utility.yul\":3928:3994   */\n      tag_134\n        /* \"#utility.yul\":3944:3993   */\n      tag_135\n        /* \"#utility.yul\":3986:3992   */\n      dup5\n        /* \"#utility.yul\":3944:3993   */\n      tag_65\n      jump\t// in\n    tag_135:\n        /* \"#utility.yul\":3928:3994   */\n      tag_64\n      jump\t// in\n    tag_134:\n        /* \"#utility.yul\":3919:3994   */\n      swap1\n      pop\n        /* \"#utility.yul\":4017:4023   */\n      dup3\n        /* \"#utility.yul\":4010:4015   */\n      dup2\n        /* \"#utility.yul\":4003:4024   */\n      mstore\n        /* \"#utility.yul\":4055:4059   */\n      0x20\n        /* \"#utility.yul\":4048:4053   */\n      dup2\n        /* \"#utility.yul\":4044:4060   */\n      add\n        /* \"#utility.yul\":4093:4096   */\n      dup5\n        /* \"#utility.yul\":4084:4090   */\n      dup5\n        /* \"#utility.yul\":4079:4082   */\n      dup5\n        /* \"#utility.yul\":4075:4091   */\n      add\n        /* \"#utility.yul\":4072:4097   */\n      gt\n        /* \"#utility.yul\":4069:4181   */\n      iszero\n      tag_136\n      jumpi\n        /* \"#utility.yul\":4100:4179   */\n      tag_137\n      tag_61\n      jump\t// in\n    tag_137:\n        /* \"#utility.yul\":4069:4181   */\n    tag_136:\n        /* \"#utility.yul\":4190:4244   */\n      tag_138\n        /* \"#utility.yul\":4237:4243   */\n      dup5\n        /* \"#utility.yul\":4232:4235   */\n      dup3\n        /* \"#utility.yul\":4227:4230   */\n      dup6\n        /* \"#utility.yul\":4190:4244   */\n      tag_66\n      jump\t// in\n    tag_138:\n        /* \"#utility.yul\":3909:4250   */\n      pop\n        /* \"#utility.yul\":3825:4250   */\n      swap4\n      swap3\n      pop\n      pop\n      pop\n      jump\t// out\n        /* \"#utility.yul\":4270:4610   */\n    tag_68:\n        /* \"#utility.yul\":4326:4331   */\n      0x00\n        /* \"#utility.yul\":4375:4378   */\n      dup3\n        /* \"#utility.yul\":4368:4372   */\n      0x1f\n        /* \"#utility.yul\":4360:4366   */\n      dup4\n        /* \"#utility.yul\":4356:4373   */\n      add\n        /* \"#utility.yul\":4352:4379   */\n      slt\n        /* \"#utility.yul\":4342:4464   */\n      tag_140\n      jumpi\n        /* \"#utility.yul\":4383:4462   */\n      tag_141\n      tag_60\n      jump\t// in\n    tag_141:\n        /* \"#utility.yul\":4342:4464   */\n    tag_140:\n        /* \"#utility.yul\":4500:4506   */\n      dup2\n        /* \"#utility.yul\":4487:4507   */\n      calldataload\n        /* \"#utility.yul\":4525:4604   */\n      tag_142\n        /* \"#utility.yul\":4600:4603   */\n      dup5\n        /* \"#utility.yul\":4592:4598   */\n      dup3\n        /* \"#utility.yul\":4585:4589   */\n      0x20\n        /* \"#utility.yul\":4577:4583   */\n      dup7\n        /* \"#utility.yul\":4573:4590   */\n      add\n        /* \"#utility.yul\":4525:4604   */\n      tag_67\n      jump\t// in\n    tag_142:\n        /* \"#utility.yul\":4516:4604   */\n      swap2\n      pop\n        /* \"#utility.yul\":4332:4610   */\n      pop\n        /* \"#utility.yul\":4270:4610   */\n      swap3\n      swap2\n      pop\n      pop\n      jump\t// out\n        /* \"#utility.yul\":4616:4693   */\n    tag_69:\n        /* \"#utility.yul\":4653:4660   */\n      0x00\n        /* \"#utility.yul\":4682:4687   */\n      dup2\n        /* \"#utility.yul\":4671:4687   */\n      swap1\n      pop\n        /* \"#utility.yul\":4616:4693   */\n      swap2\n      swap1\n      pop\n      jump\t// out\n        /* \"#utility.yul\":4699:4821   */\n    tag_70:\n        /* \"#utility.yul\":4772:4796   */\n      tag_145\n        /* \"#utility.yul\":4790:4795   */\n      dup2\n        /* \"#utility.yul\":4772:4796   */\n      tag_69\n      jump\t// in\n    tag_145:\n        /* \"#utility.yul\":4765:4770   */\n      dup2\n        /* \"#utility.yul\":4762:4797   */\n      eq\n        /* \"#utility.yul\":4752:4815   */\n      tag_146\n      jumpi\n        /* \"#utility.yul\":4811:4812   */\n      0x00\n        /* \"#utility.yul\":4808:4809   */\n      0x00\n        /* \"#utility.yul\":4801:4813   */\n      revert\n        /* \"#utility.yul\":4752:4815   */\n    tag_146:\n        /* \"#utility.yul\":4699:4821   */\n      pop\n      jump\t// out\n        /* \"#utility.yul\":4827:4966   */\n    tag_71:\n        /* \"#utility.yul\":4873:4878   */\n      0x00\n        /* \"#utility.yul\":4911:4917   */\n      dup2\n        /* \"#utility.yul\":4898:4918   */\n      calldataload\n        /* \"#utility.yul\":4889:4918   */\n      swap1\n      pop\n        /* \"#utility.yul\":4927:4960   */\n      tag_148\n        /* \"#utility.yul\":4954:4959   */\n      dup2\n        /* \"#utility.yul\":4927:4960   */\n      tag_70\n      jump\t// in\n    tag_148:\n        /* \"#utility.yul\":4827:4966   */\n      swap3\n      swap2\n      pop\n      pop\n      jump\t// out\n        /* \"#utility.yul\":4972:5771   */\n    tag_19:\n        /* \"#utility.yul\":5059:5065   */\n      0x00\n        /* \"#utility.yul\":5067:5073   */\n      0x00\n        /* \"#utility.yul\":5075:5081   */\n      0x00\n        /* \"#utility.yul\":5124:5126   */\n      0x60\n        /* \"#utility.yul\":5112:5121   */\n      dup5\n        /* \"#utility.yul\":5103:5110   */\n      dup7\n        /* \"#utility.yul\":5099:5122   */\n      sub\n        /* \"#utility.yul\":5095:5127   */\n      slt\n        /* \"#utility.yul\":5092:5211   */\n      iszero\n      tag_150\n      jumpi\n        /* \"#utility.yul\":5130:5209   */\n      tag_151\n      tag_54\n      jump\t// in\n    tag_151:\n        /* \"#utility.yul\":5092:5211   */\n    tag_150:\n        /* \"#utility.yul\":5250:5251   */\n      0x00\n        /* \"#utility.yul\":5275:5328   */\n      tag_152\n        /* \"#utility.yul\":5320:5327   */\n      dup7\n        /* \"#utility.yul\":5311:5317   */\n      dup3\n        /* \"#utility.yul\":5300:5309   */\n      dup8\n        /* \"#utility.yul\":5296:5318   */\n      add\n        /* \"#utility.yul\":5275:5328   */\n      tag_59\n      jump\t// in\n    tag_152:\n        /* \"#utility.yul\":5265:5328   */\n      swap4\n      pop\n        /* \"#utility.yul\":5221:5338   */\n      pop\n        /* \"#utility.yul\":5405:5407   */\n      0x20\n        /* \"#utility.yul\":5394:5403   */\n      dup5\n        /* \"#utility.yul\":5390:5408   */\n      add\n        /* \"#utility.yul\":5377:5409   */\n      calldataload\n        /* \"#utility.yul\":5436:5454   */\n      0xffffffffffffffff\n        /* \"#utility.yul\":5428:5434   */\n      dup2\n        /* \"#utility.yul\":5425:5455   */\n      gt\n        /* \"#utility.yul\":5422:5539   */\n      iszero\n      tag_153\n      jumpi\n        /* \"#utility.yul\":5458:5537   */\n      tag_154\n      tag_55\n      jump\t// in\n    tag_154:\n        /* \"#utility.yul\":5422:5539   */\n    tag_153:\n        /* \"#utility.yul\":5563:5626   */\n      tag_155\n        /* \"#utility.yul\":5618:5625   */\n      dup7\n        /* \"#utility.yul\":5609:5615   */\n      dup3\n        /* \"#utility.yul\":5598:5607   */\n      dup8\n        /* \"#utility.yul\":5594:5616   */\n      add\n        /* \"#utility.yul\":5563:5626   */\n      tag_68\n      jump\t// in\n    tag_155:\n        /* \"#utility.yul\":5553:5626   */\n      swap3\n      pop\n        /* \"#utility.yul\":5348:5636   */\n      pop\n        /* \"#utility.yul\":5675:5677   */\n      0x40\n        /* \"#utility.yul\":5701:5754   */\n      tag_156\n        /* \"#utility.yul\":5746:5753   */\n      dup7\n        /* \"#utility.yul\":5737:5743   */\n      dup3\n        /* \"#utility.yul\":5726:5735   */\n      dup8\n        /* \"#utility.yul\":5722:5744   */\n      add\n        /* \"#utility.yul\":5701:5754   */\n      tag_71\n      jump\t// in\n    tag_156:\n        /* \"#utility.yul\":5691:5754   */\n      swap2\n      pop\n        /* \"#utility.yul\":5646:5764   */\n      pop\n        /* \"#utility.yul\":4972:5771   */\n      swap3\n      pop\n      swap3\n      pop\n      swap3\n      jump\t// out\n        /* \"#utility.yul\":5777:6106   */\n    tag_23:\n        /* \"#utility.yul\":5836:5842   */\n      0x00\n        /* \"#utility.yul\":5885:5887   */\n      0x20\n        /* \"#utility.yul\":5873:5882   */\n      dup3\n        /* \"#utility.yul\":5864:5871   */\n      dup5\n        /* \"#utility.yul\":5860:5883   */\n      sub\n        /* \"#utility.yul\":5856:5888   */\n      slt\n        /* \"#utility.yul\":5853:5972   */\n      iszero\n      tag_158\n      jumpi\n        /* \"#utility.yul\":5891:5970   */\n      tag_159\n      tag_54\n      jump\t// in\n    tag_159:\n        /* \"#utility.yul\":5853:5972   */\n    tag_158:\n        /* \"#utility.yul\":6011:6012   */\n      0x00\n        /* \"#utility.yul\":6036:6089   */\n      tag_160\n        /* \"#utility.yul\":6081:6088   */\n      dup5\n        /* \"#utility.yul\":6072:6078   */\n      dup3\n        /* \"#utility.yul\":6061:6070   */\n      dup6\n        /* \"#utility.yul\":6057:6079   */\n      add\n        /* \"#utility.yul\":6036:6089   */\n      tag_59\n      jump\t// in\n    tag_160:\n        /* \"#utility.yul\":6026:6089   */\n      swap2\n      pop\n        /* \"#utility.yul\":5982:6099   */\n      pop\n        /* \"#utility.yul\":5777:6106   */\n      swap3\n      swap2\n      pop\n      pop\n      jump\t// out\n        /* \"#utility.yul\":6112:6230   */\n    tag_72:\n        /* \"#utility.yul\":6199:6223   */\n      tag_162\n        /* \"#utility.yul\":6217:6222   */\n      dup2\n        /* \"#utility.yul\":6199:6223   */\n      tag_69\n      jump\t// in\n    tag_162:\n        /* \"#utility.yul\":6194:6197   */\n      dup3\n        /* \"#utility.yul\":6187:6224   */\n      mstore\n        /* \"#utility.yul\":6112:6230   */\n      pop\n      pop\n      jump\t// out\n        /* \"#utility.yul\":6236:6458   */\n    tag_26:\n        /* \"#utility.yul\":6329:6333   */\n      0x00\n        /* \"#utility.yul\":6367:6369   */\n      0x20\n        /* \"#utility.yul\":6356:6365   */\n      dup3\n        /* \"#utility.yul\":6352:6370   */\n      add\n        /* \"#utility.yul\":6344:6370   */\n      swap1\n      pop\n        /* \"#utility.yul\":6380:6451   */\n      tag_164\n        /* \"#utility.yul\":6448:6449   */\n      0x00\n        /* \"#utility.yul\":6437:6446   */\n      dup4\n        /* \"#utility.yul\":6433:6450   */\n      add\n        /* \"#utility.yul\":6424:6430   */\n      dup5\n        /* \"#utility.yul\":6380:6451   */\n      tag_72\n      jump\t// in\n    tag_164:\n        /* \"#utility.yul\":6236:6458   */\n      swap3\n      swap2\n      pop\n      pop\n      jump\t// out\n        /* \"#utility.yul\":6464:6644   */\n    tag_73:\n        /* \"#utility.yul\":6512:6589   */\n      0x4e487b7100000000000000000000000000000000000000000000000000000000\n        /* \"#utility.yul\":6509:6510   */\n      0x00\n        /* \"#utility.yul\":6502:6590   */\n      mstore\n        /* \"#utility.yul\":6609:6613   */\n      0x22\n        /* \"#utility.yul\":6606:6607   */\n      0x04\n        /* \"#utility.yul\":6599:6614   */\n      mstore\n        /* \"#utility.yul\":6633:6637   */\n      0x24\n        /* \"#utility.yul\":6630:6631   */\n      0x00\n        /* \"#utility.yul\":6623:6638   */\n      revert\n        /* \"#utility.yul\":6650:6970   */\n    tag_34:\n        /* \"#utility.yul\":6694:6700   */\n      0x00\n        /* \"#utility.yul\":6731:6732   */\n      0x02\n        /* \"#utility.yul\":6725:6729   */\n      dup3\n        /* \"#utility.yul\":6721:6733   */\n      div\n        /* \"#utility.yul\":6711:6733   */\n      swap1\n      pop\n        /* \"#utility.yul\":6778:6779   */\n      0x01\n        /* \"#utility.yul\":6772:6776   */\n      dup3\n        /* \"#utility.yul\":6768:6780   */\n      and\n        /* \"#utility.yul\":6799:6817   */\n      dup1\n        /* \"#utility.yul\":6789:6870   */\n      tag_167\n      jumpi\n        /* \"#utility.yul\":6855:6859   */\n      0x7f\n        /* \"#utility.yul\":6847:6853   */\n      dup3\n        /* \"#utility.yul\":6843:6860   */\n      and\n        /* \"#utility.yul\":6833:6860   */\n      swap2\n      pop\n        /* \"#utility.yul\":6789:6870   */\n    tag_167:\n        /* \"#utility.yul\":6917:6919   */\n      0x20\n        /* \"#utility.yul\":6909:6915   */\n      dup3\n        /* \"#utility.yul\":6906:6920   */\n      lt\n        /* \"#utility.yul\":6886:6904   */\n      dup2\n        /* \"#utility.yul\":6883:6921   */\n      sub\n        /* \"#utility.yul\":6880:6964   */\n      tag_168\n      jumpi\n        /* \"#utility.yul\":6936:6954   */\n      tag_169\n      tag_73\n      jump\t// in\n    tag_169:\n        /* \"#utility.yul\":6880:6964   */\n    tag_168:\n        /* \"#utility.yul\":6701:6970   */\n      pop\n        /* \"#utility.yul\":6650:6970   */\n      swap2\n      swap1\n      pop\n      jump\t// out\n        /* \"#utility.yul\":6976:7117   */\n    tag_74:\n        /* \"#utility.yul\":7025:7029   */\n      0x00\n        /* \"#utility.yul\":7048:7051   */\n      dup2\n        /* \"#utility.yul\":7040:7051   */\n      swap1\n      pop\n        /* \"#utility.yul\":7071:7074   */\n      dup2\n        /* \"#utility.yul\":7068:7069   */\n      0x00\n        /* \"#utility.yul\":7061:7075   */\n      mstore\n        /* \"#utility.yul\":7105:7109   */\n      0x20\n        /* \"#utility.yul\":7102:7103   */\n      0x00\n        /* \"#utility.yul\":7092:7110   */\n      keccak256\n        /* \"#utility.yul\":7084:7110   */\n      swap1\n      pop\n        /* \"#utility.yul\":6976:7117   */\n      swap2\n      swap1\n      pop\n      jump\t// out\n        /* \"#utility.yul\":7123:7216   */\n    tag_75:\n        /* \"#utility.yul\":7160:7166   */\n      0x00\n        /* \"#utility.yul\":7207:7209   */\n      0x20\n        /* \"#utility.yul\":7202:7204   */\n      0x1f\n        /* \"#utility.yul\":7195:7200   */\n      dup4\n        /* \"#utility.yul\":7191:7205   */\n      add\n        /* \"#utility.yul\":7187:7210   */\n      div\n        /* \"#utility.yul\":7177:7210   */\n      swap1\n      pop\n        /* \"#utility.yul\":7123:7216   */\n      swap2\n      swap1\n      pop\n      jump\t// out\n        /* \"#utility.yul\":7222:7329   */\n    tag_76:\n        /* \"#utility.yul\":7266:7274   */\n      0x00\n        /* \"#utility.yul\":7316:7321   */\n      dup3\n        /* \"#utility.yul\":7310:7314   */\n      dup3\n        /* \"#utility.yul\":7306:7322   */\n      shl\n        /* \"#utility.yul\":7285:7322   */\n      swap1\n      pop\n        /* \"#utility.yul\":7222:7329   */\n      swap3\n      swap2\n      pop\n      pop\n      jump\t// out\n        /* \"#utility.yul\":7335:7728   */\n    tag_77:\n        /* \"#utility.yul\":7404:7410   */\n      0x00\n        /* \"#utility.yul\":7454:7455   */\n      0x08\n        /* \"#utility.yul\":7442:7452   */\n      dup4\n        /* \"#utility.yul\":7438:7456   */\n      mul\n        /* \"#utility.yul\":7477:7574   */\n      tag_174\n        /* \"#utility.yul\":7507:7573   */\n      0xffffffffffffffffffffffffffffffffffffffffffffffffffffffffffffffff\n        /* \"#utility.yul\":7496:7505   */\n      dup3\n        /* \"#utility.yul\":7477:7574   */\n      tag_76\n      jump\t// in\n    tag_174:\n        /* \"#utility.yul\":7595:7634   */\n      tag_175\n        /* \"#utility.yul\":7625:7633   */\n      dup7\n        /* \"#utility.yul\":7614:7623   */\n      dup4\n        /* \"#utility.yul\":7595:7634   */\n      tag_76\n      jump\t// in\n    tag_175:\n        /* \"#utility.yul\":7583:7634   */\n      swap6\n      pop\n        /* \"#utility.yul\":7667:7671   */\n      dup1\n        /* \"#utility.yul\":7663:7672   */\n      not\n        /* \"#utility.yul\":7656:7661   */\n      dup5\n        /* \"#utility.yul\":7652:7673   */\n      and\n        /* \"#utility.yul\":7643:7673   */\n      swap4\n      pop\n        /* \"#utility.yul\":7716:7720   */\n      dup1\n        /* \"#utility.yul\":7706:7714   */\n      dup7\n        /* \"#utility.yul\":7702:7721   */\n      and\n        /* \"#utility.yul\":7695:7700   */\n      dup5\n        /* \"#utility.yul\":7692:7722   */\n      or\n        /* \"#utility.yul\":7682:7722   */\n      swap3\n      pop\n        /* \"#utility.yul\":7411:7728   */\n      pop\n      pop\n        /* \"#utility.yul\":7335:7728   */\n      swap4\n      swap3\n      pop\n      pop\n      pop\n      jump\t// out\n        /* \"#utility.yul\":7734:7794   */\n    tag_78:\n        /* \"#utility.yul\":7762:7765   */\n      0x00\n        /* \"#utility.yul\":7783:7788   */\n      dup2\n        /* \"#utility.yul\":7776:7788   */\n      swap1\n      pop\n        /* \"#utility.yul\":7734:7794   */\n      swap2\n      swap1\n      pop\n      jump\t// out\n        /* \"#utility.yul\":7800:7942   */\n    tag_79:\n        /* \"#utility.yul\":7850:7859   */\n      0x00\n        /* \"#utility.yul\":7883:7936   */\n      tag_178\n        /* \"#utility.yul\":7901:7935   */\n      tag_179\n        /* \"#utility.yul\":7910:7934   */\n      tag_180\n        /* \"#utility.yul\":7928:7933   */\n      dup5\n        /* \"#utility.yul\":7910:7934   */\n      tag_69\n      jump\t// in\n    tag_180:\n        /* \"#utility.yul\":7901:7935   */\n      tag_78\n      jump\t// in\n    tag_179:\n        /* \"#utility.yul\":7883:7936   */\n      tag_69\n      jump\t// in\n    tag_178:\n        /* \"#utility.yul\":7870:7936   */\n      swap1\n      pop\n        /* \"#utility.yul\":7800:7942   */\n      swap2\n      swap1\n      pop\n      jump\t// out\n        /* \"#utility.yul\":7948:8023   */\n    tag_80:\n        /* \"#utility.yul\":7991:7994   */\n      0x00\n        /* \"#utility.yul\":8012:8017   */\n      dup2\n        /* \"#utility.yul\":8005:8017   */\n      swap1\n      pop\n        /* \"#utility.yul\":7948:8023   */\n      swap2\n      swap1\n      pop\n      jump\t// out\n        /* \"#utility.yul\":8029:8298   */\n    tag_81:\n        /* \"#utility.yul\":8139:8178   */\n      tag_183\n        /* \"#utility.yul\":8170:8177   */\n      dup4\n        /* \"#utility.yul\":8139:8178   */\n      tag_79\n      jump\t// in\n    tag_183:\n        /* \"#utility.yul\":8200:8291   */\n      tag_184\n        /* \"#utility.yul\":8249:8290   */\n      tag_185\n        /* \"#utility.yul\":8273:8289   */\n      dup3\n        /* \"#utility.yul\":8249:8290   */\n      tag_80\n      jump\t// in\n    tag_185:\n        /* \"#utility.yul\":8241:8247   */\n      dup5\n        /* \"#utility.yul\":8234:8238   */\n      dup5\n        /* \"#utility.yul\":8228:8239   */\n      sload\n        /* \"#utility.yul\":8200:8291   */\n      tag_77\n      jump\t// in\n    tag_184:\n        /* \"#utility.yul\":8194:8198   */\n      dup3\n        /* \"#utility.yul\":8187:8292   */\n      sstore\n        /* \"#utility.yul\":8105:8298   */\n      pop\n        /* \"#utility.yul\":8029:8298   */\n      pop\n      pop\n      pop\n      jump\t// out\n        /* \"#utility.yul\":8304:8377   */\n    tag_82:\n        /* \"#utility.yul\":8349:8352   */\n      0x00\n        /* \"#utility.yul\":8370:8371   */\n      0x00\n        /* \"#utility.yul\":8363:8371   */\n      swap1\n      pop\n        /* \"#utility.yul\":8304:8377   */\n      swap1\n      jump\t// out\n        /* \"#utility.yul\":8383:8572   */\n    tag_83:\n        /* \"#utility.yul\":8460:8492   */\n      tag_188\n      tag_82\n      jump\t// in\n    tag_188:\n        /* \"#utility.yul\":8501:8566   */\n      tag_189\n        /* \"#utility.yul\":8559:8565   */\n      dup2\n        /* \"#utility.yul\":8551:8557   */\n      dup5\n        /* \"#utility.yul\":8545:8549   */\n      dup5\n        /* \"#utility.yul\":8501:8566   */\n      tag_81\n      jump\t// in\n    tag_189:\n        /* \"#utility.yul\":8436:8572   */\n      pop\n        /* \"#utility.yul\":8383:8572   */\n      pop\n      pop\n      jump\t// out\n        /* \"#utility.yul\":8578:8764   */\n    tag_84:\n        /* \"#utility.yul\":8638:8758   */\n    tag_191:\n        /* \"#utility.yul\":8655:8658   */\n      dup2\n        /* \"#utility.yul\":8648:8653   */\n      dup2\n        /* \"#utility.yul\":8645:8659   */\n      lt\n        /* \"#utility.yul\":8638:8758   */\n      iszero\n      tag_193\n      jumpi\n        /* \"#utility.yul\":8709:8748   */\n      tag_194\n        /* \"#utility.yul\":8746:8747   */\n      0x00\n        /* \"#utility.yul\":8739:8744   */\n      dup3\n        /* \"#utility.yul\":8709:8748   */\n      tag_83\n      jump\t// in\n    tag_194:\n        /* \"#utility.yul\":8682:8683   */\n      0x01\n        /* \"#utility.yul\":8675:8680   */\n      dup2\n        /* \"#utility.yul\":8671:8684   */\n      add\n        /* \"#utility.yul\":8662:8684   */\n      swap1\n      pop\n        /* \"#utility.yul\":8638:8758   */\n      jump(tag_191)\n    tag_193:\n        /* \"#utility.yul\":8578:8764   */\n      pop\n      pop\n      jump\t// out\n        /* \"#utility.yul\":8770:9313   */\n    tag_85:\n        /* \"#utility.yul\":8871:8873   */\n      0x1f\n        /* \"#utility.yul\":8866:8869   */\n      dup3\n        /* \"#utility.yul\":8863:8874   */\n      gt\n        /* \"#utility.yul\":8860:9306   */\n      iszero\n      tag_196\n      jumpi\n        /* \"#utility.yul\":8905:8943   */\n      tag_197\n        /* \"#utility.yul\":8937:8942   */\n      dup2\n        /* \"#utility.yul\":8905:8943   */\n      tag_74\n      jump\t// in\n    tag_197:\n        /* \"#utility.yul\":8989:9018   */\n      tag_198\n        /* \"#utility.yul\":9007:9017   */\n      dup5\n        /* \"#utility.yul\":8989:9018   */\n      tag_75\n      jump\t// in\n    tag_198:\n        /* \"#utility.yul\":8979:8987   */\n      dup2\n        /* \"#utility.yul\":8975:9019   */\n      add\n        /* \"#utility.yul\":9172:9174   */\n      0x20\n        /* \"#utility.yul\":9160:9170   */\n      dup6\n        /* \"#utility.yul\":9157:9175   */\n      lt\n        /* \"#utility.yul\":9154:9203   */\n      iszero\n      tag_199\n      jumpi\n        /* \"#utility.yul\":9193:9201   */\n      dup2\n        /* \"#utility.yul\":9178:9201   */\n      swap1\n      pop\n        /* \"#utility.yul\":9154:9203   */\n    tag_199:\n        /* \"#utility.yul\":9216:9296   */\n      tag_200\n        /* \"#utility.yul\":9272:9294   */\n      tag_201\n        /* \"#utility.yul\":9290:9293   */\n      dup6\n        /* \"#utility.yul\":9272:9294   */\n      tag_75\n      jump\t// in\n    tag_201:\n        /* \"#utility.yul\":9262:9270   */\n      dup4\n        /* \"#utility.yul\":9258:9295   */\n      add\n        /* \"#utility.yul\":9245:9256   */\n      dup3\n        /* \"#utility.yul\":9216:9296   */\n      tag_84\n      jump\t// in\n    tag_200:\n        /* \"#utility.yul\":8875:9306   */\n      pop\n      pop\n        /* \"#utility.yul\":8860:9306   */\n    tag_196:\n        /* \"#utility.yul\":8770:9313   */\n      pop\n      pop\n      pop\n      jump\t// out\n        /* \"#utility.yul\":9319:9436   */\n    tag_86:\n        /* \"#utility.yul\":9373:9381   */\n      0x00\n        /* \"#utility.yul\":9423:9428   */\n      dup3\n        /* \"#utility.yul\":9417:9421   */\n      dup3\n        /* \"#utility.yul\":9413:9429   */\n      shr\n        /* \"#utility.yul\":9392:9429   */\n      swap1\n      pop\n        /* \"#utility.yul\":9319:9436   */\n      swap3\n      swap2\n      pop\n      pop\n      jump\t// out\n        /* \"#utility.yul\":9442:9611   */\n    tag_87:\n        /* \"#utility.yul\":9486:9492   */\n      0x00\n        /* \"#utility.yul\":9519:9570   */\n      tag_204\n        /* \"#utility.yul\":9567:9568   */\n      0x00\n        /* \"#utility.yul\":9563:9569   */\n      not\n        /* \"#utility.yul\":9555:9560   */\n      dup5\n        /* \"#utility.yul\":9552:9553   */\n      0x08\n        /* \"#utility.yul\":9548:9561   */\n      mul\n        /* \"#utility.yul\":9519:9570   */\n      tag_86\n      jump\t// in\n    tag_204:\n        /* \"#utility.yul\":9515:9571   */\n      not\n        /* \"#utility.yul\":9600:9604   */\n      dup1\n        /* \"#utility.yul\":9594:9598   */\n      dup4\n        /* \"#utility.yul\":9590:9605   */\n      and\n        /* \"#utility.yul\":9580:9605   */\n      swap2\n      pop\n        /* \"#utility.yul\":9493:9611   */\n      pop\n        /* \"#utility.yul\":9442:9611   */\n      swap3\n      swap2\n      pop\n      pop\n      jump\t// out\n        /* \"#utility.yul\":9616:9911   */\n    tag_88:\n        /* \"#utility.yul\":9692:9696   */\n      0x00\n        /* \"#utility.yul\":9838:9867   */\n      tag_206\n        /* \"#utility.yul\":9863:9866   */\n      dup4\n        /* \"#utility.yul\":9857:9861   */\n      dup4\n        /* \"#utility.yul\":9838:9867   */\n      tag_87\n      jump\t// in\n    tag_206:\n        /* \"#utility.yul\":9830:9867   */\n      swap2\n      pop\n        /* \"#utility.yul\":9900:9903   */\n      dup3\n        /* \"#utility.yul\":9897:9898   */\n      0x02\n        /* \"#utility.yul\":9893:9904   */\n      mul\n        /* \"#utility.yul\":9887:9891   */\n      dup3\n        /* \"#utility.yul\":9884:9905   */\n      or\n        /* \"#utility.yul\":9876:9905   */\n      swap1\n      pop\n        /* \"#utility.yul\":9616:9911   */\n      swap3\n      swap2\n      pop\n      pop\n      jump\t// out\n        /* \"#utility.yul\":9916:11311   */\n    tag_41:\n        /* \"#utility.yul\":10033:10070   */\n      tag_208\n        /* \"#utility.yul\":10066:10069   */\n      dup3\n        /* \"#utility.yul\":10033:10070   */\n      tag_48\n      jump\t// in\n    tag_208:\n        /* \"#utility.yul\":10135:10153   */\n      0xffffffffffffffff\n        /* \"#utility.yul\":10127:10133   */\n      dup2\n        /* \"#utility.yul\":10124:10154   */\n      gt\n        /* \"#utility.yul\":10121:10177   */\n      iszero\n      tag_209\n      jumpi\n        /* \"#utility.yul\":10157:10175   */\n      tag_210\n      tag_62\n      jump\t// in\n    tag_210:\n        /* \"#utility.yul\":10121:10177   */\n    tag_209:\n        /* \"#utility.yul\":10201:10239   */\n      tag_211\n        /* \"#utility.yul\":10233:10237   */\n      dup3\n        /* \"#utility.yul\":10227:10238   */\n      sload\n        /* \"#utility.yul\":10201:10239   */\n      tag_34\n      jump\t// in\n    tag_211:\n        /* \"#utility.yul\":10286:10353   */\n      tag_212\n        /* \"#utility.yul\":10346:10352   */\n      dup3\n        /* \"#utility.yul\":10338:10344   */\n      dup3\n        /* \"#utility.yul\":10332:10336   */\n      dup6\n        /* \"#utility.yul\":10286:10353   */\n      tag_85\n      jump\t// in\n    tag_212:\n        /* \"#utility.yul\":10380:10381   */\n      0x00\n        /* \"#utility.yul\":10404:10408   */\n      0x20\n        /* \"#utility.yul\":10391:10408   */\n      swap1\n      pop\n        /* \"#utility.yul\":10436:10438   */\n      0x1f\n        /* \"#utility.yul\":10428:10434   */\n      dup4\n        /* \"#utility.yul\":10425:10439   */\n      gt\n        /* \"#utility.yul\":10453:10454   */\n      0x01\n        /* \"#utility.yul\":10448:11066   */\n      dup2\n      eq\n      tag_214\n      jumpi\n        /* \"#utility.yul\":11110:11111   */\n      0x00\n        /* \"#utility.yul\":11127:11133   */\n      dup5\n        /* \"#utility.yul\":11124:11201   */\n      iszero\n      tag_215\n      jumpi\n        /* \"#utility.yul\":11176:11185   */\n      dup3\n        /* \"#utility.yul\":11171:11174   */\n      dup8\n        /* \"#utility.yul\":11167:11186   */\n      add\n        /* \"#utility.yul\":11161:11187   */\n      mload\n        /* \"#utility.yul\":11152:11187   */\n      swap1\n      pop\n        /* \"#utility.yul\":11124:11201   */\n    tag_215:\n        /* \"#utility.yul\":11227:11294   */\n      tag_216\n        /* \"#utility.yul\":11287:11293   */\n      dup6\n        /* \"#utility.yul\":11280:11285   */\n      dup3\n        /* \"#utility.yul\":11227:11294   */\n      tag_88\n      jump\t// in\n    tag_216:\n        /* \"#utility.yul\":11221:11225   */\n      dup7\n        /* \"#utility.yul\":11214:11295   */\n      sstore\n        /* \"#utility.yul\":11083:11305   */\n      pop\n        /* \"#utility.yul\":10418:11305   */\n      jump(tag_213)\n        /* \"#utility.yul\":10448:11066   */\n    tag_214:\n        /* \"#utility.yul\":10500:10504   */\n      0x1f\n        /* \"#utility.yul\":10496:10505   */\n      not\n        /* \"#utility.yul\":10488:10494   */\n      dup5\n        /* \"#utility.yul\":10484:10506   */\n      and\n        /* \"#utility.yul\":10534:10571   */\n      tag_217\n        /* \"#utility.yul\":10566:10570   */\n      dup7\n        /* \"#utility.yul\":10534:10571   */\n      tag_74\n      jump\t// in\n    tag_217:\n        /* \"#utility.yul\":10593:10594   */\n      0x00\n        /* \"#utility.yul\":10607:10815   */\n    tag_218:\n        /* \"#utility.yul\":10621:10628   */\n      dup3\n        /* \"#utility.yul\":10618:10619   */\n      dup2\n        /* \"#utility.yul\":10615:10629   */\n      lt\n        /* \"#utility.yul\":10607:10815   */\n      iszero\n      tag_220\n      jumpi\n        /* \"#utility.yul\":10700:10709   */\n      dup5\n        /* \"#utility.yul\":10695:10698   */\n      dup10\n        /* \"#utility.yul\":10691:10710   */\n      add\n        /* \"#utility.yul\":10685:10711   */\n      mload\n        /* \"#utility.yul\":10677:10683   */\n      dup3\n        /* \"#utility.yul\":10670:10712   */\n      sstore\n        /* \"#utility.yul\":10751:10752   */\n      0x01\n        /* \"#utility.yul\":10743:10749   */\n      dup3\n        /* \"#utility.yul\":10739:10753   */\n      add\n        /* \"#utility.yul\":10729:10753   */\n      swap2\n      pop\n        /* \"#utility.yul\":10798:10800   */\n      0x20\n        /* \"#utility.yul\":10787:10796   */\n      dup6\n        /* \"#utility.yul\":10783:10801   */\n      add\n        /* \"#utility.yul\":10770:10801   */\n      swap5\n      pop\n        /* \"#utility.yul\":10644:10648   */\n      0x20\n        /* \"#utility.yul\":10641:10642   */\n      dup2\n        /* \"#utility.yul\":10637:10649   */\n      add\n        /* \"#utility.yul\":10632:10649   */\n      swap1\n      pop\n        /* \"#utility.yul\":10607:10815   */\n      jump(tag_218)\n    tag_220:\n        /* \"#utility.yul\":10843:10849   */\n      dup7\n        /* \"#utility.yul\":10834:10841   */\n      dup4\n        /* \"#utility.yul\":10831:10850   */\n      lt\n        /* \"#utility.yul\":10828:11007   */\n      iszero\n      tag_221\n      jumpi\n        /* \"#utility.yul\":10901:10910   */\n      dup5\n        /* \"#utility.yul\":10896:10899   */\n      dup10\n        /* \"#utility.yul\":10892:10911   */\n      add\n        /* \"#utility.yul\":10886:10912   */\n      mload\n        /* \"#utility.yul\":10944:10992   */\n      tag_222\n        /* \"#utility.yul\":10986:10990   */\n      0x1f\n        /* \"#utility.yul\":10978:10984   */\n      dup10\n        /* \"#utility.yul\":10974:10991   */\n      and\n        /* \"#utility.yul\":10963:10972   */\n      dup3\n        /* \"#utility.yul\":10944:10992   */\n      tag_87\n      jump\t// in\n    tag_222:\n        /* \"#utility.yul\":10936:10942   */\n      dup4\n        /* \"#utility.yul\":10929:10993   */\n      sstore\n        /* \"#utility.yul\":10851:11007   */\n      pop\n        /* \"#utility.yul\":10828:11007   */\n    tag_221:\n        /* \"#utility.yul\":11053:11054   */\n      0x01\n        /* \"#utility.yul\":11049:11050   */\n      0x02\n        /* \"#utility.yul\":11041:11047   */\n      dup9\n        /* \"#utility.yul\":11037:11051   */\n      mul\n        /* \"#utility.yul\":11033:11055   */\n      add\n        /* \"#utility.yul\":11027:11031   */\n      dup9\n        /* \"#utility.yul\":11020:11056   */\n      sstore\n        /* \"#utility.yul\":10455:11066   */\n      pop\n      pop\n      pop\n        /* \"#utility.yul\":10418:11305   */\n    tag_213:\n      pop\n        /* \"#utility.yul\":10008:11311   */\n      pop\n      pop\n      pop\n        /* \"#utility.yul\":9916:11311   */\n      pop\n      pop\n      jump\t// out\n        /* \"#utility.yul\":11317:11497   */\n    tag_89:\n        /* \"#utility.yul\":11365:11442   */\n      0x4e487b7100000000000000000000000000000000000000000000000000000000\n        /* \"#utility.yul\":11362:11363   */\n      0x00\n        /* \"#utility.yul\":11355:11443   */\n      mstore\n        /* \"#utility.yul\":11462:11466   */\n      0x11\n        /* \"#utility.yul\":11459:11460   */\n      0x04\n        /* \"#utility.yul\":11452:11467   */\n      mstore\n        /* \"#utility.yul\":11486:11490   */\n      0x24\n        /* \"#utility.yul\":11483:11484   */\n      0x00\n        /* \"#utility.yul\":11476:11491   */\n      revert\n        /* \"#utility.yul\":11503:11694   */\n    tag_43:\n        /* \"#utility.yul\":11543:11546   */\n      0x00\n        /* \"#utility.yul\":11562:11582   */\n      tag_225\n        /* \"#utility.yul\":11580:11581   */\n      dup3\n        /* \"#utility.yul\":11562:11582   */\n      tag_69\n      jump\t// in\n    tag_225:\n        /* \"#utility.yul\":11557:11582   */\n      swap2\n      pop\n        /* \"#utility.yul\":11596:11616   */\n      tag_226\n        /* \"#utility.yul\":11614:11615   */\n      dup4\n        /* \"#utility.yul\":11596:11616   */\n      tag_69\n      jump\t// in\n    tag_226:\n        /* \"#utility.yul\":11591:11616   */\n      swap3\n      pop\n        /* \"#utility.yul\":11639:11640   */\n      dup3\n        /* \"#utility.yul\":11636:11637   */\n      dup3\n        /* \"#utility.yul\":11632:11641   */\n      add\n        /* \"#utility.yul\":11625:11641   */\n      swap1\n      pop\n        /* \"#utility.yul\":11660:11663   */\n      dup1\n        /* \"#utility.yul\":11657:11658   */\n      dup3\n        /* \"#utility.yul\":11654:11664   */\n      gt\n        /* \"#utility.yul\":11651:11687   */\n      iszero\n      tag_227\n      jumpi\n        /* \"#utility.yul\":11667:11685   */\n      tag_228\n      tag_89\n      jump\t// in\n    tag_228:\n        /* \"#utility.yul\":11651:11687   */\n    tag_227:\n        /* \"#utility.yul\":11503:11694   */\n      swap3\n      swap2\n      pop\n      pop\n      jump\t// out\n\n    auxdata: 0xa264697066735822122021f9a09c9f92145f882829fa22980f11e4a232d0463f40b74f266be558e33a4d64736f6c634300081f0033\n}\n",
				"bytecode": {
					"linkReferences": {},
					"object": "6080604052348015600e575f5ffd5b5061093c8061001c5f395ff3fe608060405234801561000f575f5ffd5b5060043610610060575f3560e01c806316dd1f6914610064578063390493be146100825780634e4ffcb8146100a05780634ed224d0146100bc5780636605ff66146100ec578063c2bb3d0f1461010a575b5f5ffd5b61006c610128565b60405161007991906102a8565b60405180910390f35b61008a61013a565b6040516100979190610331565b60405180910390f35b6100ba60048036038101906100b5919061051b565b6101c5565b005b6100d660048036038101906100d19190610587565b61025e565b6040516100e391906105c1565b60405180910390f35b6100f4610273565b60405161010191906105c1565b60405180910390f35b610112610279565b60405161011f91906102a8565b60405180910390f35b60025f9054906101000a900460ff1681565b5f805461014690610607565b80601f016020809104026020016040519081016040528092919081815260200182805461017290610607565b80156101bd5780601f10610194576101008083540402835291602001916101bd565b820191905f5260205f20905b8154815290600101906020018083116101a057829003601f168201915b505050505081565b815f90816101d391906107d7565b508060015f8282546101e591906108d3565b925050819055508060035f8573ffffffffffffffffffffffffffffffffffffffff1673ffffffffffffffffffffffffffffffffffffffff1681526020019081526020015f205f82825461023891906108d3565b92505081905550600160025f6101000a81548160ff021916908315150217905550505050565b6003602052805f5260405f205f915090505481565b60015481565b5f60025f9054906101000a900460ff16905090565b5f8115159050919050565b6102a28161028e565b82525050565b5f6020820190506102bb5f830184610299565b92915050565b5f81519050919050565b5f82825260208201905092915050565b8281835e5f83830152505050565b5f601f19601f8301169050919050565b5f610303826102c1565b61030d81856102cb565b935061031d8185602086016102db565b610326816102e9565b840191505092915050565b5f6020820190508181035f83015261034981846102f9565b905092915050565b5f604051905090565b5f5ffd5b5f5ffd5b5f73ffffffffffffffffffffffffffffffffffffffff82169050919050565b5f61038b82610362565b9050919050565b61039b81610381565b81146103a5575f5ffd5b50565b5f813590506103b681610392565b92915050565b5f5ffd5b5f5ffd5b7f4e487b71000000000000000000000000000000000000000000000000000000005f52604160045260245ffd5b6103fa826102e9565b810181811067ffffffffffffffff82111715610419576104186103c4565b5b80604052505050565b5f61042b610351565b905061043782826103f1565b919050565b5f67ffffffffffffffff821115610456576104556103c4565b5b61045f826102e9565b9050602081019050919050565b828183375f83830152505050565b5f61048c6104878461043c565b610422565b9050828152602081018484840111156104a8576104a76103c0565b5b6104b384828561046c565b509392505050565b5f82601f8301126104cf576104ce6103bc565b5b81356104df84826020860161047a565b91505092915050565b5f819050919050565b6104fa816104e8565b8114610504575f5ffd5b50565b5f81359050610515816104f1565b92915050565b5f5f5f606084860312156105325761053161035a565b5b5f61053f868287016103a8565b935050602084013567ffffffffffffffff8111156105605761055f61035e565b5b61056c868287016104bb565b925050604061057d86828701610507565b9150509250925092565b5f6020828403121561059c5761059b61035a565b5b5f6105a9848285016103a8565b91505092915050565b6105bb816104e8565b82525050565b5f6020820190506105d45f8301846105b2565b92915050565b7f4e487b71000000000000000000000000000000000000000000000000000000005f52602260045260245ffd5b5f600282049050600182168061061e57607f821691505b602082108103610631576106306105da565b5b50919050565b5f819050815f5260205f209050919050565b5f6020601f8301049050919050565b5f82821b905092915050565b5f600883026106937fffffffffffffffffffffffffffffffffffffffffffffffffffffffffffffffff82610658565b61069d8683610658565b95508019841693508086168417925050509392505050565b5f819050919050565b5f6106d86106d36106ce846104e8565b6106b5565b6104e8565b9050919050565b5f819050919050565b6106f1836106be565b6107056106fd826106df565b848454610664565b825550505050565b5f5f905090565b61071c61070d565b6107278184846106e8565b505050565b5b8181101561074a5761073f5f82610714565b60018101905061072d565b5050565b601f82111561078f5761076081610637565b61076984610649565b81016020851015610778578190505b61078c61078485610649565b83018261072c565b50505b505050565b5f82821c905092915050565b5f6107af5f1984600802610794565b1980831691505092915050565b5f6107c783836107a0565b9150826002028217905092915050565b6107e0826102c1565b67ffffffffffffffff8111156107f9576107f86103c4565b5b6108038254610607565b61080e82828561074e565b5f60209050601f83116001811461083f575f841561082d578287015190505b61083785826107bc565b86555061089e565b601f19841661084d86610637565b5f5b828110156108745784890151825560018201915060208501945060208101905061084f565b86831015610891578489015161088d601f8916826107a0565b8355505b6001600288020188555050505b505050505050565b7f4e487b71000000000000000000000000000000000000000000000000000000005f52601160045260245ffd5b5f6108dd826104e8565b91506108e8836104e8565b9250828201905080821115610900576108ff6108a6565b5b9291505056fea264697066735822122021f9a09c9f92145f882829fa22980f11e4a232d0463f40b74f266be558e33a4d64736f6c634300081f0033",
					"opcodes": "PUSH1 0x80 PUSH1 0x40 MSTORE CALLVALUE DUP1 ISZERO PUSH1 0xE JUMPI PUSH0 PUSH0 REVERT JUMPDEST POP PUSH2 0x93C DUP1 PUSH2 0x1C PUSH0 CODECOPY PUSH0 RETURN INVALID PUSH1 0x80 PUSH1 0x40 MSTORE CALLVALUE DUP1 ISZERO PUSH2 0xF JUMPI PUSH0 PUSH0 REVERT JUMPDEST POP PUSH1 0x4 CALLDATASIZE LT PUSH2 0x60 JUMPI PUSH0 CALLDATALOAD PUSH1 0xE0 SHR DUP1 PUSH4 0x16DD1F69 EQ PUSH2 0x64 JUMPI DUP1 PUSH4 0x390493BE EQ PUSH2 0x82 JUMPI DUP1 PUSH4 0x4E4FFCB8 EQ PUSH2 0xA0 JUMPI DUP1 PUSH4 0x4ED224D0 EQ PUSH2 0xBC JUMPI DUP1 PUSH4 0x6605FF66 EQ PUSH2 0xEC JUMPI DUP1 PUSH4 0xC2BB3D0F EQ PUSH2 0x10A JUMPI JUMPDEST PUSH0 PUSH0 REVERT JUMPDEST PUSH2 0x6C PUSH2 0x128 JUMP JUMPDEST PUSH1 0x40 MLOAD PUSH2 0x79 SWAP2 SWAP1 PUSH2 0x2A8 JUMP JUMPDEST PUSH1 0x40 MLOAD DUP1 SWAP2 SUB SWAP1 RETURN JUMPDEST PUSH2 0x8A PUSH2 0x13A JUMP JUMPDEST PUSH1 0x40 MLOAD PUSH2 0x97 SWAP2 SWAP1 PUSH2 0x331 JUMP JUMPDEST PUSH1 0x40 MLOAD DUP1 SWAP2 SUB SWAP1 RETURN JUMPDEST PUSH2 0xBA PUSH1 0x4 DUP1 CALLDATASIZE SUB DUP2 ADD SWAP1 PUSH2 0xB5 SWAP2 SWAP1 PUSH2 0x51B JUMP JUMPDEST PUSH2 0x1C5 JUMP JUMPDEST STOP JUMPDEST PUSH2 0xD6 PUSH1 0x4 DUP1 CALLDATASIZE SUB DUP2 ADD SWAP1 PUSH2 0xD1 SWAP2 SWAP1 PUSH2 0x587 JUMP JUMPDEST PUSH2 0x25E JUMP JUMPDEST PUSH1 0x40 MLOAD PUSH2 0xE3 SWAP2 SWAP1 PUSH2 0x5C1 JUMP JUMPDEST PUSH1 0x40 MLOAD DUP1 SWAP2 SUB SWAP1 RETURN JUMPDEST PUSH2 0xF4 PUSH2 0x273 JUMP JUMPDEST PUSH1 0x40 MLOAD PUSH2 0x101 SWAP2 SWAP1 PUSH2 0x5C1 JUMP JUMPDEST PUSH1 0x40 MLOAD DUP1 SWAP2 SUB SWAP1 RETURN JUMPDEST PUSH2 0x112 PUSH2 0x279 JUMP JUMPDEST PUSH1 0x40 MLOAD PUSH2 0x11F SWAP2 SWAP1 PUSH2 0x2A8 JUMP JUMPDEST PUSH1 0x40 MLOAD DUP1 SWAP2 SUB SWAP1 RETURN JUMPDEST PUSH1 0x2 PUSH0 SWAP1 SLOAD SWAP1 PUSH2 0x100 EXP SWAP1 DIV PUSH1 0xFF AND DUP2 JUMP JUMPDEST PUSH0 DUP1 SLOAD PUSH2 0x146 SWAP1 PUSH2 0x607 JUMP JUMPDEST DUP1 PUSH1 0x1F ADD PUSH1 0x20 DUP1 SWAP2 DIV MUL PUSH1 0x20 ADD PUSH1 0x40 MLOAD SWAP1 DUP2 ADD PUSH1 0x40 MSTORE DUP1 SWAP3 SWAP2 SWAP1 DUP2 DUP2 MSTORE PUSH1 0x20 ADD DUP3 DUP1 SLOAD PUSH2 0x172 SWAP1 PUSH2 0x607 JUMP JUMPDEST DUP1 ISZERO PUSH2 0x1BD JUMPI DUP1 PUSH1 0x1F LT PUSH2 0x194 JUMPI PUSH2 0x100 DUP1 DUP4 SLOAD DIV MUL DUP4 MSTORE SWAP2 PUSH1 0x20 ADD SWAP2 PUSH2 0x1BD JUMP JUMPDEST DUP3 ADD SWAP2 SWAP1 PUSH0 MSTORE PUSH1 0x20 PUSH0 KECCAK256 SWAP1 JUMPDEST DUP2 SLOAD DUP2 MSTORE SWAP1 PUSH1 0x1 ADD SWAP1 PUSH1 0x20 ADD DUP1 DUP4 GT PUSH2 0x1A0 JUMPI DUP3 SWAP1 SUB PUSH1 0x1F AND DUP3 ADD SWAP2 JUMPDEST POP POP POP POP POP DUP2 JUMP JUMPDEST DUP2 PUSH0 SWAP1 DUP2 PUSH2 0x1D3 SWAP2 SWAP1 PUSH2 0x7D7 JUMP JUMPDEST POP DUP1 PUSH1 0x1 PUSH0 DUP3 DUP3 SLOAD PUSH2 0x1E5 SWAP2 SWAP1 PUSH2 0x8D3 JUMP JUMPDEST SWAP3 POP POP DUP2 SWAP1 SSTORE POP DUP1 PUSH1 0x3 PUSH0 DUP6 PUSH20 0xFFFFFFFFFFFFFFFFFFFFFFFFFFFFFFFFFFFFFFFF AND PUSH20 0xFFFFFFFFFFFFFFFFFFFFFFFFFFFFFFFFFFFFFFFF AND DUP2 MSTORE PUSH1 0x20 ADD SWAP1 DUP2 MSTORE PUSH1 0x20 ADD PUSH0 KECCAK256 PUSH0 DUP3 DUP3 SLOAD PUSH2 0x238 SWAP2 SWAP1 PUSH2 0x8D3 JUMP JUMPDEST SWAP3 POP POP DUP2 SWAP1 SSTORE POP PUSH1 0x1 PUSH1 0x2 PUSH0 PUSH2 0x100 EXP DUP2 SLOAD DUP2 PUSH1 0xFF MUL NOT AND SWAP1 DUP4 ISZERO ISZERO MUL OR SWAP1 SSTORE POP POP POP POP JUMP JUMPDEST PUSH1 0x3 PUSH1 0x20 MSTORE DUP1 PUSH0 MSTORE PUSH1 0x40 PUSH0 KECCAK256 PUSH0 SWAP2 POP SWAP1 POP SLOAD DUP2 JUMP JUMPDEST PUSH1 0x1 SLOAD DUP2 JUMP JUMPDEST PUSH0 PUSH1 0x2 PUSH0 SWAP1 SLOAD SWAP1 PUSH2 0x100 EXP SWAP1 DIV PUSH1 0xFF AND SWAP1 POP SWAP1 JUMP JUMPDEST PUSH0 DUP2 ISZERO ISZERO SWAP1 POP SWAP2 SWAP1 POP JUMP JUMPDEST PUSH2 0x2A2 DUP2 PUSH2 0x28E JUMP JUMPDEST DUP3 MSTORE POP POP JUMP JUMPDEST PUSH0 PUSH1 0x20 DUP3 ADD SWAP1 POP PUSH2 0x2BB PUSH0 DUP4 ADD DUP5 PUSH2 0x299 JUMP JUMPDEST SWAP3 SWAP2 POP POP JUMP JUMPDEST PUSH0 DUP2 MLOAD SWAP1 POP SWAP2 SWAP1 POP JUMP JUMPDEST PUSH0 DUP3 DUP3 MSTORE PUSH1 0x20 DUP3 ADD SWAP1 POP SWAP3 SWAP2 POP POP JUMP JUMPDEST DUP3 DUP2 DUP4 MCOPY PUSH0 DUP4 DUP4 ADD MSTORE POP POP POP JUMP JUMPDEST PUSH0 PUSH1 0x1F NOT PUSH1 0x1F DUP4 ADD AND SWAP1 POP SWAP2 SWAP1 POP JUMP JUMPDEST PUSH0 PUSH2 0x303 DUP3 PUSH2 0x2C1 JUMP JUMPDEST PUSH2 0x30D DUP2 DUP6 PUSH2 0x2CB JUMP JUMPDEST SWAP4 POP PUSH2 0x31D DUP2 DUP6 PUSH1 0x20 DUP7 ADD PUSH2 0x2DB JUMP JUMPDEST PUSH2 0x326 DUP2 PUSH2 0x2E9 JUMP JUMPDEST DUP5 ADD SWAP2 POP POP SWAP3 SWAP2 POP POP JUMP JUMPDEST PUSH0 PUSH1 0x20 DUP3 ADD SWAP1 POP DUP2 DUP2 SUB PUSH0 DUP4 ADD MSTORE PUSH2 0x349 DUP2 DUP5 PUSH2 0x2F9 JUMP JUMPDEST SWAP1 POP SWAP3 SWAP2 POP POP JUMP JUMPDEST PUSH0 PUSH1 0x40 MLOAD SWAP1 POP SWAP1 JUMP JUMPDEST PUSH0 PUSH0 REVERT JUMPDEST PUSH0 PUSH0 REVERT JUMPDEST PUSH0 PUSH20 0xFFFFFFFFFFFFFFFFFFFFFFFFFFFFFFFFFFFFFFFF DUP3 AND SWAP1 POP SWAP2 SWAP1 POP JUMP JUMPDEST PUSH0 PUSH2 0x38B DUP3 PUSH2 0x362 JUMP JUMPDEST SWAP1 POP SWAP2 SWAP1 POP JUMP JUMPDEST PUSH2 0x39B DUP2 PUSH2 0x381 JUMP JUMPDEST DUP2 EQ PUSH2 0x3A5 JUMPI PUSH0 PUSH0 REVERT JUMPDEST POP JUMP JUMPDEST PUSH0 DUP2 CALLDATALOAD SWAP1 POP PUSH2 0x3B6 DUP2 PUSH2 0x392 JUMP JUMPDEST SWAP3 SWAP2 POP POP JUMP JUMPDEST PUSH0 PUSH0 REVERT JUMPDEST PUSH0 PUSH0 REVERT JUMPDEST PUSH32 0x4E487B7100000000000000000000000000000000000000000000000000000000 PUSH0 MSTORE PUSH1 0x41 PUSH1 0x4 MSTORE PUSH1 0x24 PUSH0 REVERT JUMPDEST PUSH2 0x3FA DUP3 PUSH2 0x2E9 JUMP JUMPDEST DUP2 ADD DUP2 DUP2 LT PUSH8 0xFFFFFFFFFFFFFFFF DUP3 GT OR ISZERO PUSH2 0x419 JUMPI PUSH2 0x418 PUSH2 0x3C4 JUMP JUMPDEST JUMPDEST DUP1 PUSH1 0x40 MSTORE POP POP POP JUMP JUMPDEST PUSH0 PUSH2 0x42B PUSH2 0x351 JUMP JUMPDEST SWAP1 POP PUSH2 0x437 DUP3 DUP3 PUSH2 0x3F1 JUMP JUMPDEST SWAP2 SWAP1 POP JUMP JUMPDEST PUSH0 PUSH8 0xFFFFFFFFFFFFFFFF DUP3 GT ISZERO PUSH2 0x456 JUMPI PUSH2 0x455 PUSH2 0x3C4 JUMP JUMPDEST JUMPDEST PUSH2 0x45F DUP3 PUSH2 0x2E9 JUMP JUMPDEST SWAP1 POP PUSH1 0x20 DUP2 ADD SWAP1 POP SWAP2 SWAP1 POP JUMP JUMPDEST DUP3 DUP2 DUP4 CALLDATACOPY PUSH0 DUP4 DUP4 ADD MSTORE POP POP POP JUMP JUMPDEST PUSH0 PUSH2 0x48C PUSH2 0x487 DUP5 PUSH2 0x43C JUMP JUMPDEST PUSH2 0x422 JUMP JUMPDEST SWAP1 POP DUP3 DUP2 MSTORE PUSH1 0x20 DUP2 ADD DUP5 DUP5 DUP5 ADD GT ISZERO PUSH2 0x4A8 JUMPI PUSH2 0x4A7 PUSH2 0x3C0 JUMP JUMPDEST JUMPDEST PUSH2 0x4B3 DUP5 DUP3 DUP6 PUSH2 0x46C JUMP JUMPDEST POP SWAP4 SWAP3 POP POP POP JUMP JUMPDEST PUSH0 DUP3 PUSH1 0x1F DUP4 ADD SLT PUSH2 0x4CF JUMPI PUSH2 0x4CE PUSH2 0x3BC JUMP JUMPDEST JUMPDEST DUP2 CALLDATALOAD PUSH2 0x4DF DUP5 DUP3 PUSH1 0x20 DUP7 ADD PUSH2 0x47A JUMP JUMPDEST SWAP2 POP POP SWAP3 SWAP2 POP POP JUMP JUMPDEST PUSH0 DUP2 SWAP1 POP SWAP2 SWAP1 POP JUMP JUMPDEST PUSH2 0x4FA DUP2 PUSH2 0x4E8 JUMP JUMPDEST DUP2 EQ PUSH2 0x504 JUMPI PUSH0 PUSH0 REVERT JUMPDEST POP JUMP JUMPDEST PUSH0 DUP2 CALLDATALOAD SWAP1 POP PUSH2 0x515 DUP2 PUSH2 0x4F1 JUMP JUMPDEST SWAP3 SWAP2 POP POP JUMP JUMPDEST PUSH0 PUSH0 PUSH0 PUSH1 0x60 DUP5 DUP7 SUB SLT ISZERO PUSH2 0x532 JUMPI PUSH2 0x531 PUSH2 0x35A JUMP JUMPDEST JUMPDEST PUSH0 PUSH2 0x53F DUP7 DUP3 DUP8 ADD PUSH2 0x3A8 JUMP JUMPDEST SWAP4 POP POP PUSH1 0x20 DUP5 ADD CALLDATALOAD PUSH8 0xFFFFFFFFFFFFFFFF DUP2 GT ISZERO PUSH2 0x560 JUMPI PUSH2 0x55F PUSH2 0x35E JUMP JUMPDEST JUMPDEST PUSH2 0x56C DUP7 DUP3 DUP8 ADD PUSH2 0x4BB JUMP JUMPDEST SWAP3 POP POP PUSH1 0x40 PUSH2 0x57D DUP7 DUP3 DUP8 ADD PUSH2 0x507 JUMP JUMPDEST SWAP2 POP POP SWAP3 POP SWAP3 POP SWAP3 JUMP JUMPDEST PUSH0 PUSH1 0x20 DUP3 DUP5 SUB SLT ISZERO PUSH2 0x59C JUMPI PUSH2 0x59B PUSH2 0x35A JUMP JUMPDEST JUMPDEST PUSH0 PUSH2 0x5A9 DUP5 DUP3 DUP6 ADD PUSH2 0x3A8 JUMP JUMPDEST SWAP2 POP POP SWAP3 SWAP2 POP POP JUMP JUMPDEST PUSH2 0x5BB DUP2 PUSH2 0x4E8 JUMP JUMPDEST DUP3 MSTORE POP POP JUMP JUMPDEST PUSH0 PUSH1 0x20 DUP3 ADD SWAP1 POP PUSH2 0x5D4 PUSH0 DUP4 ADD DUP5 PUSH2 0x5B2 JUMP JUMPDEST SWAP3 SWAP2 POP POP JUMP JUMPDEST PUSH32 0x4E487B7100000000000000000000000000000000000000000000000000000000 PUSH0 MSTORE PUSH1 0x22 PUSH1 0x4 MSTORE PUSH1 0x24 PUSH0 REVERT JUMPDEST PUSH0 PUSH1 0x2 DUP3 DIV SWAP1 POP PUSH1 0x1 DUP3 AND DUP1 PUSH2 0x61E JUMPI PUSH1 0x7F DUP3 AND SWAP2 POP JUMPDEST PUSH1 0x20 DUP3 LT DUP2 SUB PUSH2 0x631 JUMPI PUSH2 0x630 PUSH2 0x5DA JUMP JUMPDEST JUMPDEST POP SWAP2 SWAP1 POP JUMP JUMPDEST PUSH0 DUP2 SWAP1 POP DUP2 PUSH0 MSTORE PUSH1 0x20 PUSH0 KECCAK256 SWAP1 POP SWAP2 SWAP1 POP JUMP JUMPDEST PUSH0 PUSH1 0x20 PUSH1 0x1F DUP4 ADD DIV SWAP1 POP SWAP2 SWAP1 POP JUMP JUMPDEST PUSH0 DUP3 DUP3 SHL SWAP1 POP SWAP3 SWAP2 POP POP JUMP JUMPDEST PUSH0 PUSH1 0x8 DUP4 MUL PUSH2 0x693 PUSH32 0xFFFFFFFFFFFFFFFFFFFFFFFFFFFFFFFFFFFFFFFFFFFFFFFFFFFFFFFFFFFFFFFF DUP3 PUSH2 0x658 JUMP JUMPDEST PUSH2 0x69D DUP7 DUP4 PUSH2 0x658 JUMP JUMPDEST SWAP6 POP DUP1 NOT DUP5 AND SWAP4 POP DUP1 DUP7 AND DUP5 OR SWAP3 POP POP POP SWAP4 SWAP3 POP POP POP JUMP JUMPDEST PUSH0 DUP2 SWAP1 POP SWAP2 SWAP1 POP JUMP JUMPDEST PUSH0 PUSH2 0x6D8 PUSH2 0x6D3 PUSH2 0x6CE DUP5 PUSH2 0x4E8 JUMP JUMPDEST PUSH2 0x6B5 JUMP JUMPDEST PUSH2 0x4E8 JUMP JUMPDEST SWAP1 POP SWAP2 SWAP1 POP JUMP JUMPDEST PUSH0 DUP2 SWAP1 POP SWAP2 SWAP1 POP JUMP JUMPDEST PUSH2 0x6F1 DUP4 PUSH2 0x6BE JUMP JUMPDEST PUSH2 0x705 PUSH2 0x6FD DUP3 PUSH2 0x6DF JUMP JUMPDEST DUP5 DUP5 SLOAD PUSH2 0x664 JUMP JUMPDEST DUP3 SSTORE POP POP POP POP JUMP JUMPDEST PUSH0 PUSH0 SWAP1 POP SWAP1 JUMP JUMPDEST PUSH2 0x71C PUSH2 0x70D JUMP JUMPDEST PUSH2 0x727 DUP2 DUP5 DUP5 PUSH2 0x6E8 JUMP JUMPDEST POP POP POP JUMP JUMPDEST JUMPDEST DUP2 DUP2 LT ISZERO PUSH2 0x74A JUMPI PUSH2 0x73F PUSH0 DUP3 PUSH2 0x714 JUMP JUMPDEST PUSH1 0x1 DUP2 ADD SWAP1 POP PUSH2 0x72D JUMP JUMPDEST POP POP JUMP JUMPDEST PUSH1 0x1F DUP3 GT ISZERO PUSH2 0x78F JUMPI PUSH2 0x760 DUP2 PUSH2 0x637 JUMP JUMPDEST PUSH2 0x769 DUP5 PUSH2 0x649 JUMP JUMPDEST DUP2 ADD PUSH1 0x20 DUP6 LT ISZERO PUSH2 0x778 JUMPI DUP2 SWAP1 POP JUMPDEST PUSH2 0x78C PUSH2 0x784 DUP6 PUSH2 0x649 JUMP JUMPDEST DUP4 ADD DUP3 PUSH2 0x72C JUMP JUMPDEST POP POP JUMPDEST POP POP POP JUMP JUMPDEST PUSH0 DUP3 DUP3 SHR SWAP1 POP SWAP3 SWAP2 POP POP JUMP JUMPDEST PUSH0 PUSH2 0x7AF PUSH0 NOT DUP5 PUSH1 0x8 MUL PUSH2 0x794 JUMP JUMPDEST NOT DUP1 DUP4 AND SWAP2 POP POP SWAP3 SWAP2 POP POP JUMP JUMPDEST PUSH0 PUSH2 0x7C7 DUP4 DUP4 PUSH2 0x7A0 JUMP JUMPDEST SWAP2 POP DUP3 PUSH1 0x2 MUL DUP3 OR SWAP1 POP SWAP3 SWAP2 POP POP JUMP JUMPDEST PUSH2 0x7E0 DUP3 PUSH2 0x2C1 JUMP JUMPDEST PUSH8 0xFFFFFFFFFFFFFFFF DUP2 GT ISZERO PUSH2 0x7F9 JUMPI PUSH2 0x7F8 PUSH2 0x3C4 JUMP JUMPDEST JUMPDEST PUSH2 0x803 DUP3 SLOAD PUSH2 0x607 JUMP JUMPDEST PUSH2 0x80E DUP3 DUP3 DUP6 PUSH2 0x74E JUMP JUMPDEST PUSH0 PUSH1 0x20 SWAP1 POP PUSH1 0x1F DUP4 GT PUSH1 0x1 DUP2 EQ PUSH2 0x83F JUMPI PUSH0 DUP5 ISZERO PUSH2 0x82D JUMPI DUP3 DUP8 ADD MLOAD SWAP1 POP JUMPDEST PUSH2 0x837 DUP6 DUP3 PUSH2 0x7BC JUMP JUMPDEST DUP7 SSTORE POP PUSH2 0x89E JUMP JUMPDEST PUSH1 0x1F NOT DUP5 AND PUSH2 0x84D DUP7 PUSH2 0x637 JUMP JUMPDEST PUSH0 JUMPDEST DUP3 DUP2 LT ISZERO PUSH2 0x874 JUMPI DUP5 DUP10 ADD MLOAD DUP3 SSTORE PUSH1 0x1 DUP3 ADD SWAP2 POP PUSH1 0x20 DUP6 ADD SWAP5 POP PUSH1 0x20 DUP2 ADD SWAP1 POP PUSH2 0x84F JUMP JUMPDEST DUP7 DUP4 LT ISZERO PUSH2 0x891 JUMPI DUP5 DUP10 ADD MLOAD PUSH2 0x88D PUSH1 0x1F DUP10 AND DUP3 PUSH2 0x7A0 JUMP JUMPDEST DUP4 SSTORE POP JUMPDEST PUSH1 0x1 PUSH1 0x2 DUP9 MUL ADD DUP9 SSTORE POP POP POP JUMPDEST POP POP POP POP POP POP JUMP JUMPDEST PUSH32 0x4E487B7100000000000000000000000000000000000000000000000000000000 PUSH0 MSTORE PUSH1 0x11 PUSH1 0x4 MSTORE PUSH1 0x24 PUSH0 REVERT JUMPDEST PUSH0 PUSH2 0x8DD DUP3 PUSH2 0x4E8 JUMP JUMPDEST SWAP2 POP PUSH2 0x8E8 DUP4 PUSH2 0x4E8 JUMP JUMPDEST SWAP3 POP DUP3 DUP3 ADD SWAP1 POP DUP1 DUP3 GT ISZERO PUSH2 0x900 JUMPI PUSH2 0x8FF PUSH2 0x8A6 JUMP JUMPDEST JUMPDEST SWAP3 SWAP2 POP POP JUMP INVALID LOG2 PUSH5 0x6970667358 0x22 SLT KECCAK256 0x21 EXTDELEGATECALL LOG0 SWAP13 SWAP16 SWAP3 EQ PUSH0 DUP9 0x28 0x29 STATICCALL 0x22 SWAP9 0xF GT RETF LOG2 ORIGIN 0xD0 CHAINID EXTCODEHASH BLOCKHASH 0xB7 0x4F 0x26 PUSH12 0xE558E33A4D64736F6C634300 ADDMOD 0x1F STOP CALLER "
				},
				"gasEstimates": {
					"creation": {
						"codeDepositCost": "472800",
						"executionCost": "503",
						"totalCost": "473303"
					},
					"external": {
						"isTransactionSuccessful()": "2561",
						"recordSale(address,string,uint256)": "infinite",
						"totalSales()": "2491",
						"transactionStatus()": "2444",
						"vendorName()": "infinite",
						"vendorSales(address)": "2846"
					}
				},
				"methodIdentifiers": {
					"isTransactionSuccessful()": "c2bb3d0f",
					"recordSale(address,string,uint256)": "4e4ffcb8",
					"totalSales()": "6605ff66",
					"transactionStatus()": "16dd1f69",
					"vendorName()": "390493be",
					"vendorSales(address)": "4ed224d0"
				}
			},
			"storageLayout": {
				"storage": [
					{
						"astId": 3,
						"contract": "PalengkeLedger.sol:PalengkeLedger",
						"label": "vendorName",
						"offset": 0,
						"slot": "0",
						"type": "t_string_storage"
					},
					{
						"astId": 5,
						"contract": "PalengkeLedger.sol:PalengkeLedger",
						"label": "totalSales",
						"offset": 0,
						"slot": "1",
						"type": "t_uint256"
					},
					{
						"astId": 7,
						"contract": "PalengkeLedger.sol:PalengkeLedger",
						"label": "transactionStatus",
						"offset": 0,
						"slot": "2",
						"type": "t_bool"
					},
					{
						"astId": 11,
						"contract": "PalengkeLedger.sol:PalengkeLedger",
						"label": "vendorSales",
						"offset": 0,
						"slot": "3",
						"type": "t_mapping(t_address,t_uint256)"
					}
				],
				"types": {
					"t_address": {
						"encoding": "inplace",
						"label": "address",
						"numberOfBytes": "20"
					},
					"t_bool": {
						"encoding": "inplace",
						"label": "bool",
						"numberOfBytes": "1"
					},
					"t_mapping(t_address,t_uint256)": {
						"encoding": "mapping",
						"key": "t_address",
						"label": "mapping(address => uint256)",
						"numberOfBytes": "32",
						"value": "t_uint256"
					},
					"t_string_storage": {
						"encoding": "bytes",
						"label": "string",
						"numberOfBytes": "32"
					},
					"t_uint256": {
						"encoding": "inplace",
						"label": "uint256",
						"numberOfBytes": "32"
					}
				}
			},
			"userdoc": {
				"kind": "user",
				"methods": {},
				"version": 1
			}
		}
	}
}