{
	"Initializable.sol": {
		"UserRegistryV1": {
			"abi": [
				{
					"inputs": [],
					"name": "InvalidInitialization",
					"type": "error"
				},
				{
					"inputs": [],
					"name": "NotInitializing",
					"type": "error"
				},
				{
					"anonymous": false,
					"inputs": [
						{
							"indexed": false,
							"internalType": "uint64",
							"name": "version",
							"type": "uint64"
						}
					],
					"name": "Initialized",
					"type": "event"
				},
				{
					"inputs": [
						{
							"internalType": "address",
							"name": "user",
							"type": "address"
						}
					],
					"name": "getUser",
					"outputs": [
						{
							"internalType": "string",
							"name": "",
							"type": "string"
						}
					],
					"stateMutability": "view",
					"type": "function"
				},
				{
					"inputs": [],
					"name": "initialize",
					"outputs": [],
					"stateMutability": "nonpayable",
					"type": "function"
				},
				{
					"inputs": [
						{
							"internalType": "string",
							"name": "name",
							"type": "string"
						}
					],
					"name": "registerUser",
					"outputs": [],
					"stateMutability": "nonpayable",
					"type": "function"
				},
				{
					"inputs": [
						{
							"internalType": "address",
							"name": "",
							"type": "address"
						}
					],
					"name": "userNames",
					"outputs": [
						{
							"internalType": "string",
							"name": "",
							"type": "string"
						}
					],
					"stateMutability": "view",
					"type": "function"
				}
			],
			"devdoc": {
				"errors": {
					"InvalidInitialization()": [
						{
							"details": "The contract is already initialized."
						}
					],
					"NotInitializing()": [
						{
							"details": "The contract is not initializing."
						}
					]
				},
				"events": {
					"Initialized(uint64)": {
						"details": "Triggered when the contract has been initialized or reinitialized."
					}
				},
				"kind": "dev",
				"methods": {},
				"version": 1
			},
			"evm": {
				"assembly": "    /* \"Initializable.sol\":127:499  contract UserRegistryV1 is Initializable {... */\n  mstore(0x40, 0x80)\n  callvalue\n  dup1\n  iszero\n  tag_1\n  jumpi\n  revert(0x00, 0x00)\ntag_1:\n  pop\n  dataSize(sub_0)\n  dup1\n  dataOffset(sub_0)\n  0x00\n  codecopy\n  0x00\n  return\nstop\n\nsub_0: assembly {\n        /* \"Initializable.sol\":127:499  contract UserRegistryV1 is Initializable {... */\n      mstore(0x40, 0x80)\n      callvalue\n      dup1\n      iszero\n      tag_1\n      jumpi\n      revert(0x00, 0x00)\n    tag_1:\n      pop\n      jumpi(tag_2, lt(calldatasize, 0x04))\n      shr(0xe0, calldataload(0x00))\n      dup1\n      0x6f77926b\n      eq\n      tag_3\n      jumpi\n      dup1\n      0x704f1b94\n      eq\n      tag_4\n      jumpi\n      dup1\n      0x7f281635\n      eq\n      tag_5\n      jumpi\n      dup1\n      0x8129fc1c\n      eq\n      tag_6\n      jumpi\n    tag_2:\n      revert(0x00, 0x00)\n        /* \"Initializable.sol\":388:496  function getUser(address user) public view returns (string memory) {... */\n    tag_3:\n      tag_7\n      0x04\n      dup1\n      calldatasize\n      sub\n      dup2\n      add\n      swap1\n      tag_8\n      swap2\n      swap1\n      tag_9\n      jump\t// in\n    tag_8:\n      tag_10\n      jump\t// in\n    tag_7:\n      mload(0x40)\n      tag_11\n      swap2\n      swap1\n      tag_12\n      jump\t// in\n    tag_11:\n      mload(0x40)\n      dup1\n      swap2\n      sub\n      swap1\n      return\n        /* \"Initializable.sol\":284:380  function registerUser(string memory name) public {... */\n    tag_4:\n      tag_13\n      0x04\n      dup1\n      calldatasize\n      sub\n      dup2\n      add\n      swap1\n      tag_14\n      swap2\n      swap1\n      tag_15\n      jump\t// in\n    tag_14:\n      tag_16\n      jump\t// in\n    tag_13:\n      stop\n        /* \"Initializable.sol\":175:218  mapping(address => string) public userNames */\n    tag_5:\n      tag_17\n      0x04\n      dup1\n      calldatasize\n      sub\n      dup2\n      add\n      swap1\n      tag_18\n      swap2\n      swap1\n      tag_9\n      jump\t// in\n    tag_18:\n      tag_19\n      jump\t// in\n    tag_17:\n      mload(0x40)\n      tag_20\n      swap2\n      swap1\n      tag_12\n      jump\t// in\n    tag_20:\n      mload(0x40)\n      dup1\n      swap2\n      sub\n      swap1\n      return\n        /* \"Initializable.sol\":227:276  function initialize() public initializer {... */\n    tag_6:\n      tag_21\n      tag_22\n      jump\t// in\n    tag_21:\n      stop\n        /* \"Initializable.sol\":388:496  function getUser(address user) public view returns (string memory) {... */\n    tag_10:\n        /* \"Initializable.sol\":440:453  string memory */\n      0x60\n        /* \"Initializable.sol\":473:482  userNames */\n      0x00\n        /* \"Initializable.sol\":473:488  userNames[user] */\n      0x00\n        /* \"Initializable.sol\":483:487  user */\n      dup4\n        /* \"Initializable.sol\":473:488  userNames[user] */\n      0xffffffffffffffffffffffffffffffffffffffff\n      and\n      0xffffffffffffffffffffffffffffffffffffffff\n      and\n      dup2\n      mstore\n      0x20\n      add\n      swap1\n      dup2\n      mstore\n      0x20\n      add\n      0x00\n      keccak256\n        /* \"Initializable.sol\":466:488  return userNames[user] */\n      dup1\n      sload\n      tag_24\n      swap1\n      tag_25\n      jump\t// in\n    tag_24:\n      dup1\n      0x1f\n      add\n      0x20\n      dup1\n      swap2\n      div\n      mul\n      0x20\n      add\n      mload(0x40)\n      swap1\n      dup2\n      add\n      0x40\n      mstore\n      dup1\n      swap3\n      swap2\n      swap1\n      dup2\n      dup2\n      mstore\n      0x20\n      add\n      dup3\n      dup1\n      sload\n      tag_26\n      swap1\n      tag_25\n      jump\t// in\n    tag_26:\n      dup1\n      iszero\n      tag_27\n      jumpi\n      dup1\n      0x1f\n      lt\n      tag_28\n      jumpi\n      0x0100\n      dup1\n      dup4\n      sload\n      div\n      mul\n      dup4\n      mstore\n      swap2\n      0x20\n      add\n      swap2\n      jump(tag_27)\n    tag_28:\n      dup3\n      add\n      swap2\n      swap1\n      0x00\n      mstore\n      keccak256(0x00, 0x20)\n      swap1\n    tag_29:\n      dup2\n      sload\n      dup2\n      mstore\n      swap1\n      0x01\n      add\n      swap1\n      0x20\n      add\n      dup1\n      dup4\n      gt\n      tag_29\n      jumpi\n      dup3\n      swap1\n      sub\n      0x1f\n      and\n      dup3\n      add\n      swap2\n    tag_27:\n      pop\n      pop\n      pop\n      pop\n      pop\n      swap1\n      pop\n        /* \"Initializable.sol\":388:496  function getUser(address user) public view returns (string memory) {... */\n      swap2\n      swap1\n      pop\n      jump\t// out\n        /* \"Initializable.sol\":284:380  function registerUser(string memory name) public {... */\n    tag_16:\n        /* \"Initializable.sol\":368:372  name */\n      dup1\n        /* \"Initializable.sol\":344:353  userNames */\n      0x00\n        /* \"Initializable.sol\":344:365  userNames[msg.sender] */\n      0x00\n        /* \"Initializable.sol\":354:364  msg.sender */\n      caller\n        /* \"Initializable.sol\":344:365  userNames[msg.sender] */\n      0xffffffffffffffffffffffffffffffffffffffff\n      and\n      0xffffffffffffffffffffffffffffffffffffffff\n      and\n      dup2\n      mstore\n      0x20\n      add\n      swap1\n      dup2\n      mstore\n      0x20\n      add\n      0x00\n      keccak256\n        /* \"Initializable.sol\":344:372  userNames[msg.sender] = name */\n      swap1\n      dup2\n      tag_31\n      swap2\n      swap1\n      tag_32\n      jump\t// in\n    tag_31:\n      pop\n        /* \"Initializable.sol\":284:380  function registerUser(string memory name) public {... */\n      pop\n      jump\t// out\n        /* \"Initializable.sol\":175:218  mapping(address => string) public userNames */\n    tag_19:\n      mstore(0x20, 0x00)\n      dup1\n      0x00\n      mstore\n      keccak256(0x00, 0x40)\n      0x00\n      swap2\n      pop\n      swap1\n      pop\n      dup1\n      sload\n      tag_33\n      swap1\n      tag_25\n      jump\t// in\n    tag_33:\n      dup1\n      0x1f\n      add\n      0x20\n      dup1\n      swap2\n      div\n      mul\n      0x20\n      add\n      mload(0x40)\n      swap1\n      dup2\n      add\n      0x40\n      mstore\n      dup1\n      swap3\n      swap2\n      swap1\n      dup2\n      dup2\n      mstore\n      0x20\n      add\n      dup3\n      dup1\n      sload\n      tag_34\n      swap1\n      tag_25\n      jump\t// in\n    tag_34:\n      dup1\n      iszero\n      tag_35\n      jumpi\n      dup1\n      0x1f\n      lt\n      tag_36\n      jumpi\n      0x0100\n      dup1\n      dup4\n      sload\n      div\n      mul\n      dup4\n      mstore\n      swap2\n      0x20\n      add\n      swap2\n      jump(tag_35)\n    tag_36:\n      dup3\n      add\n      swap2\n      swap1\n      0x00\n      mstore\n      keccak256(0x00, 0x20)\n      swap1\n    tag_37:\n      dup2\n      sload\n      dup2\n      mstore\n      swap1\n      0x01\n      add\n      swap1\n      0x20\n      add\n      dup1\n      dup4\n      gt\n      tag_37\n      jumpi\n      dup3\n      swap1\n      sub\n      0x1f\n      and\n      dup3\n      add\n      swap2\n    tag_35:\n      pop\n      pop\n      pop\n      pop\n      pop\n      dup2\n      jump\t// out\n        /* \"Initializable.sol\":227:276  function initialize() public initializer {... */\n    tag_22:\n        /* \"@openzeppelin/contracts/proxy/utils/Initializable.sol\":4158:4188  InitializableStorage storage $ */\n      0x00\n        /* \"@openzeppelin/contracts/proxy/utils/Initializable.sol\":4191:4217  _getInitializableStorage() */\n      tag_39\n        /* \"@openzeppelin/contracts/proxy/utils/Initializable.sol\":4191:4215  _getInitializableStorage */\n      tag_40\n        /* \"@openzeppelin/contracts/proxy/utils/Initializable.sol\":4191:4217  _getInitializableStorage() */\n      jump\t// in\n    tag_39:\n        /* \"@openzeppelin/contracts/proxy/utils/Initializable.sol\":4158:4217  InitializableStorage storage $ = _getInitializableStorage() */\n      swap1\n      pop\n        /* \"@openzeppelin/contracts/proxy/utils/Initializable.sol\":4279:4298  bool isTopLevelCall */\n      0x00\n        /* \"@openzeppelin/contracts/proxy/utils/Initializable.sol\":4302:4303  $ */\n      dup2\n        /* \"@openzeppelin/contracts/proxy/utils/Initializable.sol\":4302:4317  $._initializing */\n      0x00\n      add\n      0x08\n      swap1\n      sload\n      swap1\n      0x0100\n      exp\n      swap1\n      div\n      0xff\n      and\n        /* \"@openzeppelin/contracts/proxy/utils/Initializable.sol\":4301:4317  !$._initializing */\n      iszero\n        /* \"@openzeppelin/contracts/proxy/utils/Initializable.sol\":4279:4317  bool isTopLevelCall = !$._initializing */\n      swap1\n      pop\n        /* \"@openzeppelin/contracts/proxy/utils/Initializable.sol\":4327:4345  uint64 initialized */\n      0x00\n        /* \"@openzeppelin/contracts/proxy/utils/Initializable.sol\":4348:4349  $ */\n      dup3\n        /* \"@openzeppelin/contracts/proxy/utils/Initializable.sol\":4348:4362  $._initialized */\n      0x00\n      add\n      0x00\n      swap1\n      sload\n      swap1\n      0x0100\n      exp\n      swap1\n      div\n      0xffffffffffffffff\n      and\n        /* \"@openzeppelin/contracts/proxy/utils/Initializable.sol\":4327:4362  uint64 initialized = $._initialized */\n      swap1\n      pop\n        /* \"@openzeppelin/contracts/proxy/utils/Initializable.sol\":4704:4721  bool initialSetup */\n      0x00\n        /* \"@openzeppelin/contracts/proxy/utils/Initializable.sol\":4739:4740  0 */\n      0x00\n        /* \"@openzeppelin/contracts/proxy/utils/Initializable.sol\":4724:4735  initialized */\n      dup3\n        /* \"@openzeppelin/contracts/proxy/utils/Initializable.sol\":4724:4740  initialized == 0 */\n      0xffffffffffffffff\n      and\n      eq\n        /* \"@openzeppelin/contracts/proxy/utils/Initializable.sol\":4724:4758  initialized == 0 && isTopLevelCall */\n      dup1\n      iszero\n      tag_41\n      jumpi\n      pop\n        /* \"@openzeppelin/contracts/proxy/utils/Initializable.sol\":4744:4758  isTopLevelCall */\n      dup3\n        /* \"@openzeppelin/contracts/proxy/utils/Initializable.sol\":4724:4758  initialized == 0 && isTopLevelCall */\n    tag_41:\n        /* \"@openzeppelin/contracts/proxy/utils/Initializable.sol\":4704:4758  bool initialSetup = initialized == 0 && isTopLevelCall */\n      swap1\n      pop\n        /* \"@openzeppelin/contracts/proxy/utils/Initializable.sol\":4768:4785  bool construction */\n      0x00\n        /* \"@openzeppelin/contracts/proxy/utils/Initializable.sol\":4803:4804  1 */\n      0x01\n        /* \"@openzeppelin/contracts/proxy/utils/Initializable.sol\":4788:4799  initialized */\n      dup4\n        /* \"@openzeppelin/contracts/proxy/utils/Initializable.sol\":4788:4804  initialized == 1 */\n      0xffffffffffffffff\n      and\n      eq\n        /* \"@openzeppelin/contracts/proxy/utils/Initializable.sol\":4788:4838  initialized == 1 && address(this).code.length == 0 */\n      dup1\n      iszero\n      tag_42\n      jumpi\n      pop\n        /* \"@openzeppelin/contracts/proxy/utils/Initializable.sol\":4837:4838  0 */\n      0x00\n        /* \"@openzeppelin/contracts/proxy/utils/Initializable.sol\":4816:4820  this */\n      address\n        /* \"@openzeppelin/contracts/proxy/utils/Initializable.sol\":4808:4833  address(this).code.length */\n      0xffffffffffffffffffffffffffffffffffffffff\n      and\n      extcodesize\n        /* \"@openzeppelin/contracts/proxy/utils/Initializable.sol\":4808:4838  address(this).code.length == 0 */\n      eq\n        /* \"@openzeppelin/contracts/proxy/utils/Initializable.sol\":4788:4838  initialized == 1 && address(this).code.length == 0 */\n    tag_42:\n        /* \"@openzeppelin/contracts/proxy/utils/Initializable.sol\":4768:4838  bool construction = initialized == 1 && address(this).code.length == 0 */\n      swap1\n      pop\n        /* \"@openzeppelin/contracts/proxy/utils/Initializable.sol\":4854:4866  initialSetup */\n      dup2\n        /* \"@openzeppelin/contracts/proxy/utils/Initializable.sol\":4853:4866  !initialSetup */\n      iszero\n        /* \"@openzeppelin/contracts/proxy/utils/Initializable.sol\":4853:4883  !initialSetup && !construction */\n      dup1\n      iszero\n      tag_43\n      jumpi\n      pop\n        /* \"@openzeppelin/contracts/proxy/utils/Initializable.sol\":4871:4883  construction */\n      dup1\n        /* \"@openzeppelin/contracts/proxy/utils/Initializable.sol\":4870:4883  !construction */\n      iszero\n        /* \"@openzeppelin/contracts/proxy/utils/Initializable.sol\":4853:4883  !initialSetup && !construction */\n    tag_43:\n        /* \"@openzeppelin/contracts/proxy/utils/Initializable.sol\":4849:4940  if (!initialSetup && !construction) {... */\n      iszero\n      tag_44\n      jumpi\n        /* \"@openzeppelin/contracts/proxy/utils/Initializable.sol\":4906:4929  InvalidInitialization() */\n      mload(0x40)\n      0xf92ee8a900000000000000000000000000000000000000000000000000000000\n      dup2\n      mstore\n      0x04\n      add\n      mload(0x40)\n      dup1\n      swap2\n      sub\n      swap1\n      revert\n        /* \"@openzeppelin/contracts/proxy/utils/Initializable.sol\":4849:4940  if (!initialSetup && !construction) {... */\n    tag_44:\n        /* \"@openzeppelin/contracts/proxy/utils/Initializable.sol\":4966:4967  1 */\n      0x01\n        /* \"@openzeppelin/contracts/proxy/utils/Initializable.sol\":4949:4950  $ */\n      dup6\n        /* \"@openzeppelin/contracts/proxy/utils/Initializable.sol\":4949:4963  $._initialized */\n      0x00\n      add\n      0x00\n        /* \"@openzeppelin/contracts/proxy/utils/Initializable.sol\":4949:4967  $._initialized = 1 */\n      0x0100\n      exp\n      dup2\n      sload\n      dup2\n      0xffffffffffffffff\n      mul\n      not\n      and\n      swap1\n      dup4\n      0xffffffffffffffff\n      and\n      mul\n      or\n      swap1\n      sstore\n      pop\n        /* \"@openzeppelin/contracts/proxy/utils/Initializable.sol\":4981:4995  isTopLevelCall */\n      dup4\n        /* \"@openzeppelin/contracts/proxy/utils/Initializable.sol\":4977:5044  if (isTopLevelCall) {... */\n      iszero\n      tag_45\n      jumpi\n        /* \"@openzeppelin/contracts/proxy/utils/Initializable.sol\":5029:5033  true */\n      0x01\n        /* \"@openzeppelin/contracts/proxy/utils/Initializable.sol\":5011:5012  $ */\n      dup6\n        /* \"@openzeppelin/contracts/proxy/utils/Initializable.sol\":5011:5026  $._initializing */\n      0x00\n      add\n      0x08\n        /* \"@openzeppelin/contracts/proxy/utils/Initializable.sol\":5011:5033  $._initializing = true */\n      0x0100\n      exp\n      dup2\n      sload\n      dup2\n      0xff\n      mul\n      not\n      and\n      swap1\n      dup4\n      iszero\n      iszero\n      mul\n      or\n      swap1\n      sstore\n      pop\n        /* \"@openzeppelin/contracts/proxy/utils/Initializable.sol\":4977:5044  if (isTopLevelCall) {... */\n    tag_45:\n        /* \"@openzeppelin/contracts/proxy/utils/Initializable.sol\":5068:5082  isTopLevelCall */\n      dup4\n        /* \"@openzeppelin/contracts/proxy/utils/Initializable.sol\":5064:5165  if (isTopLevelCall) {... */\n      iszero\n      tag_47\n      jumpi\n        /* \"@openzeppelin/contracts/proxy/utils/Initializable.sol\":5116:5121  false */\n      0x00\n        /* \"@openzeppelin/contracts/proxy/utils/Initializable.sol\":5098:5099  $ */\n      dup6\n        /* \"@openzeppelin/contracts/proxy/utils/Initializable.sol\":5098:5113  $._initializing */\n      0x00\n      add\n      0x08\n        /* \"@openzeppelin/contracts/proxy/utils/Initializable.sol\":5098:5121  $._initializing = false */\n      0x0100\n      exp\n      dup2\n      sload\n      dup2\n      0xff\n      mul\n      not\n      and\n      swap1\n      dup4\n      iszero\n      iszero\n      mul\n      or\n      swap1\n      sstore\n      pop\n        /* \"@openzeppelin/contracts/proxy/utils/Initializable.sol\":5140:5154  Initialized(1) */\n      0xc7f505b2f371ae2175ee4913f4499e1f2633a7b5936321eed1cdaeb6115181d2\n        /* \"@openzeppelin/contracts/proxy/utils/Initializable.sol\":5152:5153  1 */\n      0x01\n        /* \"@openzeppelin/contracts/proxy/utils/Initializable.sol\":5140:5154  Initialized(1) */\n      mload(0x40)\n      tag_48\n      swap2\n      swap1\n      tag_49\n      jump\t// in\n    tag_48:\n      mload(0x40)\n      dup1\n      swap2\n      sub\n      swap1\n      log1\n        /* \"@openzeppelin/contracts/proxy/utils/Initializable.sol\":5064:5165  if (isTopLevelCall) {... */\n    tag_47:\n        /* \"@openzeppelin/contracts/proxy/utils/Initializable.sol\":4092:5171  {... */\n      pop\n      pop\n      pop\n      pop\n      pop\n        /* \"Initializable.sol\":227:276  function initialize() public initializer {... */\n      jump\t// out\n        /* \"@openzeppelin/contracts/proxy/utils/Initializable.sol\":9071:9276  function _getInitializableStorage() private pure returns (InitializableStorage storage $) {... */\n    tag_40:\n        /* \"@openzeppelin/contracts/proxy/utils/Initializable.sol\":9129:9159  InitializableStorage storage $ */\n      0x00\n        /* \"@openzeppelin/contracts/proxy/utils/Initializable.sol\":9171:9183  bytes32 slot */\n      0x00\n        /* \"@openzeppelin/contracts/proxy/utils/Initializable.sol\":9186:9213  _initializableStorageSlot() */\n      tag_51\n        /* \"@openzeppelin/contracts/proxy/utils/Initializable.sol\":9186:9211  _initializableStorageSlot */\n      tag_52\n        /* \"@openzeppelin/contracts/proxy/utils/Initializable.sol\":9186:9213  _initializableStorageSlot() */\n      jump\t// in\n    tag_51:\n        /* \"@openzeppelin/contracts/proxy/utils/Initializable.sol\":9171:9213  bytes32 slot = _initializableStorageSlot() */\n      swap1\n      pop\n        /* \"@openzeppelin/contracts/proxy/utils/Initializable.sol\":9256:9260  slot */\n      dup1\n        /* \"@openzeppelin/contracts/proxy/utils/Initializable.sol\":9246:9260  $.slot := slot */\n      swap2\n      pop\n        /* \"@openzeppelin/contracts/proxy/utils/Initializable.sol\":9232:9270  {... */\n      pop\n        /* \"@openzeppelin/contracts/proxy/utils/Initializable.sol\":9071:9276  function _getInitializableStorage() private pure returns (InitializableStorage storage $) {... */\n      swap1\n      jump\t// out\n        /* \"@openzeppelin/contracts/proxy/utils/Initializable.sol\":8819:8941  function _initializableStorageSlot() internal pure virtual returns (bytes32) {... */\n    tag_52:\n        /* \"@openzeppelin/contracts/proxy/utils/Initializable.sol\":8887:8894  bytes32 */\n      0x00\n        /* \"@openzeppelin/contracts/proxy/utils/Initializable.sol\":3147:3213  0xf0c57e16840df040f15088dc2f81fe391c3923bec73e23a9662efc9c229c6a00 */\n      0xf0c57e16840df040f15088dc2f81fe391c3923bec73e23a9662efc9c229c6a00\n        /* \"@openzeppelin/contracts/proxy/utils/Initializable.sol\":8913:8934  INITIALIZABLE_STORAGE */\n      0x00\n      shl\n        /* \"@openzeppelin/contracts/proxy/utils/Initializable.sol\":8906:8934  return INITIALIZABLE_STORAGE */\n      swap1\n      pop\n        /* \"@openzeppelin/contracts/proxy/utils/Initializable.sol\":8819:8941  function _initializableStorageSlot() internal pure virtual returns (bytes32) {... */\n      swap1\n      jump\t// out\n        /* \"#utility.yul\":7:82   */\n    tag_54:\n        /* \"#utility.yul\":40:46   */\n      0x00\n        /* \"#utility.yul\":73:75   */\n      0x40\n        /* \"#utility.yul\":67:76   */\n      mload\n        /* \"#utility.yul\":57:76   */\n      swap1\n      pop\n        /* \"#utility.yul\":7:82   */\n      swap1\n      jump\t// out\n        /* \"#utility.yul\":88:205   */\n    tag_55:\n        /* \"#utility.yul\":197:198   */\n      0x00\n        /* \"#utility.yul\":194:195   */\n      0x00\n        /* \"#utility.yul\":187:199   */\n      revert\n        /* \"#utility.yul\":211:328   */\n    tag_56:\n        /* \"#utility.yul\":320:321   */\n      0x00\n        /* \"#utility.yul\":317:318   */\n      0x00\n        /* \"#utility.yul\":310:322   */\n      revert\n        /* \"#utility.yul\":334:460   */\n    tag_57:\n        /* \"#utility.yul\":371:378   */\n      0x00\n        /* \"#utility.yul\":411:453   */\n      0xffffffffffffffffffffffffffffffffffffffff\n        /* \"#utility.yul\":404:409   */\n      dup3\n        /* \"#utility.yul\":400:454   */\n      and\n        /* \"#utility.yul\":389:454   */\n      swap1\n      pop\n        /* \"#utility.yul\":334:460   */\n      swap2\n      swap1\n      pop\n      jump\t// out\n        /* \"#utility.yul\":466:562   */\n    tag_58:\n        /* \"#utility.yul\":503:510   */\n      0x00\n        /* \"#utility.yul\":532:556   */\n      tag_102\n        /* \"#utility.yul\":550:555   */\n      dup3\n        /* \"#utility.yul\":532:556   */\n      tag_57\n      jump\t// in\n    tag_102:\n        /* \"#utility.yul\":521:556   */\n      swap1\n      pop\n        /* \"#utility.yul\":466:562   */\n      swap2\n      swap1\n      pop\n      jump\t// out\n        /* \"#utility.yul\":568:690   */\n    tag_59:\n        /* \"#utility.yul\":641:665   */\n      tag_104\n        /* \"#utility.yul\":659:664   */\n      dup2\n        /* \"#utility.yul\":641:665   */\n      tag_58\n      jump\t// in\n    tag_104:\n        /* \"#utility.yul\":634:639   */\n      dup2\n        /* \"#utility.yul\":631:666   */\n      eq\n        /* \"#utility.yul\":621:684   */\n      tag_105\n      jumpi\n        /* \"#utility.yul\":680:681   */\n      0x00\n        /* \"#utility.yul\":677:678   */\n      0x00\n        /* \"#utility.yul\":670:682   */\n      revert\n        /* \"#utility.yul\":621:684   */\n    tag_105:\n        /* \"#utility.yul\":568:690   */\n      pop\n      jump\t// out\n        /* \"#utility.yul\":696:835   */\n    tag_60:\n        /* \"#utility.yul\":742:747   */\n      0x00\n        /* \"#utility.yul\":780:786   */\n      dup2\n        /* \"#utility.yul\":767:787   */\n      calldataload\n        /* \"#utility.yul\":758:787   */\n      swap1\n      pop\n        /* \"#utility.yul\":796:829   */\n      tag_107\n        /* \"#utility.yul\":823:828   */\n      dup2\n        /* \"#utility.yul\":796:829   */\n      tag_59\n      jump\t// in\n    tag_107:\n        /* \"#utility.yul\":696:835   */\n      swap3\n      swap2\n      pop\n      pop\n      jump\t// out\n        /* \"#utility.yul\":841:1170   */\n    tag_9:\n        /* \"#utility.yul\":900:906   */\n      0x00\n        /* \"#utility.yul\":949:951   */\n      0x20\n        /* \"#utility.yul\":937:946   */\n      dup3\n        /* \"#utility.yul\":928:935   */\n      dup5\n        /* \"#utility.yul\":924:947   */\n      sub\n        /* \"#utility.yul\":920:952   */\n      slt\n        /* \"#utility.yul\":917:1036   */\n      iszero\n      tag_109\n      jumpi\n        /* \"#utility.yul\":955:1034   */\n      tag_110\n      tag_55\n      jump\t// in\n    tag_110:\n        /* \"#utility.yul\":917:1036   */\n    tag_109:\n        /* \"#utility.yul\":1075:1076   */\n      0x00\n        /* \"#utility.yul\":1100:1153   */\n      tag_111\n        /* \"#utility.yul\":1145:1152   */\n      dup5\n        /* \"#utility.yul\":1136:1142   */\n      dup3\n        /* \"#utility.yul\":1125:1134   */\n      dup6\n        /* \"#utility.yul\":1121:1143   */\n      add\n        /* \"#utility.yul\":1100:1153   */\n      tag_60\n      jump\t// in\n    tag_111:\n        /* \"#utility.yul\":1090:1153   */\n      swap2\n      pop\n        /* \"#utility.yul\":1046:1163   */\n      pop\n        /* \"#utility.yul\":841:1170   */\n      swap3\n      swap2\n      pop\n      pop\n      jump\t// out\n        /* \"#utility.yul\":1176:1275   */\n    tag_61:\n        /* \"#utility.yul\":1228:1234   */\n      0x00\n        /* \"#utility.yul\":1262:1267   */\n      dup2\n        /* \"#utility.yul\":1256:1268   */\n      mload\n        /* \"#utility.yul\":1246:1268   */\n      swap1\n      pop\n        /* \"#utility.yul\":1176:1275   */\n      swap2\n      swap1\n      pop\n      jump\t// out\n        /* \"#utility.yul\":1281:1450   */\n    tag_62:\n        /* \"#utility.yul\":1365:1376   */\n      0x00\n        /* \"#utility.yul\":1399:1405   */\n      dup3\n        /* \"#utility.yul\":1394:1397   */\n      dup3\n        /* \"#utility.yul\":1387:1406   */\n      mstore\n        /* \"#utility.yul\":1439:1443   */\n      0x20\n        /* \"#utility.yul\":1434:1437   */\n      dup3\n        /* \"#utility.yul\":1430:1444   */\n      add\n        /* \"#utility.yul\":1415:1444   */\n      swap1\n      pop\n        /* \"#utility.yul\":1281:1450   */\n      swap3\n      swap2\n      pop\n      pop\n      jump\t// out\n        /* \"#utility.yul\":1456:1595   */\n    tag_63:\n        /* \"#utility.yul\":1545:1551   */\n      dup3\n        /* \"#utility.yul\":1540:1543   */\n      dup2\n        /* \"#utility.yul\":1535:1538   */\n      dup4\n        /* \"#utility.yul\":1529:1552   */\n      mcopy\n        /* \"#utility.yul\":1586:1587   */\n      0x00\n        /* \"#utility.yul\":1577:1583   */\n      dup4\n        /* \"#utility.yul\":1572:1575   */\n      dup4\n        /* \"#utility.yul\":1568:1584   */\n      add\n        /* \"#utility.yul\":1561:1588   */\n      mstore\n        /* \"#utility.yul\":1456:1595   */\n      pop\n      pop\n      pop\n      jump\t// out\n        /* \"#utility.yul\":1601:1703   */\n    tag_64:\n        /* \"#utility.yul\":1642:1648   */\n      0x00\n        /* \"#utility.yul\":1693:1695   */\n      0x1f\n        /* \"#utility.yul\":1689:1696   */\n      not\n        /* \"#utility.yul\":1684:1686   */\n      0x1f\n        /* \"#utility.yul\":1677:1682   */\n      dup4\n        /* \"#utility.yul\":1673:1687   */\n      add\n        /* \"#utility.yul\":1669:1697   */\n      and\n        /* \"#utility.yul\":1659:1697   */\n      swap1\n      pop\n        /* \"#utility.yul\":1601:1703   */\n      swap2\n      swap1\n      pop\n      jump\t// out\n        /* \"#utility.yul\":1709:2086   */\n    tag_65:\n        /* \"#utility.yul\":1797:1800   */\n      0x00\n        /* \"#utility.yul\":1825:1864   */\n      tag_117\n        /* \"#utility.yul\":1858:1863   */\n      dup3\n        /* \"#utility.yul\":1825:1864   */\n      tag_61\n      jump\t// in\n    tag_117:\n        /* \"#utility.yul\":1880:1951   */\n      tag_118\n        /* \"#utility.yul\":1944:1950   */\n      dup2\n        /* \"#utility.yul\":1939:1942   */\n      dup6\n        /* \"#utility.yul\":1880:1951   */\n      tag_62\n      jump\t// in\n    tag_118:\n        /* \"#utility.yul\":1873:1951   */\n      swap4\n      pop\n        /* \"#utility.yul\":1960:2025   */\n      tag_119\n        /* \"#utility.yul\":2018:2024   */\n      dup2\n        /* \"#utility.yul\":2013:2016   */\n      dup6\n        /* \"#utility.yul\":2006:2010   */\n      0x20\n        /* \"#utility.yul\":1999:2004   */\n      dup7\n        /* \"#utility.yul\":1995:2011   */\n      add\n        /* \"#utility.yul\":1960:2025   */\n      tag_63\n      jump\t// in\n    tag_119:\n        /* \"#utility.yul\":2050:2079   */\n      tag_120\n        /* \"#utility.yul\":2072:2078   */\n      dup2\n        /* \"#utility.yul\":2050:2079   */\n      tag_64\n      jump\t// in\n    tag_120:\n        /* \"#utility.yul\":2045:2048   */\n      dup5\n        /* \"#utility.yul\":2041:2080   */\n      add\n        /* \"#utility.yul\":2034:2080   */\n      swap2\n      pop\n        /* \"#utility.yul\":1801:2086   */\n      pop\n        /* \"#utility.yul\":1709:2086   */\n      swap3\n      swap2\n      pop\n      pop\n      jump\t// out\n        /* \"#utility.yul\":2092:2405   */\n    tag_12:\n        /* \"#utility.yul\":2205:2209   */\n      0x00\n        /* \"#utility.yul\":2243:2245   */\n      0x20\n        /* \"#utility.yul\":2232:2241   */\n      dup3\n        /* \"#utility.yul\":2228:2246   */\n      add\n        /* \"#utility.yul\":2220:2246   */\n      swap1\n      pop\n        /* \"#utility.yul\":2292:2301   */\n      dup2\n        /* \"#utility.yul\":2286:2290   */\n      dup2\n        /* \"#utility.yul\":2282:2302   */\n      sub\n        /* \"#utility.yul\":2278:2279   */\n      0x00\n        /* \"#utility.yul\":2267:2276   */\n      dup4\n        /* \"#utility.yul\":2263:2280   */\n      add\n        /* \"#utility.yul\":2256:2303   */\n      mstore\n        /* \"#utility.yul\":2320:2398   */\n      tag_122\n        /* \"#utility.yul\":2393:2397   */\n      dup2\n        /* \"#utility.yul\":2384:2390   */\n      dup5\n        /* \"#utility.yul\":2320:2398   */\n      tag_65\n      jump\t// in\n    tag_122:\n        /* \"#utility.yul\":2312:2398   */\n      swap1\n      pop\n        /* \"#utility.yul\":2092:2405   */\n      swap3\n      swap2\n      pop\n      pop\n      jump\t// out\n        /* \"#utility.yul\":2411:2528   */\n    tag_66:\n        /* \"#utility.yul\":2520:2521   */\n      0x00\n        /* \"#utility.yul\":2517:2518   */\n      0x00\n        /* \"#utility.yul\":2510:2522   */\n      revert\n        /* \"#utility.yul\":2534:2651   */\n    tag_67:\n        /* \"#utility.yul\":2643:2644   */\n      0x00\n        /* \"#utility.yul\":2640:2641   */\n      0x00\n        /* \"#utility.yul\":2633:2645   */\n      revert\n        /* \"#utility.yul\":2657:2837   */\n    tag_68:\n        /* \"#utility.yul\":2705:2782   */\n      0x4e487b7100000000000000000000000000000000000000000000000000000000\n        /* \"#utility.yul\":2702:2703   */\n      0x00\n        /* \"#utility.yul\":2695:2783   */\n      mstore\n        /* \"#utility.yul\":2802:2806   */\n      0x41\n        /* \"#utility.yul\":2799:2800   */\n      0x04\n        /* \"#utility.yul\":2792:2807   */\n      mstore\n        /* \"#utility.yul\":2826:2830   */\n      0x24\n        /* \"#utility.yul\":2823:2824   */\n      0x00\n        /* \"#utility.yul\":2816:2831   */\n      revert\n        /* \"#utility.yul\":2843:3124   */\n    tag_69:\n        /* \"#utility.yul\":2926:2953   */\n      tag_127\n        /* \"#utility.yul\":2948:2952   */\n      dup3\n        /* \"#utility.yul\":2926:2953   */\n      tag_64\n      jump\t// in\n    tag_127:\n        /* \"#utility.yul\":2918:2924   */\n      dup2\n        /* \"#utility.yul\":2914:2954   */\n      add\n        /* \"#utility.yul\":3056:3062   */\n      dup2\n        /* \"#utility.yul\":3044:3054   */\n      dup2\n        /* \"#utility.yul\":3041:3063   */\n      lt\n        /* \"#utility.yul\":3020:3038   */\n      0xffffffffffffffff\n        /* \"#utility.yul\":3008:3018   */\n      dup3\n        /* \"#utility.yul\":3005:3039   */\n      gt\n        /* \"#utility.yul\":3002:3064   */\n      or\n        /* \"#utility.yul\":2999:3087   */\n      iszero\n      tag_128\n      jumpi\n        /* \"#utility.yul\":3067:3085   */\n      tag_129\n      tag_68\n      jump\t// in\n    tag_129:\n        /* \"#utility.yul\":2999:3087   */\n    tag_128:\n        /* \"#utility.yul\":3107:3117   */\n      dup1\n        /* \"#utility.yul\":3103:3105   */\n      0x40\n        /* \"#utility.yul\":3096:3118   */\n      mstore\n        /* \"#utility.yul\":2886:3124   */\n      pop\n        /* \"#utility.yul\":2843:3124   */\n      pop\n      pop\n      jump\t// out\n        /* \"#utility.yul\":3130:3259   */\n    tag_70:\n        /* \"#utility.yul\":3164:3170   */\n      0x00\n        /* \"#utility.yul\":3191:3211   */\n      tag_131\n      tag_54\n      jump\t// in\n    tag_131:\n        /* \"#utility.yul\":3181:3211   */\n      swap1\n      pop\n        /* \"#utility.yul\":3220:3253   */\n      tag_132\n        /* \"#utility.yul\":3248:3252   */\n      dup3\n        /* \"#utility.yul\":3240:3246   */\n      dup3\n        /* \"#utility.yul\":3220:3253   */\n      tag_69\n      jump\t// in\n    tag_132:\n        /* \"#utility.yul\":3130:3259   */\n      swap2\n      swap1\n      pop\n      jump\t// out\n        /* \"#utility.yul\":3265:3573   */\n    tag_71:\n        /* \"#utility.yul\":3327:3331   */\n      0x00\n        /* \"#utility.yul\":3417:3435   */\n      0xffffffffffffffff\n        /* \"#utility.yul\":3409:3415   */\n      dup3\n        /* \"#utility.yul\":3406:3436   */\n      gt\n        /* \"#utility.yul\":3403:3459   */\n      iszero\n      tag_134\n      jumpi\n        /* \"#utility.yul\":3439:3457   */\n      tag_135\n      tag_68\n      jump\t// in\n    tag_135:\n        /* \"#utility.yul\":3403:3459   */\n    tag_134:\n        /* \"#utility.yul\":3477:3506   */\n      tag_136\n        /* \"#utility.yul\":3499:3505   */\n      dup3\n        /* \"#utility.yul\":3477:3506   */\n      tag_64\n      jump\t// in\n    tag_136:\n        /* \"#utility.yul\":3469:3506   */\n      swap1\n      pop\n        /* \"#utility.yul\":3561:3565   */\n      0x20\n        /* \"#utility.yul\":3555:3559   */\n      dup2\n        /* \"#utility.yul\":3551:3566   */\n      add\n        /* \"#utility.yul\":3543:3566   */\n      swap1\n      pop\n        /* \"#utility.yul\":3265:3573   */\n      swap2\n      swap1\n      pop\n      jump\t// out\n        /* \"#utility.yul\":3579:3727   */\n    tag_72:\n        /* \"#utility.yul\":3677:3683   */\n      dup3\n        /* \"#utility.yul\":3672:3675   */\n      dup2\n        /* \"#utility.yul\":3667:3670   */\n      dup4\n        /* \"#utility.yul\":3654:3684   */\n      calldatacopy\n        /* \"#utility.yul\":3718:3719   */\n      0x00\n        /* \"#utility.yul\":3709:3715   */\n      dup4\n        /* \"#utility.yul\":3704:3707   */\n      dup4\n        /* \"#utility.yul\":3700:3716   */\n      add\n        /* \"#utility.yul\":3693:3720   */\n      mstore\n        /* \"#utility.yul\":3579:3727   */\n      pop\n      pop\n      pop\n      jump\t// out\n        /* \"#utility.yul\":3733:4158   */\n    tag_73:\n        /* \"#utility.yul\":3811:3816   */\n      0x00\n        /* \"#utility.yul\":3836:3902   */\n      tag_139\n        /* \"#utility.yul\":3852:3901   */\n      tag_140\n        /* \"#utility.yul\":3894:3900   */\n      dup5\n        /* \"#utility.yul\":3852:3901   */\n      tag_71\n      jump\t// in\n    tag_140:\n        /* \"#utility.yul\":3836:3902   */\n      tag_70\n      jump\t// in\n    tag_139:\n        /* \"#utility.yul\":3827:3902   */\n      swap1\n      pop\n        /* \"#utility.yul\":3925:3931   */\n      dup3\n        /* \"#utility.yul\":3918:3923   */\n      dup2\n        /* \"#utility.yul\":3911:3932   */\n      mstore\n        /* \"#utility.yul\":3963:3967   */\n      0x20\n        /* \"#utility.yul\":3956:3961   */\n      dup2\n        /* \"#utility.yul\":3952:3968   */\n      add\n        /* \"#utility.yul\":4001:4004   */\n      dup5\n        /* \"#utility.yul\":3992:3998   */\n      dup5\n        /* \"#utility.yul\":3987:3990   */\n      dup5\n        /* \"#utility.yul\":3983:3999   */\n      add\n        /* \"#utility.yul\":3980:4005   */\n      gt\n        /* \"#utility.yul\":3977:4089   */\n      iszero\n      tag_141\n      jumpi\n        /* \"#utility.yul\":4008:4087   */\n      tag_142\n      tag_67\n      jump\t// in\n    tag_142:\n        /* \"#utility.yul\":3977:4089   */\n    tag_141:\n        /* \"#utility.yul\":4098:4152   */\n      tag_143\n        /* \"#utility.yul\":4145:4151   */\n      dup5\n        /* \"#utility.yul\":4140:4143   */\n      dup3\n        /* \"#utility.yul\":4135:4138   */\n      dup6\n        /* \"#utility.yul\":4098:4152   */\n      tag_72\n      jump\t// in\n    tag_143:\n        /* \"#utility.yul\":3817:4158   */\n      pop\n        /* \"#utility.yul\":3733:4158   */\n      swap4\n      swap3\n      pop\n      pop\n      pop\n      jump\t// out\n        /* \"#utility.yul\":4178:4518   */\n    tag_74:\n        /* \"#utility.yul\":4234:4239   */\n      0x00\n        /* \"#utility.yul\":4283:4286   */\n      dup3\n        /* \"#utility.yul\":4276:4280   */\n      0x1f\n        /* \"#utility.yul\":4268:4274   */\n      dup4\n        /* \"#utility.yul\":4264:4281   */\n      add\n        /* \"#utility.yul\":4260:4287   */\n      slt\n        /* \"#utility.yul\":4250:4372   */\n      tag_145\n      jumpi\n        /* \"#utility.yul\":4291:4370   */\n      tag_146\n      tag_66\n      jump\t// in\n    tag_146:\n        /* \"#utility.yul\":4250:4372   */\n    tag_145:\n        /* \"#utility.yul\":4408:4414   */\n      dup2\n        /* \"#utility.yul\":4395:4415   */\n      calldataload\n        /* \"#utility.yul\":4433:4512   */\n      tag_147\n        /* \"#utility.yul\":4508:4511   */\n      dup5\n        /* \"#utility.yul\":4500:4506   */\n      dup3\n        /* \"#utility.yul\":4493:4497   */\n      0x20\n        /* \"#utility.yul\":4485:4491   */\n      dup7\n        /* \"#utility.yul\":4481:4498   */\n      add\n        /* \"#utility.yul\":4433:4512   */\n      tag_73\n      jump\t// in\n    tag_147:\n        /* \"#utility.yul\":4424:4512   */\n      swap2\n      pop\n        /* \"#utility.yul\":4240:4518   */\n      pop\n        /* \"#utility.yul\":4178:4518   */\n      swap3\n      swap2\n      pop\n      pop\n      jump\t// out\n        /* \"#utility.yul\":4524:5033   */\n    tag_15:\n        /* \"#utility.yul\":4593:4599   */\n      0x00\n        /* \"#utility.yul\":4642:4644   */\n      0x20\n        /* \"#utility.yul\":4630:4639   */\n      dup3\n        /* \"#utility.yul\":4621:4628   */\n      dup5\n        /* \"#utility.yul\":4617:4640   */\n      sub\n        /* \"#utility.yul\":4613:4645   */\n      slt\n        /* \"#utility.yul\":4610:4729   */\n      iszero\n      tag_149\n      jumpi\n        /* \"#utility.yul\":4648:4727   */\n      tag_150\n      tag_55\n      jump\t// in\n    tag_150:\n        /* \"#utility.yul\":4610:4729   */\n    tag_149:\n        /* \"#utility.yul\":4796:4797   */\n      0x00\n        /* \"#utility.yul\":4785:4794   */\n      dup3\n        /* \"#utility.yul\":4781:4798   */\n      add\n        /* \"#utility.yul\":4768:4799   */\n      calldataload\n        /* \"#utility.yul\":4826:4844   */\n      0xffffffffffffffff\n        /* \"#utility.yul\":4818:4824   */\n      dup2\n        /* \"#utility.yul\":4815:4845   */\n      gt\n        /* \"#utility.yul\":4812:4929   */\n      iszero\n      tag_151\n      jumpi\n        /* \"#utility.yul\":4848:4927   */\n      tag_152\n      tag_56\n      jump\t// in\n    tag_152:\n        /* \"#utility.yul\":4812:4929   */\n    tag_151:\n        /* \"#utility.yul\":4953:5016   */\n      tag_153\n        /* \"#utility.yul\":5008:5015   */\n      dup5\n        /* \"#utility.yul\":4999:5005   */\n      dup3\n        /* \"#utility.yul\":4988:4997   */\n      dup6\n        /* \"#utility.yul\":4984:5006   */\n      add\n        /* \"#utility.yul\":4953:5016   */\n      tag_74\n      jump\t// in\n    tag_153:\n        /* \"#utility.yul\":4943:5016   */\n      swap2\n      pop\n        /* \"#utility.yul\":4739:5026   */\n      pop\n        /* \"#utility.yul\":4524:5033   */\n      swap3\n      swap2\n      pop\n      pop\n      jump\t// out\n        /* \"#utility.yul\":5039:5219   */\n    tag_75:\n        /* \"#utility.yul\":5087:5164   */\n      0x4e487b7100000000000000000000000000000000000000000000000000000000\n        /* \"#utility.yul\":5084:5085   */\n      0x00\n        /* \"#utility.yul\":5077:5165   */\n      mstore\n        /* \"#utility.yul\":5184:5188   */\n      0x22\n        /* \"#utility.yul\":5181:5182   */\n      0x04\n        /* \"#utility.yul\":5174:5189   */\n      mstore\n        /* \"#utility.yul\":5208:5212   */\n      0x24\n        /* \"#utility.yul\":5205:5206   */\n      0x00\n        /* \"#utility.yul\":5198:5213   */\n      revert\n        /* \"#utility.yul\":5225:5545   */\n    tag_25:\n        /* \"#utility.yul\":5269:5275   */\n      0x00\n        /* \"#utility.yul\":5306:5307   */\n      0x02\n        /* \"#utility.yul\":5300:5304   */\n      dup3\n        /* \"#utility.yul\":5296:5308   */\n      div\n        /* \"#utility.yul\":5286:5308   */\n      swap1\n      pop\n        /* \"#utility.yul\":5353:5354   */\n      0x01\n        /* \"#utility.yul\":5347:5351   */\n      dup3\n        /* \"#utility.yul\":5343:5355   */\n      and\n        /* \"#utility.yul\":5374:5392   */\n      dup1\n        /* \"#utility.yul\":5364:5445   */\n      tag_156\n      jumpi\n        /* \"#utility.yul\":5430:5434   */\n      0x7f\n        /* \"#utility.yul\":5422:5428   */\n      dup3\n        /* \"#utility.yul\":5418:5435   */\n      and\n        /* \"#utility.yul\":5408:5435   */\n      swap2\n      pop\n        /* \"#utility.yul\":5364:5445   */\n    tag_156:\n        /* \"#utility.yul\":5492:5494   */\n      0x20\n        /* \"#utility.yul\":5484:5490   */\n      dup3\n        /* \"#utility.yul\":5481:5495   */\n      lt\n        /* \"#utility.yul\":5461:5479   */\n      dup2\n        /* \"#utility.yul\":5458:5496   */\n      sub\n        /* \"#utility.yul\":5455:5539   */\n      tag_157\n      jumpi\n        /* \"#utility.yul\":5511:5529   */\n      tag_158\n      tag_75\n      jump\t// in\n    tag_158:\n        /* \"#utility.yul\":5455:5539   */\n    tag_157:\n        /* \"#utility.yul\":5276:5545   */\n      pop\n        /* \"#utility.yul\":5225:5545   */\n      swap2\n      swap1\n      pop\n      jump\t// out\n        /* \"#utility.yul\":5551:5692   */\n    tag_76:\n        /* \"#utility.yul\":5600:5604   */\n      0x00\n        /* \"#utility.yul\":5623:5626   */\n      dup2\n        /* \"#utility.yul\":5615:5626   */\n      swap1\n      pop\n        /* \"#utility.yul\":5646:5649   */\n      dup2\n        /* \"#utility.yul\":5643:5644   */\n      0x00\n        /* \"#utility.yul\":5636:5650   */\n      mstore\n        /* \"#utility.yul\":5680:5684   */\n      0x20\n        /* \"#utility.yul\":5677:5678   */\n      0x00\n        /* \"#utility.yul\":5667:5685   */\n      keccak256\n        /* \"#utility.yul\":5659:5685   */\n      swap1\n      pop\n        /* \"#utility.yul\":5551:5692   */\n      swap2\n      swap1\n      pop\n      jump\t// out\n        /* \"#utility.yul\":5698:5791   */\n    tag_77:\n        /* \"#utility.yul\":5735:5741   */\n      0x00\n        /* \"#utility.yul\":5782:5784   */\n      0x20\n        /* \"#utility.yul\":5777:5779   */\n      0x1f\n        /* \"#utility.yul\":5770:5775   */\n      dup4\n        /* \"#utility.yul\":5766:5780   */\n      add\n        /* \"#utility.yul\":5762:5785   */\n      div\n        /* \"#utility.yul\":5752:5785   */\n      swap1\n      pop\n        /* \"#utility.yul\":5698:5791   */\n      swap2\n      swap1\n      pop\n      jump\t// out\n        /* \"#utility.yul\":5797:5904   */\n    tag_78:\n        /* \"#utility.yul\":5841:5849   */\n      0x00\n        /* \"#utility.yul\":5891:5896   */\n      dup3\n        /* \"#utility.yul\":5885:5889   */\n      dup3\n        /* \"#utility.yul\":5881:5897   */\n      shl\n        /* \"#utility.yul\":5860:5897   */\n      swap1\n      pop\n        /* \"#utility.yul\":5797:5904   */\n      swap3\n      swap2\n      pop\n      pop\n      jump\t// out\n        /* \"#utility.yul\":5910:6303   */\n    tag_79:\n        /* \"#utility.yul\":5979:5985   */\n      0x00\n        /* \"#utility.yul\":6029:6030   */\n      0x08\n        /* \"#utility.yul\":6017:6027   */\n      dup4\n        /* \"#utility.yul\":6013:6031   */\n      mul\n        /* \"#utility.yul\":6052:6149   */\n      tag_163\n        /* \"#utility.yul\":6082:6148   */\n      0xffffffffffffffffffffffffffffffffffffffffffffffffffffffffffffffff\n        /* \"#utility.yul\":6071:6080   */\n      dup3\n        /* \"#utility.yul\":6052:6149   */\n      tag_78\n      jump\t// in\n    tag_163:\n        /* \"#utility.yul\":6170:6209   */\n      tag_164\n        /* \"#utility.yul\":6200:6208   */\n      dup7\n        /* \"#utility.yul\":6189:6198   */\n      dup4\n        /* \"#utility.yul\":6170:6209   */\n      tag_78\n      jump\t// in\n    tag_164:\n        /* \"#utility.yul\":6158:6209   */\n      swap6\n      pop\n        /* \"#utility.yul\":6242:6246   */\n      dup1\n        /* \"#utility.yul\":6238:6247   */\n      not\n        /* \"#utility.yul\":6231:6236   */\n      dup5\n        /* \"#utility.yul\":6227:6248   */\n      and\n        /* \"#utility.yul\":6218:6248   */\n      swap4\n      pop\n        /* \"#utility.yul\":6291:6295   */\n      dup1\n        /* \"#utility.yul\":6281:6289   */\n      dup7\n        /* \"#utility.yul\":6277:6296   */\n      and\n        /* \"#utility.yul\":6270:6275   */\n      dup5\n        /* \"#utility.yul\":6267:6297   */\n      or\n        /* \"#utility.yul\":6257:6297   */\n      swap3\n      pop\n        /* \"#utility.yul\":5986:6303   */\n      pop\n      pop\n        /* \"#utility.yul\":5910:6303   */\n      swap4\n      swap3\n      pop\n      pop\n      pop\n      jump\t// out\n        /* \"#utility.yul\":6309:6386   */\n    tag_80:\n        /* \"#utility.yul\":6346:6353   */\n      0x00\n        /* \"#utility.yul\":6375:6380   */\n      dup2\n        /* \"#utility.yul\":6364:6380   */\n      swap1\n      pop\n        /* \"#utility.yul\":6309:6386   */\n      swap2\n      swap1\n      pop\n      jump\t// out\n        /* \"#utility.yul\":6392:6452   */\n    tag_81:\n        /* \"#utility.yul\":6420:6423   */\n      0x00\n        /* \"#utility.yul\":6441:6446   */\n      dup2\n        /* \"#utility.yul\":6434:6446   */\n      swap1\n      pop\n        /* \"#utility.yul\":6392:6452   */\n      swap2\n      swap1\n      pop\n      jump\t// out\n        /* \"#utility.yul\":6458:6600   */\n    tag_82:\n        /* \"#utility.yul\":6508:6517   */\n      0x00\n        /* \"#utility.yul\":6541:6594   */\n      tag_168\n        /* \"#utility.yul\":6559:6593   */\n      tag_169\n        /* \"#utility.yul\":6568:6592   */\n      tag_170\n        /* \"#utility.yul\":6586:6591   */\n      dup5\n        /* \"#utility.yul\":6568:6592   */\n      tag_80\n      jump\t// in\n    tag_170:\n        /* \"#utility.yul\":6559:6593   */\n      tag_81\n      jump\t// in\n    tag_169:\n        /* \"#utility.yul\":6541:6594   */\n      tag_80\n      jump\t// in\n    tag_168:\n        /* \"#utility.yul\":6528:6594   */\n      swap1\n      pop\n        /* \"#utility.yul\":6458:6600   */\n      swap2\n      swap1\n      pop\n      jump\t// out\n        /* \"#utility.yul\":6606:6681   */\n    tag_83:\n        /* \"#utility.yul\":6649:6652   */\n      0x00\n        /* \"#utility.yul\":6670:6675   */\n      dup2\n        /* \"#utility.yul\":6663:6675   */\n      swap1\n      pop\n        /* \"#utility.yul\":6606:6681   */\n      swap2\n      swap1\n      pop\n      jump\t// out\n        /* \"#utility.yul\":6687:6956   */\n    tag_84:\n        /* \"#utility.yul\":6797:6836   */\n      tag_173\n        /* \"#utility.yul\":6828:6835   */\n      dup4\n        /* \"#utility.yul\":6797:6836   */\n      tag_82\n      jump\t// in\n    tag_173:\n        /* \"#utility.yul\":6858:6949   */\n      tag_174\n        /* \"#utility.yul\":6907:6948   */\n      tag_175\n        /* \"#utility.yul\":6931:6947   */\n      dup3\n        /* \"#utility.yul\":6907:6948   */\n      tag_83\n      jump\t// in\n    tag_175:\n        /* \"#utility.yul\":6899:6905   */\n      dup5\n        /* \"#utility.yul\":6892:6896   */\n      dup5\n        /* \"#utility.yul\":6886:6897   */\n      sload\n        /* \"#utility.yul\":6858:6949   */\n      tag_79\n      jump\t// in\n    tag_174:\n        /* \"#utility.yul\":6852:6856   */\n      dup3\n        /* \"#utility.yul\":6845:6950   */\n      sstore\n        /* \"#utility.yul\":6763:6956   */\n      pop\n        /* \"#utility.yul\":6687:6956   */\n      pop\n      pop\n      pop\n      jump\t// out\n        /* \"#utility.yul\":6962:7035   */\n    tag_85:\n        /* \"#utility.yul\":7007:7010   */\n      0x00\n        /* \"#utility.yul\":7028:7029   */\n      0x00\n        /* \"#utility.yul\":7021:7029   */\n      swap1\n      pop\n        /* \"#utility.yul\":6962:7035   */\n      swap1\n      jump\t// out\n        /* \"#utility.yul\":7041:7230   */\n    tag_86:\n        /* \"#utility.yul\":7118:7150   */\n      tag_178\n      tag_85\n      jump\t// in\n    tag_178:\n        /* \"#utility.yul\":7159:7224   */\n      tag_179\n        /* \"#utility.yul\":7217:7223   */\n      dup2\n        /* \"#utility.yul\":7209:7215   */\n      dup5\n        /* \"#utility.yul\":7203:7207   */\n      dup5\n        /* \"#utility.yul\":7159:7224   */\n      tag_84\n      jump\t// in\n    tag_179:\n        /* \"#utility.yul\":7094:7230   */\n      pop\n        /* \"#utility.yul\":7041:7230   */\n      pop\n      pop\n      jump\t// out\n        /* \"#utility.yul\":7236:7422   */\n    tag_87:\n        /* \"#utility.yul\":7296:7416   */\n    tag_181:\n        /* \"#utility.yul\":7313:7316   */\n      dup2\n        /* \"#utility.yul\":7306:7311   */\n      dup2\n        /* \"#utility.yul\":7303:7317   */\n      lt\n        /* \"#utility.yul\":7296:7416   */\n      iszero\n      tag_183\n      jumpi\n        /* \"#utility.yul\":7367:7406   */\n      tag_184\n        /* \"#utility.yul\":7404:7405   */\n      0x00\n        /* \"#utility.yul\":7397:7402   */\n      dup3\n        /* \"#utility.yul\":7367:7406   */\n      tag_86\n      jump\t// in\n    tag_184:\n        /* \"#utility.yul\":7340:7341   */\n      0x01\n        /* \"#utility.yul\":7333:7338   */\n      dup2\n        /* \"#utility.yul\":7329:7342   */\n      add\n        /* \"#utility.yul\":7320:7342   */\n      swap1\n      pop\n        /* \"#utility.yul\":7296:7416   */\n      jump(tag_181)\n    tag_183:\n        /* \"#utility.yul\":7236:7422   */\n      pop\n      pop\n      jump\t// out\n        /* \"#utility.yul\":7428:7971   */\n    tag_88:\n        /* \"#utility.yul\":7529:7531   */\n      0x1f\n        /* \"#utility.yul\":7524:7527   */\n      dup3\n        /* \"#utility.yul\":7521:7532   */\n      gt\n        /* \"#utility.yul\":7518:7964   */\n      iszero\n      tag_186\n      jumpi\n        /* \"#utility.yul\":7563:7601   */\n      tag_187\n        /* \"#utility.yul\":7595:7600   */\n      dup2\n        /* \"#utility.yul\":7563:7601   */\n      tag_76\n      jump\t// in\n    tag_187:\n        /* \"#utility.yul\":7647:7676   */\n      tag_188\n        /* \"#utility.yul\":7665:7675   */\n      dup5\n        /* \"#utility.yul\":7647:7676   */\n      tag_77\n      jump\t// in\n    tag_188:\n        /* \"#utility.yul\":7637:7645   */\n      dup2\n        /* \"#utility.yul\":7633:7677   */\n      add\n        /* \"#utility.yul\":7830:7832   */\n      0x20\n        /* \"#utility.yul\":7818:7828   */\n      dup6\n        /* \"#utility.yul\":7815:7833   */\n      lt\n        /* \"#utility.yul\":7812:7861   */\n      iszero\n      tag_189\n      jumpi\n        /* \"#utility.yul\":7851:7859   */\n      dup2\n        /* \"#utility.yul\":7836:7859   */\n      swap1\n      pop\n        /* \"#utility.yul\":7812:7861   */\n    tag_189:\n        /* \"#utility.yul\":7874:7954   */\n      tag_190\n        /* \"#utility.yul\":7930:7952   */\n      tag_191\n        /* \"#utility.yul\":7948:7951   */\n      dup6\n        /* \"#utility.yul\":7930:7952   */\n      tag_77\n      jump\t// in\n    tag_191:\n        /* \"#utility.yul\":7920:7928   */\n      dup4\n        /* \"#utility.yul\":7916:7953   */\n      add\n        /* \"#utility.yul\":7903:7914   */\n      dup3\n        /* \"#utility.yul\":7874:7954   */\n      tag_87\n      jump\t// in\n    tag_190:\n        /* \"#utility.yul\":7533:7964   */\n      pop\n      pop\n        /* \"#utility.yul\":7518:7964   */\n    tag_186:\n        /* \"#utility.yul\":7428:7971   */\n      pop\n      pop\n      pop\n      jump\t// out\n        /* \"#utility.yul\":7977:8094   */\n    tag_89:\n        /* \"#utility.yul\":8031:8039   */\n      0x00\n        /* \"#utility.yul\":8081:8086   */\n      dup3\n        /* \"#utility.yul\":8075:8079   */\n      dup3\n        /* \"#utility.yul\":8071:8087   */\n      shr\n        /* \"#utility.yul\":8050:8087   */\n      swap1\n      pop\n        /* \"#utility.yul\":7977:8094   */\n      swap3\n      swap2\n      pop\n      pop\n      jump\t// out\n        /* \"#utility.yul\":8100:8269   */\n    tag_90:\n        /* \"#utility.yul\":8144:8150   */\n      0x00\n        /* \"#utility.yul\":8177:8228   */\n      tag_194\n        /* \"#utility.yul\":8225:8226   */\n      0x00\n        /* \"#utility.yul\":8221:8227   */\n      not\n        /* \"#utility.yul\":8213:8218   */\n      dup5\n        /* \"#utility.yul\":8210:8211   */\n      0x08\n        /* \"#utility.yul\":8206:8219   */\n      mul\n        /* \"#utility.yul\":8177:8228   */\n      tag_89\n      jump\t// in\n    tag_194:\n        /* \"#utility.yul\":8173:8229   */\n      not\n        /* \"#utility.yul\":8258:8262   */\n      dup1\n        /* \"#utility.yul\":8252:8256   */\n      dup4\n        /* \"#utility.yul\":8248:8263   */\n      and\n        /* \"#utility.yul\":8238:8263   */\n      swap2\n      pop\n        /* \"#utility.yul\":8151:8269   */\n      pop\n        /* \"#utility.yul\":8100:8269   */\n      swap3\n      swap2\n      pop\n      pop\n      jump\t// out\n        /* \"#utility.yul\":8274:8569   */\n    tag_91:\n        /* \"#utility.yul\":8350:8354   */\n      0x00\n        /* \"#utility.yul\":8496:8525   */\n      tag_196\n        /* \"#utility.yul\":8521:8524   */\n      dup4\n        /* \"#utility.yul\":8515:8519   */\n      dup4\n        /* \"#utility.yul\":8496:8525   */\n      tag_90\n      jump\t// in\n    tag_196:\n        /* \"#utility.yul\":8488:8525   */\n      swap2\n      pop\n        /* \"#utility.yul\":8558:8561   */\n      dup3\n        /* \"#utility.yul\":8555:8556   */\n      0x02\n        /* \"#utility.yul\":8551:8562   */\n      mul\n        /* \"#utility.yul\":8545:8549   */\n      dup3\n        /* \"#utility.yul\":8542:8563   */\n      or\n        /* \"#utility.yul\":8534:8563   */\n      swap1\n      pop\n        /* \"#utility.yul\":8274:8569   */\n      swap3\n      swap2\n      pop\n      pop\n      jump\t// out\n        /* \"#utility.yul\":8574:9969   */\n    tag_32:\n        /* \"#utility.yul\":8691:8728   */\n      tag_198\n        /* \"#utility.yul\":8724:8727   */\n      dup3\n        /* \"#utility.yul\":8691:8728   */\n      tag_61\n      jump\t// in\n    tag_198:\n        /* \"#utility.yul\":8793:8811   */\n      0xffffffffffffffff\n        /* \"#utility.yul\":8785:8791   */\n      dup2\n        /* \"#utility.yul\":8782:8812   */\n      gt\n        /* \"#utility.yul\":8779:8835   */\n      iszero\n      tag_199\n      jumpi\n        /* \"#utility.yul\":8815:8833   */\n      tag_200\n      tag_68\n      jump\t// in\n    tag_200:\n        /* \"#utility.yul\":8779:8835   */\n    tag_199:\n        /* \"#utility.yul\":8859:8897   */\n      tag_201\n        /* \"#utility.yul\":8891:8895   */\n      dup3\n        /* \"#utility.yul\":8885:8896   */\n      sload\n        /* \"#utility.yul\":8859:8897   */\n      tag_25\n      jump\t// in\n    tag_201:\n        /* \"#utility.yul\":8944:9011   */\n      tag_202\n        /* \"#utility.yul\":9004:9010   */\n      dup3\n        /* \"#utility.yul\":8996:9002   */\n      dup3\n        /* \"#utility.yul\":8990:8994   */\n      dup6\n        /* \"#utility.yul\":8944:9011   */\n      tag_88\n      jump\t// in\n    tag_202:\n        /* \"#utility.yul\":9038:9039   */\n      0x00\n        /* \"#utility.yul\":9062:9066   */\n      0x20\n        /* \"#utility.yul\":9049:9066   */\n      swap1\n      pop\n        /* \"#utility.yul\":9094:9096   */\n      0x1f\n        /* \"#utility.yul\":9086:9092   */\n      dup4\n        /* \"#utility.yul\":9083:9097   */\n      gt\n        /* \"#utility.yul\":9111:9112   */\n      0x01\n        /* \"#utility.yul\":9106:9724   */\n      dup2\n      eq\n      tag_204\n      jumpi\n        /* \"#utility.yul\":9768:9769   */\n      0x00\n        /* \"#utility.yul\":9785:9791   */\n      dup5\n        /* \"#utility.yul\":9782:9859   */\n      iszero\n      tag_205\n      jumpi\n        /* \"#utility.yul\":9834:9843   */\n      dup3\n        /* \"#utility.yul\":9829:9832   */\n      dup8\n        /* \"#utility.yul\":9825:9844   */\n      add\n        /* \"#utility.yul\":9819:9845   */\n      mload\n        /* \"#utility.yul\":9810:9845   */\n      swap1\n      pop\n        /* \"#utility.yul\":9782:9859   */\n    tag_205:\n        /* \"#utility.yul\":9885:9952   */\n      tag_206\n        /* \"#utility.yul\":9945:9951   */\n      dup6\n        /* \"#utility.yul\":9938:9943   */\n      dup3\n        /* \"#utility.yul\":9885:9952   */\n      tag_91\n      jump\t// in\n    tag_206:\n        /* \"#utility.yul\":9879:9883   */\n      dup7\n        /* \"#utility.yul\":9872:9953   */\n      sstore\n        /* \"#utility.yul\":9741:9963   */\n      pop\n        /* \"#utility.yul\":9076:9963   */\n      jump(tag_203)\n        /* \"#utility.yul\":9106:9724   */\n    tag_204:\n        /* \"#utility.yul\":9158:9162   */\n      0x1f\n        /* \"#utility.yul\":9154:9163   */\n      not\n        /* \"#utility.yul\":9146:9152   */\n      dup5\n        /* \"#utility.yul\":9142:9164   */\n      and\n        /* \"#utility.yul\":9192:9229   */\n      tag_207\n        /* \"#utility.yul\":9224:9228   */\n      dup7\n        /* \"#utility.yul\":9192:9229   */\n      tag_76\n      jump\t// in\n    tag_207:\n        /* \"#utility.yul\":9251:9252   */\n      0x00\n        /* \"#utility.yul\":9265:9473   */\n    tag_208:\n        /* \"#utility.yul\":9279:9286   */\n      dup3\n        /* \"#utility.yul\":9276:9277   */\n      dup2\n        /* \"#utility.yul\":9273:9287   */\n      lt\n        /* \"#utility.yul\":9265:9473   */\n      iszero\n      tag_210\n      jumpi\n        /* \"#utility.yul\":9358:9367   */\n      dup5\n        /* \"#utility.yul\":9353:9356   */\n      dup10\n        /* \"#utility.yul\":9349:9368   */\n      add\n        /* \"#utility.yul\":9343:9369   */\n      mload\n        /* \"#utility.yul\":9335:9341   */\n      dup3\n        /* \"#utility.yul\":9328:9370   */\n      sstore\n        /* \"#utility.yul\":9409:9410   */\n      0x01\n        /* \"#utility.yul\":9401:9407   */\n      dup3\n        /* \"#utility.yul\":9397:9411   */\n      add\n        /* \"#utility.yul\":9387:9411   */\n      swap2\n      pop\n        /* \"#utility.yul\":9456:9458   */\n      0x20\n        /* \"#utility.yul\":9445:9454   */\n      dup6\n        /* \"#utility.yul\":9441:9459   */\n      add\n        /* \"#utility.yul\":9428:9459   */\n      swap5\n      pop\n        /* \"#utility.yul\":9302:9306   */\n      0x20\n        /* \"#utility.yul\":9299:9300   */\n      dup2\n        /* \"#utility.yul\":9295:9307   */\n      add\n        /* \"#utility.yul\":9290:9307   */\n      swap1\n      pop\n        /* \"#utility.yul\":9265:9473   */\n      jump(tag_208)\n    tag_210:\n        /* \"#utility.yul\":9501:9507   */\n      dup7\n        /* \"#utility.yul\":9492:9499   */\n      dup4\n        /* \"#utility.yul\":9489:9508   */\n      lt\n        /* \"#utility.yul\":9486:9665   */\n      iszero\n      tag_211\n      jumpi\n        /* \"#utility.yul\":9559:9568   */\n      dup5\n        /* \"#utility.yul\":9554:9557   */\n      dup10\n        /* \"#utility.yul\":9550:9569   */\n      add\n        /* \"#utility.yul\":9544:9570   */\n      mload\n        /* \"#utility.yul\":9602:9650   */\n      tag_212\n        /* \"#utility.yul\":9644:9648   */\n      0x1f\n        /* \"#utility.yul\":9636:9642   */\n      dup10\n        /* \"#utility.yul\":9632:9649   */\n      and\n        /* \"#utility.yul\":9621:9630   */\n      dup3\n        /* \"#utility.yul\":9602:9650   */\n      tag_90\n      jump\t// in\n    tag_212:\n        /* \"#utility.yul\":9594:9600   */\n      dup4\n        /* \"#utility.yul\":9587:9651   */\n      sstore\n        /* \"#utility.yul\":9509:9665   */\n      pop\n        /* \"#utility.yul\":9486:9665   */\n    tag_211:\n        /* \"#utility.yul\":9711:9712   */\n      0x01\n        /* \"#utility.yul\":9707:9708   */\n      0x02\n        /* \"#utility.yul\":9699:9705   */\n      dup9\n        /* \"#utility.yul\":9695:9709   */\n      mul\n        /* \"#utility.yul\":9691:9713   */\n      add\n        /* \"#utility.yul\":9685:9689   */\n      dup9\n        /* \"#utility.yul\":9678:9714   */\n      sstore\n        /* \"#utility.yul\":9113:9724   */\n      pop\n      pop\n      pop\n        /* \"#utility.yul\":9076:9963   */\n    tag_203:\n      pop\n        /* \"#utility.yul\":8666:9969   */\n      pop\n      pop\n      pop\n        /* \"#utility.yul\":8574:9969   */\n      pop\n      pop\n      jump\t// out\n        /* \"#utility.yul\":9975:10060   */\n    tag_92:\n        /* \"#utility.yul\":10020:10027   */\n      0x00\n        /* \"#utility.yul\":10049:10054   */\n      dup2\n        /* \"#utility.yul\":10038:10054   */\n      swap1\n      pop\n        /* \"#utility.yul\":9975:10060   */\n      swap2\n      swap1\n      pop\n      jump\t// out\n        /* \"#utility.yul\":10066:10167   */\n    tag_93:\n        /* \"#utility.yul\":10102:10109   */\n      0x00\n        /* \"#utility.yul\":10142:10160   */\n      0xffffffffffffffff\n        /* \"#utility.yul\":10135:10140   */\n      dup3\n        /* \"#utility.yul\":10131:10161   */\n      and\n        /* \"#utility.yul\":10120:10161   */\n      swap1\n      pop\n        /* \"#utility.yul\":10066:10167   */\n      swap2\n      swap1\n      pop\n      jump\t// out\n        /* \"#utility.yul\":10173:10329   */\n    tag_94:\n        /* \"#utility.yul\":10230:10239   */\n      0x00\n        /* \"#utility.yul\":10263:10323   */\n      tag_216\n        /* \"#utility.yul\":10280:10322   */\n      tag_217\n        /* \"#utility.yul\":10289:10321   */\n      tag_218\n        /* \"#utility.yul\":10315:10320   */\n      dup5\n        /* \"#utility.yul\":10289:10321   */\n      tag_92\n      jump\t// in\n    tag_218:\n        /* \"#utility.yul\":10280:10322   */\n      tag_81\n      jump\t// in\n    tag_217:\n        /* \"#utility.yul\":10263:10323   */\n      tag_93\n      jump\t// in\n    tag_216:\n        /* \"#utility.yul\":10250:10323   */\n      swap1\n      pop\n        /* \"#utility.yul\":10173:10329   */\n      swap2\n      swap1\n      pop\n      jump\t// out\n        /* \"#utility.yul\":10335:10480   */\n    tag_95:\n        /* \"#utility.yul\":10429:10473   */\n      tag_220\n        /* \"#utility.yul\":10467:10472   */\n      dup2\n        /* \"#utility.yul\":10429:10473   */\n      tag_94\n      jump\t// in\n    tag_220:\n        /* \"#utility.yul\":10424:10427   */\n      dup3\n        /* \"#utility.yul\":10417:10474   */\n      mstore\n        /* \"#utility.yul\":10335:10480   */\n      pop\n      pop\n      jump\t// out\n        /* \"#utility.yul\":10486:10722   */\n    tag_49:\n        /* \"#utility.yul\":10586:10590   */\n      0x00\n        /* \"#utility.yul\":10624:10626   */\n      0x20\n        /* \"#utility.yul\":10613:10622   */\n      dup3\n        /* \"#utility.yul\":10609:10627   */\n      add\n        /* \"#utility.yul\":10601:10627   */\n      swap1\n      pop\n        /* \"#utility.yul\":10637:10715   */\n      tag_222\n        /* \"#utility.yul\":10712:10713   */\n      0x00\n        /* \"#utility.yul\":10701:10710   */\n      dup4\n        /* \"#utility.yul\":10697:10714   */\n      add\n        /* \"#utility.yul\":10688:10694   */\n      dup5\n        /* \"#utility.yul\":10637:10715   */\n      tag_95\n      jump\t// in\n    tag_222:\n        /* \"#utility.yul\":10486:10722   */\n      swap3\n      swap2\n      pop\n      pop\n      jump\t// out\n\n    auxdata: 0xa264697066735822122060cb8c7ed9239102bc5f191eb909bcbe81a7871b754747b26cc48226525a588564736f6c634300081f0033\n}\n",
				"bytecode": {
					"linkReferences": {},
					"object": "6080604052348015600e575f5ffd5b50610a438061001c5f395ff3fe608060405234801561000f575f5ffd5b506004361061004a575f3560e01c80636f77926b1461004e578063704f1b941461007e5780637f2816351461009a5780638129fc1c146100ca575b5f5ffd5b610068600480360381019061006391906104a5565b6100d4565b6040516100759190610540565b60405180910390f35b6100986004803603810190610093919061068c565b6101a0565b005b6100b460048036038101906100af91906104a5565b6101ed565b6040516100c19190610540565b60405180910390f35b6100d2610287565b005b60605f5f8373ffffffffffffffffffffffffffffffffffffffff1673ffffffffffffffffffffffffffffffffffffffff1681526020019081526020015f20805461011d90610700565b80601f016020809104026020016040519081016040528092919081815260200182805461014990610700565b80156101945780601f1061016b57610100808354040283529160200191610194565b820191905f5260205f20905b81548152906001019060200180831161017757829003601f168201915b50505050509050919050565b805f5f3373ffffffffffffffffffffffffffffffffffffffff1673ffffffffffffffffffffffffffffffffffffffff1681526020019081526020015f2090816101e991906108d9565b5050565b5f602052805f5260405f205f91509050805461020890610700565b80601f016020809104026020016040519081016040528092919081815260200182805461023490610700565b801561027f5780601f106102565761010080835404028352916020019161027f565b820191905f5260205f20905b81548152906001019060200180831161026257829003601f168201915b505050505081565b5f6102906103fe565b90505f815f0160089054906101000a900460ff161590505f825f015f9054906101000a900467ffffffffffffffff1690505f5f8267ffffffffffffffff161480156102d85750825b90505f60018367ffffffffffffffff1614801561030b57505f3073ffffffffffffffffffffffffffffffffffffffff163b145b905081158015610319575080155b15610350576040517ff92ee8a900000000000000000000000000000000000000000000000000000000815260040160405180910390fd5b6001855f015f6101000a81548167ffffffffffffffff021916908367ffffffffffffffff160217905550831561039d576001855f0160086101000a81548160ff0219169083151502179055505b83156103f7575f855f0160086101000a81548160ff0219169083151502179055507fc7f505b2f371ae2175ee4913f4499e1f2633a7b5936321eed1cdaeb6115181d260016040516103ee91906109f4565b60405180910390a15b5050505050565b5f5f610408610411565b90508091505090565b5f7ff0c57e16840df040f15088dc2f81fe391c3923bec73e23a9662efc9c229c6a005f1b905090565b5f604051905090565b5f5ffd5b5f5ffd5b5f73ffffffffffffffffffffffffffffffffffffffff82169050919050565b5f6104748261044b565b9050919050565b6104848161046a565b811461048e575f5ffd5b50565b5f8135905061049f8161047b565b92915050565b5f602082840312156104ba576104b9610443565b5b5f6104c784828501610491565b91505092915050565b5f81519050919050565b5f82825260208201905092915050565b8281835e5f83830152505050565b5f601f19601f8301169050919050565b5f610512826104d0565b61051c81856104da565b935061052c8185602086016104ea565b610535816104f8565b840191505092915050565b5f6020820190508181035f8301526105588184610508565b905092915050565b5f5ffd5b5f5ffd5b7f4e487b71000000000000000000000000000000000000000000000000000000005f52604160045260245ffd5b61059e826104f8565b810181811067ffffffffffffffff821117156105bd576105bc610568565b5b80604052505050565b5f6105cf61043a565b90506105db8282610595565b919050565b5f67ffffffffffffffff8211156105fa576105f9610568565b5b610603826104f8565b9050602081019050919050565b828183375f83830152505050565b5f61063061062b846105e0565b6105c6565b90508281526020810184848401111561064c5761064b610564565b5b610657848285610610565b509392505050565b5f82601f83011261067357610672610560565b5b813561068384826020860161061e565b91505092915050565b5f602082840312156106a1576106a0610443565b5b5f82013567ffffffffffffffff8111156106be576106bd610447565b5b6106ca8482850161065f565b91505092915050565b7f4e487b71000000000000000000000000000000000000000000000000000000005f52602260045260245ffd5b5f600282049050600182168061071757607f821691505b60208210810361072a576107296106d3565b5b50919050565b5f819050815f5260205f209050919050565b5f6020601f8301049050919050565b5f82821b905092915050565b5f6008830261078c7fffffffffffffffffffffffffffffffffffffffffffffffffffffffffffffffff82610751565b6107968683610751565b95508019841693508086168417925050509392505050565b5f819050919050565b5f819050919050565b5f6107da6107d56107d0846107ae565b6107b7565b6107ae565b9050919050565b5f819050919050565b6107f3836107c0565b6108076107ff826107e1565b84845461075d565b825550505050565b5f5f905090565b61081e61080f565b6108298184846107ea565b505050565b5b8181101561084c576108415f82610816565b60018101905061082f565b5050565b601f8211156108915761086281610730565b61086b84610742565b8101602085101561087a578190505b61088e61088685610742565b83018261082e565b50505b505050565b5f82821c905092915050565b5f6108b15f1984600802610896565b1980831691505092915050565b5f6108c983836108a2565b9150826002028217905092915050565b6108e2826104d0565b67ffffffffffffffff8111156108fb576108fa610568565b5b6109058254610700565b610910828285610850565b5f60209050601f831160018114610941575f841561092f578287015190505b61093985826108be565b8655506109a0565b601f19841661094f86610730565b5f5b8281101561097657848901518255600182019150602085019450602081019050610951565b86831015610993578489015161098f601f8916826108a2565b8355505b6001600288020188555050505b505050505050565b5f819050919050565b5f67ffffffffffffffff82169050919050565b5f6109de6109d96109d4846109a8565b6107b7565b6109b1565b9050919050565b6109ee816109c4565b82525050565b5f602082019050610a075f8301846109e5565b9291505056fea264697066735822122060cb8c7ed9239102bc5f191eb909bcbe81a7871b754747b26cc48226525a588564736f6c634300081f0033",
					"opcodes": "PUSH1 0x80 PUSH1 0x40 MSTORE CALLVALUE DUP1 ISZERO PUSH1 0xE JUMPI PUSH0 PUSH0 REVERT JUMPDEST POP PUSH2 0xA43 DUP1 PUSH2 0x1C PUSH0 CODECOPY PUSH0 RETURN INVALID PUSH1 0x80 PUSH1 0x40 MSTORE CALLVALUE DUP1 ISZERO PUSH2 0xF JUMPI PUSH0 PUSH0 REVERT JUMPDEST POP PUSH1 0x4 CALLDATASIZE LT PUSH2 0x4A JUMPI PUSH0 CALLDATALOAD PUSH1 0xE0 SHR DUP1 PUSH4 0x6F77926B EQ PUSH2 0x4E JUMPI DUP1 PUSH4 0x704F1B94 EQ PUSH2 0x7E JUMPI DUP1 PUSH4 0x7F281635 EQ PUSH2 0x9A JUMPI DUP1 PUSH4 0x8129FC1C EQ PUSH2 0xCA JUMPI JUMPDEST PUSH0 PUSH0 REVERT JUMPDEST PUSH2 0x68 PUSH1 0x4 DUP1 CALLDATASIZE SUB DUP2 ADD SWAP1 PUSH2 0x63 SWAP2 SWAP1 PUSH2 0x4A5 JUMP JUMPDEST PUSH2 0xD4 JUMP JUMPDEST PUSH1 0x40 MLOAD PUSH2 0x75 SWAP2 SWAP1 PUSH2 0x540 JUMP JUMPDEST PUSH1 0x40 MLOAD DUP1 SWAP2 SUB SWAP1 RETURN JUMPDEST PUSH2 0x98 PUSH1 0x4 DUP1 CALLDATASIZE SUB DUP2 ADD SWAP1 PUSH2 0x93 SWAP2 SWAP1 PUSH2 0x68C JUMP JUMPDEST PUSH2 0x1A0 JUMP JUMPDEST STOP JUMPDEST PUSH2 0xB4 PUSH1 0x4 DUP1 CALLDATASIZE SUB DUP2 ADD SWAP1 PUSH2 0xAF SWAP2 SWAP1 PUSH2 0x4A5 JUMP JUMPDEST PUSH2 0x1ED JUMP JUMPDEST PUSH1 0x40 MLOAD PUSH2 0xC1 SWAP2 SWAP1 PUSH2 0x540 JUMP JUMPDEST PUSH1 0x40 MLOAD DUP1 SWAP2 SUB SWAP1 RETURN JUMPDEST PUSH2 0xD2 PUSH2 0x287 JUMP JUMPDEST STOP JUMPDEST PUSH1 0x60 PUSH0 PUSH0 DUP4 PUSH20 0xFFFFFFFFFFFFFFFFFFFFFFFFFFFFFFFFFFFFFFFF AND PUSH20 0xFFFFFFFFFFFFFFFFFFFFFFFFFFFFFFFFFFFFFFFF AND DUP2 MSTORE PUSH1 0x20 ADD SWAP1 DUP2 MSTORE PUSH1 0x20 ADD PUSH0 KECCAK256 DUP1 SLOAD PUSH2 0x11D SWAP1 PUSH2 0x700 JUMP JUMPDEST DUP1 PUSH1 0x1F ADD PUSH1 0x20 DUP1 SWAP2 DIV MUL PUSH1 0x20 ADD PUSH1 0x40 MLOAD SWAP1 DUP2 ADD PUSH1 0x40 MSTORE DUP1 SWAP3 SWAP2 SWAP1 DUP2 DUP2 MSTORE PUSH1 0x20 ADD DUP3 DUP1 SLOAD PUSH2 0x149 SWAP1 PUSH2 0x700 JUMP JUMPDEST DUP1 ISZERO PUSH2 0x194 JUMPI DUP1 PUSH1 0x1F LT PUSH2 0x16B JUMPI PUSH2 0x100 DUP1 DUP4 SLOAD DIV MUL DUP4 MSTORE SWAP2 PUSH1 0x20 ADD SWAP2 PUSH2 0x194 JUMP JUMPDEST DUP3 ADD SWAP2 SWAP1 PUSH0 MSTORE PUSH1 0x20 PUSH0 KECCAK256 SWAP1 JUMPDEST DUP2 SLOAD DUP2 MSTORE SWAP1 PUSH1 0x1 ADD SWAP1 PUSH1 0x20 ADD DUP1 DUP4 GT PUSH2 0x177 JUMPI DUP3 SWAP1 SUB PUSH1 0x1F AND DUP3 ADD SWAP2 JUMPDEST POP POP POP POP POP SWAP1 POP SWAP2 SWAP1 POP JUMP JUMPDEST DUP1 PUSH0 PUSH0 CALLER PUSH20 0xFFFFFFFFFFFFFFFFFFFFFFFFFFFFFFFFFFFFFFFF AND PUSH20 0xFFFFFFFFFFFFFFFFFFFFFFFFFFFFFFFFFFFFFFFF AND DUP2 MSTORE PUSH1 0x20 ADD SWAP1 DUP2 MSTORE PUSH1 0x20 ADD PUSH0 KECCAK256 SWAP1 DUP2 PUSH2 0x1E9 SWAP2 SWAP1 PUSH2 0x8D9 JUMP JUMPDEST POP POP JUMP JUMPDEST PUSH0 PUSH1 0x20 MSTORE DUP1 PUSH0 MSTORE PUSH1 0x40 PUSH0 KECCAK256 PUSH0 SWAP2 POP SWAP1 POP DUP1 SLOAD PUSH2 0x208 SWAP1 PUSH2 0x700 JUMP JUMPDEST DUP1 PUSH1 0x1F ADD PUSH1 0x20 DUP1 SWAP2 DIV MUL PUSH1 0x20 ADD PUSH1 0x40 MLOAD SWAP1 DUP2 ADD PUSH1 0x40 MSTORE DUP1 SWAP3 SWAP2 SWAP1 DUP2 DUP2 MSTORE PUSH1 0x20 ADD DUP3 DUP1 SLOAD PUSH2 0x234 SWAP1 PUSH2 0x700 JUMP JUMPDEST DUP1 ISZERO PUSH2 0x27F JUMPI DUP1 PUSH1 0x1F LT PUSH2 0x256 JUMPI PUSH2 0x100 DUP1 DUP4 SLOAD DIV MUL DUP4 MSTORE SWAP2 PUSH1 0x20 ADD SWAP2 PUSH2 0x27F JUMP JUMPDEST DUP3 ADD SWAP2 SWAP1 PUSH0 MSTORE PUSH1 0x20 PUSH0 KECCAK256 SWAP1 JUMPDEST DUP2 SLOAD DUP2 MSTORE SWAP1 PUSH1 0x1 ADD SWAP1 PUSH1 0x20 ADD DUP1 DUP4 GT PUSH2 0x262 JUMPI DUP3 SWAP1 SUB PUSH1 0x1F AND DUP3 ADD SWAP2 JUMPDEST POP POP POP POP POP DUP2 JUMP JUMPDEST PUSH0 PUSH2 0x290 PUSH2 0x3FE JUMP JUMPDEST SWAP1 POP PUSH0 DUP2 PUSH0 ADD PUSH1 0x8 SWAP1 SLOAD SWAP1 PUSH2 0x100 EXP SWAP1 DIV PUSH1 0xFF AND ISZERO SWAP1 POP PUSH0 DUP3 PUSH0 ADD PUSH0 SWAP1 SLOAD SWAP1 PUSH2 0x100 EXP SWAP1 DIV PUSH8 0xFFFFFFFFFFFFFFFF AND SWAP1 POP PUSH0 PUSH0 DUP3 PUSH8 0xFFFFFFFFFFFFFFFF AND EQ DUP1 ISZERO PUSH2 0x2D8 JUMPI POP DUP3 JUMPDEST SWAP1 POP PUSH0 PUSH1 0x1 DUP4 PUSH8 0xFFFFFFFFFFFFFFFF AND EQ DUP1 ISZERO PUSH2 0x30B JUMPI POP PUSH0 ADDRESS PUSH20 0xFFFFFFFFFFFFFFFFFFFFFFFFFFFFFFFFFFFFFFFF AND EXTCODESIZE EQ JUMPDEST SWAP1 POP DUP2 ISZERO DUP1 ISZERO PUSH2 0x319 JUMPI POP DUP1 ISZERO JUMPDEST ISZERO PUSH2 0x350 JUMPI PUSH1 0x40 MLOAD PUSH32 0xF92EE8A900000000000000000000000000000000000000000000000000000000 DUP2 MSTORE PUSH1 0x4 ADD PUSH1 0x40 MLOAD DUP1 SWAP2 SUB SWAP1 REVERT JUMPDEST PUSH1 0x1 DUP6 PUSH0 ADD PUSH0 PUSH2 0x100 EXP DUP2 SLOAD DUP2 PUSH8 0xFFFFFFFFFFFFFFFF MUL NOT AND SWAP1 DUP4 PUSH8 0xFFFFFFFFFFFFFFFF AND MUL OR SWAP1 SSTORE POP DUP4 ISZERO PUSH2 0x39D JUMPI PUSH1 0x1 DUP6 PUSH0 ADD PUSH1 0x8 PUSH2 0x100 EXP DUP2 SLOAD DUP2 PUSH1 0xFF MUL NOT AND SWAP1 DUP4 ISZERO ISZERO MUL OR SWAP1 SSTORE POP JUMPDEST DUP4 ISZERO PUSH2 0x3F7 JUMPI PUSH0 DUP6 PUSH0 ADD PUSH1 0x8 PUSH2 0x100 EXP DUP2 SLOAD DUP2 PUSH1 0xFF MUL NOT AND SWAP1 DUP4 ISZERO ISZERO MUL OR SWAP1 SSTORE POP PUSH32 0xC7F505B2F371AE2175EE4913F4499E1F2633A7B5936321EED1CDAEB6115181D2 PUSH1 0x1 PUSH1 0x40 MLOAD PUSH2 0x3EE SWAP2 SWAP1 PUSH2 0x9F4 JUMP JUMPDEST PUSH1 0x40 MLOAD DUP1 SWAP2 SUB SWAP1 LOG1 JUMPDEST POP POP POP POP POP JUMP JUMPDEST PUSH0 PUSH0 PUSH2 0x408 PUSH2 0x411 JUMP JUMPDEST SWAP1 POP DUP1 SWAP2 POP POP SWAP1 JUMP JUMPDEST PUSH0 PUSH32 0xF0C57E16840DF040F15088DC2F81FE391C3923BEC73E23A9662EFC9C229C6A00 PUSH0 SHL SWAP1 POP SWAP1 JUMP JUMPDEST PUSH0 PUSH1 0x40 MLOAD SWAP1 POP SWAP1 JUMP JUMPDEST PUSH0 PUSH0 REVERT JUMPDEST PUSH0 PUSH0 REVERT JUMPDEST PUSH0 PUSH20 0xFFFFFFFFFFFFFFFFFFFFFFFFFFFFFFFFFFFFFFFF DUP3 AND SWAP1 POP SWAP2 SWAP1 POP JUMP JUMPDEST PUSH0 PUSH2 0x474 DUP3 PUSH2 0x44B JUMP JUMPDEST SWAP1 POP SWAP2 SWAP1 POP JUMP JUMPDEST PUSH2 0x484 DUP2 PUSH2 0x46A JUMP JUMPDEST DUP2 EQ PUSH2 0x48E JUMPI PUSH0 PUSH0 REVERT JUMPDEST POP JUMP JUMPDEST PUSH0 DUP2 CALLDATALOAD SWAP1 POP PUSH2 0x49F DUP2 PUSH2 0x47B JUMP JUMPDEST SWAP3 SWAP2 POP POP JUMP JUMPDEST PUSH0 PUSH1 0x20 DUP3 DUP5 SUB SLT ISZERO PUSH2 0x4BA JUMPI PUSH2 0x4B9 PUSH2 0x443 JUMP JUMPDEST JUMPDEST PUSH0 PUSH2 0x4C7 DUP5 DUP3 DUP6 ADD PUSH2 0x491 JUMP JUMPDEST SWAP2 POP POP SWAP3 SWAP2 POP POP JUMP JUMPDEST PUSH0 DUP2 MLOAD SWAP1 POP SWAP2 SWAP1 POP JUMP JUMPDEST PUSH0 DUP3 DUP3 MSTORE PUSH1 0x20 DUP3 ADD SWAP1 POP SWAP3 SWAP2 POP POP JUMP JUMPDEST DUP3 DUP2 DUP4 MCOPY PUSH0 DUP4 DUP4 ADD MSTORE POP POP POP JUMP JUMPDEST PUSH0 PUSH1 0x1F NOT PUSH1 0x1F DUP4 ADD AND SWAP1 POP SWAP2 SWAP1 POP JUMP JUMPDEST PUSH0 PUSH2 0x512 DUP3 PUSH2 0x4D0 JUMP JUMPDEST PUSH2 0x51C DUP2 DUP6 PUSH2 0x4DA JUMP JUMPDEST SWAP4 POP PUSH2 0x52C DUP2 DUP6 PUSH1 0x20 DUP7 ADD PUSH2 0x4EA JUMP JUMPDEST PUSH2 0x535 DUP2 PUSH2 0x4F8 JUMP JUMPDEST DUP5 ADD SWAP2 POP POP SWAP3 SWAP2 POP POP JUMP JUMPDEST PUSH0 PUSH1 0x20 DUP3 ADD SWAP1 POP DUP2 DUP2 SUB PUSH0 DUP4 ADD MSTORE PUSH2 0x558 DUP2 DUP5 PUSH2 0x508 JUMP JUMPDEST SWAP1 POP SWAP3 SWAP2 POP POP JUMP JUMPDEST PUSH0 PUSH0 REVERT JUMPDEST PUSH0 PUSH0 REVERT JUMPDEST PUSH32 0x4E487B7100000000000000000000000000000000000000000000000000000000 PUSH0 MSTORE PUSH1 0x41 PUSH1 0x4 MSTORE PUSH1 0x24 PUSH0 REVERT JUMPDEST PUSH2 0x59E DUP3 PUSH2 0x4F8 JUMP JUMPDEST DUP2 ADD DUP2 DUP2 LT PUSH8 0xFFFFFFFFFFFFFFFF DUP3 GT OR ISZERO PUSH2 0x5BD JUMPI PUSH2 0x5BC PUSH2 0x568 JUMP JUMPDEST JUMPDEST DUP1 PUSH1 0x40 MSTORE POP POP POP JUMP JUMPDEST PUSH0 PUSH2 0x5CF PUSH2 0x43A JUMP JUMPDEST SWAP1 POP PUSH2 0x5DB DUP3 DUP3 PUSH2 0x595 JUMP JUMPDEST SWAP2 SWAP1 POP JUMP JUMPDEST PUSH0 PUSH8 0xFFFFFFFFFFFFFFFF DUP3 GT ISZERO PUSH2 0x5FA JUMPI PUSH2 0x5F9 PUSH2 0x568 JUMP JUMPDEST JUMPDEST PUSH2 0x603 DUP3 PUSH2 0x4F8 JUMP JUMPDEST SWAP1 POP PUSH1 0x20 DUP2 ADD SWAP1 POP SWAP2 SWAP1 POP JUMP JUMPDEST DUP3 DUP2 DUP4 CALLDATACOPY PUSH0 DUP4 DUP4 ADD MSTORE POP POP POP JUMP JUMPDEST PUSH0 PUSH2 0x630 PUSH2 0x62B DUP5 PUSH2 0x5E0 JUMP JUMPDEST PUSH2 0x5C6 JUMP JUMPDEST SWAP1 POP DUP3 DUP2 MSTORE PUSH1 0x20 DUP2 ADD DUP5 DUP5 DUP5 ADD GT ISZERO PUSH2 0x64C JUMPI PUSH2 0x64B PUSH2 0x564 JUMP JUMPDEST JUMPDEST PUSH2 0x657 DUP5 DUP3 DUP6 PUSH2 0x610 JUMP JUMPDEST POP SWAP4 SWAP3 POP POP POP JUMP JUMPDEST PUSH0 DUP3 PUSH1 0x1F DUP4 ADD SLT PUSH2 0x673 JUMPI PUSH2 0x672 PUSH2 0x560 JUMP JUMPDEST JUMPDEST DUP2 CALLDATALOAD PUSH2 0x683 DUP5 DUP3 PUSH1 0x20 DUP7 ADD PUSH2 0x61E JUMP JUMPDEST SWAP2 POP POP SWAP3 SWAP2 POP POP JUMP JUMPDEST PUSH0 PUSH1 0x20 DUP3 DUP5 SUB SLT ISZERO PUSH2 0x6A1 JUMPI PUSH2 0x6A0 PUSH2 0x443 JUMP JUMPDEST JUMPDEST PUSH0 DUP3 ADD CALLDATALOAD PUSH8 0xFFFFFFFFFFFFFFFF DUP2 GT ISZERO PUSH2 0x6BE JUMPI PUSH2 0x6BD PUSH2 0x447 JUMP JUMPDEST JUMPDEST PUSH2 0x6CA DUP5 DUP3 DUP6 ADD PUSH2 0x65F JUMP JUMPDEST SWAP2 POP POP SWAP3 SWAP2 POP POP JUMP JUMPDEST PUSH32 0x4E487B7100000000000000000000000000000000000000000000000000000000 PUSH0 MSTORE PUSH1 0x22 PUSH1 0x4 MSTORE PUSH1 0x24 PUSH0 REVERT JUMPDEST PUSH0 PUSH1 0x2 DUP3 DIV SWAP1 POP PUSH1 0x1 DUP3 AND DUP1 PUSH2 0x717 JUMPI PUSH1 0x7F DUP3 AND SWAP2 POP JUMPDEST PUSH1 0x20 DUP3 LT DUP2 SUB PUSH2 0x72A JUMPI PUSH2 0x729 PUSH2 0x6D3 JUMP JUMPDEST JUMPDEST POP SWAP2 SWAP1 POP JUMP JUMPDEST PUSH0 DUP2 SWAP1 POP DUP2 PUSH0 MSTORE PUSH1 0x20 PUSH0 KECCAK256 SWAP1 POP SWAP2 SWAP1 POP JUMP JUMPDEST PUSH0 PUSH1 0x20 PUSH1 0x1F DUP4 ADD DIV SWAP1 POP SWAP2 SWAP1 POP JUMP JUMPDEST PUSH0 DUP3 DUP3 SHL SWAP1 POP SWAP3 SWAP2 POP POP JUMP JUMPDEST PUSH0 PUSH1 0x8 DUP4 MUL PUSH2 0x78C PUSH32 0xFFFFFFFFFFFFFFFFFFFFFFFFFFFFFFFFFFFFFFFFFFFFFFFFFFFFFFFFFFFFFFFF DUP3 PUSH2 0x751 JUMP JUMPDEST PUSH2 0x796 DUP7 DUP4 PUSH2 0x751 JUMP JUMPDEST SWAP6 POP DUP1 NOT DUP5 AND SWAP4 POP DUP1 DUP7 AND DUP5 OR SWAP3 POP POP POP SWAP4 SWAP3 POP POP POP JUMP JUMPDEST PUSH0 DUP2 SWAP1 POP SWAP2 SWAP1 POP JUMP JUMPDEST PUSH0 DUP2 SWAP1 POP SWAP2 SWAP1 POP JUMP JUMPDEST PUSH0 PUSH2 0x7DA PUSH2 0x7D5 PUSH2 0x7D0 DUP5 PUSH2 0x7AE JUMP JUMPDEST PUSH2 0x7B7 JUMP JUMPDEST PUSH2 0x7AE JUMP JUMPDEST SWAP1 POP SWAP2 SWAP1 POP JUMP JUMPDEST PUSH0 DUP2 SWAP1 POP SWAP2 SWAP1 POP JUMP JUMPDEST PUSH2 0x7F3 DUP4 PUSH2 0x7C0 JUMP JUMPDEST PUSH2 0x807 PUSH2 0x7FF DUP3 PUSH2 0x7E1 JUMP JUMPDEST DUP5 DUP5 SLOAD PUSH2 0x75D JUMP JUMPDEST DUP3 SSTORE POP POP POP POP JUMP JUMPDEST PUSH0 PUSH0 SWAP1 POP SWAP1 JUMP JUMPDEST PUSH2 0x81E PUSH2 0x80F JUMP JUMPDEST PUSH2 0x829 DUP2 DUP5 DUP5 PUSH2 0x7EA JUMP JUMPDEST POP POP POP JUMP JUMPDEST JUMPDEST DUP2 DUP2 LT ISZERO PUSH2 0x84C JUMPI PUSH2 0x841 PUSH0 DUP3 PUSH2 0x816 JUMP JUMPDEST PUSH1 0x1 DUP2 ADD SWAP1 POP PUSH2 0x82F JUMP JUMPDEST POP POP JUMP JUMPDEST PUSH1 0x1F DUP3 GT ISZERO PUSH2 0x891 JUMPI PUSH2 0x862 DUP2 PUSH2 0x730 JUMP JUMPDEST PUSH2 0x86B DUP5 PUSH2 0x742 JUMP JUMPDEST DUP2 ADD PUSH1 0x20 DUP6 LT ISZERO PUSH2 0x87A JUMPI DUP2 SWAP1 POP JUMPDEST PUSH2 0x88E PUSH2 0x886 DUP6 PUSH2 0x742 JUMP JUMPDEST DUP4 ADD DUP3 PUSH2 0x82E JUMP JUMPDEST POP POP JUMPDEST POP POP POP JUMP JUMPDEST PUSH0 DUP3 DUP3 SHR SWAP1 POP SWAP3 SWAP2 POP POP JUMP JUMPDEST PUSH0 PUSH2 0x8B1 PUSH0 NOT DUP5 PUSH1 0x8 MUL PUSH2 0x896 JUMP JUMPDEST NOT DUP1 DUP4 AND SWAP2 POP POP SWAP3 SWAP2 POP POP JUMP JUMPDEST PUSH0 PUSH2 0x8C9 DUP4 DUP4 PUSH2 0x8A2 JUMP JUMPDEST SWAP2 POP DUP3 PUSH1 0x2 MUL DUP3 OR SWAP1 POP SWAP3 SWAP2 POP POP JUMP JUMPDEST PUSH2 0x8E2 DUP3 PUSH2 0x4D0 JUMP JUMPDEST PUSH8 0xFFFFFFFFFFFFFFFF DUP2 GT ISZERO PUSH2 0x8FB JUMPI PUSH2 0x8FA PUSH2 0x568 JUMP JUMPDEST JUMPDEST PUSH2 0x905 DUP3 SLOAD PUSH2 0x700 JUMP JUMPDEST PUSH2 0x910 DUP3 DUP3 DUP6 PUSH2 0x850 JUMP JUMPDEST PUSH0 PUSH1 0x20 SWAP1 POP PUSH1 0x1F DUP4 GT PUSH1 0x1 DUP2 EQ PUSH2 0x941 JUMPI PUSH0 DUP5 ISZERO PUSH2 0x92F JUMPI DUP3 DUP8 ADD MLOAD SWAP1 POP JUMPDEST PUSH2 0x939 DUP6 DUP3 PUSH2 0x8BE JUMP JUMPDEST DUP7 SSTORE POP PUSH2 0x9A0 JUMP JUMPDEST PUSH1 0x1F NOT DUP5 AND PUSH2 0x94F DUP7 PUSH2 0x730 JUMP JUMPDEST PUSH0 JUMPDEST DUP3 DUP2 LT ISZERO PUSH2 0x976 JUMPI DUP5 DUP10 ADD MLOAD DUP3 SSTORE PUSH1 0x1 DUP3 ADD SWAP2 POP PUSH1 0x20 DUP6 ADD SWAP5 POP PUSH1 0x20 DUP2 ADD SWAP1 POP PUSH2 0x951 JUMP JUMPDEST DUP7 DUP4 LT ISZERO PUSH2 0x993 JUMPI DUP5 DUP10 ADD MLOAD PUSH2 0x98F PUSH1 0x1F DUP10 AND DUP3 PUSH2 0x8A2 JUMP JUMPDEST DUP4 SSTORE POP JUMPDEST PUSH1 0x1 PUSH1 0x2 DUP9 MUL ADD DUP9 SSTORE POP POP POP JUMPDEST POP POP POP POP POP POP JUMP JUMPDEST PUSH0 DUP2 SWAP1 POP SWAP2 SWAP1 POP JUMP JUMPDEST PUSH0 PUSH8 0xFFFFFFFFFFFFFFFF DUP3 AND SWAP1 POP SWAP2 SWAP1 POP JUMP JUMPDEST PUSH0 PUSH2 0x9DE PUSH2 0x9D9 PUSH2 0x9D4 DUP5 PUSH2 0x9A8 JUMP JUMPDEST PUSH2 0x7B7 JUMP JUMPDEST PUSH2 0x9B1 JUMP JUMPDEST SWAP1 POP SWAP2 SWAP1 POP JUMP JUMPDEST PUSH2 0x9EE DUP2 PUSH2 0x9C4 JUMP JUMPDEST DUP3 MSTORE POP POP JUMP JUMPDEST PUSH0 PUSH1 0x20 DUP3 ADD SWAP1 POP PUSH2 0xA07 PUSH0 DUP4 ADD DUP5 PUSH2 0x9E5 JUMP JUMPDEST SWAP3 SWAP2 POP POP JUMP INVALID LOG2 PUSH5 0x6970667358 0x22 SLT KECCAK256 PUSH1 0xCB DUP13 PUSH31 0xD9239102BC5F191EB909BCBE81A7871B754747B26CC48226525A588564736F PUSH13 0x634300081F0033000000000000 "
				},
				"gasEstimates": {
					"creation": {
						"codeDepositCost": "525400",
						"executionCost": "560",
						"totalCost": "525960"
					},
					"external": {
						"getUser(address)": "infinite",
						"initialize()": "81674",
						"registerUser(string)": "infinite",
						"userNames(address)": "infinite"
					}
				},
				"methodIdentifiers": {
					"getUser(address)": "6f77926b",
					"initialize()": "8129fc1c",
					"registerUser(string)": "704f1b94",
					"userNames(address)": "7f281635"
				}
			},
			"storageLayout": {
				"storage": [
					{
						"astId": 276,
						"contract": "Initializable.sol:UserRegistryV1",
						"label": "userNames",
						"offset": 0,
						"slot": "0",
						"type": "t_mapping(t_address,t_string_storage)"
					}
				],
				"types": {
					"t_address": {
						"encoding": "inplace",
						"label": "address",
						"numberOfBytes": "20"
					},
					"t_mapping(t_address,t_string_storage)": {
						"encoding": "mapping",
						"key": "t_address",
						"label": "mapping(address => string)",
						"numberOfBytes": "32",
						"value": "t_string_storage"
					},
					"t_string_storage": {
						"encoding": "bytes",
						"label": "string",
						"numberOfBytes": "32"
					}
				}
			},
			"userdoc": {
				"kind": "user",
				"methods": {},
				"version": 1
			}
		}
	}
}