{
	"EtherConverter.sol": {
		"EtherConverter": {
			"abi": [
				{
					"inputs": [
						{
							"internalType": "uint256",
							"name": "etherAmount",
							"type": "uint256"
						}
					],
					"name": "etherToWei",
					"outputs": [
						{
							"internalType": "uint256",
							"name": "",
							"type": "uint256"
						}
					],
					"stateMutability": "pure",
					"type": "function"
				},
				{
					"inputs": [
						{
							"internalType": "uint256",
							"name": "weiAmount",
							"type": "uint256"
						}
					],
					"name": "weiToEther",
					"outputs": [
						{
							"internalType": "uint256",
							"name": "",
							"type": "uint256"
						}
					],
					"stateMutability": "pure",
					"type": "function"
				}
			],
			"devdoc": {
				"kind": "dev",
				"methods": {},
				"version": 1
			},
			"evm": {
				"assembly": "    /* \"EtherConverter.sol\":112:386  contract EtherConverter {... */\n  mstore(0x40, 0x80)\n  callvalue\n  dup1\n  iszero\n  tag_1\n  jumpi\n  revert(0x00, 0x00)\ntag_1:\n  pop\n  dataSize(sub_0)\n  dup1\n  dataOffset(sub_0)\n  0x00\n  codecopy\n  0x00\n  return\nstop\n\nsub_0: assembly {\n        /* \"EtherConverter.sol\":112:386  contract EtherConverter {... */\n      mstore(0x40, 0x80)\n      callvalue\n      dup1\n      iszero\n      tag_1\n      jumpi\n      revert(0x00, 0x00)\n    tag_1:\n      pop\n      jumpi(tag_2, lt(calldatasize, 0x04))\n      shr(0xe0, calldataload(0x00))\n      dup1\n      0xd0eff891\n      eq\n      tag_3\n      jumpi\n      dup1\n      0xd8916bb9\n      eq\n      tag_4\n      jumpi\n    tag_2:\n      revert(0x00, 0x00)\n        /* \"EtherConverter.sol\":269:383  function weiToEther(uint256 weiAmount) public pure returns (uint256) {... */\n    tag_3:\n      tag_5\n      0x04\n      dup1\n      calldatasize\n      sub\n      dup2\n      add\n      swap1\n      tag_6\n      swap2\n      swap1\n      tag_7\n      jump\t// in\n    tag_6:\n      tag_8\n      jump\t// in\n    tag_5:\n      mload(0x40)\n      tag_9\n      swap2\n      swap1\n      tag_10\n      jump\t// in\n    tag_9:\n      mload(0x40)\n      dup1\n      swap2\n      sub\n      swap1\n      return\n        /* \"EtherConverter.sol\":143:261  function etherToWei(uint256 etherAmount) public pure returns (uint256) {... */\n    tag_4:\n      tag_11\n      0x04\n      dup1\n      calldatasize\n      sub\n      dup2\n      add\n      swap1\n      tag_12\n      swap2\n      swap1\n      tag_7\n      jump\t// in\n    tag_12:\n      tag_13\n      jump\t// in\n    tag_11:\n      mload(0x40)\n      tag_14\n      swap2\n      swap1\n      tag_10\n      jump\t// in\n    tag_14:\n      mload(0x40)\n      dup1\n      swap2\n      sub\n      swap1\n      return\n        /* \"EtherConverter.sol\":269:383  function weiToEther(uint256 weiAmount) public pure returns (uint256) {... */\n    tag_8:\n        /* \"EtherConverter.sol\":329:336  uint256 */\n      0x00\n        /* \"EtherConverter.sol\":368:375  1 ether */\n      0x0de0b6b3a7640000\n        /* \"EtherConverter.sol\":356:365  weiAmount */\n      dup3\n        /* \"EtherConverter.sol\":356:375  weiAmount / 1 ether */\n      tag_16\n      swap2\n      swap1\n      tag_17\n      jump\t// in\n    tag_16:\n        /* \"EtherConverter.sol\":349:375  return weiAmount / 1 ether */\n      swap1\n      pop\n        /* \"EtherConverter.sol\":269:383  function weiToEther(uint256 weiAmount) public pure returns (uint256) {... */\n      swap2\n      swap1\n      pop\n      jump\t// out\n        /* \"EtherConverter.sol\":143:261  function etherToWei(uint256 etherAmount) public pure returns (uint256) {... */\n    tag_13:\n        /* \"EtherConverter.sol\":205:212  uint256 */\n      0x00\n        /* \"EtherConverter.sol\":246:253  1 ether */\n      0x0de0b6b3a7640000\n        /* \"EtherConverter.sol\":232:243  etherAmount */\n      dup3\n        /* \"EtherConverter.sol\":232:253  etherAmount * 1 ether */\n      tag_19\n      swap2\n      swap1\n      tag_20\n      jump\t// in\n    tag_19:\n        /* \"EtherConverter.sol\":225:253  return etherAmount * 1 ether */\n      swap1\n      pop\n        /* \"EtherConverter.sol\":143:261  function etherToWei(uint256 etherAmount) public pure returns (uint256) {... */\n      swap2\n      swap1\n      pop\n      jump\t// out\n        /* \"#utility.yul\":88:205   */\n    tag_22:\n        /* \"#utility.yul\":197:198   */\n      0x00\n        /* \"#utility.yul\":194:195   */\n      0x00\n        /* \"#utility.yul\":187:199   */\n      revert\n        /* \"#utility.yul\":334:411   */\n    tag_24:\n        /* \"#utility.yul\":371:378   */\n      0x00\n        /* \"#utility.yul\":400:405   */\n      dup2\n        /* \"#utility.yul\":389:405   */\n      swap1\n      pop\n        /* \"#utility.yul\":334:411   */\n      swap2\n      swap1\n      pop\n      jump\t// out\n        /* \"#utility.yul\":417:539   */\n    tag_25:\n        /* \"#utility.yul\":490:514   */\n      tag_36\n        /* \"#utility.yul\":508:513   */\n      dup2\n        /* \"#utility.yul\":490:514   */\n      tag_24\n      jump\t// in\n    tag_36:\n        /* \"#utility.yul\":483:488   */\n      dup2\n        /* \"#utility.yul\":480:515   */\n      eq\n        /* \"#utility.yul\":470:533   */\n      tag_37\n      jumpi\n        /* \"#utility.yul\":529:530   */\n      0x00\n        /* \"#utility.yul\":526:527   */\n      0x00\n        /* \"#utility.yul\":519:531   */\n      revert\n        /* \"#utility.yul\":470:533   */\n    tag_37:\n        /* \"#utility.yul\":417:539   */\n      pop\n      jump\t// out\n        /* \"#utility.yul\":545:684   */\n    tag_26:\n        /* \"#utility.yul\":591:596   */\n      0x00\n        /* \"#utility.yul\":629:635   */\n      dup2\n        /* \"#utility.yul\":616:636   */\n      calldataload\n        /* \"#utility.yul\":607:636   */\n      swap1\n      pop\n        /* \"#utility.yul\":645:678   */\n      tag_39\n        /* \"#utility.yul\":672:677   */\n      dup2\n        /* \"#utility.yul\":645:678   */\n      tag_25\n      jump\t// in\n    tag_39:\n        /* \"#utility.yul\":545:684   */\n      swap3\n      swap2\n      pop\n      pop\n      jump\t// out\n        /* \"#utility.yul\":690:1019   */\n    tag_7:\n        /* \"#utility.yul\":749:755   */\n      0x00\n        /* \"#utility.yul\":798:800   */\n      0x20\n        /* \"#utility.yul\":786:795   */\n      dup3\n        /* \"#utility.yul\":777:784   */\n      dup5\n        /* \"#utility.yul\":773:796   */\n      sub\n        /* \"#utility.yul\":769:801   */\n      slt\n        /* \"#utility.yul\":766:885   */\n      iszero\n      tag_41\n      jumpi\n        /* \"#utility.yul\":804:883   */\n      tag_42\n      tag_22\n      jump\t// in\n    tag_42:\n        /* \"#utility.yul\":766:885   */\n    tag_41:\n        /* \"#utility.yul\":924:925   */\n      0x00\n        /* \"#utility.yul\":949:1002   */\n      tag_43\n        /* \"#utility.yul\":994:1001   */\n      dup5\n        /* \"#utility.yul\":985:991   */\n      dup3\n        /* \"#utility.yul\":974:983   */\n      dup6\n        /* \"#utility.yul\":970:992   */\n      add\n        /* \"#utility.yul\":949:1002   */\n      tag_26\n      jump\t// in\n    tag_43:\n        /* \"#utility.yul\":939:1002   */\n      swap2\n      pop\n        /* \"#utility.yul\":895:1012   */\n      pop\n        /* \"#utility.yul\":690:1019   */\n      swap3\n      swap2\n      pop\n      pop\n      jump\t// out\n        /* \"#utility.yul\":1025:1143   */\n    tag_27:\n        /* \"#utility.yul\":1112:1136   */\n      tag_45\n        /* \"#utility.yul\":1130:1135   */\n      dup2\n        /* \"#utility.yul\":1112:1136   */\n      tag_24\n      jump\t// in\n    tag_45:\n        /* \"#utility.yul\":1107:1110   */\n      dup3\n        /* \"#utility.yul\":1100:1137   */\n      mstore\n        /* \"#utility.yul\":1025:1143   */\n      pop\n      pop\n      jump\t// out\n        /* \"#utility.yul\":1149:1371   */\n    tag_10:\n        /* \"#utility.yul\":1242:1246   */\n      0x00\n        /* \"#utility.yul\":1280:1282   */\n      0x20\n        /* \"#utility.yul\":1269:1278   */\n      dup3\n        /* \"#utility.yul\":1265:1283   */\n      add\n        /* \"#utility.yul\":1257:1283   */\n      swap1\n      pop\n        /* \"#utility.yul\":1293:1364   */\n      tag_47\n        /* \"#utility.yul\":1361:1362   */\n      0x00\n        /* \"#utility.yul\":1350:1359   */\n      dup4\n        /* \"#utility.yul\":1346:1363   */\n      add\n        /* \"#utility.yul\":1337:1343   */\n      dup5\n        /* \"#utility.yul\":1293:1364   */\n      tag_27\n      jump\t// in\n    tag_47:\n        /* \"#utility.yul\":1149:1371   */\n      swap3\n      swap2\n      pop\n      pop\n      jump\t// out\n        /* \"#utility.yul\":1377:1557   */\n    tag_28:\n        /* \"#utility.yul\":1425:1502   */\n      0x4e487b7100000000000000000000000000000000000000000000000000000000\n        /* \"#utility.yul\":1422:1423   */\n      0x00\n        /* \"#utility.yul\":1415:1503   */\n      mstore\n        /* \"#utility.yul\":1522:1526   */\n      0x12\n        /* \"#utility.yul\":1519:1520   */\n      0x04\n        /* \"#utility.yul\":1512:1527   */\n      mstore\n        /* \"#utility.yul\":1546:1550   */\n      0x24\n        /* \"#utility.yul\":1543:1544   */\n      0x00\n        /* \"#utility.yul\":1536:1551   */\n      revert\n        /* \"#utility.yul\":1563:1743   */\n    tag_29:\n        /* \"#utility.yul\":1611:1688   */\n      0x4e487b7100000000000000000000000000000000000000000000000000000000\n        /* \"#utility.yul\":1608:1609   */\n      0x00\n        /* \"#utility.yul\":1601:1689   */\n      mstore\n        /* \"#utility.yul\":1708:1712   */\n      0x11\n        /* \"#utility.yul\":1705:1706   */\n      0x04\n        /* \"#utility.yul\":1698:1713   */\n      mstore\n        /* \"#utility.yul\":1732:1736   */\n      0x24\n        /* \"#utility.yul\":1729:1730   */\n      0x00\n        /* \"#utility.yul\":1722:1737   */\n      revert\n        /* \"#utility.yul\":1749:1934   */\n    tag_17:\n        /* \"#utility.yul\":1789:1790   */\n      0x00\n        /* \"#utility.yul\":1806:1826   */\n      tag_51\n        /* \"#utility.yul\":1824:1825   */\n      dup3\n        /* \"#utility.yul\":1806:1826   */\n      tag_24\n      jump\t// in\n    tag_51:\n        /* \"#utility.yul\":1801:1826   */\n      swap2\n      pop\n        /* \"#utility.yul\":1840:1860   */\n      tag_52\n        /* \"#utility.yul\":1858:1859   */\n      dup4\n        /* \"#utility.yul\":1840:1860   */\n      tag_24\n      jump\t// in\n    tag_52:\n        /* \"#utility.yul\":1835:1860   */\n      swap3\n      pop\n        /* \"#utility.yul\":1879:1880   */\n      dup3\n        /* \"#utility.yul\":1869:1904   */\n      tag_53\n      jumpi\n        /* \"#utility.yul\":1884:1902   */\n      tag_54\n      tag_28\n      jump\t// in\n    tag_54:\n        /* \"#utility.yul\":1869:1904   */\n    tag_53:\n        /* \"#utility.yul\":1926:1927   */\n      dup3\n        /* \"#utility.yul\":1923:1924   */\n      dup3\n        /* \"#utility.yul\":1919:1928   */\n      div\n        /* \"#utility.yul\":1914:1928   */\n      swap1\n      pop\n        /* \"#utility.yul\":1749:1934   */\n      swap3\n      swap2\n      pop\n      pop\n      jump\t// out\n        /* \"#utility.yul\":1940:2350   */\n    tag_20:\n        /* \"#utility.yul\":1980:1987   */\n      0x00\n        /* \"#utility.yul\":2003:2023   */\n      tag_56\n        /* \"#utility.yul\":2021:2022   */\n      dup3\n        /* \"#utility.yul\":2003:2023   */\n      tag_24\n      jump\t// in\n    tag_56:\n        /* \"#utility.yul\":1998:2023   */\n      swap2\n      pop\n        /* \"#utility.yul\":2037:2057   */\n      tag_57\n        /* \"#utility.yul\":2055:2056   */\n      dup4\n        /* \"#utility.yul\":2037:2057   */\n      tag_24\n      jump\t// in\n    tag_57:\n        /* \"#utility.yul\":2032:2057   */\n      swap3\n      pop\n        /* \"#utility.yul\":2092:2093   */\n      dup3\n        /* \"#utility.yul\":2089:2090   */\n      dup3\n        /* \"#utility.yul\":2085:2094   */\n      mul\n        /* \"#utility.yul\":2114:2144   */\n      tag_58\n        /* \"#utility.yul\":2132:2143   */\n      dup2\n        /* \"#utility.yul\":2114:2144   */\n      tag_24\n      jump\t// in\n    tag_58:\n        /* \"#utility.yul\":2103:2144   */\n      swap2\n      pop\n        /* \"#utility.yul\":2293:2294   */\n      dup3\n        /* \"#utility.yul\":2284:2291   */\n      dup3\n        /* \"#utility.yul\":2280:2295   */\n      div\n        /* \"#utility.yul\":2277:2278   */\n      dup5\n        /* \"#utility.yul\":2274:2296   */\n      eq\n        /* \"#utility.yul\":2254:2255   */\n      dup4\n        /* \"#utility.yul\":2247:2256   */\n      iszero\n        /* \"#utility.yul\":2227:2310   */\n      or\n        /* \"#utility.yul\":2204:2343   */\n      tag_59\n      jumpi\n        /* \"#utility.yul\":2323:2341   */\n      tag_60\n      tag_29\n      jump\t// in\n    tag_60:\n        /* \"#utility.yul\":2204:2343   */\n    tag_59:\n        /* \"#utility.yul\":1988:2350   */\n      pop\n        /* \"#utility.yul\":1940:2350   */\n      swap3\n      swap2\n      pop\n      pop\n      jump\t// out\n\n    auxdata: 0xa2646970667358221220a5a2af5e11ac16536edd66dbb82a5a6da189feb0a437cdc57441052ecbc9ae8264736f6c634300081f0033\n}\n",
				"bytecode": {
					"linkReferences": {},
					"object": "6080604052348015600e575f5ffd5b5061025b8061001c5f395ff3fe608060405234801561000f575f5ffd5b5060043610610034575f3560e01c8063d0eff89114610038578063d8916bb914610068575b5f5ffd5b610052600480360381019061004d9190610107565b610098565b60405161005f9190610141565b60405180910390f35b610082600480360381019061007d9190610107565b6100b4565b60405161008f9190610141565b60405180910390f35b5f670de0b6b3a7640000826100ad91906101b4565b9050919050565b5f670de0b6b3a7640000826100c991906101e4565b9050919050565b5f5ffd5b5f819050919050565b6100e6816100d4565b81146100f0575f5ffd5b50565b5f81359050610101816100dd565b92915050565b5f6020828403121561011c5761011b6100d0565b5b5f610129848285016100f3565b91505092915050565b61013b816100d4565b82525050565b5f6020820190506101545f830184610132565b92915050565b7f4e487b71000000000000000000000000000000000000000000000000000000005f52601260045260245ffd5b7f4e487b71000000000000000000000000000000000000000000000000000000005f52601160045260245ffd5b5f6101be826100d4565b91506101c9836100d4565b9250826101d9576101d861015a565b5b828204905092915050565b5f6101ee826100d4565b91506101f9836100d4565b9250828202610207816100d4565b9150828204841483151761021e5761021d610187565b5b509291505056fea2646970667358221220a5a2af5e11ac16536edd66dbb82a5a6da189feb0a437cdc57441052ecbc9ae8264736f6c634300081f0033",
					"opcodes": "PUSH1 0x80 PUSH1 0x40 MSTORE CALLVALUE DUP1 ISZERO PUSH1 0xE JUMPI PUSH0 PUSH0 REVERT JUMPDEST POP PUSH2 0x25B DUP1 PUSH2 0x1C PUSH0 CODECOPY PUSH0 RETURN INVALID PUSH1 0x80 PUSH1 0x40 MSTORE CALLVALUE DUP1 ISZERO PUSH2 0xF JUMPI PUSH0 PUSH0 REVERT JUMPDEST POP PUSH1 0x4 CALLDATASIZE LT PUSH2 0x34 JUMPI PUSH0 CALLDATALOAD PUSH1 0xE0 SHR DUP1 PUSH4 0xD0EFF891 EQ PUSH2 0x38 JUMPI DUP1 PUSH4 0xD8916BB9 EQ PUSH2 0x68 JUMPI JUMPDEST PUSH0 PUSH0 REVERT JUMPDEST PUSH2 0x52 PUSH1 0x4 DUP1 CALLDATASIZE SUB DUP2 ADD SWAP1 PUSH2 0x4D SWAP2 SWAP1 PUSH2 0x107 JUMP JUMPDEST PUSH2 0x98 JUMP JUMPDEST PUSH1 0x40 MLOAD PUSH2 0x5F SWAP2 SWAP1 PUSH2 0x141 JUMP JUMPDEST PUSH1 0x40 MLOAD DUP1 SWAP2 SUB SWAP1 RETURN JUMPDEST PUSH2 0x82 PUSH1 0x4 DUP1 CALLDATASIZE SUB DUP2 ADD SWAP1 PUSH2 0x7D SWAP2 SWAP1 PUSH2 0x107 JUMP JUMPDEST PUSH2 0xB4 JUMP JUMPDEST PUSH1 0x40 MLOAD PUSH2 0x8F SWAP2 SWAP1 PUSH2 0x141 JUMP JUMPDEST PUSH1 0x40 MLOAD DUP1 SWAP2 SUB SWAP1 RETURN JUMPDEST PUSH0 PUSH8 0xDE0B6B3A7640000 DUP3 PUSH2 0xAD SWAP2 SWAP1 PUSH2 0x1B4 JUMP JUMPDEST SWAP1 POP SWAP2 SWAP1 POP JUMP JUMPDEST PUSH0 PUSH8 0xDE0B6B3A7640000 DUP3 PUSH2 0xC9 SWAP2 SWAP1 PUSH2 0x1E4 JUMP JUMPDEST SWAP1 POP SWAP2 SWAP1 POP JUMP JUMPDEST PUSH0 PUSH0 REVERT JUMPDEST PUSH0 DUP2 SWAP1 POP SWAP2 SWAP1 POP JUMP JUMPDEST PUSH2 0xE6 DUP2 PUSH2 0xD4 JUMP JUMPDEST DUP2 EQ PUSH2 0xF0 JUMPI PUSH0 PUSH0 REVERT JUMPDEST POP JUMP JUMPDEST PUSH0 DUP2 CALLDATALOAD SWAP1 POP PUSH2 0x101 DUP2 PUSH2 0xDD JUMP JUMPDEST SWAP3 SWAP2 POP POP JUMP JUMPDEST PUSH0 PUSH1 0x20 DUP3 DUP5 SUB SLT ISZERO PUSH2 0x11C JUMPI PUSH2 0x11B PUSH2 0xD0 JUMP JUMPDEST JUMPDEST PUSH0 PUSH2 0x129 DUP5 DUP3 DUP6 ADD PUSH2 0xF3 JUMP JUMPDEST SWAP2 POP POP SWAP3 SWAP2 POP POP JUMP JUMPDEST PUSH2 0x13B DUP2 PUSH2 0xD4 JUMP JUMPDEST DUP3 MSTORE POP POP JUMP JUMPDEST PUSH0 PUSH1 0x20 DUP3 ADD SWAP1 POP PUSH2 0x154 PUSH0 DUP4 ADD DUP5 PUSH2 0x132 JUMP JUMPDEST SWAP3 SWAP2 POP POP JUMP JUMPDEST PUSH32 0x4E487B7100000000000000000000000000000000000000000000000000000000 PUSH0 MSTORE PUSH1 0x12 PUSH1 0x4 MSTORE PUSH1 0x24 PUSH0 REVERT JUMPDEST PUSH32 0x4E487B7100000000000000000000000000000000000000000000000000000000 PUSH0 MSTORE PUSH1 0x11 PUSH1 0x4 MSTORE PUSH1 0x24 PUSH0 REVERT JUMPDEST PUSH0 PUSH2 0x1BE DUP3 PUSH2 0xD4 JUMP JUMPDEST SWAP2 POP PUSH2 0x1C9 DUP4 PUSH2 0xD4 JUMP JUMPDEST SWAP3 POP DUP3 PUSH2 0x1D9 JUMPI PUSH2 0x1D8 PUSH2 0x15A JUMP JUMPDEST JUMPDEST DUP3 DUP3 DIV SWAP1 POP SWAP3 SWAP2 POP POP JUMP JUMPDEST PUSH0 PUSH2 0x1EE DUP3 PUSH2 0xD4 JUMP JUMPDEST SWAP2 POP PUSH2 0x1F9 DUP4 PUSH2 0xD4 JUMP JUMPDEST SWAP3 POP DUP3 DUP3 MUL PUSH2 0x207 DUP2 PUSH2 0xD4 JUMP JUMPDEST SWAP2 POP DUP3 DUP3 DIV DUP5 EQ DUP4 ISZERO OR PUSH2 0x21E JUMPI PUSH2 0x21D PUSH2 0x187 JUMP JUMPDEST JUMPDEST POP SWAP3 SWAP2 POP POP JUMP INVALID LOG2 PUSH5 0x6970667358 0x22 SLT KECCAK256 0xA5 LOG2 0xAF MCOPY GT 0xAC AND MSTORE8 PUSH15 0xDD66DBB82A5A6DA189FEB0A437CDC5 PUSH21 0x41052ECBC9AE8264736F6C634300081F0033000000 "
				},
				"gasEstimates": {
					"creation": {
						"codeDepositCost": "120600",
						"executionCost": "163",
						"totalCost": "120763"
					},
					"external": {
						"etherToWei(uint256)": "infinite",
						"weiToEther(uint256)": "infinite"
					}
				},
				"methodIdentifiers": {
					"etherToWei(uint256)": "d8916bb9",
					"weiToEther(uint256)": "d0eff891"
				}
			},
			"storageLayout": {
				"storage": [],
				"types": null
			},
			"userdoc": {
				"kind": "user",
				"methods": {},
				"version": 1
			}
		}
	}
}