{
	"PalengkeCalculator.sol": {
		"PalengkeCalculator": {
			"abi": [
				{
					"inputs": [
						{
							"internalType": "uint256",
							"name": "discountPercent",
							"type": "uint256"
						}
					],
					"name": "applyDiscount",
					"outputs": [
						{
							"internalType": "uint256",
							"name": "",
							"type": "uint256"
						}
					],
					"stateMutability": "view",
					"type": "function"
				},
				{
					"inputs": [
						{
							"internalType": "uint256",
							"name": "payment",
							"type": "uint256"
						}
					],
					"name": "calculateChange",
					"outputs": [
						{
							"internalType": "uint256",
							"name": "",
							"type": "uint256"
						}
					],
					"stateMutability": "view",
					"type": "function"
				},
				{
					"inputs": [],
					"name": "calculateGrandTotal",
					"outputs": [
						{
							"internalType": "uint256",
							"name": "",
							"type": "uint256"
						}
					],
					"stateMutability": "view",
					"type": "function"
				},
				{
					"inputs": [
						{
							"internalType": "uint256",
							"name": "pricePerUnit",
							"type": "uint256"
						},
						{
							"internalType": "uint256",
							"name": "quantity",
							"type": "uint256"
						}
					],
					"name": "calculateTotal",
					"outputs": [
						{
							"internalType": "uint256",
							"name": "",
							"type": "uint256"
						}
					],
					"stateMutability": "nonpayable",
					"type": "function"
				},
				{
					"inputs": [
						{
							"internalType": "uint256",
							"name": "",
							"type": "uint256"
						}
					],
					"name": "prices",
					"outputs": [
						{
							"internalType": "uint256",
							"name": "",
							"type": "uint256"
						}
					],
					"stateMutability": "view",
					"type": "function"
				},
				{
					"inputs": [
						{
							"internalType": "uint256",
							"name": "",
							"type": "uint256"
						}
					],
					"name": "quantities",
					"outputs": [
						{
							"internalType": "uint256",
							"name": "",
							"type": "uint256"
						}
					],
					"stateMutability": "view",
					"type": "function"
				},
				{
					"inputs": [],
					"name": "resetOrders",
					"outputs": [],
					"stateMutability": "nonpayable",
					"type": "function"
				},
				{
					"inputs": [
						{
							"internalType": "uint256",
							"name": "groupSize",
							"type": "uint256"
						}
					],
					"name": "splitBill",
					"outputs": [
						{
							"internalType": "uint256",
							"name": "",
							"type": "uint256"
						}
					],
					"stateMutability": "view",
					"type": "function"
				}
			],
			"devdoc": {
				"kind": "dev",
				"methods": {},
				"version": 1
			},
			"evm": {
				"assembly": "    /* \"PalengkeCalculator.sol\":60:1836  contract PalengkeCalculator {... */\n  mstore(0x40, 0x80)\n  callvalue\n  dup1\n  iszero\n  tag_1\n  jumpi\n  revert(0x00, 0x00)\ntag_1:\n  pop\n  dataSize(sub_0)\n  dup1\n  dataOffset(sub_0)\n  0x00\n  codecopy\n  0x00\n  return\nstop\n\nsub_0: assembly {\n        /* \"PalengkeCalculator.sol\":60:1836  contract PalengkeCalculator {... */\n      mstore(0x40, 0x80)\n      callvalue\n      dup1\n      iszero\n      tag_1\n      jumpi\n      revert(0x00, 0x00)\n    tag_1:\n      pop\n      jumpi(tag_2, lt(calldatasize, 0x04))\n      shr(0xe0, calldataload(0x00))\n      dup1\n      0xbc31c1c1\n      gt\n      tag_11\n      jumpi\n      dup1\n      0xbc31c1c1\n      eq\n      tag_7\n      jumpi\n      dup1\n      0xc6bac7c6\n      eq\n      tag_8\n      jumpi\n      dup1\n      0xf05b0acf\n      eq\n      tag_9\n      jumpi\n      dup1\n      0xfda9be17\n      eq\n      tag_10\n      jumpi\n      jump(tag_2)\n    tag_11:\n      dup1\n      0x3c139aab\n      eq\n      tag_3\n      jumpi\n      dup1\n      0x4a31b0b6\n      eq\n      tag_4\n      jumpi\n      dup1\n      0x92742644\n      eq\n      tag_5\n      jumpi\n      dup1\n      0xa4125403\n      eq\n      tag_6\n      jumpi\n    tag_2:\n      revert(0x00, 0x00)\n        /* \"PalengkeCalculator.sol\":1743:1833  function resetOrders() public {... */\n    tag_3:\n      tag_12\n      tag_13\n      jump\t// in\n    tag_12:\n      stop\n        /* \"PalengkeCalculator.sol\":806:1043  function calculateChange(uint256 payment) public view returns (uint256) {... */\n    tag_4:\n      tag_14\n      0x04\n      dup1\n      calldatasize\n      sub\n      dup2\n      add\n      swap1\n      tag_15\n      swap2\n      swap1\n      tag_16\n      jump\t// in\n    tag_15:\n      tag_17\n      jump\t// in\n    tag_14:\n      mload(0x40)\n      tag_18\n      swap2\n      swap1\n      tag_19\n      jump\t// in\n    tag_18:\n      mload(0x40)\n      dup1\n      swap2\n      sub\n      swap1\n      return\n        /* \"PalengkeCalculator.sol\":497:732  function calculateGrandTotal() public view returns (uint256) {... */\n    tag_5:\n      tag_20\n      tag_21\n      jump\t// in\n    tag_20:\n      mload(0x40)\n      tag_22\n      swap2\n      swap1\n      tag_19\n      jump\t// in\n    tag_22:\n      mload(0x40)\n      dup1\n      swap2\n      sub\n      swap1\n      return\n        /* \"PalengkeCalculator.sol\":125:152  uint256[] public quantities */\n    tag_6:\n      tag_23\n      0x04\n      dup1\n      calldatasize\n      sub\n      dup2\n      add\n      swap1\n      tag_24\n      swap2\n      swap1\n      tag_16\n      jump\t// in\n    tag_24:\n      tag_25\n      jump\t// in\n    tag_23:\n      mload(0x40)\n      tag_26\n      swap2\n      swap1\n      tag_19\n      jump\t// in\n    tag_26:\n      mload(0x40)\n      dup1\n      swap2\n      sub\n      swap1\n      return\n        /* \"PalengkeCalculator.sol\":95:118  uint256[] public prices */\n    tag_7:\n      tag_27\n      0x04\n      dup1\n      calldatasize\n      sub\n      dup2\n      add\n      swap1\n      tag_28\n      swap2\n      swap1\n      tag_16\n      jump\t// in\n    tag_28:\n      tag_29\n      jump\t// in\n    tag_27:\n      mload(0x40)\n      tag_30\n      swap2\n      swap1\n      tag_19\n      jump\t// in\n    tag_30:\n      mload(0x40)\n      dup1\n      swap2\n      sub\n      swap1\n      return\n        /* \"PalengkeCalculator.sol\":210:445  function calculateTotal(... */\n    tag_8:\n      tag_31\n      0x04\n      dup1\n      calldatasize\n      sub\n      dup2\n      add\n      swap1\n      tag_32\n      swap2\n      swap1\n      tag_33\n      jump\t// in\n    tag_32:\n      tag_34\n      jump\t// in\n    tag_31:\n      mload(0x40)\n      tag_35\n      swap2\n      swap1\n      tag_19\n      jump\t// in\n    tag_35:\n      mload(0x40)\n      dup1\n      swap2\n      sub\n      swap1\n      return\n        /* \"PalengkeCalculator.sol\":1436:1679  function splitBill(uint256 groupSize) public view returns (uint256) {... */\n    tag_9:\n      tag_36\n      0x04\n      dup1\n      calldatasize\n      sub\n      dup2\n      add\n      swap1\n      tag_37\n      swap2\n      swap1\n      tag_16\n      jump\t// in\n    tag_37:\n      tag_38\n      jump\t// in\n    tag_36:\n      mload(0x40)\n      tag_39\n      swap2\n      swap1\n      tag_19\n      jump\t// in\n    tag_39:\n      mload(0x40)\n      dup1\n      swap2\n      sub\n      swap1\n      return\n        /* \"PalengkeCalculator.sol\":1095:1377  function applyDiscount(uint256 discountPercent) public view returns (uint256) {... */\n    tag_10:\n      tag_40\n      0x04\n      dup1\n      calldatasize\n      sub\n      dup2\n      add\n      swap1\n      tag_41\n      swap2\n      swap1\n      tag_16\n      jump\t// in\n    tag_41:\n      tag_42\n      jump\t// in\n    tag_40:\n      mload(0x40)\n      tag_43\n      swap2\n      swap1\n      tag_19\n      jump\t// in\n    tag_43:\n      mload(0x40)\n      dup1\n      swap2\n      sub\n      swap1\n      return\n        /* \"PalengkeCalculator.sol\":1743:1833  function resetOrders() public {... */\n    tag_13:\n        /* \"PalengkeCalculator.sol\":1791:1797  prices */\n      0x00\n      0x00\n        /* \"PalengkeCalculator.sol\":1784:1797  delete prices */\n      tag_45\n      swap2\n      swap1\n      tag_46\n      jump\t// in\n    tag_45:\n        /* \"PalengkeCalculator.sol\":1815:1825  quantities */\n      0x01\n      0x00\n        /* \"PalengkeCalculator.sol\":1808:1825  delete quantities */\n      tag_47\n      swap2\n      swap1\n      tag_46\n      jump\t// in\n    tag_47:\n        /* \"PalengkeCalculator.sol\":1743:1833  function resetOrders() public {... */\n      jump\t// out\n        /* \"PalengkeCalculator.sol\":806:1043  function calculateChange(uint256 payment) public view returns (uint256) {... */\n    tag_17:\n        /* \"PalengkeCalculator.sol\":869:876  uint256 */\n      0x00\n        /* \"PalengkeCalculator.sol\":889:907  uint256 grandTotal */\n      0x00\n        /* \"PalengkeCalculator.sol\":910:931  calculateGrandTotal() */\n      tag_49\n        /* \"PalengkeCalculator.sol\":910:929  calculateGrandTotal */\n      tag_21\n        /* \"PalengkeCalculator.sol\":910:931  calculateGrandTotal() */\n      jump\t// in\n    tag_49:\n        /* \"PalengkeCalculator.sol\":889:931  uint256 grandTotal = calculateGrandTotal() */\n      swap1\n      pop\n        /* \"PalengkeCalculator.sol\":961:971  grandTotal */\n      dup1\n        /* \"PalengkeCalculator.sol\":950:957  payment */\n      dup4\n        /* \"PalengkeCalculator.sol\":950:971  payment >= grandTotal */\n      lt\n      iszero\n        /* \"PalengkeCalculator.sol\":942:997  require(payment >= grandTotal, \"Insufficient payment.\") */\n      tag_50\n      jumpi\n      mload(0x40)\n      0x08c379a000000000000000000000000000000000000000000000000000000000\n      dup2\n      mstore\n      0x04\n      add\n      tag_51\n      swap1\n      tag_52\n      jump\t// in\n    tag_51:\n      mload(0x40)\n      dup1\n      swap2\n      sub\n      swap1\n      revert\n    tag_50:\n        /* \"PalengkeCalculator.sol\":1025:1035  grandTotal */\n      dup1\n        /* \"PalengkeCalculator.sol\":1015:1022  payment */\n      dup4\n        /* \"PalengkeCalculator.sol\":1015:1035  payment - grandTotal */\n      tag_53\n      swap2\n      swap1\n      tag_54\n      jump\t// in\n    tag_53:\n        /* \"PalengkeCalculator.sol\":1008:1035  return payment - grandTotal */\n      swap2\n      pop\n      pop\n        /* \"PalengkeCalculator.sol\":806:1043  function calculateChange(uint256 payment) public view returns (uint256) {... */\n      swap2\n      swap1\n      pop\n      jump\t// out\n        /* \"PalengkeCalculator.sol\":497:732  function calculateGrandTotal() public view returns (uint256) {... */\n    tag_21:\n        /* \"PalengkeCalculator.sol\":549:556  uint256 */\n      0x00\n        /* \"PalengkeCalculator.sol\":569:582  uint256 total */\n      0x00\n        /* \"PalengkeCalculator.sol\":585:586  0 */\n      0x00\n        /* \"PalengkeCalculator.sol\":569:586  uint256 total = 0 */\n      swap1\n      pop\n        /* \"PalengkeCalculator.sol\":602:611  uint256 i */\n      0x00\n        /* \"PalengkeCalculator.sol\":614:615  0 */\n      0x00\n        /* \"PalengkeCalculator.sol\":602:615  uint256 i = 0 */\n      swap1\n      pop\n        /* \"PalengkeCalculator.sol\":597:702  for (uint256 i = 0; i < prices.length; i++) {... */\n    tag_56:\n        /* \"PalengkeCalculator.sol\":621:627  prices */\n      0x00\n        /* \"PalengkeCalculator.sol\":621:634  prices.length */\n      dup1\n      sload\n      swap1\n      pop\n        /* \"PalengkeCalculator.sol\":617:618  i */\n      dup2\n        /* \"PalengkeCalculator.sol\":617:634  i < prices.length */\n      lt\n        /* \"PalengkeCalculator.sol\":597:702  for (uint256 i = 0; i < prices.length; i++) {... */\n      iszero\n      tag_57\n      jumpi\n        /* \"PalengkeCalculator.sol\":677:687  quantities */\n      0x01\n        /* \"PalengkeCalculator.sol\":688:689  i */\n      dup2\n        /* \"PalengkeCalculator.sol\":677:690  quantities[i] */\n      dup2\n      sload\n      dup2\n      lt\n      tag_59\n      jumpi\n      tag_60\n      tag_61\n      jump\t// in\n    tag_60:\n    tag_59:\n      swap1\n      0x00\n      mstore\n      keccak256(0x00, 0x20)\n      add\n      sload\n        /* \"PalengkeCalculator.sol\":665:671  prices */\n      0x00\n        /* \"PalengkeCalculator.sol\":672:673  i */\n      dup3\n        /* \"PalengkeCalculator.sol\":665:674  prices[i] */\n      dup2\n      sload\n      dup2\n      lt\n      tag_63\n      jumpi\n      tag_64\n      tag_61\n      jump\t// in\n    tag_64:\n    tag_63:\n      swap1\n      0x00\n      mstore\n      keccak256(0x00, 0x20)\n      add\n      sload\n        /* \"PalengkeCalculator.sol\":665:690  prices[i] * quantities[i] */\n      tag_66\n      swap2\n      swap1\n      tag_67\n      jump\t// in\n    tag_66:\n        /* \"PalengkeCalculator.sol\":656:690  total += prices[i] * quantities[i] */\n      dup3\n      tag_68\n      swap2\n      swap1\n      tag_69\n      jump\t// in\n    tag_68:\n      swap2\n      pop\n        /* \"PalengkeCalculator.sol\":636:639  i++ */\n      dup1\n      dup1\n      0x01\n      add\n      swap2\n      pop\n      pop\n        /* \"PalengkeCalculator.sol\":597:702  for (uint256 i = 0; i < prices.length; i++) {... */\n      jump(tag_56)\n    tag_57:\n      pop\n        /* \"PalengkeCalculator.sol\":719:724  total */\n      dup1\n        /* \"PalengkeCalculator.sol\":712:724  return total */\n      swap2\n      pop\n      pop\n        /* \"PalengkeCalculator.sol\":497:732  function calculateGrandTotal() public view returns (uint256) {... */\n      swap1\n      jump\t// out\n        /* \"PalengkeCalculator.sol\":125:152  uint256[] public quantities */\n    tag_25:\n      0x01\n      dup2\n      dup2\n      sload\n      dup2\n      lt\n      tag_70\n      jumpi\n      0x00\n      dup1\n      revert\n    tag_70:\n      swap1\n      0x00\n      mstore\n      keccak256(0x00, 0x20)\n      add\n      0x00\n      swap2\n      pop\n      swap1\n      pop\n      sload\n      dup2\n      jump\t// out\n        /* \"PalengkeCalculator.sol\":95:118  uint256[] public prices */\n    tag_29:\n      0x00\n      dup2\n      dup2\n      sload\n      dup2\n      lt\n      tag_72\n      jumpi\n      0x00\n      dup1\n      revert\n    tag_72:\n      swap1\n      0x00\n      mstore\n      keccak256(0x00, 0x20)\n      add\n      0x00\n      swap2\n      pop\n      swap1\n      pop\n      sload\n      dup2\n      jump\t// out\n        /* \"PalengkeCalculator.sol\":210:445  function calculateTotal(... */\n    tag_34:\n        /* \"PalengkeCalculator.sol\":315:322  uint256 */\n      0x00\n        /* \"PalengkeCalculator.sol\":335:341  prices */\n      0x00\n        /* \"PalengkeCalculator.sol\":347:359  pricePerUnit */\n      dup4\n        /* \"PalengkeCalculator.sol\":335:360  prices.push(pricePerUnit) */\n      swap1\n      dup1\n      0x01\n      dup2\n      sload\n      add\n      dup1\n      dup3\n      sstore\n      dup1\n      swap2\n      pop\n      pop\n      0x01\n      swap1\n      sub\n      swap1\n      0x00\n      mstore\n      keccak256(0x00, 0x20)\n      add\n      0x00\n      swap1\n      swap2\n      swap1\n      swap2\n      swap1\n      swap2\n      pop\n      sstore\n        /* \"PalengkeCalculator.sol\":371:381  quantities */\n      0x01\n        /* \"PalengkeCalculator.sol\":387:395  quantity */\n      dup3\n        /* \"PalengkeCalculator.sol\":371:396  quantities.push(quantity) */\n      swap1\n      dup1\n      0x01\n      dup2\n      sload\n      add\n      dup1\n      dup3\n      sstore\n      dup1\n      swap2\n      pop\n      pop\n      0x01\n      swap1\n      sub\n      swap1\n      0x00\n      mstore\n      keccak256(0x00, 0x20)\n      add\n      0x00\n      swap1\n      swap2\n      swap1\n      swap2\n      swap1\n      swap2\n      pop\n      sstore\n        /* \"PalengkeCalculator.sol\":429:437  quantity */\n      dup2\n        /* \"PalengkeCalculator.sol\":414:426  pricePerUnit */\n      dup4\n        /* \"PalengkeCalculator.sol\":414:437  pricePerUnit * quantity */\n      tag_77\n      swap2\n      swap1\n      tag_67\n      jump\t// in\n    tag_77:\n        /* \"PalengkeCalculator.sol\":407:437  return pricePerUnit * quantity */\n      swap1\n      pop\n        /* \"PalengkeCalculator.sol\":210:445  function calculateTotal(... */\n      swap3\n      swap2\n      pop\n      pop\n      jump\t// out\n        /* \"PalengkeCalculator.sol\":1436:1679  function splitBill(uint256 groupSize) public view returns (uint256) {... */\n    tag_38:\n        /* \"PalengkeCalculator.sol\":1495:1502  uint256 */\n      0x00\n        /* \"PalengkeCalculator.sol\":1535:1536  0 */\n      0x00\n        /* \"PalengkeCalculator.sol\":1523:1532  groupSize */\n      dup3\n        /* \"PalengkeCalculator.sol\":1523:1536  groupSize > 0 */\n      gt\n        /* \"PalengkeCalculator.sol\":1515:1578  require(groupSize > 0, \"Group size must be greater than zero.\") */\n      tag_79\n      jumpi\n      mload(0x40)\n      0x08c379a000000000000000000000000000000000000000000000000000000000\n      dup2\n      mstore\n      0x04\n      add\n      tag_80\n      swap1\n      tag_81\n      jump\t// in\n    tag_80:\n      mload(0x40)\n      dup1\n      swap2\n      sub\n      swap1\n      revert\n    tag_79:\n        /* \"PalengkeCalculator.sol\":1589:1607  uint256 grandTotal */\n      0x00\n        /* \"PalengkeCalculator.sol\":1610:1631  calculateGrandTotal() */\n      tag_82\n        /* \"PalengkeCalculator.sol\":1610:1629  calculateGrandTotal */\n      tag_21\n        /* \"PalengkeCalculator.sol\":1610:1631  calculateGrandTotal() */\n      jump\t// in\n    tag_82:\n        /* \"PalengkeCalculator.sol\":1589:1631  uint256 grandTotal = calculateGrandTotal() */\n      swap1\n      pop\n        /* \"PalengkeCalculator.sol\":1662:1671  groupSize */\n      dup3\n        /* \"PalengkeCalculator.sol\":1649:1659  grandTotal */\n      dup2\n        /* \"PalengkeCalculator.sol\":1649:1671  grandTotal / groupSize */\n      tag_83\n      swap2\n      swap1\n      tag_84\n      jump\t// in\n    tag_83:\n        /* \"PalengkeCalculator.sol\":1642:1671  return grandTotal / groupSize */\n      swap2\n      pop\n      pop\n        /* \"PalengkeCalculator.sol\":1436:1679  function splitBill(uint256 groupSize) public view returns (uint256) {... */\n      swap2\n      swap1\n      pop\n      jump\t// out\n        /* \"PalengkeCalculator.sol\":1095:1377  function applyDiscount(uint256 discountPercent) public view returns (uint256) {... */\n    tag_42:\n        /* \"PalengkeCalculator.sol\":1164:1171  uint256 */\n      0x00\n        /* \"PalengkeCalculator.sol\":1211:1214  100 */\n      0x64\n        /* \"PalengkeCalculator.sol\":1192:1207  discountPercent */\n      dup3\n        /* \"PalengkeCalculator.sol\":1192:1214  discountPercent <= 100 */\n      gt\n      iszero\n        /* \"PalengkeCalculator.sol\":1184:1247  require(discountPercent <= 100, \"Invalid discount percentage.\") */\n      tag_86\n      jumpi\n      mload(0x40)\n      0x08c379a000000000000000000000000000000000000000000000000000000000\n      dup2\n      mstore\n      0x04\n      add\n      tag_87\n      swap1\n      tag_88\n      jump\t// in\n    tag_87:\n      mload(0x40)\n      dup1\n      swap2\n      sub\n      swap1\n      revert\n    tag_86:\n        /* \"PalengkeCalculator.sol\":1258:1276  uint256 grandTotal */\n      0x00\n        /* \"PalengkeCalculator.sol\":1279:1300  calculateGrandTotal() */\n      tag_89\n        /* \"PalengkeCalculator.sol\":1279:1298  calculateGrandTotal */\n      tag_21\n        /* \"PalengkeCalculator.sol\":1279:1300  calculateGrandTotal() */\n      jump\t// in\n    tag_89:\n        /* \"PalengkeCalculator.sol\":1258:1300  uint256 grandTotal = calculateGrandTotal() */\n      swap1\n      pop\n        /* \"PalengkeCalculator.sol\":1365:1368  100 */\n      0x64\n        /* \"PalengkeCalculator.sol\":1346:1361  discountPercent */\n      dup4\n        /* \"PalengkeCalculator.sol\":1333:1343  grandTotal */\n      dup3\n        /* \"PalengkeCalculator.sol\":1333:1361  grandTotal * discountPercent */\n      tag_90\n      swap2\n      swap1\n      tag_67\n      jump\t// in\n    tag_90:\n        /* \"PalengkeCalculator.sol\":1332:1368  (grandTotal * discountPercent) / 100 */\n      tag_91\n      swap2\n      swap1\n      tag_84\n      jump\t// in\n    tag_91:\n        /* \"PalengkeCalculator.sol\":1318:1328  grandTotal */\n      dup2\n        /* \"PalengkeCalculator.sol\":1318:1369  grandTotal - ((grandTotal * discountPercent) / 100) */\n      tag_92\n      swap2\n      swap1\n      tag_54\n      jump\t// in\n    tag_92:\n        /* \"PalengkeCalculator.sol\":1311:1369  return grandTotal - ((grandTotal * discountPercent) / 100) */\n      swap2\n      pop\n      pop\n        /* \"PalengkeCalculator.sol\":1095:1377  function applyDiscount(uint256 discountPercent) public view returns (uint256) {... */\n      swap2\n      swap1\n      pop\n      jump\t// out\n    tag_46:\n      pop\n      dup1\n      sload\n      0x00\n      dup3\n      sstore\n      swap1\n      0x00\n      mstore\n      keccak256(0x00, 0x20)\n      swap1\n      dup2\n      add\n      swap1\n      tag_94\n      swap2\n      swap1\n      tag_95\n      jump\t// in\n    tag_94:\n      pop\n      jump\t// out\n    tag_95:\n    tag_96:\n      dup1\n      dup3\n      gt\n      iszero\n      tag_97\n      jumpi\n      0x00\n      dup2\n      0x00\n      swap1\n      sstore\n      pop\n      0x01\n      add\n      jump(tag_96)\n    tag_97:\n      pop\n      swap1\n      jump\t// out\n        /* \"#utility.yul\":88:205   */\n    tag_99:\n        /* \"#utility.yul\":197:198   */\n      0x00\n        /* \"#utility.yul\":194:195   */\n      0x00\n        /* \"#utility.yul\":187:199   */\n      revert\n        /* \"#utility.yul\":334:411   */\n    tag_101:\n        /* \"#utility.yul\":371:378   */\n      0x00\n        /* \"#utility.yul\":400:405   */\n      dup2\n        /* \"#utility.yul\":389:405   */\n      swap1\n      pop\n        /* \"#utility.yul\":334:411   */\n      swap2\n      swap1\n      pop\n      jump\t// out\n        /* \"#utility.yul\":417:539   */\n    tag_102:\n        /* \"#utility.yul\":490:514   */\n      tag_120\n        /* \"#utility.yul\":508:513   */\n      dup2\n        /* \"#utility.yul\":490:514   */\n      tag_101\n      jump\t// in\n    tag_120:\n        /* \"#utility.yul\":483:488   */\n      dup2\n        /* \"#utility.yul\":480:515   */\n      eq\n        /* \"#utility.yul\":470:533   */\n      tag_121\n      jumpi\n        /* \"#utility.yul\":529:530   */\n      0x00\n        /* \"#utility.yul\":526:527   */\n      0x00\n        /* \"#utility.yul\":519:531   */\n      revert\n        /* \"#utility.yul\":470:533   */\n    tag_121:\n        /* \"#utility.yul\":417:539   */\n      pop\n      jump\t// out\n        /* \"#utility.yul\":545:684   */\n    tag_103:\n        /* \"#utility.yul\":591:596   */\n      0x00\n        /* \"#utility.yul\":629:635   */\n      dup2\n        /* \"#utility.yul\":616:636   */\n      calldataload\n        /* \"#utility.yul\":607:636   */\n      swap1\n      pop\n        /* \"#utility.yul\":645:678   */\n      tag_123\n        /* \"#utility.yul\":672:677   */\n      dup2\n        /* \"#utility.yul\":645:678   */\n      tag_102\n      jump\t// in\n    tag_123:\n        /* \"#utility.yul\":545:684   */\n      swap3\n      swap2\n      pop\n      pop\n      jump\t// out\n        /* \"#utility.yul\":690:1019   */\n    tag_16:\n        /* \"#utility.yul\":749:755   */\n      0x00\n        /* \"#utility.yul\":798:800   */\n      0x20\n        /* \"#utility.yul\":786:795   */\n      dup3\n        /* \"#utility.yul\":777:784   */\n      dup5\n        /* \"#utility.yul\":773:796   */\n      sub\n        /* \"#utility.yul\":769:801   */\n      slt\n        /* \"#utility.yul\":766:885   */\n      iszero\n      tag_125\n      jumpi\n        /* \"#utility.yul\":804:883   */\n      tag_126\n      tag_99\n      jump\t// in\n    tag_126:\n        /* \"#utility.yul\":766:885   */\n    tag_125:\n        /* \"#utility.yul\":924:925   */\n      0x00\n        /* \"#utility.yul\":949:1002   */\n      tag_127\n        /* \"#utility.yul\":994:1001   */\n      dup5\n        /* \"#utility.yul\":985:991   */\n      dup3\n        /* \"#utility.yul\":974:983   */\n      dup6\n        /* \"#utility.yul\":970:992   */\n      add\n        /* \"#utility.yul\":949:1002   */\n      tag_103\n      jump\t// in\n    tag_127:\n        /* \"#utility.yul\":939:1002   */\n      swap2\n      pop\n        /* \"#utility.yul\":895:1012   */\n      pop\n        /* \"#utility.yul\":690:1019   */\n      swap3\n      swap2\n      pop\n      pop\n      jump\t// out\n        /* \"#utility.yul\":1025:1143   */\n    tag_104:\n        /* \"#utility.yul\":1112:1136   */\n      tag_129\n        /* \"#utility.yul\":1130:1135   */\n      dup2\n        /* \"#utility.yul\":1112:1136   */\n      tag_101\n      jump\t// in\n    tag_129:\n        /* \"#utility.yul\":1107:1110   */\n      dup3\n        /* \"#utility.yul\":1100:1137   */\n      mstore\n        /* \"#utility.yul\":1025:1143   */\n      pop\n      pop\n      jump\t// out\n        /* \"#utility.yul\":1149:1371   */\n    tag_19:\n        /* \"#utility.yul\":1242:1246   */\n      0x00\n        /* \"#utility.yul\":1280:1282   */\n      0x20\n        /* \"#utility.yul\":1269:1278   */\n      dup3\n        /* \"#utility.yul\":1265:1283   */\n      add\n        /* \"#utility.yul\":1257:1283   */\n      swap1\n      pop\n        /* \"#utility.yul\":1293:1364   */\n      tag_131\n        /* \"#utility.yul\":1361:1362   */\n      0x00\n        /* \"#utility.yul\":1350:1359   */\n      dup4\n        /* \"#utility.yul\":1346:1363   */\n      add\n        /* \"#utility.yul\":1337:1343   */\n      dup5\n        /* \"#utility.yul\":1293:1364   */\n      tag_104\n      jump\t// in\n    tag_131:\n        /* \"#utility.yul\":1149:1371   */\n      swap3\n      swap2\n      pop\n      pop\n      jump\t// out\n        /* \"#utility.yul\":1377:1851   */\n    tag_33:\n        /* \"#utility.yul\":1445:1451   */\n      0x00\n        /* \"#utility.yul\":1453:1459   */\n      0x00\n        /* \"#utility.yul\":1502:1504   */\n      0x40\n        /* \"#utility.yul\":1490:1499   */\n      dup4\n        /* \"#utility.yul\":1481:1488   */\n      dup6\n        /* \"#utility.yul\":1477:1500   */\n      sub\n        /* \"#utility.yul\":1473:1505   */\n      slt\n        /* \"#utility.yul\":1470:1589   */\n      iszero\n      tag_133\n      jumpi\n        /* \"#utility.yul\":1508:1587   */\n      tag_134\n      tag_99\n      jump\t// in\n    tag_134:\n        /* \"#utility.yul\":1470:1589   */\n    tag_133:\n        /* \"#utility.yul\":1628:1629   */\n      0x00\n        /* \"#utility.yul\":1653:1706   */\n      tag_135\n        /* \"#utility.yul\":1698:1705   */\n      dup6\n        /* \"#utility.yul\":1689:1695   */\n      dup3\n        /* \"#utility.yul\":1678:1687   */\n      dup7\n        /* \"#utility.yul\":1674:1696   */\n      add\n        /* \"#utility.yul\":1653:1706   */\n      tag_103\n      jump\t// in\n    tag_135:\n        /* \"#utility.yul\":1643:1706   */\n      swap3\n      pop\n        /* \"#utility.yul\":1599:1716   */\n      pop\n        /* \"#utility.yul\":1755:1757   */\n      0x20\n        /* \"#utility.yul\":1781:1834   */\n      tag_136\n        /* \"#utility.yul\":1826:1833   */\n      dup6\n        /* \"#utility.yul\":1817:1823   */\n      dup3\n        /* \"#utility.yul\":1806:1815   */\n      dup7\n        /* \"#utility.yul\":1802:1824   */\n      add\n        /* \"#utility.yul\":1781:1834   */\n      tag_103\n      jump\t// in\n    tag_136:\n        /* \"#utility.yul\":1771:1834   */\n      swap2\n      pop\n        /* \"#utility.yul\":1726:1844   */\n      pop\n        /* \"#utility.yul\":1377:1851   */\n      swap3\n      pop\n      swap3\n      swap1\n      pop\n      jump\t// out\n        /* \"#utility.yul\":1857:2026   */\n    tag_105:\n        /* \"#utility.yul\":1941:1952   */\n      0x00\n        /* \"#utility.yul\":1975:1981   */\n      dup3\n        /* \"#utility.yul\":1970:1973   */\n      dup3\n        /* \"#utility.yul\":1963:1982   */\n      mstore\n        /* \"#utility.yul\":2015:2019   */\n      0x20\n        /* \"#utility.yul\":2010:2013   */\n      dup3\n        /* \"#utility.yul\":2006:2020   */\n      add\n        /* \"#utility.yul\":1991:2020   */\n      swap1\n      pop\n        /* \"#utility.yul\":1857:2026   */\n      swap3\n      swap2\n      pop\n      pop\n      jump\t// out\n        /* \"#utility.yul\":2032:2203   */\n    tag_106:\n        /* \"#utility.yul\":2172:2195   */\n      0x496e73756666696369656e74207061796d656e742e0000000000000000000000\n        /* \"#utility.yul\":2168:2169   */\n      0x00\n        /* \"#utility.yul\":2160:2166   */\n      dup3\n        /* \"#utility.yul\":2156:2170   */\n      add\n        /* \"#utility.yul\":2149:2196   */\n      mstore\n        /* \"#utility.yul\":2032:2203   */\n      pop\n      jump\t// out\n        /* \"#utility.yul\":2209:2575   */\n    tag_107:\n        /* \"#utility.yul\":2351:2354   */\n      0x00\n        /* \"#utility.yul\":2372:2439   */\n      tag_140\n        /* \"#utility.yul\":2436:2438   */\n      0x15\n        /* \"#utility.yul\":2431:2434   */\n      dup4\n        /* \"#utility.yul\":2372:2439   */\n      tag_105\n      jump\t// in\n    tag_140:\n        /* \"#utility.yul\":2365:2439   */\n      swap2\n      pop\n        /* \"#utility.yul\":2448:2541   */\n      tag_141\n        /* \"#utility.yul\":2537:2540   */\n      dup3\n        /* \"#utility.yul\":2448:2541   */\n      tag_106\n      jump\t// in\n    tag_141:\n        /* \"#utility.yul\":2566:2568   */\n      0x20\n        /* \"#utility.yul\":2561:2564   */\n      dup3\n        /* \"#utility.yul\":2557:2569   */\n      add\n        /* \"#utility.yul\":2550:2569   */\n      swap1\n      pop\n        /* \"#utility.yul\":2209:2575   */\n      swap2\n      swap1\n      pop\n      jump\t// out\n        /* \"#utility.yul\":2581:3000   */\n    tag_52:\n        /* \"#utility.yul\":2747:2751   */\n      0x00\n        /* \"#utility.yul\":2785:2787   */\n      0x20\n        /* \"#utility.yul\":2774:2783   */\n      dup3\n        /* \"#utility.yul\":2770:2788   */\n      add\n        /* \"#utility.yul\":2762:2788   */\n      swap1\n      pop\n        /* \"#utility.yul\":2834:2843   */\n      dup2\n        /* \"#utility.yul\":2828:2832   */\n      dup2\n        /* \"#utility.yul\":2824:2844   */\n      sub\n        /* \"#utility.yul\":2820:2821   */\n      0x00\n        /* \"#utility.yul\":2809:2818   */\n      dup4\n        /* \"#utility.yul\":2805:2822   */\n      add\n        /* \"#utility.yul\":2798:2845   */\n      mstore\n        /* \"#utility.yul\":2862:2993   */\n      tag_143\n        /* \"#utility.yul\":2988:2992   */\n      dup2\n        /* \"#utility.yul\":2862:2993   */\n      tag_107\n      jump\t// in\n    tag_143:\n        /* \"#utility.yul\":2854:2993   */\n      swap1\n      pop\n        /* \"#utility.yul\":2581:3000   */\n      swap2\n      swap1\n      pop\n      jump\t// out\n        /* \"#utility.yul\":3006:3186   */\n    tag_108:\n        /* \"#utility.yul\":3054:3131   */\n      0x4e487b7100000000000000000000000000000000000000000000000000000000\n        /* \"#utility.yul\":3051:3052   */\n      0x00\n        /* \"#utility.yul\":3044:3132   */\n      mstore\n        /* \"#utility.yul\":3151:3155   */\n      0x11\n        /* \"#utility.yul\":3148:3149   */\n      0x04\n        /* \"#utility.yul\":3141:3156   */\n      mstore\n        /* \"#utility.yul\":3175:3179   */\n      0x24\n        /* \"#utility.yul\":3172:3173   */\n      0x00\n        /* \"#utility.yul\":3165:3180   */\n      revert\n        /* \"#utility.yul\":3192:3386   */\n    tag_54:\n        /* \"#utility.yul\":3232:3236   */\n      0x00\n        /* \"#utility.yul\":3252:3272   */\n      tag_146\n        /* \"#utility.yul\":3270:3271   */\n      dup3\n        /* \"#utility.yul\":3252:3272   */\n      tag_101\n      jump\t// in\n    tag_146:\n        /* \"#utility.yul\":3247:3272   */\n      swap2\n      pop\n        /* \"#utility.yul\":3286:3306   */\n      tag_147\n        /* \"#utility.yul\":3304:3305   */\n      dup4\n        /* \"#utility.yul\":3286:3306   */\n      tag_101\n      jump\t// in\n    tag_147:\n        /* \"#utility.yul\":3281:3306   */\n      swap3\n      pop\n        /* \"#utility.yul\":3330:3331   */\n      dup3\n        /* \"#utility.yul\":3327:3328   */\n      dup3\n        /* \"#utility.yul\":3323:3332   */\n      sub\n        /* \"#utility.yul\":3315:3332   */\n      swap1\n      pop\n        /* \"#utility.yul\":3354:3355   */\n      dup2\n        /* \"#utility.yul\":3348:3352   */\n      dup2\n        /* \"#utility.yul\":3345:3356   */\n      gt\n        /* \"#utility.yul\":3342:3379   */\n      iszero\n      tag_148\n      jumpi\n        /* \"#utility.yul\":3359:3377   */\n      tag_149\n      tag_108\n      jump\t// in\n    tag_149:\n        /* \"#utility.yul\":3342:3379   */\n    tag_148:\n        /* \"#utility.yul\":3192:3386   */\n      swap3\n      swap2\n      pop\n      pop\n      jump\t// out\n        /* \"#utility.yul\":3392:3572   */\n    tag_61:\n        /* \"#utility.yul\":3440:3517   */\n      0x4e487b7100000000000000000000000000000000000000000000000000000000\n        /* \"#utility.yul\":3437:3438   */\n      0x00\n        /* \"#utility.yul\":3430:3518   */\n      mstore\n        /* \"#utility.yul\":3537:3541   */\n      0x32\n        /* \"#utility.yul\":3534:3535   */\n      0x04\n        /* \"#utility.yul\":3527:3542   */\n      mstore\n        /* \"#utility.yul\":3561:3565   */\n      0x24\n        /* \"#utility.yul\":3558:3559   */\n      0x00\n        /* \"#utility.yul\":3551:3566   */\n      revert\n        /* \"#utility.yul\":3578:3988   */\n    tag_67:\n        /* \"#utility.yul\":3618:3625   */\n      0x00\n        /* \"#utility.yul\":3641:3661   */\n      tag_152\n        /* \"#utility.yul\":3659:3660   */\n      dup3\n        /* \"#utility.yul\":3641:3661   */\n      tag_101\n      jump\t// in\n    tag_152:\n        /* \"#utility.yul\":3636:3661   */\n      swap2\n      pop\n        /* \"#utility.yul\":3675:3695   */\n      tag_153\n        /* \"#utility.yul\":3693:3694   */\n      dup4\n        /* \"#utility.yul\":3675:3695   */\n      tag_101\n      jump\t// in\n    tag_153:\n        /* \"#utility.yul\":3670:3695   */\n      swap3\n      pop\n        /* \"#utility.yul\":3730:3731   */\n      dup3\n        /* \"#utility.yul\":3727:3728   */\n      dup3\n        /* \"#utility.yul\":3723:3732   */\n      mul\n        /* \"#utility.yul\":3752:3782   */\n      tag_154\n        /* \"#utility.yul\":3770:3781   */\n      dup2\n        /* \"#utility.yul\":3752:3782   */\n      tag_101\n      jump\t// in\n    tag_154:\n        /* \"#utility.yul\":3741:3782   */\n      swap2\n      pop\n        /* \"#utility.yul\":3931:3932   */\n      dup3\n        /* \"#utility.yul\":3922:3929   */\n      dup3\n        /* \"#utility.yul\":3918:3933   */\n      div\n        /* \"#utility.yul\":3915:3916   */\n      dup5\n        /* \"#utility.yul\":3912:3934   */\n      eq\n        /* \"#utility.yul\":3892:3893   */\n      dup4\n        /* \"#utility.yul\":3885:3894   */\n      iszero\n        /* \"#utility.yul\":3865:3948   */\n      or\n        /* \"#utility.yul\":3842:3981   */\n      tag_155\n      jumpi\n        /* \"#utility.yul\":3961:3979   */\n      tag_156\n      tag_108\n      jump\t// in\n    tag_156:\n        /* \"#utility.yul\":3842:3981   */\n    tag_155:\n        /* \"#utility.yul\":3626:3988   */\n      pop\n        /* \"#utility.yul\":3578:3988   */\n      swap3\n      swap2\n      pop\n      pop\n      jump\t// out\n        /* \"#utility.yul\":3994:4185   */\n    tag_69:\n        /* \"#utility.yul\":4034:4037   */\n      0x00\n        /* \"#utility.yul\":4053:4073   */\n      tag_158\n        /* \"#utility.yul\":4071:4072   */\n      dup3\n        /* \"#utility.yul\":4053:4073   */\n      tag_101\n      jump\t// in\n    tag_158:\n        /* \"#utility.yul\":4048:4073   */\n      swap2\n      pop\n        /* \"#utility.yul\":4087:4107   */\n      tag_159\n        /* \"#utility.yul\":4105:4106   */\n      dup4\n        /* \"#utility.yul\":4087:4107   */\n      tag_101\n      jump\t// in\n    tag_159:\n        /* \"#utility.yul\":4082:4107   */\n      swap3\n      pop\n        /* \"#utility.yul\":4130:4131   */\n      dup3\n        /* \"#utility.yul\":4127:4128   */\n      dup3\n        /* \"#utility.yul\":4123:4132   */\n      add\n        /* \"#utility.yul\":4116:4132   */\n      swap1\n      pop\n        /* \"#utility.yul\":4151:4154   */\n      dup1\n        /* \"#utility.yul\":4148:4149   */\n      dup3\n        /* \"#utility.yul\":4145:4155   */\n      gt\n        /* \"#utility.yul\":4142:4178   */\n      iszero\n      tag_160\n      jumpi\n        /* \"#utility.yul\":4158:4176   */\n      tag_161\n      tag_108\n      jump\t// in\n    tag_161:\n        /* \"#utility.yul\":4142:4178   */\n    tag_160:\n        /* \"#utility.yul\":3994:4185   */\n      swap3\n      swap2\n      pop\n      pop\n      jump\t// out\n        /* \"#utility.yul\":4191:4415   */\n    tag_109:\n        /* \"#utility.yul\":4331:4365   */\n      0x47726f75702073697a65206d7573742062652067726561746572207468616e20\n        /* \"#utility.yul\":4327:4328   */\n      0x00\n        /* \"#utility.yul\":4319:4325   */\n      dup3\n        /* \"#utility.yul\":4315:4329   */\n      add\n        /* \"#utility.yul\":4308:4366   */\n      mstore\n        /* \"#utility.yul\":4400:4407   */\n      0x7a65726f2e000000000000000000000000000000000000000000000000000000\n        /* \"#utility.yul\":4395:4397   */\n      0x20\n        /* \"#utility.yul\":4387:4393   */\n      dup3\n        /* \"#utility.yul\":4383:4398   */\n      add\n        /* \"#utility.yul\":4376:4408   */\n      mstore\n        /* \"#utility.yul\":4191:4415   */\n      pop\n      jump\t// out\n        /* \"#utility.yul\":4421:4787   */\n    tag_110:\n        /* \"#utility.yul\":4563:4566   */\n      0x00\n        /* \"#utility.yul\":4584:4651   */\n      tag_164\n        /* \"#utility.yul\":4648:4650   */\n      0x25\n        /* \"#utility.yul\":4643:4646   */\n      dup4\n        /* \"#utility.yul\":4584:4651   */\n      tag_105\n      jump\t// in\n    tag_164:\n        /* \"#utility.yul\":4577:4651   */\n      swap2\n      pop\n        /* \"#utility.yul\":4660:4753   */\n      tag_165\n        /* \"#utility.yul\":4749:4752   */\n      dup3\n        /* \"#utility.yul\":4660:4753   */\n      tag_109\n      jump\t// in\n    tag_165:\n        /* \"#utility.yul\":4778:4780   */\n      0x40\n        /* \"#utility.yul\":4773:4776   */\n      dup3\n        /* \"#utility.yul\":4769:4781   */\n      add\n        /* \"#utility.yul\":4762:4781   */\n      swap1\n      pop\n        /* \"#utility.yul\":4421:4787   */\n      swap2\n      swap1\n      pop\n      jump\t// out\n        /* \"#utility.yul\":4793:5212   */\n    tag_81:\n        /* \"#utility.yul\":4959:4963   */\n      0x00\n        /* \"#utility.yul\":4997:4999   */\n      0x20\n        /* \"#utility.yul\":4986:4995   */\n      dup3\n        /* \"#utility.yul\":4982:5000   */\n      add\n        /* \"#utility.yul\":4974:5000   */\n      swap1\n      pop\n        /* \"#utility.yul\":5046:5055   */\n      dup2\n        /* \"#utility.yul\":5040:5044   */\n      dup2\n        /* \"#utility.yul\":5036:5056   */\n      sub\n        /* \"#utility.yul\":5032:5033   */\n      0x00\n        /* \"#utility.yul\":5021:5030   */\n      dup4\n        /* \"#utility.yul\":5017:5034   */\n      add\n        /* \"#utility.yul\":5010:5057   */\n      mstore\n        /* \"#utility.yul\":5074:5205   */\n      tag_167\n        /* \"#utility.yul\":5200:5204   */\n      dup2\n        /* \"#utility.yul\":5074:5205   */\n      tag_110\n      jump\t// in\n    tag_167:\n        /* \"#utility.yul\":5066:5205   */\n      swap1\n      pop\n        /* \"#utility.yul\":4793:5212   */\n      swap2\n      swap1\n      pop\n      jump\t// out\n        /* \"#utility.yul\":5218:5398   */\n    tag_111:\n        /* \"#utility.yul\":5266:5343   */\n      0x4e487b7100000000000000000000000000000000000000000000000000000000\n        /* \"#utility.yul\":5263:5264   */\n      0x00\n        /* \"#utility.yul\":5256:5344   */\n      mstore\n        /* \"#utility.yul\":5363:5367   */\n      0x12\n        /* \"#utility.yul\":5360:5361   */\n      0x04\n        /* \"#utility.yul\":5353:5368   */\n      mstore\n        /* \"#utility.yul\":5387:5391   */\n      0x24\n        /* \"#utility.yul\":5384:5385   */\n      0x00\n        /* \"#utility.yul\":5377:5392   */\n      revert\n        /* \"#utility.yul\":5404:5589   */\n    tag_84:\n        /* \"#utility.yul\":5444:5445   */\n      0x00\n        /* \"#utility.yul\":5461:5481   */\n      tag_170\n        /* \"#utility.yul\":5479:5480   */\n      dup3\n        /* \"#utility.yul\":5461:5481   */\n      tag_101\n      jump\t// in\n    tag_170:\n        /* \"#utility.yul\":5456:5481   */\n      swap2\n      pop\n        /* \"#utility.yul\":5495:5515   */\n      tag_171\n        /* \"#utility.yul\":5513:5514   */\n      dup4\n        /* \"#utility.yul\":5495:5515   */\n      tag_101\n      jump\t// in\n    tag_171:\n        /* \"#utility.yul\":5490:5515   */\n      swap3\n      pop\n        /* \"#utility.yul\":5534:5535   */\n      dup3\n        /* \"#utility.yul\":5524:5559   */\n      tag_172\n      jumpi\n        /* \"#utility.yul\":5539:5557   */\n      tag_173\n      tag_111\n      jump\t// in\n    tag_173:\n        /* \"#utility.yul\":5524:5559   */\n    tag_172:\n        /* \"#utility.yul\":5581:5582   */\n      dup3\n        /* \"#utility.yul\":5578:5579   */\n      dup3\n        /* \"#utility.yul\":5574:5583   */\n      div\n        /* \"#utility.yul\":5569:5583   */\n      swap1\n      pop\n        /* \"#utility.yul\":5404:5589   */\n      swap3\n      swap2\n      pop\n      pop\n      jump\t// out\n        /* \"#utility.yul\":5595:5773   */\n    tag_112:\n        /* \"#utility.yul\":5735:5765   */\n      0x496e76616c696420646973636f756e742070657263656e746167652e00000000\n        /* \"#utility.yul\":5731:5732   */\n      0x00\n        /* \"#utility.yul\":5723:5729   */\n      dup3\n        /* \"#utility.yul\":5719:5733   */\n      add\n        /* \"#utility.yul\":5712:5766   */\n      mstore\n        /* \"#utility.yul\":5595:5773   */\n      pop\n      jump\t// out\n        /* \"#utility.yul\":5779:6145   */\n    tag_113:\n        /* \"#utility.yul\":5921:5924   */\n      0x00\n        /* \"#utility.yul\":5942:6009   */\n      tag_176\n        /* \"#utility.yul\":6006:6008   */\n      0x1c\n        /* \"#utility.yul\":6001:6004   */\n      dup4\n        /* \"#utility.yul\":5942:6009   */\n      tag_105\n      jump\t// in\n    tag_176:\n        /* \"#utility.yul\":5935:6009   */\n      swap2\n      pop\n        /* \"#utility.yul\":6018:6111   */\n      tag_177\n        /* \"#utility.yul\":6107:6110   */\n      dup3\n        /* \"#utility.yul\":6018:6111   */\n      tag_112\n      jump\t// in\n    tag_177:\n        /* \"#utility.yul\":6136:6138   */\n      0x20\n        /* \"#utility.yul\":6131:6134   */\n      dup3\n        /* \"#utility.yul\":6127:6139   */\n      add\n        /* \"#utility.yul\":6120:6139   */\n      swap1\n      pop\n        /* \"#utility.yul\":5779:6145   */\n      swap2\n      swap1\n      pop\n      jump\t// out\n        /* \"#utility.yul\":6151:6570   */\n    tag_88:\n        /* \"#utility.yul\":6317:6321   */\n      0x00\n        /* \"#utility.yul\":6355:6357   */\n      0x20\n        /* \"#utility.yul\":6344:6353   */\n      dup3\n        /* \"#utility.yul\":6340:6358   */\n      add\n        /* \"#utility.yul\":6332:6358   */\n      swap1\n      pop\n        /* \"#utility.yul\":6404:6413   */\n      dup2\n        /* \"#utility.yul\":6398:6402   */\n      dup2\n        /* \"#utility.yul\":6394:6414   */\n      sub\n        /* \"#utility.yul\":6390:6391   */\n      0x00\n        /* \"#utility.yul\":6379:6388   */\n      dup4\n        /* \"#utility.yul\":6375:6392   */\n      add\n        /* \"#utility.yul\":6368:6415   */\n      mstore\n        /* \"#utility.yul\":6432:6563   */\n      tag_179\n        /* \"#utility.yul\":6558:6562   */\n      dup2\n        /* \"#utility.yul\":6432:6563   */\n      tag_113\n      jump\t// in\n    tag_179:\n        /* \"#utility.yul\":6424:6563   */\n      swap1\n      pop\n        /* \"#utility.yul\":6151:6570   */\n      swap2\n      swap1\n      pop\n      jump\t// out\n\n    auxdata: 0xa264697066735822122011c607846b2f0fbcb3baa1ce39d18e7ab647e8a596503b18fd1cb298f5b6259f64736f6c634300081f0033\n}\n",
				"bytecode": {
					"linkReferences": {},
					"object": "6080604052348015600e575f5ffd5b5061084a8061001c5f395ff3fe608060405234801561000f575f5ffd5b5060043610610086575f3560e01c8063bc31c1c111610059578063bc31c1c114610112578063c6bac7c614610142578063f05b0acf14610172578063fda9be17146101a257610086565b80633c139aab1461008a5780634a31b0b61461009457806392742644146100c4578063a4125403146100e2575b5f5ffd5b6100926101d2565b005b6100ae60048036038101906100a991906104b7565b6101ed565b6040516100bb91906104f1565b60405180910390f35b6100cc610250565b6040516100d991906104f1565b60405180910390f35b6100fc60048036038101906100f791906104b7565b6102cb565b60405161010991906104f1565b60405180910390f35b61012c600480360381019061012791906104b7565b6102eb565b60405161013991906104f1565b60405180910390f35b61015c6004803603810190610157919061050a565b61030a565b60405161016991906104f1565b60405180910390f35b61018c600480360381019061018791906104b7565b61036a565b60405161019991906104f1565b60405180910390f35b6101bc60048036038101906101b791906104b7565b6103cc565b6040516101c991906104f1565b60405180910390f35b5f5f6101de9190610447565b60015f6101eb9190610447565b565b5f5f6101f7610250565b90508083101561023c576040517f08c379a0000000000000000000000000000000000000000000000000000000008152600401610233906105a2565b60405180910390fd5b808361024891906105ed565b915050919050565b5f5f5f90505f5f90505b5f805490508110156102c3576001818154811061027a57610279610620565b5b905f5260205f2001545f828154811061029657610295610620565b5b905f5260205f2001546102a9919061064d565b826102b4919061068e565b9150808060010191505061025a565b508091505090565b600181815481106102da575f80fd5b905f5260205f20015f915090505481565b5f81815481106102f9575f80fd5b905f5260205f20015f915090505481565b5f5f83908060018154018082558091505060019003905f5260205f20015f9091909190915055600182908060018154018082558091505060019003905f5260205f20015f90919091909150558183610362919061064d565b905092915050565b5f5f82116103ad576040517f08c379a00000000000000000000000000000000000000000000000000000000081526004016103a490610731565b60405180910390fd5b5f6103b6610250565b905082816103c4919061077c565b915050919050565b5f6064821115610411576040517f08c379a0000000000000000000000000000000000000000000000000000000008152600401610408906107f6565b60405180910390fd5b5f61041a610250565b90506064838261042a919061064d565b610434919061077c565b8161043f91906105ed565b915050919050565b5080545f8255905f5260205f20908101906104629190610465565b50565b5b8082111561047c575f815f905550600101610466565b5090565b5f5ffd5b5f819050919050565b61049681610484565b81146104a0575f5ffd5b50565b5f813590506104b18161048d565b92915050565b5f602082840312156104cc576104cb610480565b5b5f6104d9848285016104a3565b91505092915050565b6104eb81610484565b82525050565b5f6020820190506105045f8301846104e2565b92915050565b5f5f604083850312156105205761051f610480565b5b5f61052d858286016104a3565b925050602061053e858286016104a3565b9150509250929050565b5f82825260208201905092915050565b7f496e73756666696369656e74207061796d656e742e00000000000000000000005f82015250565b5f61058c601583610548565b915061059782610558565b602082019050919050565b5f6020820190508181035f8301526105b981610580565b9050919050565b7f4e487b71000000000000000000000000000000000000000000000000000000005f52601160045260245ffd5b5f6105f782610484565b915061060283610484565b925082820390508181111561061a576106196105c0565b5b92915050565b7f4e487b71000000000000000000000000000000000000000000000000000000005f52603260045260245ffd5b5f61065782610484565b915061066283610484565b925082820261067081610484565b91508282048414831517610687576106866105c0565b5b5092915050565b5f61069882610484565b91506106a383610484565b92508282019050808211156106bb576106ba6105c0565b5b92915050565b7f47726f75702073697a65206d7573742062652067726561746572207468616e205f8201527f7a65726f2e000000000000000000000000000000000000000000000000000000602082015250565b5f61071b602583610548565b9150610726826106c1565b604082019050919050565b5f6020820190508181035f8301526107488161070f565b9050919050565b7f4e487b71000000000000000000000000000000000000000000000000000000005f52601260045260245ffd5b5f61078682610484565b915061079183610484565b9250826107a1576107a061074f565b5b828204905092915050565b7f496e76616c696420646973636f756e742070657263656e746167652e000000005f82015250565b5f6107e0601c83610548565b91506107eb826107ac565b602082019050919050565b5f6020820190508181035f83015261080d816107d4565b905091905056fea264697066735822122011c607846b2f0fbcb3baa1ce39d18e7ab647e8a596503b18fd1cb298f5b6259f64736f6c634300081f0033",
					"opcodes": "PUSH1 0x80 PUSH1 0x40 MSTORE CALLVALUE DUP1 ISZERO PUSH1 0xE JUMPI PUSH0 PUSH0 REVERT JUMPDEST POP PUSH2 0x84A DUP1 PUSH2 0x1C PUSH0 CODECOPY PUSH0 RETURN INVALID PUSH1 0x80 PUSH1 0x40 MSTORE CALLVALUE DUP1 ISZERO PUSH2 0xF JUMPI PUSH0 PUSH0 REVERT JUMPDEST POP PUSH1 0x4 CALLDATASIZE LT PUSH2 0x86 JUMPI PUSH0 CALLDATALOAD PUSH1 0xE0 SHR DUP1 PUSH4 0xBC31C1C1 GT PUSH2 0x59 JUMPI DUP1 PUSH4 0xBC31C1C1 EQ PUSH2 0x112 JUMPI DUP1 PUSH4 0xC6BAC7C6 EQ PUSH2 0x142 JUMPI DUP1 PUSH4 0xF05B0ACF EQ PUSH2 0x172 JUMPI DUP1 PUSH4 0xFDA9BE17 EQ PUSH2 0x1A2 JUMPI PUSH2 0x86 JUMP JUMPDEST DUP1 PUSH4 0x3C139AAB EQ PUSH2 0x8A JUMPI DUP1 PUSH4 0x4A31B0B6 EQ PUSH2 0x94 JUMPI DUP1 PUSH4 0x92742644 EQ PUSH2 0xC4 JUMPI DUP1 PUSH4 0xA4125403 EQ PUSH2 0xE2 JUMPI JUMPDEST PUSH0 PUSH0 REVERT JUMPDEST PUSH2 0x92 PUSH2 0x1D2 JUMP JUMPDEST STOP JUMPDEST PUSH2 0xAE PUSH1 0x4 DUP1 CALLDATASIZE SUB DUP2 ADD SWAP1 PUSH2 0xA9 SWAP2 SWAP1 PUSH2 0x4B7 JUMP JUMPDEST PUSH2 0x1ED JUMP JUMPDEST PUSH1 0x40 MLOAD PUSH2 0xBB SWAP2 SWAP1 PUSH2 0x4F1 JUMP JUMPDEST PUSH1 0x40 MLOAD DUP1 SWAP2 SUB SWAP1 RETURN JUMPDEST PUSH2 0xCC PUSH2 0x250 JUMP JUMPDEST PUSH1 0x40 MLOAD PUSH2 0xD9 SWAP2 SWAP1 PUSH2 0x4F1 JUMP JUMPDEST PUSH1 0x40 MLOAD DUP1 SWAP2 SUB SWAP1 RETURN JUMPDEST PUSH2 0xFC PUSH1 0x4 DUP1 CALLDATASIZE SUB DUP2 ADD SWAP1 PUSH2 0xF7 SWAP2 SWAP1 PUSH2 0x4B7 JUMP JUMPDEST PUSH2 0x2CB JUMP JUMPDEST PUSH1 0x40 MLOAD PUSH2 0x109 SWAP2 SWAP1 PUSH2 0x4F1 JUMP JUMPDEST PUSH1 0x40 MLOAD DUP1 SWAP2 SUB SWAP1 RETURN JUMPDEST PUSH2 0x12C PUSH1 0x4 DUP1 CALLDATASIZE SUB DUP2 ADD SWAP1 PUSH2 0x127 SWAP2 SWAP1 PUSH2 0x4B7 JUMP JUMPDEST PUSH2 0x2EB JUMP JUMPDEST PUSH1 0x40 MLOAD PUSH2 0x139 SWAP2 SWAP1 PUSH2 0x4F1 JUMP JUMPDEST PUSH1 0x40 MLOAD DUP1 SWAP2 SUB SWAP1 RETURN JUMPDEST PUSH2 0x15C PUSH1 0x4 DUP1 CALLDATASIZE SUB DUP2 ADD SWAP1 PUSH2 0x157 SWAP2 SWAP1 PUSH2 0x50A JUMP JUMPDEST PUSH2 0x30A JUMP JUMPDEST PUSH1 0x40 MLOAD PUSH2 0x169 SWAP2 SWAP1 PUSH2 0x4F1 JUMP JUMPDEST PUSH1 0x40 MLOAD DUP1 SWAP2 SUB SWAP1 RETURN JUMPDEST PUSH2 0x18C PUSH1 0x4 DUP1 CALLDATASIZE SUB DUP2 ADD SWAP1 PUSH2 0x187 SWAP2 SWAP1 PUSH2 0x4B7 JUMP JUMPDEST PUSH2 0x36A JUMP JUMPDEST PUSH1 0x40 MLOAD PUSH2 0x199 SWAP2 SWAP1 PUSH2 0x4F1 JUMP JUMPDEST PUSH1 0x40 MLOAD DUP1 SWAP2 SUB SWAP1 RETURN JUMPDEST PUSH2 0x1BC PUSH1 0x4 DUP1 CALLDATASIZE SUB DUP2 ADD SWAP1 PUSH2 0x1B7 SWAP2 SWAP1 PUSH2 0x4B7 JUMP JUMPDEST PUSH2 0x3CC JUMP JUMPDEST PUSH1 0x40 MLOAD PUSH2 0x1C9 SWAP2 SWAP1 PUSH2 0x4F1 JUMP JUMPDEST PUSH1 0x40 MLOAD DUP1 SWAP2 SUB SWAP1 RETURN JUMPDEST PUSH0 PUSH0 PUSH2 0x1DE SWAP2 SWAP1 PUSH2 0x447 JUMP JUMPDEST PUSH1 0x1 PUSH0 PUSH2 0x1EB SWAP2 SWAP1 PUSH2 0x447 JUMP JUMPDEST JUMP JUMPDEST PUSH0 PUSH0 PUSH2 0x1F7 PUSH2 0x250 JUMP JUMPDEST SWAP1 POP DUP1 DUP4 LT ISZERO PUSH2 0x23C JUMPI PUSH1 0x40 MLOAD PUSH32 0x8C379A000000000000000000000000000000000000000000000000000000000 DUP2 MSTORE PUSH1 0x4 ADD PUSH2 0x233 SWAP1 PUSH2 0x5A2 JUMP JUMPDEST PUSH1 0x40 MLOAD DUP1 SWAP2 SUB SWAP1 REVERT JUMPDEST DUP1 DUP4 PUSH2 0x248 SWAP2 SWAP1 PUSH2 0x5ED JUMP JUMPDEST SWAP2 POP POP SWAP2 SWAP1 POP JUMP JUMPDEST PUSH0 PUSH0 PUSH0 SWAP1 POP PUSH0 PUSH0 SWAP1 POP JUMPDEST PUSH0 DUP1 SLOAD SWAP1 POP DUP2 LT ISZERO PUSH2 0x2C3 JUMPI PUSH1 0x1 DUP2 DUP2 SLOAD DUP2 LT PUSH2 0x27A JUMPI PUSH2 0x279 PUSH2 0x620 JUMP JUMPDEST JUMPDEST SWAP1 PUSH0 MSTORE PUSH1 0x20 PUSH0 KECCAK256 ADD SLOAD PUSH0 DUP3 DUP2 SLOAD DUP2 LT PUSH2 0x296 JUMPI PUSH2 0x295 PUSH2 0x620 JUMP JUMPDEST JUMPDEST SWAP1 PUSH0 MSTORE PUSH1 0x20 PUSH0 KECCAK256 ADD SLOAD PUSH2 0x2A9 SWAP2 SWAP1 PUSH2 0x64D JUMP JUMPDEST DUP3 PUSH2 0x2B4 SWAP2 SWAP1 PUSH2 0x68E JUMP JUMPDEST SWAP2 POP DUP1 DUP1 PUSH1 0x1 ADD SWAP2 POP POP PUSH2 0x25A JUMP JUMPDEST POP DUP1 SWAP2 POP POP SWAP1 JUMP JUMPDEST PUSH1 0x1 DUP2 DUP2 SLOAD DUP2 LT PUSH2 0x2DA JUMPI PUSH0 DUP1 REVERT JUMPDEST SWAP1 PUSH0 MSTORE PUSH1 0x20 PUSH0 KECCAK256 ADD PUSH0 SWAP2 POP SWAP1 POP SLOAD DUP2 JUMP JUMPDEST PUSH0 DUP2 DUP2 SLOAD DUP2 LT PUSH2 0x2F9 JUMPI PUSH0 DUP1 REVERT JUMPDEST SWAP1 PUSH0 MSTORE PUSH1 0x20 PUSH0 KECCAK256 ADD PUSH0 SWAP2 POP SWAP1 POP SLOAD DUP2 JUMP JUMPDEST PUSH0 PUSH0 DUP4 SWAP1 DUP1 PUSH1 0x1 DUP2 SLOAD ADD DUP1 DUP3 SSTORE DUP1 SWAP2 POP POP PUSH1 0x1 SWAP1 SUB SWAP1 PUSH0 MSTORE PUSH1 0x20 PUSH0 KECCAK256 ADD PUSH0 SWAP1 SWAP2 SWAP1 SWAP2 SWAP1 SWAP2 POP SSTORE PUSH1 0x1 DUP3 SWAP1 DUP1 PUSH1 0x1 DUP2 SLOAD ADD DUP1 DUP3 SSTORE DUP1 SWAP2 POP POP PUSH1 0x1 SWAP1 SUB SWAP1 PUSH0 MSTORE PUSH1 0x20 PUSH0 KECCAK256 ADD PUSH0 SWAP1 SWAP2 SWAP1 SWAP2 SWAP1 SWAP2 POP SSTORE DUP2 DUP4 PUSH2 0x362 SWAP2 SWAP1 PUSH2 0x64D JUMP JUMPDEST SWAP1 POP SWAP3 SWAP2 POP POP JUMP JUMPDEST PUSH0 PUSH0 DUP3 GT PUSH2 0x3AD JUMPI PUSH1 0x40 MLOAD PUSH32 0x8C379A000000000000000000000000000000000000000000000000000000000 DUP2 MSTORE PUSH1 0x4 ADD PUSH2 0x3A4 SWAP1 PUSH2 0x731 JUMP JUMPDEST PUSH1 0x40 MLOAD DUP1 SWAP2 SUB SWAP1 REVERT JUMPDEST PUSH0 PUSH2 0x3B6 PUSH2 0x250 JUMP JUMPDEST SWAP1 POP DUP3 DUP2 PUSH2 0x3C4 SWAP2 SWAP1 PUSH2 0x77C JUMP JUMPDEST SWAP2 POP POP SWAP2 SWAP1 POP JUMP JUMPDEST PUSH0 PUSH1 0x64 DUP3 GT ISZERO PUSH2 0x411 JUMPI PUSH1 0x40 MLOAD PUSH32 0x8C379A000000000000000000000000000000000000000000000000000000000 DUP2 MSTORE PUSH1 0x4 ADD PUSH2 0x408 SWAP1 PUSH2 0x7F6 JUMP JUMPDEST PUSH1 0x40 MLOAD DUP1 SWAP2 SUB SWAP1 REVERT JUMPDEST PUSH0 PUSH2 0x41A PUSH2 0x250 JUMP JUMPDEST SWAP1 POP PUSH1 0x64 DUP4 DUP3 PUSH2 0x42A SWAP2 SWAP1 PUSH2 0x64D JUMP JUMPDEST PUSH2 0x434 SWAP2 SWAP1 PUSH2 0x77C JUMP JUMPDEST DUP2 PUSH2 0x43F SWAP2 SWAP1 PUSH2 0x5ED JUMP JUMPDEST SWAP2 POP POP SWAP2 SWAP1 POP JUMP JUMPDEST POP DUP1 SLOAD PUSH0 DUP3 SSTORE SWAP1 PUSH0 MSTORE PUSH1 0x20 PUSH0 KECCAK256 SWAP1 DUP2 ADD SWAP1 PUSH2 0x462 SWAP2 SWAP1 PUSH2 0x465 JUMP JUMPDEST POP JUMP JUMPDEST JUMPDEST DUP1 DUP3 GT ISZERO PUSH2 0x47C JUMPI PUSH0 DUP2 PUSH0 SWAP1 SSTORE POP PUSH1 0x1 ADD PUSH2 0x466 JUMP JUMPDEST POP SWAP1 JUMP JUMPDEST PUSH0 PUSH0 REVERT JUMPDEST PUSH0 DUP2 SWAP1 POP SWAP2 SWAP1 POP JUMP JUMPDEST PUSH2 0x496 DUP2 PUSH2 0x484 JUMP JUMPDEST DUP2 EQ PUSH2 0x4A0 JUMPI PUSH0 PUSH0 REVERT JUMPDEST POP JUMP JUMPDEST PUSH0 DUP2 CALLDATALOAD SWAP1 POP PUSH2 0x4B1 DUP2 PUSH2 0x48D JUMP JUMPDEST SWAP3 SWAP2 POP POP JUMP JUMPDEST PUSH0 PUSH1 0x20 DUP3 DUP5 SUB SLT ISZERO PUSH2 0x4CC JUMPI PUSH2 0x4CB PUSH2 0x480 JUMP JUMPDEST JUMPDEST PUSH0 PUSH2 0x4D9 DUP5 DUP3 DUP6 ADD PUSH2 0x4A3 JUMP JUMPDEST SWAP2 POP POP SWAP3 SWAP2 POP POP JUMP JUMPDEST PUSH2 0x4EB DUP2 PUSH2 0x484 JUMP JUMPDEST DUP3 MSTORE POP POP JUMP JUMPDEST PUSH0 PUSH1 0x20 DUP3 ADD SWAP1 POP PUSH2 0x504 PUSH0 DUP4 ADD DUP5 PUSH2 0x4E2 JUMP JUMPDEST SWAP3 SWAP2 POP POP JUMP JUMPDEST PUSH0 PUSH0 PUSH1 0x40 DUP4 DUP6 SUB SLT ISZERO PUSH2 0x520 JUMPI PUSH2 0x51F PUSH2 0x480 JUMP JUMPDEST JUMPDEST PUSH0 PUSH2 0x52D DUP6 DUP3 DUP7 ADD PUSH2 0x4A3 JUMP JUMPDEST SWAP3 POP POP PUSH1 0x20 PUSH2 0x53E DUP6 DUP3 DUP7 ADD PUSH2 0x4A3 JUMP JUMPDEST SWAP2 POP POP SWAP3 POP SWAP3 SWAP1 POP JUMP JUMPDEST PUSH0 DUP3 DUP3 MSTORE PUSH1 0x20 DUP3 ADD SWAP1 POP SWAP3 SWAP2 POP POP JUMP JUMPDEST PUSH32 0x496E73756666696369656E74207061796D656E742E0000000000000000000000 PUSH0 DUP3 ADD MSTORE POP JUMP JUMPDEST PUSH0 PUSH2 0x58C PUSH1 0x15 DUP4 PUSH2 0x548 JUMP JUMPDEST SWAP2 POP PUSH2 0x597 DUP3 PUSH2 0x558 JUMP JUMPDEST PUSH1 0x20 DUP3 ADD SWAP1 POP SWAP2 SWAP1 POP JUMP JUMPDEST PUSH0 PUSH1 0x20 DUP3 ADD SWAP1 POP DUP2 DUP2 SUB PUSH0 DUP4 ADD MSTORE PUSH2 0x5B9 DUP2 PUSH2 0x580 JUMP JUMPDEST SWAP1 POP SWAP2 SWAP1 POP JUMP JUMPDEST PUSH32 0x4E487B7100000000000000000000000000000000000000000000000000000000 PUSH0 MSTORE PUSH1 0x11 PUSH1 0x4 MSTORE PUSH1 0x24 PUSH0 REVERT JUMPDEST PUSH0 PUSH2 0x5F7 DUP3 PUSH2 0x484 JUMP JUMPDEST SWAP2 POP PUSH2 0x602 DUP4 PUSH2 0x484 JUMP JUMPDEST SWAP3 POP DUP3 DUP3 SUB SWAP1 POP DUP2 DUP2 GT ISZERO PUSH2 0x61A JUMPI PUSH2 0x619 PUSH2 0x5C0 JUMP JUMPDEST JUMPDEST SWAP3 SWAP2 POP POP JUMP JUMPDEST PUSH32 0x4E487B7100000000000000000000000000000000000000000000000000000000 PUSH0 MSTORE PUSH1 0x32 PUSH1 0x4 MSTORE PUSH1 0x24 PUSH0 REVERT JUMPDEST PUSH0 PUSH2 0x657 DUP3 PUSH2 0x484 JUMP JUMPDEST SWAP2 POP PUSH2 0x662 DUP4 PUSH2 0x484 JUMP JUMPDEST SWAP3 POP DUP3 DUP3 MUL PUSH2 0x670 DUP2 PUSH2 0x484 JUMP JUMPDEST SWAP2 POP DUP3 DUP3 DIV DUP5 EQ DUP4 ISZERO OR PUSH2 0x687 JUMPI PUSH2 0x686 PUSH2 0x5C0 JUMP JUMPDEST JUMPDEST POP SWAP3 SWAP2 POP POP JUMP JUMPDEST PUSH0 PUSH2 0x698 DUP3 PUSH2 0x484 JUMP JUMPDEST SWAP2 POP PUSH2 0x6A3 DUP4 PUSH2 0x484 JUMP JUMPDEST SWAP3 POP DUP3 DUP3 ADD SWAP1 POP DUP1 DUP3 GT ISZERO PUSH2 0x6BB JUMPI PUSH2 0x6BA PUSH2 0x5C0 JUMP JUMPDEST JUMPDEST SWAP3 SWAP2 POP POP JUMP JUMPDEST PUSH32 0x47726F75702073697A65206D7573742062652067726561746572207468616E20 PUSH0 DUP3 ADD MSTORE PUSH32 0x7A65726F2E000000000000000000000000000000000000000000000000000000 PUSH1 0x20 DUP3 ADD MSTORE POP JUMP JUMPDEST PUSH0 PUSH2 0x71B PUSH1 0x25 DUP4 PUSH2 0x548 JUMP JUMPDEST SWAP2 POP PUSH2 0x726 DUP3 PUSH2 0x6C1 JUMP JUMPDEST PUSH1 0x40 DUP3 ADD SWAP1 POP SWAP2 SWAP1 POP JUMP JUMPDEST PUSH0 PUSH1 0x20 DUP3 ADD SWAP1 POP DUP2 DUP2 SUB PUSH0 DUP4 ADD MSTORE PUSH2 0x748 DUP2 PUSH2 0x70F JUMP JUMPDEST SWAP1 POP SWAP2 SWAP1 POP JUMP JUMPDEST PUSH32 0x4E487B7100000000000000000000000000000000000000000000000000000000 PUSH0 MSTORE PUSH1 0x12 PUSH1 0x4 MSTORE PUSH1 0x24 PUSH0 REVERT JUMPDEST PUSH0 PUSH2 0x786 DUP3 PUSH2 0x484 JUMP JUMPDEST SWAP2 POP PUSH2 0x791 DUP4 PUSH2 0x484 JUMP JUMPDEST SWAP3 POP DUP3 PUSH2 0x7A1 JUMPI PUSH2 0x7A0 PUSH2 0x74F JUMP JUMPDEST JUMPDEST DUP3 DUP3 DIV SWAP1 POP SWAP3 SWAP2 POP POP JUMP JUMPDEST PUSH32 0x496E76616C696420646973636F756E742070657263656E746167652E00000000 PUSH0 DUP3 ADD MSTORE POP JUMP JUMPDEST PUSH0 PUSH2 0x7E0 PUSH1 0x1C DUP4 PUSH2 0x548 JUMP JUMPDEST SWAP2 POP PUSH2 0x7EB DUP3 PUSH2 0x7AC JUMP JUMPDEST PUSH1 0x20 DUP3 ADD SWAP1 POP SWAP2 SWAP1 POP JUMP JUMPDEST PUSH0 PUSH1 0x20 DUP3 ADD SWAP1 POP DUP2 DUP2 SUB PUSH0 DUP4 ADD MSTORE PUSH2 0x80D DUP2 PUSH2 0x7D4 JUMP JUMPDEST SWAP1 POP SWAP2 SWAP1 POP JUMP INVALID LOG2 PUSH5 0x6970667358 0x22 SLT KECCAK256 GT 0xC6 SMOD DUP5 PUSH12 0x2F0FBCB3BAA1CE39D18E7AB6 SELFBALANCE 0xE8 0xA5 SWAP7 POP EXTCODESIZE XOR REVERT SHR 0xB2 SWAP9 CREATE2 0xB6 0x25 SWAP16 PUSH5 0x736F6C6343 STOP ADDMOD 0x1F STOP CALLER "
				},
				"gasEstimates": {
					"creation": {
						"codeDepositCost": "424400",
						"executionCost": "459",
						"totalCost": "424859"
					},
					"external": {
						"applyDiscount(uint256)": "infinite",
						"calculateChange(uint256)": "infinite",
						"calculateGrandTotal()": "infinite",
						"calculateTotal(uint256,uint256)": "infinite",
						"prices(uint256)": "infinite",
						"quantities(uint256)": "infinite",
						"resetOrders()": "infinite",
						"splitBill(uint256)": "infinite"
					}
				},
				"methodIdentifiers": {
					"applyDiscount(uint256)": "fda9be17",
					"calculateChange(uint256)": "4a31b0b6",
					"calculateGrandTotal()": "92742644",
					"calculateTotal(uint256,uint256)": "c6bac7c6",
					"prices(uint256)": "bc31c1c1",
					"quantities(uint256)": "a4125403",
					"resetOrders()": "3c139aab",
					"splitBill(uint256)": "f05b0acf"
				}
			},
			"storageLayout": {
				"storage": [
					{
						"astId": 4,
						"contract": "PalengkeCalculator.sol:PalengkeCalculator",
						"label": "prices",
						"offset": 0,
						"slot": "0",
						"type": "t_array(t_uint256)dyn_storage"
					},
					{
						"astId": 7,
						"contract": "PalengkeCalculator.sol:PalengkeCalculator",
						"label": "quantities",
						"offset": 0,
						"slot": "1",
						"type": "t_array(t_uint256)dyn_storage"
					}
				],
				"types": {
					"t_array(t_uint256)dyn_storage": {
						"base": "t_uint256",
						"encoding": "dynamic_array",
						"label": "uint256[]",
						"numberOfBytes": "32"
					},
					"t_uint256": {
						"encoding": "inplace",
						"label": "uint256",
						"numberOfBytes": "32"
					}
				}
			},
			"userdoc": {
				"kind": "user",
				"methods": {},
				"version": 1
			}
		}
	}
}