{
	"data": {
		"bytecode": {
			"linkReferences": {},
			"object": "6080604052348015600e575f5ffd5b506103318061001c5f395ff3fe608060405234801561000f575f5ffd5b5060043610610034575f3560e01c80633b76594d14610038578063968ed60014610054575b5f5ffd5b610052600480360381019061004d9190610144565b610072565b005b61005c610108565b604051610069919061017e565b60405180910390f35b5f81116100b4576040517f08c379a00000000000000000000000000000000000000000000000000000000081526004016100ab90610217565b60405180910390fd5b805f5f8282546100c49190610262565b925050819055507f2adb48d5a5532bbbe691f24172ff66a5865bf256d9803118badef77abb2e435b5f54336040516100fd9291906102d4565b60405180910390a150565b5f5481565b5f5ffd5b5f819050919050565b61012381610111565b811461012d575f5ffd5b50565b5f8135905061013e8161011a565b92915050565b5f602082840312156101595761015861010d565b5b5f61016684828501610130565b91505092915050565b61017881610111565b82525050565b5f6020820190506101915f83018461016f565b92915050565b5f82825260208201905092915050565b7f4465706f73697420616d6f756e74206d757374206265206772656174657220745f8201527f68616e207a65726f2e0000000000000000000000000000000000000000000000602082015250565b5f610201602983610197565b915061020c826101a7565b604082019050919050565b5f6020820190508181035f83015261022e816101f5565b9050919050565b7f4e487b71000000000000000000000000000000000000000000000000000000005f52601160045260245ffd5b5f61026c82610111565b915061027783610111565b925082820190508082111561028f5761028e610235565b5b92915050565b5f73ffffffffffffffffffffffffffffffffffffffff82169050919050565b5f6102be82610295565b9050919050565b6102ce816102b4565b82525050565b5f6040820190506102e75f83018561016f565b6102f460208301846102c5565b939250505056fea2646970667358221220c656ed46840cd771e87f60c3677d03e3ba093d830c3ed1f333c31777c5106d3a64736f6c634300081f0033",
			"opcodes": "PUSH1 0x80 PUSH1 0x40 MSTORE CALLVALUE DUP1 ISZERO PUSH1 0xE JUMPI PUSH0 PUSH0 REVERT JUMPDEST POP PUSH2 0x331 DUP1 PUSH2 0x1C PUSH0 CODECOPY PUSH0 RETURN INVALID PUSH1 0x80 PUSH1 0x40 MSTORE CALLVALUE DUP1 ISZERO PUSH2 0xF JUMPI PUSH0 PUSH0 REVERT JUMPDEST POP PUSH1 0x4 CALLDATASIZE LT PUSH2 0x34 JUMPI PUSH0 CALLDATALOAD PUSH1 0xE0 SHR DUP1 PUSH4 0x3B76594D EQ PUSH2 0x38 JUMPI DUP1 PUSH4 0x968ED600 EQ PUSH2 0x54 JUMPI JUMPDEST PUSH0 PUSH0 REVERT JUMPDEST PUSH2 0x52 PUSH1 0x4 DUP1 CALLDATASIZE SUB DUP2 ADD SWAP1 PUSH2 0x4D SWAP2 SWAP1 PUSH2 0x144 JUMP JUMPDEST PUSH2 0x72 JUMP JUMPDEST STOP JUMPDEST PUSH2 0x5C PUSH2 0x108 JUMP JUMPDEST PUSH1 0x40 MLOAD PUSH2 0x69 SWAP2 SWAP1 PUSH2 0x17E JUMP JUMPDEST PUSH1 0x40 MLOAD DUP1 SWAP2 SUB SWAP1 RETURN JUMPDEST PUSH0 DUP2 GT PUSH2 0xB4 JUMPI PUSH1 0x40 MLOAD PUSH32 0x8C379A000000000000000000000000000000000000000000000000000000000 DUP2 MSTORE PUSH1 0x4 ADD PUSH2 0xAB SWAP1 PUSH2 0x217 JUMP JUMPDEST PUSH1 0x40 MLOAD DUP1 SWAP2 SUB SWAP1 REVERT JUMPDEST DUP1 PUSH0 PUSH0 DUP3 DUP3 SLOAD PUSH2 0xC4 SWAP2 SWAP1 PUSH2 0x262 JUMP JUMPDEST SWAP3 POP POP DUP2 SWAP1 SSTORE POP PUSH32 0x2ADB48D5A5532BBBE691F24172FF66A5865BF256D9803118BADEF77ABB2E435B PUSH0 SLOAD CALLER PUSH1 0x40 MLOAD PUSH2 0xFD SWAP3 SWAP2 SWAP1 PUSH2 0x2D4 JUMP JUMPDEST PUSH1 0x40 MLOAD DUP1 SWAP2 SUB SWAP1 LOG1 POP JUMP JUMPDEST PUSH0 SLOAD DUP2 JUMP JUMPDEST PUSH0 PUSH0 REVERT JUMPDEST PUSH0 DUP2 SWAP1 POP SWAP2 SWAP1 POP JUMP JUMPDEST PUSH2 0x123 DUP2 PUSH2 0x111 JUMP JUMPDEST DUP2 EQ PUSH2 0x12D JUMPI PUSH0 PUSH0 REVERT JUMPDEST POP JUMP JUMPDEST PUSH0 DUP2 CALLDATALOAD SWAP1 POP PUSH2 0x13E DUP2 PUSH2 0x11A JUMP JUMPDEST SWAP3 SWAP2 POP POP JUMP JUMPDEST PUSH0 PUSH1 0x20 DUP3 DUP5 SUB SLT ISZERO PUSH2 0x159 JUMPI PUSH2 0x158 PUSH2 0x10D JUMP JUMPDEST JUMPDEST PUSH0 PUSH2 0x166 DUP5 DUP3 DUP6 ADD PUSH2 0x130 JUMP JUMPDEST SWAP2 POP POP SWAP3 SWAP2 POP POP JUMP JUMPDEST PUSH2 0x178 DUP2 PUSH2 0x111 JUMP JUMPDEST DUP3 MSTORE POP POP JUMP JUMPDEST PUSH0 PUSH1 0x20 DUP3 ADD SWAP1 POP PUSH2 0x191 PUSH0 DUP4 ADD DUP5 PUSH2 0x16F JUMP JUMPDEST SWAP3 SWAP2 POP POP JUMP JUMPDEST PUSH0 DUP3 DUP3 MSTORE PUSH1 0x20 DUP3 ADD SWAP1 POP SWAP3 SWAP2 POP POP JUMP JUMPDEST PUSH32 0x4465706F73697420616D6F756E74206D75737420626520677265617465722074 PUSH0 DUP3 ADD MSTORE PUSH32 0x68616E207A65726F2E0000000000000000000000000000000000000000000000 PUSH1 0x20 DUP3 ADD MSTORE POP JUMP JUMPDEST PUSH0 PUSH2 0x201 PUSH1 0x29 DUP4 PUSH2 0x197 JUMP JUMPDEST SWAP2 POP PUSH2 0x20C DUP3 PUSH2 0x1A7 JUMP JUMPDEST PUSH1 0x40 DUP3 ADD SWAP1 POP SWAP2 SWAP1 POP JUMP JUMPDEST PUSH0 PUSH1 0x20 DUP3 ADD SWAP1 POP DUP2 DUP2 SUB PUSH0 DUP4 ADD MSTORE PUSH2 0x22E DUP2 PUSH2 0x1F5 JUMP JUMPDEST SWAP1 POP SWAP2 SWAP1 POP JUMP JUMPDEST PUSH32 0x4E487B7100000000000000000000000000000000000000000000000000000000 PUSH0 MSTORE PUSH1 0x11 PUSH1 0x4 MSTORE PUSH1 0x24 PUSH0 REVERT JUMPDEST PUSH0 PUSH2 0x26C DUP3 PUSH2 0x111 JUMP JUMPDEST SWAP2 POP PUSH2 0x277 DUP4 PUSH2 0x111 JUMP JUMPDEST SWAP3 POP DUP3 DUP3 ADD SWAP1 POP DUP1 DUP3 GT ISZERO PUSH2 0x28F JUMPI PUSH2 0x28E PUSH2 0x235 JUMP JUMPDEST JUMPDEST SWAP3 SWAP2 POP POP JUMP JUMPDEST PUSH0 PUSH20 0xFFFFFFFFFFFFFFFFFFFFFFFFFFFFFFFFFFFFFFFF DUP3 AND SWAP1 POP SWAP2 SWAP1 POP JUMP JUMPDEST PUSH0 PUSH2 0x2BE DUP3 PUSH2 0x295 JUMP JUMPDEST SWAP1 POP SWAP2 SWAP1 POP JUMP JUMPDEST PUSH2 0x2CE DUP2 PUSH2 0x2B4 JUMP JUMPDEST DUP3 MSTORE POP POP JUMP JUMPDEST PUSH0 PUSH1 0x40 DUP3 ADD SWAP1 POP PUSH2 0x2E7 PUSH0 DUP4 ADD DUP6 PUSH2 0x16F JUMP JUMPDEST PUSH2 0x2F4 PUSH1 0x20 DUP4 ADD DUP5 PUSH2 0x2C5 JUMP JUMPDEST SWAP4 SWAP3 POP POP POP JUMP INVALID LOG2 PUSH5 0x6970667358 0x22 SLT KECCAK256 0xC6 JUMP 0xED CHAINID DUP5 0xC 0xD7 PUSH18 0xE87F60C3677D03E3BA093D830C3ED1F333C3 OR PUSH24 0xC5106D3A64736F6C634300081F0033000000000000000000 "
		},
		"gasEstimates": {
			"creation": {
				"codeDepositCost": "163400",
				"executionCost": "206",
				"totalCost": "163606"
			},
			"external": {
				"depositFunds(uint256)": "infinite",
				"totalFunds()": "2424"
			}
		},
		"methodIdentifiers": {
			"depositFunds(uint256)": "3b76594d",
			"totalFunds()": "968ed600"
		}
	},
	"abi": [
		{
			"anonymous": false,
			"inputs": [
				{
					"indexed": false,
					"internalType": "uint256",
					"name": "newAmount",
					"type": "uint256"
				},
				{
					"indexed": false,
					"internalType": "address",
					"name": "updatedBy",
					"type": "address"
				}
			],
			"name": "FundUpdated",
			"type": "event"
		},
		{
			"inputs": [
				{
					"internalType": "uint256",
					"name": "amount",
					"type": "uint256"
				}
			],
			"name": "depositFunds",
			"outputs": [],
			"stateMutability": "nonpayable",
			"type": "function"
		},
		{
			"inputs": [],
			"name": "totalFunds",
			"outputs": [
				{
					"internalType": "uint256",
					"name": "",
					"type": "uint256"
				}
			],
			"stateMutability": "view",
			"type": "function"
		}
	]
}