{
	"data": {
		"bytecode": {
			"linkReferences": {},
			"object": "6080604052348015600e575f5ffd5b506106d98061001c5f395ff3fe608060405234801561000f575f5ffd5b5060043610610034575f3560e01c80636c4354941461003857806396f74e8814610056575b5f5ffd5b610040610072565b60405161004d91906101c2565b60405180910390f35b610070600480360381019061006b919061031f565b6100fd565b005b5f805461007e90610393565b80601f01602080910402602001604051908101604052809291908181526020018280546100aa90610393565b80156100f55780601f106100cc576101008083540402835291602001916100f5565b820191905f5260205f20905b8154815290600101906020018083116100d857829003601f168201915b505050505081565b5f815111610140576040517f08c379a00000000000000000000000000000000000000000000000000000000081526004016101379061040d565b60405180910390fd5b805f908161014e91906105d4565b5050565b5f81519050919050565b5f82825260208201905092915050565b8281835e5f83830152505050565b5f601f19601f8301169050919050565b5f61019482610152565b61019e818561015c565b93506101ae81856020860161016c565b6101b78161017a565b840191505092915050565b5f6020820190508181035f8301526101da818461018a565b905092915050565b5f604051905090565b5f5ffd5b5f5ffd5b5f5ffd5b5f5ffd5b7f4e487b71000000000000000000000000000000000000000000000000000000005f52604160045260245ffd5b6102318261017a565b810181811067ffffffffffffffff821117156102505761024f6101fb565b5b80604052505050565b5f6102626101e2565b905061026e8282610228565b919050565b5f67ffffffffffffffff82111561028d5761028c6101fb565b5b6102968261017a565b9050602081019050919050565b828183375f83830152505050565b5f6102c36102be84610273565b610259565b9050828152602081018484840111156102df576102de6101f7565b5b6102ea8482856102a3565b509392505050565b5f82601f830112610306576103056101f3565b5b81356103168482602086016102b1565b91505092915050565b5f60208284031215610334576103336101eb565b5b5f82013567ffffffffffffffff811115610351576103506101ef565b5b61035d848285016102f2565b91505092915050565b7f4e487b71000000000000000000000000000000000000000000000000000000005f52602260045260245ffd5b5f60028204905060018216806103aa57607f821691505b6020821081036103bd576103bc610366565b5b50919050565b7f4e616d652063616e6e6f7420626520656d7074790000000000000000000000005f82015250565b5f6103f760148361015c565b9150610402826103c3565b602082019050919050565b5f6020820190508181035f830152610424816103eb565b9050919050565b5f819050815f5260205f209050919050565b5f6020601f8301049050919050565b5f82821b905092915050565b5f600883026104877fffffffffffffffffffffffffffffffffffffffffffffffffffffffffffffffff8261044c565b610491868361044c565b95508019841693508086168417925050509392505050565b5f819050919050565b5f819050919050565b5f6104d56104d06104cb846104a9565b6104b2565b6104a9565b9050919050565b5f819050919050565b6104ee836104bb565b6105026104fa826104dc565b848454610458565b825550505050565b5f5f905090565b61051961050a565b6105248184846104e5565b505050565b5b818110156105475761053c5f82610511565b60018101905061052a565b5050565b601f82111561058c5761055d8161042b565b6105668461043d565b81016020851015610575578190505b6105896105818561043d565b830182610529565b50505b505050565b5f82821c905092915050565b5f6105ac5f1984600802610591565b1980831691505092915050565b5f6105c4838361059d565b9150826002028217905092915050565b6105dd82610152565b67ffffffffffffffff8111156105f6576105f56101fb565b5b6106008254610393565b61060b82828561054b565b5f60209050601f83116001811461063c575f841561062a578287015190505b61063485826105b9565b86555061069b565b601f19841661064a8661042b565b5f5b828110156106715784890151825560018201915060208501945060208101905061064c565b8683101561068e578489015161068a601f89168261059d565b8355505b6001600288020188555050505b50505050505056fea2646970667358221220e6f4abc16797520dfc13c074344449019815410f9fbbfa72206dcee6d0ad5c8d64736f6c634300081f0033",
			"opcodes": "PUSH1 0x80 PUSH1 0x40 MSTORE CALLVALUE DUP1 ISZERO PUSH1 0xE JUMPI PUSH0 PUSH0 REVERT JUMPDEST POP PUSH2 0x6D9 DUP1 PUSH2 0x1C PUSH0 CODECOPY PUSH0 RETURN INVALID PUSH1 0x80 PUSH1 0x40 MSTORE CALLVALUE DUP1 ISZERO PUSH2 0xF JUMPI PUSH0 PUSH0 REVERT JUMPDEST POP PUSH1 0x4 CALLDATASIZE LT PUSH2 0x34 JUMPI PUSH0 CALLDATALOAD PUSH1 0xE0 SHR DUP1 PUSH4 0x6C435494 EQ PUSH2 0x38 JUMPI DUP1 PUSH4 0x96F74E88 EQ PUSH2 0x56 JUMPI JUMPDEST PUSH0 PUSH0 REVERT JUMPDEST PUSH2 0x40 PUSH2 0x72 JUMP JUMPDEST PUSH1 0x40 MLOAD PUSH2 0x4D SWAP2 SWAP1 PUSH2 0x1C2 JUMP JUMPDEST PUSH1 0x40 MLOAD DUP1 SWAP2 SUB SWAP1 RETURN JUMPDEST PUSH2 0x70 PUSH1 0x4 DUP1 CALLDATASIZE SUB DUP2 ADD SWAP1 PUSH2 0x6B SWAP2 SWAP1 PUSH2 0x31F JUMP JUMPDEST PUSH2 0xFD JUMP JUMPDEST STOP JUMPDEST PUSH0 DUP1 SLOAD PUSH2 0x7E SWAP1 PUSH2 0x393 JUMP JUMPDEST DUP1 PUSH1 0x1F ADD PUSH1 0x20 DUP1 SWAP2 DIV MUL PUSH1 0x20 ADD PUSH1 0x40 MLOAD SWAP1 DUP2 ADD PUSH1 0x40 MSTORE DUP1 SWAP3 SWAP2 SWAP1 DUP2 DUP2 MSTORE PUSH1 0x20 ADD DUP3 DUP1 SLOAD PUSH2 0xAA SWAP1 PUSH2 0x393 JUMP JUMPDEST DUP1 ISZERO PUSH2 0xF5 JUMPI DUP1 PUSH1 0x1F LT PUSH2 0xCC JUMPI PUSH2 0x100 DUP1 DUP4 SLOAD DIV MUL DUP4 MSTORE SWAP2 PUSH1 0x20 ADD SWAP2 PUSH2 0xF5 JUMP JUMPDEST DUP3 ADD SWAP2 SWAP1 PUSH0 MSTORE PUSH1 0x20 PUSH0 KECCAK256 SWAP1 JUMPDEST DUP2 SLOAD DUP2 MSTORE SWAP1 PUSH1 0x1 ADD SWAP1 PUSH1 0x20 ADD DUP1 DUP4 GT PUSH2 0xD8 JUMPI DUP3 SWAP1 SUB PUSH1 0x1F AND DUP3 ADD SWAP2 JUMPDEST POP POP POP POP POP DUP2 JUMP JUMPDEST PUSH0 DUP2 MLOAD GT PUSH2 0x140 JUMPI PUSH1 0x40 MLOAD PUSH32 0x8C379A000000000000000000000000000000000000000000000000000000000 DUP2 MSTORE PUSH1 0x4 ADD PUSH2 0x137 SWAP1 PUSH2 0x40D JUMP JUMPDEST PUSH1 0x40 MLOAD DUP1 SWAP2 SUB SWAP1 REVERT JUMPDEST DUP1 PUSH0 SWAP1 DUP2 PUSH2 0x14E SWAP2 SWAP1 PUSH2 0x5D4 JUMP JUMPDEST POP POP JUMP JUMPDEST PUSH0 DUP2 MLOAD SWAP1 POP SWAP2 SWAP1 POP JUMP JUMPDEST PUSH0 DUP3 DUP3 MSTORE PUSH1 0x20 DUP3 ADD SWAP1 POP SWAP3 SWAP2 POP POP JUMP JUMPDEST DUP3 DUP2 DUP4 MCOPY PUSH0 DUP4 DUP4 ADD MSTORE POP POP POP JUMP JUMPDEST PUSH0 PUSH1 0x1F NOT PUSH1 0x1F DUP4 ADD AND SWAP1 POP SWAP2 SWAP1 POP JUMP JUMPDEST PUSH0 PUSH2 0x194 DUP3 PUSH2 0x152 JUMP JUMPDEST PUSH2 0x19E DUP2 DUP6 PUSH2 0x15C JUMP JUMPDEST SWAP4 POP PUSH2 0x1AE DUP2 DUP6 PUSH1 0x20 DUP7 ADD PUSH2 0x16C JUMP JUMPDEST PUSH2 0x1B7 DUP2 PUSH2 0x17A JUMP JUMPDEST DUP5 ADD SWAP2 POP POP SWAP3 SWAP2 POP POP JUMP JUMPDEST PUSH0 PUSH1 0x20 DUP3 ADD SWAP1 POP DUP2 DUP2 SUB PUSH0 DUP4 ADD MSTORE PUSH2 0x1DA DUP2 DUP5 PUSH2 0x18A JUMP JUMPDEST SWAP1 POP SWAP3 SWAP2 POP POP JUMP JUMPDEST PUSH0 PUSH1 0x40 MLOAD SWAP1 POP SWAP1 JUMP JUMPDEST PUSH0 PUSH0 REVERT JUMPDEST PUSH0 PUSH0 REVERT JUMPDEST PUSH0 PUSH0 REVERT JUMPDEST PUSH0 PUSH0 REVERT JUMPDEST PUSH32 0x4E487B7100000000000000000000000000000000000000000000000000000000 PUSH0 MSTORE PUSH1 0x41 PUSH1 0x4 MSTORE PUSH1 0x24 PUSH0 REVERT JUMPDEST PUSH2 0x231 DUP3 PUSH2 0x17A JUMP JUMPDEST DUP2 ADD DUP2 DUP2 LT PUSH8 0xFFFFFFFFFFFFFFFF DUP3 GT OR ISZERO PUSH2 0x250 JUMPI PUSH2 0x24F PUSH2 0x1FB JUMP JUMPDEST JUMPDEST DUP1 PUSH1 0x40 MSTORE POP POP POP JUMP JUMPDEST PUSH0 PUSH2 0x262 PUSH2 0x1E2 JUMP JUMPDEST SWAP1 POP PUSH2 0x26E DUP3 DUP3 PUSH2 0x228 JUMP JUMPDEST SWAP2 SWAP1 POP JUMP JUMPDEST PUSH0 PUSH8 0xFFFFFFFFFFFFFFFF DUP3 GT ISZERO PUSH2 0x28D JUMPI PUSH2 0x28C PUSH2 0x1FB JUMP JUMPDEST JUMPDEST PUSH2 0x296 DUP3 PUSH2 0x17A JUMP JUMPDEST SWAP1 POP PUSH1 0x20 DUP2 ADD SWAP1 POP SWAP2 SWAP1 POP JUMP JUMPDEST DUP3 DUP2 DUP4 CALLDATACOPY PUSH0 DUP4 DUP4 ADD MSTORE POP POP POP JUMP JUMPDEST PUSH0 PUSH2 0x2C3 PUSH2 0x2BE DUP5 PUSH2 0x273 JUMP JUMPDEST PUSH2 0x259 JUMP JUMPDEST SWAP1 POP DUP3 DUP2 MSTORE PUSH1 0x20 DUP2 ADD DUP5 DUP5 DUP5 ADD GT ISZERO PUSH2 0x2DF JUMPI PUSH2 0x2DE PUSH2 0x1F7 JUMP JUMPDEST JUMPDEST PUSH2 0x2EA DUP5 DUP3 DUP6 PUSH2 0x2A3 JUMP JUMPDEST POP SWAP4 SWAP3 POP POP POP JUMP JUMPDEST PUSH0 DUP3 PUSH1 0x1F DUP4 ADD SLT PUSH2 0x306 JUMPI PUSH2 0x305 PUSH2 0x1F3 JUMP JUMPDEST JUMPDEST DUP2 CALLDATALOAD PUSH2 0x316 DUP5 DUP3 PUSH1 0x20 DUP7 ADD PUSH2 0x2B1 JUMP JUMPDEST SWAP2 POP POP SWAP3 SWAP2 POP POP JUMP JUMPDEST PUSH0 PUSH1 0x20 DUP3 DUP5 SUB SLT ISZERO PUSH2 0x334 JUMPI PUSH2 0x333 PUSH2 0x1EB JUMP JUMPDEST JUMPDEST PUSH0 DUP3 ADD CALLDATALOAD PUSH8 0xFFFFFFFFFFFFFFFF DUP2 GT ISZERO PUSH2 0x351 JUMPI PUSH2 0x350 PUSH2 0x1EF JUMP JUMPDEST JUMPDEST PUSH2 0x35D DUP5 DUP3 DUP6 ADD PUSH2 0x2F2 JUMP JUMPDEST SWAP2 POP POP SWAP3 SWAP2 POP POP JUMP JUMPDEST PUSH32 0x4E487B7100000000000000000000000000000000000000000000000000000000 PUSH0 MSTORE PUSH1 0x22 PUSH1 0x4 MSTORE PUSH1 0x24 PUSH0 REVERT JUMPDEST PUSH0 PUSH1 0x2 DUP3 DIV SWAP1 POP PUSH1 0x1 DUP3 AND DUP1 PUSH2 0x3AA JUMPI PUSH1 0x7F DUP3 AND SWAP2 POP JUMPDEST PUSH1 0x20 DUP3 LT DUP2 SUB PUSH2 0x3BD JUMPI PUSH2 0x3BC PUSH2 0x366 JUMP JUMPDEST JUMPDEST POP SWAP2 SWAP1 POP JUMP JUMPDEST PUSH32 0x4E616D652063616E6E6F7420626520656D707479000000000000000000000000 PUSH0 DUP3 ADD MSTORE POP JUMP JUMPDEST PUSH0 PUSH2 0x3F7 PUSH1 0x14 DUP4 PUSH2 0x15C JUMP JUMPDEST SWAP2 POP PUSH2 0x402 DUP3 PUSH2 0x3C3 JUMP JUMPDEST PUSH1 0x20 DUP3 ADD SWAP1 POP SWAP2 SWAP1 POP JUMP JUMPDEST PUSH0 PUSH1 0x20 DUP3 ADD SWAP1 POP DUP2 DUP2 SUB PUSH0 DUP4 ADD MSTORE PUSH2 0x424 DUP2 PUSH2 0x3EB JUMP JUMPDEST SWAP1 POP SWAP2 SWAP1 POP JUMP JUMPDEST PUSH0 DUP2 SWAP1 POP DUP2 PUSH0 MSTORE PUSH1 0x20 PUSH0 KECCAK256 SWAP1 POP SWAP2 SWAP1 POP JUMP JUMPDEST PUSH0 PUSH1 0x20 PUSH1 0x1F DUP4 ADD DIV SWAP1 POP SWAP2 SWAP1 POP JUMP JUMPDEST PUSH0 DUP3 DUP3 SHL SWAP1 POP SWAP3 SWAP2 POP POP JUMP JUMPDEST PUSH0 PUSH1 0x8 DUP4 MUL PUSH2 0x487 PUSH32 0xFFFFFFFFFFFFFFFFFFFFFFFFFFFFFFFFFFFFFFFFFFFFFFFFFFFFFFFFFFFFFFFF DUP3 PUSH2 0x44C JUMP JUMPDEST PUSH2 0x491 DUP7 DUP4 PUSH2 0x44C JUMP JUMPDEST SWAP6 POP DUP1 NOT DUP5 AND SWAP4 POP DUP1 DUP7 AND DUP5 OR SWAP3 POP POP POP SWAP4 SWAP3 POP POP POP JUMP JUMPDEST PUSH0 DUP2 SWAP1 POP SWAP2 SWAP1 POP JUMP JUMPDEST PUSH0 DUP2 SWAP1 POP SWAP2 SWAP1 POP JUMP JUMPDEST PUSH0 PUSH2 0x4D5 PUSH2 0x4D0 PUSH2 0x4CB DUP5 PUSH2 0x4A9 JUMP JUMPDEST PUSH2 0x4B2 JUMP JUMPDEST PUSH2 0x4A9 JUMP JUMPDEST SWAP1 POP SWAP2 SWAP1 POP JUMP JUMPDEST PUSH0 DUP2 SWAP1 POP SWAP2 SWAP1 POP JUMP JUMPDEST PUSH2 0x4EE DUP4 PUSH2 0x4BB JUMP JUMPDEST PUSH2 0x502 PUSH2 0x4FA DUP3 PUSH2 0x4DC JUMP JUMPDEST DUP5 DUP5 SLOAD PUSH2 0x458 JUMP JUMPDEST DUP3 SSTORE POP POP POP POP JUMP JUMPDEST PUSH0 PUSH0 SWAP1 POP SWAP1 JUMP JUMPDEST PUSH2 0x519 PUSH2 0x50A JUMP JUMPDEST PUSH2 0x524 DUP2 DUP5 DUP5 PUSH2 0x4E5 JUMP JUMPDEST POP POP POP JUMP JUMPDEST JUMPDEST DUP2 DUP2 LT ISZERO PUSH2 0x547 JUMPI PUSH2 0x53C PUSH0 DUP3 PUSH2 0x511 JUMP JUMPDEST PUSH1 0x1 DUP2 ADD SWAP1 POP PUSH2 0x52A JUMP JUMPDEST POP POP JUMP JUMPDEST PUSH1 0x1F DUP3 GT ISZERO PUSH2 0x58C JUMPI PUSH2 0x55D DUP2 PUSH2 0x42B JUMP JUMPDEST PUSH2 0x566 DUP5 PUSH2 0x43D JUMP JUMPDEST DUP2 ADD PUSH1 0x20 DUP6 LT ISZERO PUSH2 0x575 JUMPI DUP2 SWAP1 POP JUMPDEST PUSH2 0x589 PUSH2 0x581 DUP6 PUSH2 0x43D JUMP JUMPDEST DUP4 ADD DUP3 PUSH2 0x529 JUMP JUMPDEST POP POP JUMPDEST POP POP POP JUMP JUMPDEST PUSH0 DUP3 DUP3 SHR SWAP1 POP SWAP3 SWAP2 POP POP JUMP JUMPDEST PUSH0 PUSH2 0x5AC PUSH0 NOT DUP5 PUSH1 0x8 MUL PUSH2 0x591 JUMP JUMPDEST NOT DUP1 DUP4 AND SWAP2 POP POP SWAP3 SWAP2 POP POP JUMP JUMPDEST PUSH0 PUSH2 0x5C4 DUP4 DUP4 PUSH2 0x59D JUMP JUMPDEST SWAP2 POP DUP3 PUSH1 0x2 MUL DUP3 OR SWAP1 POP SWAP3 SWAP2 POP POP JUMP JUMPDEST PUSH2 0x5DD DUP3 PUSH2 0x152 JUMP JUMPDEST PUSH8 0xFFFFFFFFFFFFFFFF DUP2 GT ISZERO PUSH2 0x5F6 JUMPI PUSH2 0x5F5 PUSH2 0x1FB JUMP JUMPDEST JUMPDEST PUSH2 0x600 DUP3 SLOAD PUSH2 0x393 JUMP JUMPDEST PUSH2 0x60B DUP3 DUP3 DUP6 PUSH2 0x54B JUMP JUMPDEST PUSH0 PUSH1 0x20 SWAP1 POP PUSH1 0x1F DUP4 GT PUSH1 0x1 DUP2 EQ PUSH2 0x63C JUMPI PUSH0 DUP5 ISZERO PUSH2 0x62A JUMPI DUP3 DUP8 ADD MLOAD SWAP1 POP JUMPDEST PUSH2 0x634 DUP6 DUP3 PUSH2 0x5B9 JUMP JUMPDEST DUP7 SSTORE POP PUSH2 0x69B JUMP JUMPDEST PUSH1 0x1F NOT DUP5 AND PUSH2 0x64A DUP7 PUSH2 0x42B JUMP JUMPDEST PUSH0 JUMPDEST DUP3 DUP2 LT ISZERO PUSH2 0x671 JUMPI DUP5 DUP10 ADD MLOAD DUP3 SSTORE PUSH1 0x1 DUP3 ADD SWAP2 POP PUSH1 0x20 DUP6 ADD SWAP5 POP PUSH1 0x20 DUP2 ADD SWAP1 POP PUSH2 0x64C JUMP JUMPDEST DUP7 DUP4 LT ISZERO PUSH2 0x68E JUMPI DUP5 DUP10 ADD MLOAD PUSH2 0x68A PUSH1 0x1F DUP10 AND DUP3 PUSH2 0x59D JUMP JUMPDEST DUP4 SSTORE POP JUMPDEST PUSH1 0x1 PUSH1 0x2 DUP9 MUL ADD DUP9 SSTORE POP POP POP JUMPDEST POP POP POP POP POP POP JUMP INVALID LOG2 PUSH5 0x6970667358 0x22 SLT KECCAK256 DUPN 0xF4 0xAB 0xC1 PUSH8 0x97520DFC13C07434 PREVRANDAO BLOBHASH ADD SWAP9 ISZERO COINBASE 0xF SWAP16 0xBB STATICCALL PUSH19 0x206DCEE6D0AD5C8D64736F6C634300081F0033 "
		},
		"gasEstimates": {
			"creation": {
				"codeDepositCost": "350600",
				"executionCost": "384",
				"totalCost": "350984"
			},
			"external": {
				"organizationName()": "infinite",
				"setOrganizationName(string)": "infinite"
			}
		},
		"methodIdentifiers": {
			"organizationName()": "6c435494",
			"setOrganizationName(string)": "96f74e88"
		}
	},
	"abi": [
		{
			"inputs": [],
			"name": "organizationName",
			"outputs": [
				{
					"internalType": "string",
					"name": "",
					"type": "string"
				}
			],
			"stateMutability": "view",
			"type": "function"
		},
		{
			"inputs": [
				{
					"internalType": "string",
					"name": "name",
					"type": "string"
				}
			],
			"name": "setOrganizationName",
			"outputs": [],
			"stateMutability": "nonpayable",
			"type": "function"
		}
	]
}