{
	"data": {
		"bytecode": {
			"linkReferences": {},
			"object": "6080604052348015600e575f5ffd5b5061025c8061001c5f395ff3fe608060405234801561000f575f5ffd5b5060043610610034575f3560e01c8063256bd5d914610038578063ea4097bd14610068575b5f5ffd5b610052600480360381019061004d919061011f565b610098565b60405161005f919061016c565b60405180910390f35b610082600480360381019061007d919061011f565b6100ab565b60405161008f919061016c565b60405180910390f35b5f6100a383836100be565b905092915050565b5f6100b683836100d3565b905092915050565b5f81836100cb91906101b2565b905092915050565b5f81836100e091906101f3565b905092915050565b5f5ffd5b5f819050919050565b6100fe816100ec565b8114610108575f5ffd5b50565b5f81359050610119816100f5565b92915050565b5f5f60408385031215610135576101346100e8565b5b5f6101428582860161010b565b92505060206101538582860161010b565b9150509250929050565b610166816100ec565b82525050565b5f60208201905061017f5f83018461015d565b92915050565b7f4e487b71000000000000000000000000000000000000000000000000000000005f52601160045260245ffd5b5f6101bc826100ec565b91506101c7836100ec565b92508282026101d5816100ec565b915082820484148315176101ec576101eb610185565b5b5092915050565b5f6101fd826100ec565b9150610208836100ec565b92508282019050808211156102205761021f610185565b5b9291505056fea2646970667358221220b8d04c93d5c36f9f0d58105ad0aaa5787c267ec336c8653281bb0e8e5fe8a80f64736f6c634300081f0033",
			"opcodes": "PUSH1 0x80 PUSH1 0x40 MSTORE CALLVALUE DUP1 ISZERO PUSH1 0xE JUMPI PUSH0 PUSH0 REVERT JUMPDEST POP PUSH2 0x25C DUP1 PUSH2 0x1C PUSH0 CODECOPY PUSH0 RETURN INVALID PUSH1 0x80 PUSH1 0x40 MSTORE CALLVALUE DUP1 ISZERO PUSH2 0xF JUMPI PUSH0 PUSH0 REVERT JUMPDEST POP PUSH1 0x4 CALLDATASIZE LT PUSH2 0x34 JUMPI PUSH0 CALLDATALOAD PUSH1 0xE0 SHR DUP1 PUSH4 0x256BD5D9 EQ PUSH2 0x38 JUMPI DUP1 PUSH4 0xEA4097BD EQ PUSH2 0x68 JUMPI JUMPDEST PUSH0 PUSH0 REVERT JUMPDEST PUSH2 0x52 PUSH1 0x4 DUP1 CALLDATASIZE SUB DUP2 ADD SWAP1 PUSH2 0x4D SWAP2 SWAP1 PUSH2 0x11F JUMP JUMPDEST PUSH2 0x98 JUMP JUMPDEST PUSH1 0x40 MLOAD PUSH2 0x5F SWAP2 SWAP1 PUSH2 0x16C JUMP JUMPDEST PUSH1 0x40 MLOAD DUP1 SWAP2 SUB SWAP1 RETURN JUMPDEST PUSH2 0x82 PUSH1 0x4 DUP1 CALLDATASIZE SUB DUP2 ADD SWAP1 PUSH2 0x7D SWAP2 SWAP1 PUSH2 0x11F JUMP JUMPDEST PUSH2 0xAB JUMP JUMPDEST PUSH1 0x40 MLOAD PUSH2 0x8F SWAP2 SWAP1 PUSH2 0x16C JUMP JUMPDEST PUSH1 0x40 MLOAD DUP1 SWAP2 SUB SWAP1 RETURN JUMPDEST PUSH0 PUSH2 0xA3 DUP4 DUP4 PUSH2 0xBE JUMP JUMPDEST SWAP1 POP SWAP3 SWAP2 POP POP JUMP JUMPDEST PUSH0 PUSH2 0xB6 DUP4 DUP4 PUSH2 0xD3 JUMP JUMPDEST SWAP1 POP SWAP3 SWAP2 POP POP JUMP JUMPDEST PUSH0 DUP2 DUP4 PUSH2 0xCB SWAP2 SWAP1 PUSH2 0x1B2 JUMP JUMPDEST SWAP1 POP SWAP3 SWAP2 POP POP JUMP JUMPDEST PUSH0 DUP2 DUP4 PUSH2 0xE0 SWAP2 SWAP1 PUSH2 0x1F3 JUMP JUMPDEST SWAP1 POP SWAP3 SWAP2 POP POP JUMP JUMPDEST PUSH0 PUSH0 REVERT JUMPDEST PUSH0 DUP2 SWAP1 POP SWAP2 SWAP1 POP JUMP JUMPDEST PUSH2 0xFE DUP2 PUSH2 0xEC JUMP JUMPDEST DUP2 EQ PUSH2 0x108 JUMPI PUSH0 PUSH0 REVERT JUMPDEST POP JUMP JUMPDEST PUSH0 DUP2 CALLDATALOAD SWAP1 POP PUSH2 0x119 DUP2 PUSH2 0xF5 JUMP JUMPDEST SWAP3 SWAP2 POP POP JUMP JUMPDEST PUSH0 PUSH0 PUSH1 0x40 DUP4 DUP6 SUB SLT ISZERO PUSH2 0x135 JUMPI PUSH2 0x134 PUSH2 0xE8 JUMP JUMPDEST JUMPDEST PUSH0 PUSH2 0x142 DUP6 DUP3 DUP7 ADD PUSH2 0x10B JUMP JUMPDEST SWAP3 POP POP PUSH1 0x20 PUSH2 0x153 DUP6 DUP3 DUP7 ADD PUSH2 0x10B JUMP JUMPDEST SWAP2 POP POP SWAP3 POP SWAP3 SWAP1 POP JUMP JUMPDEST PUSH2 0x166 DUP2 PUSH2 0xEC JUMP JUMPDEST DUP3 MSTORE POP POP JUMP JUMPDEST PUSH0 PUSH1 0x20 DUP3 ADD SWAP1 POP PUSH2 0x17F PUSH0 DUP4 ADD DUP5 PUSH2 0x15D JUMP JUMPDEST SWAP3 SWAP2 POP POP JUMP JUMPDEST PUSH32 0x4E487B7100000000000000000000000000000000000000000000000000000000 PUSH0 MSTORE PUSH1 0x11 PUSH1 0x4 MSTORE PUSH1 0x24 PUSH0 REVERT JUMPDEST PUSH0 PUSH2 0x1BC DUP3 PUSH2 0xEC JUMP JUMPDEST SWAP2 POP PUSH2 0x1C7 DUP4 PUSH2 0xEC JUMP JUMPDEST SWAP3 POP DUP3 DUP3 MUL PUSH2 0x1D5 DUP2 PUSH2 0xEC JUMP JUMPDEST SWAP2 POP DUP3 DUP3 DIV DUP5 EQ DUP4 ISZERO OR PUSH2 0x1EC JUMPI PUSH2 0x1EB PUSH2 0x185 JUMP JUMPDEST JUMPDEST POP SWAP3 SWAP2 POP POP JUMP JUMPDEST PUSH0 PUSH2 0x1FD DUP3 PUSH2 0xEC JUMP JUMPDEST SWAP2 POP PUSH2 0x208 DUP4 PUSH2 0xEC JUMP JUMPDEST SWAP3 POP DUP3 DUP3 ADD SWAP1 POP DUP1 DUP3 GT ISZERO PUSH2 0x220 JUMPI PUSH2 0x21F PUSH2 0x185 JUMP JUMPDEST JUMPDEST SWAP3 SWAP2 POP POP JUMP INVALID LOG2 PUSH5 0x6970667358 0x22 SLT KECCAK256 0xB8 0xD0 0x4C SWAP4 0xD5 0xC3 PUSH16 0x9F0D58105AD0AAA5787C267EC336C865 ORIGIN DUP2 0xBB 0xE DUP15 PUSH0 0xE8 0xA8 0xF PUSH5 0x736F6C6343 STOP ADDMOD 0x1F STOP CALLER "
		},
		"gasEstimates": {
			"creation": {
				"codeDepositCost": "120800",
				"executionCost": "163",
				"totalCost": "120963"
			},
			"external": {
				"calculateProduct(uint256,uint256)": "infinite",
				"calculateSum(uint256,uint256)": "infinite"
			}
		},
		"methodIdentifiers": {
			"calculateProduct(uint256,uint256)": "256bd5d9",
			"calculateSum(uint256,uint256)": "ea4097bd"
		}
	},
	"abi": [
		{
			"inputs": [
				{
					"internalType": "uint256",
					"name": "x",
					"type": "uint256"
				},
				{
					"internalType": "uint256",
					"name": "y",
					"type": "uint256"
				}
			],
			"name": "calculateProduct",
			"outputs": [
				{
					"internalType": "uint256",
					"name": "",
					"type": "uint256"
				}
			],
			"stateMutability": "pure",
			"type": "function"
		},
		{
			"inputs": [
				{
					"internalType": "uint256",
					"name": "x",
					"type": "uint256"
				},
				{
					"internalType": "uint256",
					"name": "y",
					"type": "uint256"
				}
			],
			"name": "calculateSum",
			"outputs": [
				{
					"internalType": "uint256",
					"name": "",
					"type": "uint256"
				}
			],
			"stateMutability": "pure",
			"type": "function"
		}
	]
}