{
	"data": {
		"bytecode": {
			"linkReferences": {},
			"object": "608060405234801561000f575f5ffd5b50336040518060600160405280602c81526020016133f2602c91396100398161010460201b60201c565b505f73ffffffffffffffffffffffffffffffffffffffff168173ffffffffffffffffffffffffffffffffffffffff16036100aa575f6040517f1e4fbdf70000000000000000000000000000000000000000000000000000000081526004016100a19190610abe565b60405180910390fd5b6100b98161011760201b60201c565b506100dd3360016103e860405180602001604052805f8152506101da60201b60201c565b6100ff336002600160405180602001604052805f8152506101da60201b60201c565b61115a565b80600290816101139190610d14565b5050565b5f60035f9054906101000a900473ffffffffffffffffffffffffffffffffffffffff1690508160035f6101000a81548173ffffffffffffffffffffffffffffffffffffffff021916908373ffffffffffffffffffffffffffffffffffffffff1602179055508173ffffffffffffffffffffffffffffffffffffffff168173ffffffffffffffffffffffffffffffffffffffff167f8be0079c531659141344cd1fd0a4f28419497f9722a3daafe3b4186f6b6457e060405160405180910390a35050565b5f73ffffffffffffffffffffffffffffffffffffffff168473ffffffffffffffffffffffffffffffffffffffff160361024a575f6040517f57f447ce0000000000000000000000000000000000000000000000000000000081526004016102419190610abe565b60405180910390fd5b5f5f61025c858561027c60201b60201c565b915091506102745f878484875f6102ac60201b60201c565b505050505050565b60608060405191506001825283602083015260408201905060018152826020820152604081016040529250929050565b6102be8686868661036e60201b60201c565b5f73ffffffffffffffffffffffffffffffffffffffff168573ffffffffffffffffffffffffffffffffffffffff1614610366575f61030061070760201b60201c565b905081156103215761031c81888888888861070e60201b60201c565b610364565b5f6103355f876108bd60201b90919060201c565b90505f61034b5f876108bd60201b90919060201c565b9050610361838a8a85858a6108d060201b60201c565b50505b505b505050505050565b80518251146103b857815181516040517f5b0599910000000000000000000000000000000000000000000000000000000081526004016103af929190610df2565b60405180910390fd5b5f6103c761070760201b60201c565b90505f5f90505b83518110156105c6575f6103eb82866108bd60201b90919060201c565b90505f61040183866108bd60201b90919060201c565b90505f73ffffffffffffffffffffffffffffffffffffffff168873ffffffffffffffffffffffffffffffffffffffff1614610524575f5f5f8481526020019081526020015f205f8a73ffffffffffffffffffffffffffffffffffffffff1673ffffffffffffffffffffffffffffffffffffffff1681526020019081526020015f20549050818110156104d057888183856040517f03dee4c50000000000000000000000000000000000000000000000000000000081526004016104c79493929190610e19565b60405180910390fd5b8181035f5f8581526020019081526020015f205f8b73ffffffffffffffffffffffffffffffffffffffff1673ffffffffffffffffffffffffffffffffffffffff1681526020019081526020015f2081905550505b5f73ffffffffffffffffffffffffffffffffffffffff168773ffffffffffffffffffffffffffffffffffffffff16146105b957805f5f8481526020019081526020015f205f8973ffffffffffffffffffffffffffffffffffffffff1673ffffffffffffffffffffffffffffffffffffffff1681526020019081526020015f205f8282546105b19190610e89565b925050819055505b50508060010190506103ce565b506001835103610681575f6105e45f856108bd60201b90919060201c565b90505f6105fa5f856108bd60201b90919060201c565b90508573ffffffffffffffffffffffffffffffffffffffff168773ffffffffffffffffffffffffffffffffffffffff168473ffffffffffffffffffffffffffffffffffffffff167fc3d58168c5ae7397731d063d5bbf3d657854427343f4c083240f7aacaa2d0f628585604051610672929190610df2565b60405180910390a45050610700565b8373ffffffffffffffffffffffffffffffffffffffff168573ffffffffffffffffffffffffffffffffffffffff168273ffffffffffffffffffffffffffffffffffffffff167f4a39dc06d4c0dbc64b70af90fd698a233a518aa5d07e595d983b8c0526c8f7fb86866040516106f7929190610f73565b60405180910390a45b5050505050565b5f33905090565b5f8473ffffffffffffffffffffffffffffffffffffffff163b11156108b5578373ffffffffffffffffffffffffffffffffffffffff1663bc197c8187878686866040518663ffffffff1660e01b815260040161076e959493929190611018565b6020604051808303815f875af19250505080156107a957506040513d601f19601f820116820180604052508101906107a691906110d7565b60015b61082a573d805f81146107d7576040519150601f19603f3d011682016040523d82523d5f602084013e6107dc565b606091505b505f81510361082257846040517f57f447ce0000000000000000000000000000000000000000000000000000000081526004016108199190610abe565b60405180910390fd5b805160208201fd5b63bc197c8160e01b7bffffffffffffffffffffffffffffffffffffffffffffffffffffffff1916817bffffffffffffffffffffffffffffffffffffffffffffffffffffffff1916146108b357846040517f57f447ce0000000000000000000000000000000000000000000000000000000081526004016108aa9190610abe565b60405180910390fd5b505b505050505050565b5f60208202602084010151905092915050565b5f8473ffffffffffffffffffffffffffffffffffffffff163b1115610a77578373ffffffffffffffffffffffffffffffffffffffff1663f23a6e6187878686866040518663ffffffff1660e01b8152600401610930959493929190611102565b6020604051808303815f875af192505050801561096b57506040513d601f19601f8201168201806040525081019061096891906110d7565b60015b6109ec573d805f8114610999576040519150601f19603f3d011682016040523d82523d5f602084013e61099e565b606091505b505f8151036109e457846040517f57f447ce0000000000000000000000000000000000000000000000000000000081526004016109db9190610abe565b60405180910390fd5b805160208201fd5b63f23a6e6160e01b7bffffffffffffffffffffffffffffffffffffffffffffffffffffffff1916817bffffffffffffffffffffffffffffffffffffffffffffffffffffffff191614610a7557846040517f57f447ce000000000000000000000000000000000000000000000000000000008152600401610a6c9190610abe565b60405180910390fd5b505b505050505050565b5f73ffffffffffffffffffffffffffffffffffffffff82169050919050565b5f610aa882610a7f565b9050919050565b610ab881610a9e565b82525050565b5f602082019050610ad15f830184610aaf565b92915050565b5f81519050919050565b7f4e487b71000000000000000000000000000000000000000000000000000000005f52604160045260245ffd5b7f4e487b71000000000000000000000000000000000000000000000000000000005f52602260045260245ffd5b5f6002820490506001821680610b5257607f821691505b602082108103610b6557610b64610b0e565b5b50919050565b5f819050815f5260205f209050919050565b5f6020601f8301049050919050565b5f82821b905092915050565b5f60088302610bc77fffffffffffffffffffffffffffffffffffffffffffffffffffffffffffffffff82610b8c565b610bd18683610b8c565b95508019841693508086168417925050509392505050565b5f819050919050565b5f819050919050565b5f610c15610c10610c0b84610be9565b610bf2565b610be9565b9050919050565b5f819050919050565b610c2e83610bfb565b610c42610c3a82610c1c565b848454610b98565b825550505050565b5f5f905090565b610c59610c4a565b610c64818484610c25565b505050565b5b81811015610c8757610c7c5f82610c51565b600181019050610c6a565b5050565b601f821115610ccc57610c9d81610b6b565b610ca684610b7d565b81016020851015610cb5578190505b610cc9610cc185610b7d565b830182610c69565b50505b505050565b5f82821c905092915050565b5f610cec5f1984600802610cd1565b1980831691505092915050565b5f610d048383610cdd565b9150826002028217905092915050565b610d1d82610ad7565b67ffffffffffffffff811115610d3657610d35610ae1565b5b610d408254610b3b565b610d4b828285610c8b565b5f60209050601f831160018114610d7c575f8415610d6a578287015190505b610d748582610cf9565b865550610ddb565b601f198416610d8a86610b6b565b5f5b82811015610db157848901518255600182019150602085019450602081019050610d8c565b86831015610dce5784890151610dca601f891682610cdd565b8355505b6001600288020188555050505b505050505050565b610dec81610be9565b82525050565b5f604082019050610e055f830185610de3565b610e126020830184610de3565b9392505050565b5f608082019050610e2c5f830187610aaf565b610e396020830186610de3565b610e466040830185610de3565b610e536060830184610de3565b95945050505050565b7f4e487b71000000000000000000000000000000000000000000000000000000005f52601160045260245ffd5b5f610e9382610be9565b9150610e9e83610be9565b9250828201905080821115610eb657610eb5610e5c565b5b92915050565b5f81519050919050565b5f82825260208201905092915050565b5f819050602082019050919050565b610eee81610be9565b82525050565b5f610eff8383610ee5565b60208301905092915050565b5f602082019050919050565b5f610f2182610ebc565b610f2b8185610ec6565b9350610f3683610ed6565b805f5b83811015610f66578151610f4d8882610ef4565b9750610f5883610f0b565b925050600181019050610f39565b5085935050505092915050565b5f6040820190508181035f830152610f8b8185610f17565b90508181036020830152610f9f8184610f17565b90509392505050565b5f81519050919050565b5f82825260208201905092915050565b8281835e5f83830152505050565b5f601f19601f8301169050919050565b5f610fea82610fa8565b610ff48185610fb2565b9350611004818560208601610fc2565b61100d81610fd0565b840191505092915050565b5f60a08201905061102b5f830188610aaf565b6110386020830187610aaf565b818103604083015261104a8186610f17565b9050818103606083015261105e8185610f17565b905081810360808301526110728184610fe0565b90509695505050505050565b5f5ffd5b5f7fffffffff0000000000000000000000000000000000000000000000000000000082169050919050565b6110b681611082565b81146110c0575f5ffd5b50565b5f815190506110d1816110ad565b92915050565b5f602082840312156110ec576110eb61107e565b5b5f6110f9848285016110c3565b91505092915050565b5f60a0820190506111155f830188610aaf565b6111226020830187610aaf565b61112f6040830186610de3565b61113c6060830185610de3565b818103608083015261114e8184610fe0565b90509695505050505050565b61228b806111675f395ff3fe608060405234801561000f575f5ffd5b50600436106100e7575f3560e01c8063731133e91161008a578063a22cb46511610064578063a22cb46514610247578063e985e9c514610263578063f242432a14610293578063f2fde38b146102af576100e7565b8063731133e9146101ef5780638aee38c71461020b5780638da5cb5b14610229576100e7565b80632eb2c2d6116100c65780632eb2c2d61461017b5780633e4bee38146101975780634e1273f4146101b5578063715018a6146101e5576100e7565b8062fdd58e146100eb57806301ffc9a71461011b5780630e89341c1461014b575b5f5ffd5b610105600480360381019061010091906116ae565b6102cb565b60405161011291906116fb565b60405180910390f35b61013560048036038101906101309190611769565b610320565b60405161014291906117ae565b60405180910390f35b610165600480360381019061016091906117c7565b610401565b6040516101729190611862565b60405180910390f35b61019560048036038101906101909190611a72565b610493565b005b61019f6104b8565b6040516101ac91906116fb565b60405180910390f35b6101cf60048036038101906101ca9190611bfd565b6104bd565b6040516101dc9190611d2a565b60405180910390f35b6101ed6105c7565b005b61020960048036038101906102049190611d4a565b6105da565b005b6102136105f4565b60405161022091906116fb565b60405180910390f35b6102316105f9565b60405161023e9190611dd9565b60405180910390f35b610261600480360381019061025c9190611e1c565b610621565b005b61027d60048036038101906102789190611e5a565b610637565b60405161028a91906117ae565b60405180910390f35b6102ad60048036038101906102a89190611e98565b6106c5565b005b6102c960048036038101906102c49190611f2b565b6106ea565b005b5f5f5f8381526020019081526020015f205f8473ffffffffffffffffffffffffffffffffffffffff1673ffffffffffffffffffffffffffffffffffffffff1681526020019081526020015f2054905092915050565b5f7fd9b67a26000000000000000000000000000000000000000000000000000000007bffffffffffffffffffffffffffffffffffffffffffffffffffffffff1916827bffffffffffffffffffffffffffffffffffffffffffffffffffffffff191614806103ea57507f0e89341c000000000000000000000000000000000000000000000000000000007bffffffffffffffffffffffffffffffffffffffffffffffffffffffff1916827bffffffffffffffffffffffffffffffffffffffffffffffffffffffff1916145b806103fa57506103f98261076e565b5b9050919050565b60606002805461041090611f83565b80601f016020809104026020016040519081016040528092919081815260200182805461043c90611f83565b80156104875780601f1061045e57610100808354040283529160200191610487565b820191905f5260205f20905b81548152906001019060200180831161046a57829003601f168201915b50505050509050919050565b6104a461049e6107d7565b866107de565b6104b18585858585610869565b5050505050565b600181565b6060815183511461050957815183516040517f5b059991000000000000000000000000000000000000000000000000000000008152600401610500929190611fb3565b60405180910390fd5b5f835167ffffffffffffffff81111561052557610524611886565b5b6040519080825280602002602001820160405280156105535781602001602082028036833780820191505090505b5090505f5f90505b84518110156105bc5761059261057a828761095f90919063ffffffff16565b61058d838761097290919063ffffffff16565b6102cb565b8282815181106105a5576105a4611fda565b5b60200260200101818152505080600101905061055b565b508091505092915050565b6105cf610985565b6105d85f610a0c565b565b6105e2610985565b6105ee84848484610acf565b50505050565b600281565b5f60035f9054906101000a900473ffffffffffffffffffffffffffffffffffffffff16905090565b61063361062c6107d7565b8383610b65565b5050565b5f60015f8473ffffffffffffffffffffffffffffffffffffffff1673ffffffffffffffffffffffffffffffffffffffff1681526020019081526020015f205f8373ffffffffffffffffffffffffffffffffffffffff1673ffffffffffffffffffffffffffffffffffffffff1681526020019081526020015f205f9054906101000a900460ff16905092915050565b6106d66106d06107d7565b866107de565b6106e38585858585610d3e565b5050505050565b6106f2610985565b5f73ffffffffffffffffffffffffffffffffffffffff168173ffffffffffffffffffffffffffffffffffffffff1603610762575f6040517f1e4fbdf70000000000000000000000000000000000000000000000000000000081526004016107599190611dd9565b60405180910390fd5b61076b81610a0c565b50565b5f7f01ffc9a7000000000000000000000000000000000000000000000000000000007bffffffffffffffffffffffffffffffffffffffffffffffffffffffff1916827bffffffffffffffffffffffffffffffffffffffffffffffffffffffff1916149050919050565b5f33905090565b8173ffffffffffffffffffffffffffffffffffffffff168173ffffffffffffffffffffffffffffffffffffffff1614158015610821575061081f8183610637565b155b156108655781816040517fe237d92200000000000000000000000000000000000000000000000000000000815260040161085c929190612007565b60405180910390fd5b5050565b5f73ffffffffffffffffffffffffffffffffffffffff168473ffffffffffffffffffffffffffffffffffffffff16036108d9575f6040517f57f447ce0000000000000000000000000000000000000000000000000000000081526004016108d09190611dd9565b60405180910390fd5b5f73ffffffffffffffffffffffffffffffffffffffff168573ffffffffffffffffffffffffffffffffffffffff1603610949575f6040517f01a835140000000000000000000000000000000000000000000000000000000081526004016109409190611dd9565b60405180910390fd5b61095885858585856001610e45565b5050505050565b5f60208202602084010151905092915050565b5f60208202602084010151905092915050565b61098d6107d7565b73ffffffffffffffffffffffffffffffffffffffff166109ab6105f9565b73ffffffffffffffffffffffffffffffffffffffff1614610a0a576109ce6107d7565b6040517f118cdaa7000000000000000000000000000000000000000000000000000000008152600401610a019190611dd9565b60405180910390fd5b565b5f60035f9054906101000a900473ffffffffffffffffffffffffffffffffffffffff1690508160035f6101000a81548173ffffffffffffffffffffffffffffffffffffffff021916908373ffffffffffffffffffffffffffffffffffffffff1602179055508173ffffffffffffffffffffffffffffffffffffffff168173ffffffffffffffffffffffffffffffffffffffff167f8be0079c531659141344cd1fd0a4f28419497f9722a3daafe3b4186f6b6457e060405160405180910390a35050565b5f73ffffffffffffffffffffffffffffffffffffffff168473ffffffffffffffffffffffffffffffffffffffff1603610b3f575f6040517f57f447ce000000000000000000000000000000000000000000000000000000008152600401610b369190611dd9565b60405180910390fd5b5f5f610b4b8585610eef565b91509150610b5d5f878484875f610e45565b505050505050565b5f73ffffffffffffffffffffffffffffffffffffffff168373ffffffffffffffffffffffffffffffffffffffff1603610bd5575f6040517f3e31884e000000000000000000000000000000000000000000000000000000008152600401610bcc9190611dd9565b60405180910390fd5b5f73ffffffffffffffffffffffffffffffffffffffff168273ffffffffffffffffffffffffffffffffffffffff1603610c45575f6040517fced3e100000000000000000000000000000000000000000000000000000000008152600401610c3c9190611dd9565b60405180910390fd5b8060015f8573ffffffffffffffffffffffffffffffffffffffff1673ffffffffffffffffffffffffffffffffffffffff1681526020019081526020015f205f8473ffffffffffffffffffffffffffffffffffffffff1673ffffffffffffffffffffffffffffffffffffffff1681526020019081526020015f205f6101000a81548160ff0219169083151502179055508173ffffffffffffffffffffffffffffffffffffffff168373ffffffffffffffffffffffffffffffffffffffff167f17307eab39ab6107e8899845ad3d59bd9653f200f220920489ca2b5937696c3183604051610d3191906117ae565b60405180910390a3505050565b5f73ffffffffffffffffffffffffffffffffffffffff168473ffffffffffffffffffffffffffffffffffffffff1603610dae575f6040517f57f447ce000000000000000000000000000000000000000000000000000000008152600401610da59190611dd9565b60405180910390fd5b5f73ffffffffffffffffffffffffffffffffffffffff168573ffffffffffffffffffffffffffffffffffffffff1603610e1e575f6040517f01a83514000000000000000000000000000000000000000000000000000000008152600401610e159190611dd9565b60405180910390fd5b5f5f610e2a8585610eef565b91509150610e3c87878484875f610e45565b50505050505050565b610e5186868686610f1f565b5f73ffffffffffffffffffffffffffffffffffffffff168573ffffffffffffffffffffffffffffffffffffffff1614610ee7575f610e8d6107d7565b90508115610ea857610ea38188888888886112b2565b610ee5565b5f610ebc5f8761097290919063ffffffff16565b90505f610ed25f8761097290919063ffffffff16565b9050610ee2838a8a85858a611461565b50505b505b505050505050565b60608060405191506001825283602083015260408201905060018152826020820152604081016040529250929050565b8051825114610f6957815181516040517f5b059991000000000000000000000000000000000000000000000000000000008152600401610f60929190611fb3565b60405180910390fd5b5f610f726107d7565b90505f5f90505b8351811015611171575f610f96828661097290919063ffffffff16565b90505f610fac838661097290919063ffffffff16565b90505f73ffffffffffffffffffffffffffffffffffffffff168873ffffffffffffffffffffffffffffffffffffffff16146110cf575f5f5f8481526020019081526020015f205f8a73ffffffffffffffffffffffffffffffffffffffff1673ffffffffffffffffffffffffffffffffffffffff1681526020019081526020015f205490508181101561107b57888183856040517f03dee4c5000000000000000000000000000000000000000000000000000000008152600401611072949392919061202e565b60405180910390fd5b8181035f5f8581526020019081526020015f205f8b73ffffffffffffffffffffffffffffffffffffffff1673ffffffffffffffffffffffffffffffffffffffff1681526020019081526020015f2081905550505b5f73ffffffffffffffffffffffffffffffffffffffff168773ffffffffffffffffffffffffffffffffffffffff161461116457805f5f8481526020019081526020015f205f8973ffffffffffffffffffffffffffffffffffffffff1673ffffffffffffffffffffffffffffffffffffffff1681526020019081526020015f205f82825461115c919061209e565b925050819055505b5050806001019050610f79565b50600183510361122c575f61118f5f8561097290919063ffffffff16565b90505f6111a55f8561097290919063ffffffff16565b90508573ffffffffffffffffffffffffffffffffffffffff168773ffffffffffffffffffffffffffffffffffffffff168473ffffffffffffffffffffffffffffffffffffffff167fc3d58168c5ae7397731d063d5bbf3d657854427343f4c083240f7aacaa2d0f62858560405161121d929190611fb3565b60405180910390a450506112ab565b8373ffffffffffffffffffffffffffffffffffffffff168573ffffffffffffffffffffffffffffffffffffffff168273ffffffffffffffffffffffffffffffffffffffff167f4a39dc06d4c0dbc64b70af90fd698a233a518aa5d07e595d983b8c0526c8f7fb86866040516112a29291906120d1565b60405180910390a45b5050505050565b5f8473ffffffffffffffffffffffffffffffffffffffff163b1115611459578373ffffffffffffffffffffffffffffffffffffffff1663bc197c8187878686866040518663ffffffff1660e01b8152600401611312959493929190612158565b6020604051808303815f875af192505050801561134d57506040513d601f19601f8201168201806040525081019061134a91906121d2565b60015b6113ce573d805f811461137b576040519150601f19603f3d011682016040523d82523d5f602084013e611380565b606091505b505f8151036113c657846040517f57f447ce0000000000000000000000000000000000000000000000000000000081526004016113bd9190611dd9565b60405180910390fd5b805160208201fd5b63bc197c8160e01b7bffffffffffffffffffffffffffffffffffffffffffffffffffffffff1916817bffffffffffffffffffffffffffffffffffffffffffffffffffffffff19161461145757846040517f57f447ce00000000000000000000000000000000000000000000000000000000815260040161144e9190611dd9565b60405180910390fd5b505b505050505050565b5f8473ffffffffffffffffffffffffffffffffffffffff163b1115611608578373ffffffffffffffffffffffffffffffffffffffff1663f23a6e6187878686866040518663ffffffff1660e01b81526004016114c19594939291906121fd565b6020604051808303815f875af19250505080156114fc57506040513d601f19601f820116820180604052508101906114f991906121d2565b60015b61157d573d805f811461152a576040519150601f19603f3d011682016040523d82523d5f602084013e61152f565b606091505b505f81510361157557846040517f57f447ce00000000000000000000000000000000000000000000000000000000815260040161156c9190611dd9565b60405180910390fd5b805160208201fd5b63f23a6e6160e01b7bffffffffffffffffffffffffffffffffffffffffffffffffffffffff1916817bffffffffffffffffffffffffffffffffffffffffffffffffffffffff19161461160657846040517f57f447ce0000000000000000000000000000000000000000000000000000000081526004016115fd9190611dd9565b60405180910390fd5b505b505050505050565b5f604051905090565b5f5ffd5b5f5ffd5b5f73ffffffffffffffffffffffffffffffffffffffff82169050919050565b5f61164a82611621565b9050919050565b61165a81611640565b8114611664575f5ffd5b50565b5f8135905061167581611651565b92915050565b5f819050919050565b61168d8161167b565b8114611697575f5ffd5b50565b5f813590506116a881611684565b92915050565b5f5f604083850312156116c4576116c3611619565b5b5f6116d185828601611667565b92505060206116e28582860161169a565b9150509250929050565b6116f58161167b565b82525050565b5f60208201905061170e5f8301846116ec565b92915050565b5f7fffffffff0000000000000000000000000000000000000000000000000000000082169050919050565b61174881611714565b8114611752575f5ffd5b50565b5f813590506117638161173f565b92915050565b5f6020828403121561177e5761177d611619565b5b5f61178b84828501611755565b91505092915050565b5f8115159050919050565b6117a881611794565b82525050565b5f6020820190506117c15f83018461179f565b92915050565b5f602082840312156117dc576117db611619565b5b5f6117e98482850161169a565b91505092915050565b5f81519050919050565b5f82825260208201905092915050565b8281835e5f83830152505050565b5f601f19601f8301169050919050565b5f611834826117f2565b61183e81856117fc565b935061184e81856020860161180c565b6118578161181a565b840191505092915050565b5f6020820190508181035f83015261187a818461182a565b905092915050565b5f5ffd5b7f4e487b71000000000000000000000000000000000000000000000000000000005f52604160045260245ffd5b6118bc8261181a565b810181811067ffffffffffffffff821117156118db576118da611886565b5b80604052505050565b5f6118ed611610565b90506118f982826118b3565b919050565b5f67ffffffffffffffff82111561191857611917611886565b5b602082029050602081019050919050565b5f5ffd5b5f61193f61193a846118fe565b6118e4565b9050808382526020820190506020840283018581111561196257611961611929565b5b835b8181101561198b5780611977888261169a565b845260208401935050602081019050611964565b5050509392505050565b5f82601f8301126119a9576119a8611882565b5b81356119b984826020860161192d565b91505092915050565b5f5ffd5b5f67ffffffffffffffff8211156119e0576119df611886565b5b6119e98261181a565b9050602081019050919050565b828183375f83830152505050565b5f611a16611a11846119c6565b6118e4565b905082815260208101848484011115611a3257611a316119c2565b5b611a3d8482856119f6565b509392505050565b5f82601f830112611a5957611a58611882565b5b8135611a69848260208601611a04565b91505092915050565b5f5f5f5f5f60a08688031215611a8b57611a8a611619565b5b5f611a9888828901611667565b9550506020611aa988828901611667565b945050604086013567ffffffffffffffff811115611aca57611ac961161d565b5b611ad688828901611995565b935050606086013567ffffffffffffffff811115611af757611af661161d565b5b611b0388828901611995565b925050608086013567ffffffffffffffff811115611b2457611b2361161d565b5b611b3088828901611a45565b9150509295509295909350565b5f67ffffffffffffffff821115611b5757611b56611886565b5b602082029050602081019050919050565b5f611b7a611b7584611b3d565b6118e4565b90508083825260208201905060208402830185811115611b9d57611b9c611929565b5b835b81811015611bc65780611bb28882611667565b845260208401935050602081019050611b9f565b5050509392505050565b5f82601f830112611be457611be3611882565b5b8135611bf4848260208601611b68565b91505092915050565b5f5f60408385031215611c1357611c12611619565b5b5f83013567ffffffffffffffff811115611c3057611c2f61161d565b5b611c3c85828601611bd0565b925050602083013567ffffffffffffffff811115611c5d57611c5c61161d565b5b611c6985828601611995565b9150509250929050565b5f81519050919050565b5f82825260208201905092915050565b5f819050602082019050919050565b611ca58161167b565b82525050565b5f611cb68383611c9c565b60208301905092915050565b5f602082019050919050565b5f611cd882611c73565b611ce28185611c7d565b9350611ced83611c8d565b805f5b83811015611d1d578151611d048882611cab565b9750611d0f83611cc2565b925050600181019050611cf0565b5085935050505092915050565b5f6020820190508181035f830152611d428184611cce565b905092915050565b5f5f5f5f60808587031215611d6257611d61611619565b5b5f611d6f87828801611667565b9450506020611d808782880161169a565b9350506040611d918782880161169a565b925050606085013567ffffffffffffffff811115611db257611db161161d565b5b611dbe87828801611a45565b91505092959194509250565b611dd381611640565b82525050565b5f602082019050611dec5f830184611dca565b92915050565b611dfb81611794565b8114611e05575f5ffd5b50565b5f81359050611e1681611df2565b92915050565b5f5f60408385031215611e3257611e31611619565b5b5f611e3f85828601611667565b9250506020611e5085828601611e08565b9150509250929050565b5f5f60408385031215611e7057611e6f611619565b5b5f611e7d85828601611667565b9250506020611e8e85828601611667565b9150509250929050565b5f5f5f5f5f60a08688031215611eb157611eb0611619565b5b5f611ebe88828901611667565b9550506020611ecf88828901611667565b9450506040611ee08882890161169a565b9350506060611ef18882890161169a565b925050608086013567ffffffffffffffff811115611f1257611f1161161d565b5b611f1e88828901611a45565b9150509295509295909350565b5f60208284031215611f4057611f3f611619565b5b5f611f4d84828501611667565b91505092915050565b7f4e487b71000000000000000000000000000000000000000000000000000000005f52602260045260245ffd5b5f6002820490506001821680611f9a57607f821691505b602082108103611fad57611fac611f56565b5b50919050565b5f604082019050611fc65f8301856116ec565b611fd360208301846116ec565b9392505050565b7f4e487b71000000000000000000000000000000000000000000000000000000005f52603260045260245ffd5b5f60408201905061201a5f830185611dca565b6120276020830184611dca565b9392505050565b5f6080820190506120415f830187611dca565b61204e60208301866116ec565b61205b60408301856116ec565b61206860608301846116ec565b95945050505050565b7f4e487b71000000000000000000000000000000000000000000000000000000005f52601160045260245ffd5b5f6120a88261167b565b91506120b38361167b565b92508282019050808211156120cb576120ca612071565b5b92915050565b5f6040820190508181035f8301526120e98185611cce565b905081810360208301526120fd8184611cce565b90509392505050565b5f81519050919050565b5f82825260208201905092915050565b5f61212a82612106565b6121348185612110565b935061214481856020860161180c565b61214d8161181a565b840191505092915050565b5f60a08201905061216b5f830188611dca565b6121786020830187611dca565b818103604083015261218a8186611cce565b9050818103606083015261219e8185611cce565b905081810360808301526121b28184612120565b90509695505050505050565b5f815190506121cc8161173f565b92915050565b5f602082840312156121e7576121e6611619565b5b5f6121f4848285016121be565b91505092915050565b5f60a0820190506122105f830188611dca565b61221d6020830187611dca565b61222a60408301866116ec565b61223760608301856116ec565b81810360808301526122498184612120565b9050969550505050505056fea2646970667358221220282a8569a11047bdb4232942dced38b07cefc7fa2a6d5e94bcfd7efbd46f278d64736f6c634300081f003368747470733a2f2f6170692e626974736b77656c612e636f6d2f6d657461646174612f7b69647d2e6a736f6e",
			"opcodes": "PUSH1 0x80 PUSH1 0x40 MSTORE CALLVALUE DUP1 ISZERO PUSH2 0xF JUMPI PUSH0 PUSH0 REVERT JUMPDEST POP CALLER PUSH1 0x40 MLOAD DUP1 PUSH1 0x60 ADD PUSH1 0x40 MSTORE DUP1 PUSH1 0x2C DUP2 MSTORE PUSH1 0x20 ADD PUSH2 0x33F2 PUSH1 0x2C SWAP2 CODECOPY PUSH2 0x39 DUP2 PUSH2 0x104 PUSH1 0x20 SHL PUSH1 0x20 SHR JUMP JUMPDEST POP PUSH0 PUSH20 0xFFFFFFFFFFFFFFFFFFFFFFFFFFFFFFFFFFFFFFFF AND DUP2 PUSH20 0xFFFFFFFFFFFFFFFFFFFFFFFFFFFFFFFFFFFFFFFF AND SUB PUSH2 0xAA JUMPI PUSH0 PUSH1 0x40 MLOAD PUSH32 0x1E4FBDF700000000000000000000000000000000000000000000000000000000 DUP2 MSTORE PUSH1 0x4 ADD PUSH2 0xA1 SWAP2 SWAP1 PUSH2 0xABE JUMP JUMPDEST PUSH1 0x40 MLOAD DUP1 SWAP2 SUB SWAP1 REVERT JUMPDEST PUSH2 0xB9 DUP2 PUSH2 0x117 PUSH1 0x20 SHL PUSH1 0x20 SHR JUMP JUMPDEST POP PUSH2 0xDD CALLER PUSH1 0x1 PUSH2 0x3E8 PUSH1 0x40 MLOAD DUP1 PUSH1 0x20 ADD PUSH1 0x40 MSTORE DUP1 PUSH0 DUP2 MSTORE POP PUSH2 0x1DA PUSH1 0x20 SHL PUSH1 0x20 SHR JUMP JUMPDEST PUSH2 0xFF CALLER PUSH1 0x2 PUSH1 0x1 PUSH1 0x40 MLOAD DUP1 PUSH1 0x20 ADD PUSH1 0x40 MSTORE DUP1 PUSH0 DUP2 MSTORE POP PUSH2 0x1DA PUSH1 0x20 SHL PUSH1 0x20 SHR JUMP JUMPDEST PUSH2 0x115A JUMP JUMPDEST DUP1 PUSH1 0x2 SWAP1 DUP2 PUSH2 0x113 SWAP2 SWAP1 PUSH2 0xD14 JUMP JUMPDEST POP POP JUMP JUMPDEST PUSH0 PUSH1 0x3 PUSH0 SWAP1 SLOAD SWAP1 PUSH2 0x100 EXP SWAP1 DIV PUSH20 0xFFFFFFFFFFFFFFFFFFFFFFFFFFFFFFFFFFFFFFFF AND SWAP1 POP DUP2 PUSH1 0x3 PUSH0 PUSH2 0x100 EXP DUP2 SLOAD DUP2 PUSH20 0xFFFFFFFFFFFFFFFFFFFFFFFFFFFFFFFFFFFFFFFF MUL NOT AND SWAP1 DUP4 PUSH20 0xFFFFFFFFFFFFFFFFFFFFFFFFFFFFFFFFFFFFFFFF AND MUL OR SWAP1 SSTORE POP DUP2 PUSH20 0xFFFFFFFFFFFFFFFFFFFFFFFFFFFFFFFFFFFFFFFF AND DUP2 PUSH20 0xFFFFFFFFFFFFFFFFFFFFFFFFFFFFFFFFFFFFFFFF AND PUSH32 0x8BE0079C531659141344CD1FD0A4F28419497F9722A3DAAFE3B4186F6B6457E0 PUSH1 0x40 MLOAD PUSH1 0x40 MLOAD DUP1 SWAP2 SUB SWAP1 LOG3 POP POP JUMP JUMPDEST PUSH0 PUSH20 0xFFFFFFFFFFFFFFFFFFFFFFFFFFFFFFFFFFFFFFFF AND DUP5 PUSH20 0xFFFFFFFFFFFFFFFFFFFFFFFFFFFFFFFFFFFFFFFF AND SUB PUSH2 0x24A JUMPI PUSH0 PUSH1 0x40 MLOAD PUSH32 0x57F447CE00000000000000000000000000000000000000000000000000000000 DUP2 MSTORE PUSH1 0x4 ADD PUSH2 0x241 SWAP2 SWAP1 PUSH2 0xABE JUMP JUMPDEST PUSH1 0x40 MLOAD DUP1 SWAP2 SUB SWAP1 REVERT JUMPDEST PUSH0 PUSH0 PUSH2 0x25C DUP6 DUP6 PUSH2 0x27C PUSH1 0x20 SHL PUSH1 0x20 SHR JUMP JUMPDEST SWAP2 POP SWAP2 POP PUSH2 0x274 PUSH0 DUP8 DUP5 DUP5 DUP8 PUSH0 PUSH2 0x2AC PUSH1 0x20 SHL PUSH1 0x20 SHR JUMP JUMPDEST POP POP POP POP POP POP JUMP JUMPDEST PUSH1 0x60 DUP1 PUSH1 0x40 MLOAD SWAP2 POP PUSH1 0x1 DUP3 MSTORE DUP4 PUSH1 0x20 DUP4 ADD MSTORE PUSH1 0x40 DUP3 ADD SWAP1 POP PUSH1 0x1 DUP2 MSTORE DUP3 PUSH1 0x20 DUP3 ADD MSTORE PUSH1 0x40 DUP2 ADD PUSH1 0x40 MSTORE SWAP3 POP SWAP3 SWAP1 POP JUMP JUMPDEST PUSH2 0x2BE DUP7 DUP7 DUP7 DUP7 PUSH2 0x36E PUSH1 0x20 SHL PUSH1 0x20 SHR JUMP JUMPDEST PUSH0 PUSH20 0xFFFFFFFFFFFFFFFFFFFFFFFFFFFFFFFFFFFFFFFF AND DUP6 PUSH20 0xFFFFFFFFFFFFFFFFFFFFFFFFFFFFFFFFFFFFFFFF AND EQ PUSH2 0x366 JUMPI PUSH0 PUSH2 0x300 PUSH2 0x707 PUSH1 0x20 SHL PUSH1 0x20 SHR JUMP JUMPDEST SWAP1 POP DUP2 ISZERO PUSH2 0x321 JUMPI PUSH2 0x31C DUP2 DUP9 DUP9 DUP9 DUP9 DUP9 PUSH2 0x70E PUSH1 0x20 SHL PUSH1 0x20 SHR JUMP JUMPDEST PUSH2 0x364 JUMP JUMPDEST PUSH0 PUSH2 0x335 PUSH0 DUP8 PUSH2 0x8BD PUSH1 0x20 SHL SWAP1 SWAP2 SWAP1 PUSH1 0x20 SHR JUMP JUMPDEST SWAP1 POP PUSH0 PUSH2 0x34B PUSH0 DUP8 PUSH2 0x8BD PUSH1 0x20 SHL SWAP1 SWAP2 SWAP1 PUSH1 0x20 SHR JUMP JUMPDEST SWAP1 POP PUSH2 0x361 DUP4 DUP11 DUP11 DUP6 DUP6 DUP11 PUSH2 0x8D0 PUSH1 0x20 SHL PUSH1 0x20 SHR JUMP JUMPDEST POP POP JUMPDEST POP JUMPDEST POP POP POP POP POP POP JUMP JUMPDEST DUP1 MLOAD DUP3 MLOAD EQ PUSH2 0x3B8 JUMPI DUP2 MLOAD DUP2 MLOAD PUSH1 0x40 MLOAD PUSH32 0x5B05999100000000000000000000000000000000000000000000000000000000 DUP2 MSTORE PUSH1 0x4 ADD PUSH2 0x3AF SWAP3 SWAP2 SWAP1 PUSH2 0xDF2 JUMP JUMPDEST PUSH1 0x40 MLOAD DUP1 SWAP2 SUB SWAP1 REVERT JUMPDEST PUSH0 PUSH2 0x3C7 PUSH2 0x707 PUSH1 0x20 SHL PUSH1 0x20 SHR JUMP JUMPDEST SWAP1 POP PUSH0 PUSH0 SWAP1 POP JUMPDEST DUP4 MLOAD DUP2 LT ISZERO PUSH2 0x5C6 JUMPI PUSH0 PUSH2 0x3EB DUP3 DUP7 PUSH2 0x8BD PUSH1 0x20 SHL SWAP1 SWAP2 SWAP1 PUSH1 0x20 SHR JUMP JUMPDEST SWAP1 POP PUSH0 PUSH2 0x401 DUP4 DUP7 PUSH2 0x8BD PUSH1 0x20 SHL SWAP1 SWAP2 SWAP1 PUSH1 0x20 SHR JUMP JUMPDEST SWAP1 POP PUSH0 PUSH20 0xFFFFFFFFFFFFFFFFFFFFFFFFFFFFFFFFFFFFFFFF AND DUP9 PUSH20 0xFFFFFFFFFFFFFFFFFFFFFFFFFFFFFFFFFFFFFFFF AND EQ PUSH2 0x524 JUMPI PUSH0 PUSH0 PUSH0 DUP5 DUP2 MSTORE PUSH1 0x20 ADD SWAP1 DUP2 MSTORE PUSH1 0x20 ADD PUSH0 KECCAK256 PUSH0 DUP11 PUSH20 0xFFFFFFFFFFFFFFFFFFFFFFFFFFFFFFFFFFFFFFFF AND PUSH20 0xFFFFFFFFFFFFFFFFFFFFFFFFFFFFFFFFFFFFFFFF AND DUP2 MSTORE PUSH1 0x20 ADD SWAP1 DUP2 MSTORE PUSH1 0x20 ADD PUSH0 KECCAK256 SLOAD SWAP1 POP DUP2 DUP2 LT ISZERO PUSH2 0x4D0 JUMPI DUP9 DUP2 DUP4 DUP6 PUSH1 0x40 MLOAD PUSH32 0x3DEE4C500000000000000000000000000000000000000000000000000000000 DUP2 MSTORE PUSH1 0x4 ADD PUSH2 0x4C7 SWAP5 SWAP4 SWAP3 SWAP2 SWAP1 PUSH2 0xE19 JUMP JUMPDEST PUSH1 0x40 MLOAD DUP1 SWAP2 SUB SWAP1 REVERT JUMPDEST DUP2 DUP2 SUB PUSH0 PUSH0 DUP6 DUP2 MSTORE PUSH1 0x20 ADD SWAP1 DUP2 MSTORE PUSH1 0x20 ADD PUSH0 KECCAK256 PUSH0 DUP12 PUSH20 0xFFFFFFFFFFFFFFFFFFFFFFFFFFFFFFFFFFFFFFFF AND PUSH20 0xFFFFFFFFFFFFFFFFFFFFFFFFFFFFFFFFFFFFFFFF AND DUP2 MSTORE PUSH1 0x20 ADD SWAP1 DUP2 MSTORE PUSH1 0x20 ADD PUSH0 KECCAK256 DUP2 SWAP1 SSTORE POP POP JUMPDEST PUSH0 PUSH20 0xFFFFFFFFFFFFFFFFFFFFFFFFFFFFFFFFFFFFFFFF AND DUP8 PUSH20 0xFFFFFFFFFFFFFFFFFFFFFFFFFFFFFFFFFFFFFFFF AND EQ PUSH2 0x5B9 JUMPI DUP1 PUSH0 PUSH0 DUP5 DUP2 MSTORE PUSH1 0x20 ADD SWAP1 DUP2 MSTORE PUSH1 0x20 ADD PUSH0 KECCAK256 PUSH0 DUP10 PUSH20 0xFFFFFFFFFFFFFFFFFFFFFFFFFFFFFFFFFFFFFFFF AND PUSH20 0xFFFFFFFFFFFFFFFFFFFFFFFFFFFFFFFFFFFFFFFF AND DUP2 MSTORE PUSH1 0x20 ADD SWAP1 DUP2 MSTORE PUSH1 0x20 ADD PUSH0 KECCAK256 PUSH0 DUP3 DUP3 SLOAD PUSH2 0x5B1 SWAP2 SWAP1 PUSH2 0xE89 JUMP JUMPDEST SWAP3 POP POP DUP2 SWAP1 SSTORE POP JUMPDEST POP POP DUP1 PUSH1 0x1 ADD SWAP1 POP PUSH2 0x3CE JUMP JUMPDEST POP PUSH1 0x1 DUP4 MLOAD SUB PUSH2 0x681 JUMPI PUSH0 PUSH2 0x5E4 PUSH0 DUP6 PUSH2 0x8BD PUSH1 0x20 SHL SWAP1 SWAP2 SWAP1 PUSH1 0x20 SHR JUMP JUMPDEST SWAP1 POP PUSH0 PUSH2 0x5FA PUSH0 DUP6 PUSH2 0x8BD PUSH1 0x20 SHL SWAP1 SWAP2 SWAP1 PUSH1 0x20 SHR JUMP JUMPDEST SWAP1 POP DUP6 PUSH20 0xFFFFFFFFFFFFFFFFFFFFFFFFFFFFFFFFFFFFFFFF AND DUP8 PUSH20 0xFFFFFFFFFFFFFFFFFFFFFFFFFFFFFFFFFFFFFFFF AND DUP5 PUSH20 0xFFFFFFFFFFFFFFFFFFFFFFFFFFFFFFFFFFFFFFFF AND PUSH32 0xC3D58168C5AE7397731D063D5BBF3D657854427343F4C083240F7AACAA2D0F62 DUP6 DUP6 PUSH1 0x40 MLOAD PUSH2 0x672 SWAP3 SWAP2 SWAP1 PUSH2 0xDF2 JUMP JUMPDEST PUSH1 0x40 MLOAD DUP1 SWAP2 SUB SWAP1 LOG4 POP POP PUSH2 0x700 JUMP JUMPDEST DUP4 PUSH20 0xFFFFFFFFFFFFFFFFFFFFFFFFFFFFFFFFFFFFFFFF AND DUP6 PUSH20 0xFFFFFFFFFFFFFFFFFFFFFFFFFFFFFFFFFFFFFFFF AND DUP3 PUSH20 0xFFFFFFFFFFFFFFFFFFFFFFFFFFFFFFFFFFFFFFFF AND PUSH32 0x4A39DC06D4C0DBC64B70AF90FD698A233A518AA5D07E595D983B8C0526C8F7FB DUP7 DUP7 PUSH1 0x40 MLOAD PUSH2 0x6F7 SWAP3 SWAP2 SWAP1 PUSH2 0xF73 JUMP JUMPDEST PUSH1 0x40 MLOAD DUP1 SWAP2 SUB SWAP1 LOG4 JUMPDEST POP POP POP POP POP JUMP JUMPDEST PUSH0 CALLER SWAP1 POP SWAP1 JUMP JUMPDEST PUSH0 DUP5 PUSH20 0xFFFFFFFFFFFFFFFFFFFFFFFFFFFFFFFFFFFFFFFF AND EXTCODESIZE GT ISZERO PUSH2 0x8B5 JUMPI DUP4 PUSH20 0xFFFFFFFFFFFFFFFFFFFFFFFFFFFFFFFFFFFFFFFF AND PUSH4 0xBC197C81 DUP8 DUP8 DUP7 DUP7 DUP7 PUSH1 0x40 MLOAD DUP7 PUSH4 0xFFFFFFFF AND PUSH1 0xE0 SHL DUP2 MSTORE PUSH1 0x4 ADD PUSH2 0x76E SWAP6 SWAP5 SWAP4 SWAP3 SWAP2 SWAP1 PUSH2 0x1018 JUMP JUMPDEST PUSH1 0x20 PUSH1 0x40 MLOAD DUP1 DUP4 SUB DUP2 PUSH0 DUP8 GAS CALL SWAP3 POP POP POP DUP1 ISZERO PUSH2 0x7A9 JUMPI POP PUSH1 0x40 MLOAD RETURNDATASIZE PUSH1 0x1F NOT PUSH1 0x1F DUP3 ADD AND DUP3 ADD DUP1 PUSH1 0x40 MSTORE POP DUP2 ADD SWAP1 PUSH2 0x7A6 SWAP2 SWAP1 PUSH2 0x10D7 JUMP JUMPDEST PUSH1 0x1 JUMPDEST PUSH2 0x82A JUMPI RETURNDATASIZE DUP1 PUSH0 DUP2 EQ PUSH2 0x7D7 JUMPI PUSH1 0x40 MLOAD SWAP2 POP PUSH1 0x1F NOT PUSH1 0x3F RETURNDATASIZE ADD AND DUP3 ADD PUSH1 0x40 MSTORE RETURNDATASIZE DUP3 MSTORE RETURNDATASIZE PUSH0 PUSH1 0x20 DUP5 ADD RETURNDATACOPY PUSH2 0x7DC JUMP JUMPDEST PUSH1 0x60 SWAP2 POP JUMPDEST POP PUSH0 DUP2 MLOAD SUB PUSH2 0x822 JUMPI DUP5 PUSH1 0x40 MLOAD PUSH32 0x57F447CE00000000000000000000000000000000000000000000000000000000 DUP2 MSTORE PUSH1 0x4 ADD PUSH2 0x819 SWAP2 SWAP1 PUSH2 0xABE JUMP JUMPDEST PUSH1 0x40 MLOAD DUP1 SWAP2 SUB SWAP1 REVERT JUMPDEST DUP1 MLOAD PUSH1 0x20 DUP3 ADD REVERT JUMPDEST PUSH4 0xBC197C81 PUSH1 0xE0 SHL PUSH28 0xFFFFFFFFFFFFFFFFFFFFFFFFFFFFFFFFFFFFFFFFFFFFFFFFFFFFFFFF NOT AND DUP2 PUSH28 0xFFFFFFFFFFFFFFFFFFFFFFFFFFFFFFFFFFFFFFFFFFFFFFFFFFFFFFFF NOT AND EQ PUSH2 0x8B3 JUMPI DUP5 PUSH1 0x40 MLOAD PUSH32 0x57F447CE00000000000000000000000000000000000000000000000000000000 DUP2 MSTORE PUSH1 0x4 ADD PUSH2 0x8AA SWAP2 SWAP1 PUSH2 0xABE JUMP JUMPDEST PUSH1 0x40 MLOAD DUP1 SWAP2 SUB SWAP1 REVERT JUMPDEST POP JUMPDEST POP POP POP POP POP POP JUMP JUMPDEST PUSH0 PUSH1 0x20 DUP3 MUL PUSH1 0x20 DUP5 ADD ADD MLOAD SWAP1 POP SWAP3 SWAP2 POP POP JUMP JUMPDEST PUSH0 DUP5 PUSH20 0xFFFFFFFFFFFFFFFFFFFFFFFFFFFFFFFFFFFFFFFF AND EXTCODESIZE GT ISZERO PUSH2 0xA77 JUMPI DUP4 PUSH20 0xFFFFFFFFFFFFFFFFFFFFFFFFFFFFFFFFFFFFFFFF AND PUSH4 0xF23A6E61 DUP8 DUP8 DUP7 DUP7 DUP7 PUSH1 0x40 MLOAD DUP7 PUSH4 0xFFFFFFFF AND PUSH1 0xE0 SHL DUP2 MSTORE PUSH1 0x4 ADD PUSH2 0x930 SWAP6 SWAP5 SWAP4 SWAP3 SWAP2 SWAP1 PUSH2 0x1102 JUMP JUMPDEST PUSH1 0x20 PUSH1 0x40 MLOAD DUP1 DUP4 SUB DUP2 PUSH0 DUP8 GAS CALL SWAP3 POP POP POP DUP1 ISZERO PUSH2 0x96B JUMPI POP PUSH1 0x40 MLOAD RETURNDATASIZE PUSH1 0x1F NOT PUSH1 0x1F DUP3 ADD AND DUP3 ADD DUP1 PUSH1 0x40 MSTORE POP DUP2 ADD SWAP1 PUSH2 0x968 SWAP2 SWAP1 PUSH2 0x10D7 JUMP JUMPDEST PUSH1 0x1 JUMPDEST PUSH2 0x9EC JUMPI RETURNDATASIZE DUP1 PUSH0 DUP2 EQ PUSH2 0x999 JUMPI PUSH1 0x40 MLOAD SWAP2 POP PUSH1 0x1F NOT PUSH1 0x3F RETURNDATASIZE ADD AND DUP3 ADD PUSH1 0x40 MSTORE RETURNDATASIZE DUP3 MSTORE RETURNDATASIZE PUSH0 PUSH1 0x20 DUP5 ADD RETURNDATACOPY PUSH2 0x99E JUMP JUMPDEST PUSH1 0x60 SWAP2 POP JUMPDEST POP PUSH0 DUP2 MLOAD SUB PUSH2 0x9E4 JUMPI DUP5 PUSH1 0x40 MLOAD PUSH32 0x57F447CE00000000000000000000000000000000000000000000000000000000 DUP2 MSTORE PUSH1 0x4 ADD PUSH2 0x9DB SWAP2 SWAP1 PUSH2 0xABE JUMP JUMPDEST PUSH1 0x40 MLOAD DUP1 SWAP2 SUB SWAP1 REVERT JUMPDEST DUP1 MLOAD PUSH1 0x20 DUP3 ADD REVERT JUMPDEST PUSH4 0xF23A6E61 PUSH1 0xE0 SHL PUSH28 0xFFFFFFFFFFFFFFFFFFFFFFFFFFFFFFFFFFFFFFFFFFFFFFFFFFFFFFFF NOT AND DUP2 PUSH28 0xFFFFFFFFFFFFFFFFFFFFFFFFFFFFFFFFFFFFFFFFFFFFFFFFFFFFFFFF NOT AND EQ PUSH2 0xA75 JUMPI DUP5 PUSH1 0x40 MLOAD PUSH32 0x57F447CE00000000000000000000000000000000000000000000000000000000 DUP2 MSTORE PUSH1 0x4 ADD PUSH2 0xA6C SWAP2 SWAP1 PUSH2 0xABE JUMP JUMPDEST PUSH1 0x40 MLOAD DUP1 SWAP2 SUB SWAP1 REVERT JUMPDEST POP JUMPDEST POP POP POP POP POP POP JUMP JUMPDEST PUSH0 PUSH20 0xFFFFFFFFFFFFFFFFFFFFFFFFFFFFFFFFFFFFFFFF DUP3 AND SWAP1 POP SWAP2 SWAP1 POP JUMP JUMPDEST PUSH0 PUSH2 0xAA8 DUP3 PUSH2 0xA7F JUMP JUMPDEST SWAP1 POP SWAP2 SWAP1 POP JUMP JUMPDEST PUSH2 0xAB8 DUP2 PUSH2 0xA9E JUMP JUMPDEST DUP3 MSTORE POP POP JUMP JUMPDEST PUSH0 PUSH1 0x20 DUP3 ADD SWAP1 POP PUSH2 0xAD1 PUSH0 DUP4 ADD DUP5 PUSH2 0xAAF JUMP JUMPDEST SWAP3 SWAP2 POP POP JUMP JUMPDEST PUSH0 DUP2 MLOAD SWAP1 POP SWAP2 SWAP1 POP JUMP JUMPDEST PUSH32 0x4E487B7100000000000000000000000000000000000000000000000000000000 PUSH0 MSTORE PUSH1 0x41 PUSH1 0x4 MSTORE PUSH1 0x24 PUSH0 REVERT JUMPDEST PUSH32 0x4E487B7100000000000000000000000000000000000000000000000000000000 PUSH0 MSTORE PUSH1 0x22 PUSH1 0x4 MSTORE PUSH1 0x24 PUSH0 REVERT JUMPDEST PUSH0 PUSH1 0x2 DUP3 DIV SWAP1 POP PUSH1 0x1 DUP3 AND DUP1 PUSH2 0xB52 JUMPI PUSH1 0x7F DUP3 AND SWAP2 POP JUMPDEST PUSH1 0x20 DUP3 LT DUP2 SUB PUSH2 0xB65 JUMPI PUSH2 0xB64 PUSH2 0xB0E JUMP JUMPDEST JUMPDEST POP SWAP2 SWAP1 POP JUMP JUMPDEST PUSH0 DUP2 SWAP1 POP DUP2 PUSH0 MSTORE PUSH1 0x20 PUSH0 KECCAK256 SWAP1 POP SWAP2 SWAP1 POP JUMP JUMPDEST PUSH0 PUSH1 0x20 PUSH1 0x1F DUP4 ADD DIV SWAP1 POP SWAP2 SWAP1 POP JUMP JUMPDEST PUSH0 DUP3 DUP3 SHL SWAP1 POP SWAP3 SWAP2 POP POP JUMP JUMPDEST PUSH0 PUSH1 0x8 DUP4 MUL PUSH2 0xBC7 PUSH32 0xFFFFFFFFFFFFFFFFFFFFFFFFFFFFFFFFFFFFFFFFFFFFFFFFFFFFFFFFFFFFFFFF DUP3 PUSH2 0xB8C JUMP JUMPDEST PUSH2 0xBD1 DUP7 DUP4 PUSH2 0xB8C JUMP JUMPDEST SWAP6 POP DUP1 NOT DUP5 AND SWAP4 POP DUP1 DUP7 AND DUP5 OR SWAP3 POP POP POP SWAP4 SWAP3 POP POP POP JUMP JUMPDEST PUSH0 DUP2 SWAP1 POP SWAP2 SWAP1 POP JUMP JUMPDEST PUSH0 DUP2 SWAP1 POP SWAP2 SWAP1 POP JUMP JUMPDEST PUSH0 PUSH2 0xC15 PUSH2 0xC10 PUSH2 0xC0B DUP5 PUSH2 0xBE9 JUMP JUMPDEST PUSH2 0xBF2 JUMP JUMPDEST PUSH2 0xBE9 JUMP JUMPDEST SWAP1 POP SWAP2 SWAP1 POP JUMP JUMPDEST PUSH0 DUP2 SWAP1 POP SWAP2 SWAP1 POP JUMP JUMPDEST PUSH2 0xC2E DUP4 PUSH2 0xBFB JUMP JUMPDEST PUSH2 0xC42 PUSH2 0xC3A DUP3 PUSH2 0xC1C JUMP JUMPDEST DUP5 DUP5 SLOAD PUSH2 0xB98 JUMP JUMPDEST DUP3 SSTORE POP POP POP POP JUMP JUMPDEST PUSH0 PUSH0 SWAP1 POP SWAP1 JUMP JUMPDEST PUSH2 0xC59 PUSH2 0xC4A JUMP JUMPDEST PUSH2 0xC64 DUP2 DUP5 DUP5 PUSH2 0xC25 JUMP JUMPDEST POP POP POP JUMP JUMPDEST JUMPDEST DUP2 DUP2 LT ISZERO PUSH2 0xC87 JUMPI PUSH2 0xC7C PUSH0 DUP3 PUSH2 0xC51 JUMP JUMPDEST PUSH1 0x1 DUP2 ADD SWAP1 POP PUSH2 0xC6A JUMP JUMPDEST POP POP JUMP JUMPDEST PUSH1 0x1F DUP3 GT ISZERO PUSH2 0xCCC JUMPI PUSH2 0xC9D DUP2 PUSH2 0xB6B JUMP JUMPDEST PUSH2 0xCA6 DUP5 PUSH2 0xB7D JUMP JUMPDEST DUP2 ADD PUSH1 0x20 DUP6 LT ISZERO PUSH2 0xCB5 JUMPI DUP2 SWAP1 POP JUMPDEST PUSH2 0xCC9 PUSH2 0xCC1 DUP6 PUSH2 0xB7D JUMP JUMPDEST DUP4 ADD DUP3 PUSH2 0xC69 JUMP JUMPDEST POP POP JUMPDEST POP POP POP JUMP JUMPDEST PUSH0 DUP3 DUP3 SHR SWAP1 POP SWAP3 SWAP2 POP POP JUMP JUMPDEST PUSH0 PUSH2 0xCEC PUSH0 NOT DUP5 PUSH1 0x8 MUL PUSH2 0xCD1 JUMP JUMPDEST NOT DUP1 DUP4 AND SWAP2 POP POP SWAP3 SWAP2 POP POP JUMP JUMPDEST PUSH0 PUSH2 0xD04 DUP4 DUP4 PUSH2 0xCDD JUMP JUMPDEST SWAP2 POP DUP3 PUSH1 0x2 MUL DUP3 OR SWAP1 POP SWAP3 SWAP2 POP POP JUMP JUMPDEST PUSH2 0xD1D DUP3 PUSH2 0xAD7 JUMP JUMPDEST PUSH8 0xFFFFFFFFFFFFFFFF DUP2 GT ISZERO PUSH2 0xD36 JUMPI PUSH2 0xD35 PUSH2 0xAE1 JUMP JUMPDEST JUMPDEST PUSH2 0xD40 DUP3 SLOAD PUSH2 0xB3B JUMP JUMPDEST PUSH2 0xD4B DUP3 DUP3 DUP6 PUSH2 0xC8B JUMP JUMPDEST PUSH0 PUSH1 0x20 SWAP1 POP PUSH1 0x1F DUP4 GT PUSH1 0x1 DUP2 EQ PUSH2 0xD7C JUMPI PUSH0 DUP5 ISZERO PUSH2 0xD6A JUMPI DUP3 DUP8 ADD MLOAD SWAP1 POP JUMPDEST PUSH2 0xD74 DUP6 DUP3 PUSH2 0xCF9 JUMP JUMPDEST DUP7 SSTORE POP PUSH2 0xDDB JUMP JUMPDEST PUSH1 0x1F NOT DUP5 AND PUSH2 0xD8A DUP7 PUSH2 0xB6B JUMP JUMPDEST PUSH0 JUMPDEST DUP3 DUP2 LT ISZERO PUSH2 0xDB1 JUMPI DUP5 DUP10 ADD MLOAD DUP3 SSTORE PUSH1 0x1 DUP3 ADD SWAP2 POP PUSH1 0x20 DUP6 ADD SWAP5 POP PUSH1 0x20 DUP2 ADD SWAP1 POP PUSH2 0xD8C JUMP JUMPDEST DUP7 DUP4 LT ISZERO PUSH2 0xDCE JUMPI DUP5 DUP10 ADD MLOAD PUSH2 0xDCA PUSH1 0x1F DUP10 AND DUP3 PUSH2 0xCDD JUMP JUMPDEST DUP4 SSTORE POP JUMPDEST PUSH1 0x1 PUSH1 0x2 DUP9 MUL ADD DUP9 SSTORE POP POP POP JUMPDEST POP POP POP POP POP POP JUMP JUMPDEST PUSH2 0xDEC DUP2 PUSH2 0xBE9 JUMP JUMPDEST DUP3 MSTORE POP POP JUMP JUMPDEST PUSH0 PUSH1 0x40 DUP3 ADD SWAP1 POP PUSH2 0xE05 PUSH0 DUP4 ADD DUP6 PUSH2 0xDE3 JUMP JUMPDEST PUSH2 0xE12 PUSH1 0x20 DUP4 ADD DUP5 PUSH2 0xDE3 JUMP JUMPDEST SWAP4 SWAP3 POP POP POP JUMP JUMPDEST PUSH0 PUSH1 0x80 DUP3 ADD SWAP1 POP PUSH2 0xE2C PUSH0 DUP4 ADD DUP8 PUSH2 0xAAF JUMP JUMPDEST PUSH2 0xE39 PUSH1 0x20 DUP4 ADD DUP7 PUSH2 0xDE3 JUMP JUMPDEST PUSH2 0xE46 PUSH1 0x40 DUP4 ADD DUP6 PUSH2 0xDE3 JUMP JUMPDEST PUSH2 0xE53 PUSH1 0x60 DUP4 ADD DUP5 PUSH2 0xDE3 JUMP JUMPDEST SWAP6 SWAP5 POP POP POP POP POP JUMP JUMPDEST PUSH32 0x4E487B7100000000000000000000000000000000000000000000000000000000 PUSH0 MSTORE PUSH1 0x11 PUSH1 0x4 MSTORE PUSH1 0x24 PUSH0 REVERT JUMPDEST PUSH0 PUSH2 0xE93 DUP3 PUSH2 0xBE9 JUMP JUMPDEST SWAP2 POP PUSH2 0xE9E DUP4 PUSH2 0xBE9 JUMP JUMPDEST SWAP3 POP DUP3 DUP3 ADD SWAP1 POP DUP1 DUP3 GT ISZERO PUSH2 0xEB6 JUMPI PUSH2 0xEB5 PUSH2 0xE5C JUMP JUMPDEST JUMPDEST SWAP3 SWAP2 POP POP JUMP JUMPDEST PUSH0 DUP2 MLOAD SWAP1 POP SWAP2 SWAP1 POP JUMP JUMPDEST PUSH0 DUP3 DUP3 MSTORE PUSH1 0x20 DUP3 ADD SWAP1 POP SWAP3 SWAP2 POP POP JUMP JUMPDEST PUSH0 DUP2 SWAP1 POP PUSH1 0x20 DUP3 ADD SWAP1 POP SWAP2 SWAP1 POP JUMP JUMPDEST PUSH2 0xEEE DUP2 PUSH2 0xBE9 JUMP JUMPDEST DUP3 MSTORE POP POP JUMP JUMPDEST PUSH0 PUSH2 0xEFF DUP4 DUP4 PUSH2 0xEE5 JUMP JUMPDEST PUSH1 0x20 DUP4 ADD SWAP1 POP SWAP3 SWAP2 POP POP JUMP JUMPDEST PUSH0 PUSH1 0x20 DUP3 ADD SWAP1 POP SWAP2 SWAP1 POP JUMP JUMPDEST PUSH0 PUSH2 0xF21 DUP3 PUSH2 0xEBC JUMP JUMPDEST PUSH2 0xF2B DUP2 DUP6 PUSH2 0xEC6 JUMP JUMPDEST SWAP4 POP PUSH2 0xF36 DUP4 PUSH2 0xED6 JUMP JUMPDEST DUP1 PUSH0 JUMPDEST DUP4 DUP2 LT ISZERO PUSH2 0xF66 JUMPI DUP2 MLOAD PUSH2 0xF4D DUP9 DUP3 PUSH2 0xEF4 JUMP JUMPDEST SWAP8 POP PUSH2 0xF58 DUP4 PUSH2 0xF0B JUMP JUMPDEST SWAP3 POP POP PUSH1 0x1 DUP2 ADD SWAP1 POP PUSH2 0xF39 JUMP JUMPDEST POP DUP6 SWAP4 POP POP POP POP SWAP3 SWAP2 POP POP JUMP JUMPDEST PUSH0 PUSH1 0x40 DUP3 ADD SWAP1 POP DUP2 DUP2 SUB PUSH0 DUP4 ADD MSTORE PUSH2 0xF8B DUP2 DUP6 PUSH2 0xF17 JUMP JUMPDEST SWAP1 POP DUP2 DUP2 SUB PUSH1 0x20 DUP4 ADD MSTORE PUSH2 0xF9F DUP2 DUP5 PUSH2 0xF17 JUMP JUMPDEST SWAP1 POP SWAP4 SWAP3 POP POP POP JUMP JUMPDEST PUSH0 DUP2 MLOAD SWAP1 POP SWAP2 SWAP1 POP JUMP JUMPDEST PUSH0 DUP3 DUP3 MSTORE PUSH1 0x20 DUP3 ADD SWAP1 POP SWAP3 SWAP2 POP POP JUMP JUMPDEST DUP3 DUP2 DUP4 MCOPY PUSH0 DUP4 DUP4 ADD MSTORE POP POP POP JUMP JUMPDEST PUSH0 PUSH1 0x1F NOT PUSH1 0x1F DUP4 ADD AND SWAP1 POP SWAP2 SWAP1 POP JUMP JUMPDEST PUSH0 PUSH2 0xFEA DUP3 PUSH2 0xFA8 JUMP JUMPDEST PUSH2 0xFF4 DUP2 DUP6 PUSH2 0xFB2 JUMP JUMPDEST SWAP4 POP PUSH2 0x1004 DUP2 DUP6 PUSH1 0x20 DUP7 ADD PUSH2 0xFC2 JUMP JUMPDEST PUSH2 0x100D DUP2 PUSH2 0xFD0 JUMP JUMPDEST DUP5 ADD SWAP2 POP POP SWAP3 SWAP2 POP POP JUMP JUMPDEST PUSH0 PUSH1 0xA0 DUP3 ADD SWAP1 POP PUSH2 0x102B PUSH0 DUP4 ADD DUP9 PUSH2 0xAAF JUMP JUMPDEST PUSH2 0x1038 PUSH1 0x20 DUP4 ADD DUP8 PUSH2 0xAAF JUMP JUMPDEST DUP2 DUP2 SUB PUSH1 0x40 DUP4 ADD MSTORE PUSH2 0x104A DUP2 DUP7 PUSH2 0xF17 JUMP JUMPDEST SWAP1 POP DUP2 DUP2 SUB PUSH1 0x60 DUP4 ADD MSTORE PUSH2 0x105E DUP2 DUP6 PUSH2 0xF17 JUMP JUMPDEST SWAP1 POP DUP2 DUP2 SUB PUSH1 0x80 DUP4 ADD MSTORE PUSH2 0x1072 DUP2 DUP5 PUSH2 0xFE0 JUMP JUMPDEST SWAP1 POP SWAP7 SWAP6 POP POP POP POP POP POP JUMP JUMPDEST PUSH0 PUSH0 REVERT JUMPDEST PUSH0 PUSH32 0xFFFFFFFF00000000000000000000000000000000000000000000000000000000 DUP3 AND SWAP1 POP SWAP2 SWAP1 POP JUMP JUMPDEST PUSH2 0x10B6 DUP2 PUSH2 0x1082 JUMP JUMPDEST DUP2 EQ PUSH2 0x10C0 JUMPI PUSH0 PUSH0 REVERT JUMPDEST POP JUMP JUMPDEST PUSH0 DUP2 MLOAD SWAP1 POP PUSH2 0x10D1 DUP2 PUSH2 0x10AD JUMP JUMPDEST SWAP3 SWAP2 POP POP JUMP JUMPDEST PUSH0 PUSH1 0x20 DUP3 DUP5 SUB SLT ISZERO PUSH2 0x10EC JUMPI PUSH2 0x10EB PUSH2 0x107E JUMP JUMPDEST JUMPDEST PUSH0 PUSH2 0x10F9 DUP5 DUP3 DUP6 ADD PUSH2 0x10C3 JUMP JUMPDEST SWAP2 POP POP SWAP3 SWAP2 POP POP JUMP JUMPDEST PUSH0 PUSH1 0xA0 DUP3 ADD SWAP1 POP PUSH2 0x1115 PUSH0 DUP4 ADD DUP9 PUSH2 0xAAF JUMP JUMPDEST PUSH2 0x1122 PUSH1 0x20 DUP4 ADD DUP8 PUSH2 0xAAF JUMP JUMPDEST PUSH2 0x112F PUSH1 0x40 DUP4 ADD DUP7 PUSH2 0xDE3 JUMP JUMPDEST PUSH2 0x113C PUSH1 0x60 DUP4 ADD DUP6 PUSH2 0xDE3 JUMP JUMPDEST DUP2 DUP2 SUB PUSH1 0x80 DUP4 ADD MSTORE PUSH2 0x114E DUP2 DUP5 PUSH2 0xFE0 JUMP JUMPDEST SWAP1 POP SWAP7 SWAP6 POP POP POP POP POP POP JUMP JUMPDEST PUSH2 0x228B DUP1 PUSH2 0x1167 PUSH0 CODECOPY PUSH0 RETURN INVALID PUSH1 0x80 PUSH1 0x40 MSTORE CALLVALUE DUP1 ISZERO PUSH2 0xF JUMPI PUSH0 PUSH0 REVERT JUMPDEST POP PUSH1 0x4 CALLDATASIZE LT PUSH2 0xE7 JUMPI PUSH0 CALLDATALOAD PUSH1 0xE0 SHR DUP1 PUSH4 0x731133E9 GT PUSH2 0x8A JUMPI DUP1 PUSH4 0xA22CB465 GT PUSH2 0x64 JUMPI DUP1 PUSH4 0xA22CB465 EQ PUSH2 0x247 JUMPI DUP1 PUSH4 0xE985E9C5 EQ PUSH2 0x263 JUMPI DUP1 PUSH4 0xF242432A EQ PUSH2 0x293 JUMPI DUP1 PUSH4 0xF2FDE38B EQ PUSH2 0x2AF JUMPI PUSH2 0xE7 JUMP JUMPDEST DUP1 PUSH4 0x731133E9 EQ PUSH2 0x1EF JUMPI DUP1 PUSH4 0x8AEE38C7 EQ PUSH2 0x20B JUMPI DUP1 PUSH4 0x8DA5CB5B EQ PUSH2 0x229 JUMPI PUSH2 0xE7 JUMP JUMPDEST DUP1 PUSH4 0x2EB2C2D6 GT PUSH2 0xC6 JUMPI DUP1 PUSH4 0x2EB2C2D6 EQ PUSH2 0x17B JUMPI DUP1 PUSH4 0x3E4BEE38 EQ PUSH2 0x197 JUMPI DUP1 PUSH4 0x4E1273F4 EQ PUSH2 0x1B5 JUMPI DUP1 PUSH4 0x715018A6 EQ PUSH2 0x1E5 JUMPI PUSH2 0xE7 JUMP JUMPDEST DUP1 PUSH3 0xFDD58E EQ PUSH2 0xEB JUMPI DUP1 PUSH4 0x1FFC9A7 EQ PUSH2 0x11B JUMPI DUP1 PUSH4 0xE89341C EQ PUSH2 0x14B JUMPI JUMPDEST PUSH0 PUSH0 REVERT JUMPDEST PUSH2 0x105 PUSH1 0x4 DUP1 CALLDATASIZE SUB DUP2 ADD SWAP1 PUSH2 0x100 SWAP2 SWAP1 PUSH2 0x16AE JUMP JUMPDEST PUSH2 0x2CB JUMP JUMPDEST PUSH1 0x40 MLOAD PUSH2 0x112 SWAP2 SWAP1 PUSH2 0x16FB JUMP JUMPDEST PUSH1 0x40 MLOAD DUP1 SWAP2 SUB SWAP1 RETURN JUMPDEST PUSH2 0x135 PUSH1 0x4 DUP1 CALLDATASIZE SUB DUP2 ADD SWAP1 PUSH2 0x130 SWAP2 SWAP1 PUSH2 0x1769 JUMP JUMPDEST PUSH2 0x320 JUMP JUMPDEST PUSH1 0x40 MLOAD PUSH2 0x142 SWAP2 SWAP1 PUSH2 0x17AE JUMP JUMPDEST PUSH1 0x40 MLOAD DUP1 SWAP2 SUB SWAP1 RETURN JUMPDEST PUSH2 0x165 PUSH1 0x4 DUP1 CALLDATASIZE SUB DUP2 ADD SWAP1 PUSH2 0x160 SWAP2 SWAP1 PUSH2 0x17C7 JUMP JUMPDEST PUSH2 0x401 JUMP JUMPDEST PUSH1 0x40 MLOAD PUSH2 0x172 SWAP2 SWAP1 PUSH2 0x1862 JUMP JUMPDEST PUSH1 0x40 MLOAD DUP1 SWAP2 SUB SWAP1 RETURN JUMPDEST PUSH2 0x195 PUSH1 0x4 DUP1 CALLDATASIZE SUB DUP2 ADD SWAP1 PUSH2 0x190 SWAP2 SWAP1 PUSH2 0x1A72 JUMP JUMPDEST PUSH2 0x493 JUMP JUMPDEST STOP JUMPDEST PUSH2 0x19F PUSH2 0x4B8 JUMP JUMPDEST PUSH1 0x40 MLOAD PUSH2 0x1AC SWAP2 SWAP1 PUSH2 0x16FB JUMP JUMPDEST PUSH1 0x40 MLOAD DUP1 SWAP2 SUB SWAP1 RETURN JUMPDEST PUSH2 0x1CF PUSH1 0x4 DUP1 CALLDATASIZE SUB DUP2 ADD SWAP1 PUSH2 0x1CA SWAP2 SWAP1 PUSH2 0x1BFD JUMP JUMPDEST PUSH2 0x4BD JUMP JUMPDEST PUSH1 0x40 MLOAD PUSH2 0x1DC SWAP2 SWAP1 PUSH2 0x1D2A JUMP JUMPDEST PUSH1 0x40 MLOAD DUP1 SWAP2 SUB SWAP1 RETURN JUMPDEST PUSH2 0x1ED PUSH2 0x5C7 JUMP JUMPDEST STOP JUMPDEST PUSH2 0x209 PUSH1 0x4 DUP1 CALLDATASIZE SUB DUP2 ADD SWAP1 PUSH2 0x204 SWAP2 SWAP1 PUSH2 0x1D4A JUMP JUMPDEST PUSH2 0x5DA JUMP JUMPDEST STOP JUMPDEST PUSH2 0x213 PUSH2 0x5F4 JUMP JUMPDEST PUSH1 0x40 MLOAD PUSH2 0x220 SWAP2 SWAP1 PUSH2 0x16FB JUMP JUMPDEST PUSH1 0x40 MLOAD DUP1 SWAP2 SUB SWAP1 RETURN JUMPDEST PUSH2 0x231 PUSH2 0x5F9 JUMP JUMPDEST PUSH1 0x40 MLOAD PUSH2 0x23E SWAP2 SWAP1 PUSH2 0x1DD9 JUMP JUMPDEST PUSH1 0x40 MLOAD DUP1 SWAP2 SUB SWAP1 RETURN JUMPDEST PUSH2 0x261 PUSH1 0x4 DUP1 CALLDATASIZE SUB DUP2 ADD SWAP1 PUSH2 0x25C SWAP2 SWAP1 PUSH2 0x1E1C JUMP JUMPDEST PUSH2 0x621 JUMP JUMPDEST STOP JUMPDEST PUSH2 0x27D PUSH1 0x4 DUP1 CALLDATASIZE SUB DUP2 ADD SWAP1 PUSH2 0x278 SWAP2 SWAP1 PUSH2 0x1E5A JUMP JUMPDEST PUSH2 0x637 JUMP JUMPDEST PUSH1 0x40 MLOAD PUSH2 0x28A SWAP2 SWAP1 PUSH2 0x17AE JUMP JUMPDEST PUSH1 0x40 MLOAD DUP1 SWAP2 SUB SWAP1 RETURN JUMPDEST PUSH2 0x2AD PUSH1 0x4 DUP1 CALLDATASIZE SUB DUP2 ADD SWAP1 PUSH2 0x2A8 SWAP2 SWAP1 PUSH2 0x1E98 JUMP JUMPDEST PUSH2 0x6C5 JUMP JUMPDEST STOP JUMPDEST PUSH2 0x2C9 PUSH1 0x4 DUP1 CALLDATASIZE SUB DUP2 ADD SWAP1 PUSH2 0x2C4 SWAP2 SWAP1 PUSH2 0x1F2B JUMP JUMPDEST PUSH2 0x6EA JUMP JUMPDEST STOP JUMPDEST PUSH0 PUSH0 PUSH0 DUP4 DUP2 MSTORE PUSH1 0x20 ADD SWAP1 DUP2 MSTORE PUSH1 0x20 ADD PUSH0 KECCAK256 PUSH0 DUP5 PUSH20 0xFFFFFFFFFFFFFFFFFFFFFFFFFFFFFFFFFFFFFFFF AND PUSH20 0xFFFFFFFFFFFFFFFFFFFFFFFFFFFFFFFFFFFFFFFF AND DUP2 MSTORE PUSH1 0x20 ADD SWAP1 DUP2 MSTORE PUSH1 0x20 ADD PUSH0 KECCAK256 SLOAD SWAP1 POP SWAP3 SWAP2 POP POP JUMP JUMPDEST PUSH0 PUSH32 0xD9B67A2600000000000000000000000000000000000000000000000000000000 PUSH28 0xFFFFFFFFFFFFFFFFFFFFFFFFFFFFFFFFFFFFFFFFFFFFFFFFFFFFFFFF NOT AND DUP3 PUSH28 0xFFFFFFFFFFFFFFFFFFFFFFFFFFFFFFFFFFFFFFFFFFFFFFFFFFFFFFFF NOT AND EQ DUP1 PUSH2 0x3EA JUMPI POP PUSH32 0xE89341C00000000000000000000000000000000000000000000000000000000 PUSH28 0xFFFFFFFFFFFFFFFFFFFFFFFFFFFFFFFFFFFFFFFFFFFFFFFFFFFFFFFF NOT AND DUP3 PUSH28 0xFFFFFFFFFFFFFFFFFFFFFFFFFFFFFFFFFFFFFFFFFFFFFFFFFFFFFFFF NOT AND EQ JUMPDEST DUP1 PUSH2 0x3FA JUMPI POP PUSH2 0x3F9 DUP3 PUSH2 0x76E JUMP JUMPDEST JUMPDEST SWAP1 POP SWAP2 SWAP1 POP JUMP JUMPDEST PUSH1 0x60 PUSH1 0x2 DUP1 SLOAD PUSH2 0x410 SWAP1 PUSH2 0x1F83 JUMP JUMPDEST DUP1 PUSH1 0x1F ADD PUSH1 0x20 DUP1 SWAP2 DIV MUL PUSH1 0x20 ADD PUSH1 0x40 MLOAD SWAP1 DUP2 ADD PUSH1 0x40 MSTORE DUP1 SWAP3 SWAP2 SWAP1 DUP2 DUP2 MSTORE PUSH1 0x20 ADD DUP3 DUP1 SLOAD PUSH2 0x43C SWAP1 PUSH2 0x1F83 JUMP JUMPDEST DUP1 ISZERO PUSH2 0x487 JUMPI DUP1 PUSH1 0x1F LT PUSH2 0x45E JUMPI PUSH2 0x100 DUP1 DUP4 SLOAD DIV MUL DUP4 MSTORE SWAP2 PUSH1 0x20 ADD SWAP2 PUSH2 0x487 JUMP JUMPDEST DUP3 ADD SWAP2 SWAP1 PUSH0 MSTORE PUSH1 0x20 PUSH0 KECCAK256 SWAP1 JUMPDEST DUP2 SLOAD DUP2 MSTORE SWAP1 PUSH1 0x1 ADD SWAP1 PUSH1 0x20 ADD DUP1 DUP4 GT PUSH2 0x46A JUMPI DUP3 SWAP1 SUB PUSH1 0x1F AND DUP3 ADD SWAP2 JUMPDEST POP POP POP POP POP SWAP1 POP SWAP2 SWAP1 POP JUMP JUMPDEST PUSH2 0x4A4 PUSH2 0x49E PUSH2 0x7D7 JUMP JUMPDEST DUP7 PUSH2 0x7DE JUMP JUMPDEST PUSH2 0x4B1 DUP6 DUP6 DUP6 DUP6 DUP6 PUSH2 0x869 JUMP JUMPDEST POP POP POP POP POP JUMP JUMPDEST PUSH1 0x1 DUP2 JUMP JUMPDEST PUSH1 0x60 DUP2 MLOAD DUP4 MLOAD EQ PUSH2 0x509 JUMPI DUP2 MLOAD DUP4 MLOAD PUSH1 0x40 MLOAD PUSH32 0x5B05999100000000000000000000000000000000000000000000000000000000 DUP2 MSTORE PUSH1 0x4 ADD PUSH2 0x500 SWAP3 SWAP2 SWAP1 PUSH2 0x1FB3 JUMP JUMPDEST PUSH1 0x40 MLOAD DUP1 SWAP2 SUB SWAP1 REVERT JUMPDEST PUSH0 DUP4 MLOAD PUSH8 0xFFFFFFFFFFFFFFFF DUP2 GT ISZERO PUSH2 0x525 JUMPI PUSH2 0x524 PUSH2 0x1886 JUMP JUMPDEST JUMPDEST PUSH1 0x40 MLOAD SWAP1 DUP1 DUP3 MSTORE DUP1 PUSH1 0x20 MUL PUSH1 0x20 ADD DUP3 ADD PUSH1 0x40 MSTORE DUP1 ISZERO PUSH2 0x553 JUMPI DUP2 PUSH1 0x20 ADD PUSH1 0x20 DUP3 MUL DUP1 CALLDATASIZE DUP4 CALLDATACOPY DUP1 DUP3 ADD SWAP2 POP POP SWAP1 POP JUMPDEST POP SWAP1 POP PUSH0 PUSH0 SWAP1 POP JUMPDEST DUP5 MLOAD DUP2 LT ISZERO PUSH2 0x5BC JUMPI PUSH2 0x592 PUSH2 0x57A DUP3 DUP8 PUSH2 0x95F SWAP1 SWAP2 SWAP1 PUSH4 0xFFFFFFFF AND JUMP JUMPDEST PUSH2 0x58D DUP4 DUP8 PUSH2 0x972 SWAP1 SWAP2 SWAP1 PUSH4 0xFFFFFFFF AND JUMP JUMPDEST PUSH2 0x2CB JUMP JUMPDEST DUP3 DUP3 DUP2 MLOAD DUP2 LT PUSH2 0x5A5 JUMPI PUSH2 0x5A4 PUSH2 0x1FDA JUMP JUMPDEST JUMPDEST PUSH1 0x20 MUL PUSH1 0x20 ADD ADD DUP2 DUP2 MSTORE POP POP DUP1 PUSH1 0x1 ADD SWAP1 POP PUSH2 0x55B JUMP JUMPDEST POP DUP1 SWAP2 POP POP SWAP3 SWAP2 POP POP JUMP JUMPDEST PUSH2 0x5CF PUSH2 0x985 JUMP JUMPDEST PUSH2 0x5D8 PUSH0 PUSH2 0xA0C JUMP JUMPDEST JUMP JUMPDEST PUSH2 0x5E2 PUSH2 0x985 JUMP JUMPDEST PUSH2 0x5EE DUP5 DUP5 DUP5 DUP5 PUSH2 0xACF JUMP JUMPDEST POP POP POP POP JUMP JUMPDEST PUSH1 0x2 DUP2 JUMP JUMPDEST PUSH0 PUSH1 0x3 PUSH0 SWAP1 SLOAD SWAP1 PUSH2 0x100 EXP SWAP1 DIV PUSH20 0xFFFFFFFFFFFFFFFFFFFFFFFFFFFFFFFFFFFFFFFF AND SWAP1 POP SWAP1 JUMP JUMPDEST PUSH2 0x633 PUSH2 0x62C PUSH2 0x7D7 JUMP JUMPDEST DUP4 DUP4 PUSH2 0xB65 JUMP JUMPDEST POP POP JUMP JUMPDEST PUSH0 PUSH1 0x1 PUSH0 DUP5 PUSH20 0xFFFFFFFFFFFFFFFFFFFFFFFFFFFFFFFFFFFFFFFF AND PUSH20 0xFFFFFFFFFFFFFFFFFFFFFFFFFFFFFFFFFFFFFFFF AND DUP2 MSTORE PUSH1 0x20 ADD SWAP1 DUP2 MSTORE PUSH1 0x20 ADD PUSH0 KECCAK256 PUSH0 DUP4 PUSH20 0xFFFFFFFFFFFFFFFFFFFFFFFFFFFFFFFFFFFFFFFF AND PUSH20 0xFFFFFFFFFFFFFFFFFFFFFFFFFFFFFFFFFFFFFFFF AND DUP2 MSTORE PUSH1 0x20 ADD SWAP1 DUP2 MSTORE PUSH1 0x20 ADD PUSH0 KECCAK256 PUSH0 SWAP1 SLOAD SWAP1 PUSH2 0x100 EXP SWAP1 DIV PUSH1 0xFF AND SWAP1 POP SWAP3 SWAP2 POP POP JUMP JUMPDEST PUSH2 0x6D6 PUSH2 0x6D0 PUSH2 0x7D7 JUMP JUMPDEST DUP7 PUSH2 0x7DE JUMP JUMPDEST PUSH2 0x6E3 DUP6 DUP6 DUP6 DUP6 DUP6 PUSH2 0xD3E JUMP JUMPDEST POP POP POP POP POP JUMP JUMPDEST PUSH2 0x6F2 PUSH2 0x985 JUMP JUMPDEST PUSH0 PUSH20 0xFFFFFFFFFFFFFFFFFFFFFFFFFFFFFFFFFFFFFFFF AND DUP2 PUSH20 0xFFFFFFFFFFFFFFFFFFFFFFFFFFFFFFFFFFFFFFFF AND SUB PUSH2 0x762 JUMPI PUSH0 PUSH1 0x40 MLOAD PUSH32 0x1E4FBDF700000000000000000000000000000000000000000000000000000000 DUP2 MSTORE PUSH1 0x4 ADD PUSH2 0x759 SWAP2 SWAP1 PUSH2 0x1DD9 JUMP JUMPDEST PUSH1 0x40 MLOAD DUP1 SWAP2 SUB SWAP1 REVERT JUMPDEST PUSH2 0x76B DUP2 PUSH2 0xA0C JUMP JUMPDEST POP JUMP JUMPDEST PUSH0 PUSH32 0x1FFC9A700000000000000000000000000000000000000000000000000000000 PUSH28 0xFFFFFFFFFFFFFFFFFFFFFFFFFFFFFFFFFFFFFFFFFFFFFFFFFFFFFFFF NOT AND DUP3 PUSH28 0xFFFFFFFFFFFFFFFFFFFFFFFFFFFFFFFFFFFFFFFFFFFFFFFFFFFFFFFF NOT AND EQ SWAP1 POP SWAP2 SWAP1 POP JUMP JUMPDEST PUSH0 CALLER SWAP1 POP SWAP1 JUMP JUMPDEST DUP2 PUSH20 0xFFFFFFFFFFFFFFFFFFFFFFFFFFFFFFFFFFFFFFFF AND DUP2 PUSH20 0xFFFFFFFFFFFFFFFFFFFFFFFFFFFFFFFFFFFFFFFF AND EQ ISZERO DUP1 ISZERO PUSH2 0x821 JUMPI POP PUSH2 0x81F DUP2 DUP4 PUSH2 0x637 JUMP JUMPDEST ISZERO JUMPDEST ISZERO PUSH2 0x865 JUMPI DUP2 DUP2 PUSH1 0x40 MLOAD PUSH32 0xE237D92200000000000000000000000000000000000000000000000000000000 DUP2 MSTORE PUSH1 0x4 ADD PUSH2 0x85C SWAP3 SWAP2 SWAP1 PUSH2 0x2007 JUMP JUMPDEST PUSH1 0x40 MLOAD DUP1 SWAP2 SUB SWAP1 REVERT JUMPDEST POP POP JUMP JUMPDEST PUSH0 PUSH20 0xFFFFFFFFFFFFFFFFFFFFFFFFFFFFFFFFFFFFFFFF AND DUP5 PUSH20 0xFFFFFFFFFFFFFFFFFFFFFFFFFFFFFFFFFFFFFFFF AND SUB PUSH2 0x8D9 JUMPI PUSH0 PUSH1 0x40 MLOAD PUSH32 0x57F447CE00000000000000000000000000000000000000000000000000000000 DUP2 MSTORE PUSH1 0x4 ADD PUSH2 0x8D0 SWAP2 SWAP1 PUSH2 0x1DD9 JUMP JUMPDEST PUSH1 0x40 MLOAD DUP1 SWAP2 SUB SWAP1 REVERT JUMPDEST PUSH0 PUSH20 0xFFFFFFFFFFFFFFFFFFFFFFFFFFFFFFFFFFFFFFFF AND DUP6 PUSH20 0xFFFFFFFFFFFFFFFFFFFFFFFFFFFFFFFFFFFFFFFF AND SUB PUSH2 0x949 JUMPI PUSH0 PUSH1 0x40 MLOAD PUSH32 0x1A8351400000000000000000000000000000000000000000000000000000000 DUP2 MSTORE PUSH1 0x4 ADD PUSH2 0x940 SWAP2 SWAP1 PUSH2 0x1DD9 JUMP JUMPDEST PUSH1 0x40 MLOAD DUP1 SWAP2 SUB SWAP1 REVERT JUMPDEST PUSH2 0x958 DUP6 DUP6 DUP6 DUP6 DUP6 PUSH1 0x1 PUSH2 0xE45 JUMP JUMPDEST POP POP POP POP POP JUMP JUMPDEST PUSH0 PUSH1 0x20 DUP3 MUL PUSH1 0x20 DUP5 ADD ADD MLOAD SWAP1 POP SWAP3 SWAP2 POP POP JUMP JUMPDEST PUSH0 PUSH1 0x20 DUP3 MUL PUSH1 0x20 DUP5 ADD ADD MLOAD SWAP1 POP SWAP3 SWAP2 POP POP JUMP JUMPDEST PUSH2 0x98D PUSH2 0x7D7 JUMP JUMPDEST PUSH20 0xFFFFFFFFFFFFFFFFFFFFFFFFFFFFFFFFFFFFFFFF AND PUSH2 0x9AB PUSH2 0x5F9 JUMP JUMPDEST PUSH20 0xFFFFFFFFFFFFFFFFFFFFFFFFFFFFFFFFFFFFFFFF AND EQ PUSH2 0xA0A JUMPI PUSH2 0x9CE PUSH2 0x7D7 JUMP JUMPDEST PUSH1 0x40 MLOAD PUSH32 0x118CDAA700000000000000000000000000000000000000000000000000000000 DUP2 MSTORE PUSH1 0x4 ADD PUSH2 0xA01 SWAP2 SWAP1 PUSH2 0x1DD9 JUMP JUMPDEST PUSH1 0x40 MLOAD DUP1 SWAP2 SUB SWAP1 REVERT JUMPDEST JUMP JUMPDEST PUSH0 PUSH1 0x3 PUSH0 SWAP1 SLOAD SWAP1 PUSH2 0x100 EXP SWAP1 DIV PUSH20 0xFFFFFFFFFFFFFFFFFFFFFFFFFFFFFFFFFFFFFFFF AND SWAP1 POP DUP2 PUSH1 0x3 PUSH0 PUSH2 0x100 EXP DUP2 SLOAD DUP2 PUSH20 0xFFFFFFFFFFFFFFFFFFFFFFFFFFFFFFFFFFFFFFFF MUL NOT AND SWAP1 DUP4 PUSH20 0xFFFFFFFFFFFFFFFFFFFFFFFFFFFFFFFFFFFFFFFF AND MUL OR SWAP1 SSTORE POP DUP2 PUSH20 0xFFFFFFFFFFFFFFFFFFFFFFFFFFFFFFFFFFFFFFFF AND DUP2 PUSH20 0xFFFFFFFFFFFFFFFFFFFFFFFFFFFFFFFFFFFFFFFF AND PUSH32 0x8BE0079C531659141344CD1FD0A4F28419497F9722A3DAAFE3B4186F6B6457E0 PUSH1 0x40 MLOAD PUSH1 0x40 MLOAD DUP1 SWAP2 SUB SWAP1 LOG3 POP POP JUMP JUMPDEST PUSH0 PUSH20 0xFFFFFFFFFFFFFFFFFFFFFFFFFFFFFFFFFFFFFFFF AND DUP5 PUSH20 0xFFFFFFFFFFFFFFFFFFFFFFFFFFFFFFFFFFFFFFFF AND SUB PUSH2 0xB3F JUMPI PUSH0 PUSH1 0x40 MLOAD PUSH32 0x57F447CE00000000000000000000000000000000000000000000000000000000 DUP2 MSTORE PUSH1 0x4 ADD PUSH2 0xB36 SWAP2 SWAP1 PUSH2 0x1DD9 JUMP JUMPDEST PUSH1 0x40 MLOAD DUP1 SWAP2 SUB SWAP1 REVERT JUMPDEST PUSH0 PUSH0 PUSH2 0xB4B DUP6 DUP6 PUSH2 0xEEF JUMP JUMPDEST SWAP2 POP SWAP2 POP PUSH2 0xB5D PUSH0 DUP8 DUP5 DUP5 DUP8 PUSH0 PUSH2 0xE45 JUMP JUMPDEST POP POP POP POP POP POP JUMP JUMPDEST PUSH0 PUSH20 0xFFFFFFFFFFFFFFFFFFFFFFFFFFFFFFFFFFFFFFFF AND DUP4 PUSH20 0xFFFFFFFFFFFFFFFFFFFFFFFFFFFFFFFFFFFFFFFF AND SUB PUSH2 0xBD5 JUMPI PUSH0 PUSH1 0x40 MLOAD PUSH32 0x3E31884E00000000000000000000000000000000000000000000000000000000 DUP2 MSTORE PUSH1 0x4 ADD PUSH2 0xBCC SWAP2 SWAP1 PUSH2 0x1DD9 JUMP JUMPDEST PUSH1 0x40 MLOAD DUP1 SWAP2 SUB SWAP1 REVERT JUMPDEST PUSH0 PUSH20 0xFFFFFFFFFFFFFFFFFFFFFFFFFFFFFFFFFFFFFFFF AND DUP3 PUSH20 0xFFFFFFFFFFFFFFFFFFFFFFFFFFFFFFFFFFFFFFFF AND SUB PUSH2 0xC45 JUMPI PUSH0 PUSH1 0x40 MLOAD PUSH32 0xCED3E10000000000000000000000000000000000000000000000000000000000 DUP2 MSTORE PUSH1 0x4 ADD PUSH2 0xC3C SWAP2 SWAP1 PUSH2 0x1DD9 JUMP JUMPDEST PUSH1 0x40 MLOAD DUP1 SWAP2 SUB SWAP1 REVERT JUMPDEST DUP1 PUSH1 0x1 PUSH0 DUP6 PUSH20 0xFFFFFFFFFFFFFFFFFFFFFFFFFFFFFFFFFFFFFFFF AND PUSH20 0xFFFFFFFFFFFFFFFFFFFFFFFFFFFFFFFFFFFFFFFF AND DUP2 MSTORE PUSH1 0x20 ADD SWAP1 DUP2 MSTORE PUSH1 0x20 ADD PUSH0 KECCAK256 PUSH0 DUP5 PUSH20 0xFFFFFFFFFFFFFFFFFFFFFFFFFFFFFFFFFFFFFFFF AND PUSH20 0xFFFFFFFFFFFFFFFFFFFFFFFFFFFFFFFFFFFFFFFF AND DUP2 MSTORE PUSH1 0x20 ADD SWAP1 DUP2 MSTORE PUSH1 0x20 ADD PUSH0 KECCAK256 PUSH0 PUSH2 0x100 EXP DUP2 SLOAD DUP2 PUSH1 0xFF MUL NOT AND SWAP1 DUP4 ISZERO ISZERO MUL OR SWAP1 SSTORE POP DUP2 PUSH20 0xFFFFFFFFFFFFFFFFFFFFFFFFFFFFFFFFFFFFFFFF AND DUP4 PUSH20 0xFFFFFFFFFFFFFFFFFFFFFFFFFFFFFFFFFFFFFFFF AND PUSH32 0x17307EAB39AB6107E8899845AD3D59BD9653F200F220920489CA2B5937696C31 DUP4 PUSH1 0x40 MLOAD PUSH2 0xD31 SWAP2 SWAP1 PUSH2 0x17AE JUMP JUMPDEST PUSH1 0x40 MLOAD DUP1 SWAP2 SUB SWAP1 LOG3 POP POP POP JUMP JUMPDEST PUSH0 PUSH20 0xFFFFFFFFFFFFFFFFFFFFFFFFFFFFFFFFFFFFFFFF AND DUP5 PUSH20 0xFFFFFFFFFFFFFFFFFFFFFFFFFFFFFFFFFFFFFFFF AND SUB PUSH2 0xDAE JUMPI PUSH0 PUSH1 0x40 MLOAD PUSH32 0x57F447CE00000000000000000000000000000000000000000000000000000000 DUP2 MSTORE PUSH1 0x4 ADD PUSH2 0xDA5 SWAP2 SWAP1 PUSH2 0x1DD9 JUMP JUMPDEST PUSH1 0x40 MLOAD DUP1 SWAP2 SUB SWAP1 REVERT JUMPDEST PUSH0 PUSH20 0xFFFFFFFFFFFFFFFFFFFFFFFFFFFFFFFFFFFFFFFF AND DUP6 PUSH20 0xFFFFFFFFFFFFFFFFFFFFFFFFFFFFFFFFFFFFFFFF AND SUB PUSH2 0xE1E JUMPI PUSH0 PUSH1 0x40 MLOAD PUSH32 0x1A8351400000000000000000000000000000000000000000000000000000000 DUP2 MSTORE PUSH1 0x4 ADD PUSH2 0xE15 SWAP2 SWAP1 PUSH2 0x1DD9 JUMP JUMPDEST PUSH1 0x40 MLOAD DUP1 SWAP2 SUB SWAP1 REVERT JUMPDEST PUSH0 PUSH0 PUSH2 0xE2A DUP6 DUP6 PUSH2 0xEEF JUMP JUMPDEST SWAP2 POP SWAP2 POP PUSH2 0xE3C DUP8 DUP8 DUP5 DUP5 DUP8 PUSH0 PUSH2 0xE45 JUMP JUMPDEST POP POP POP POP POP POP POP JUMP JUMPDEST PUSH2 0xE51 DUP7 DUP7 DUP7 DUP7 PUSH2 0xF1F JUMP JUMPDEST PUSH0 PUSH20 0xFFFFFFFFFFFFFFFFFFFFFFFFFFFFFFFFFFFFFFFF AND DUP6 PUSH20 0xFFFFFFFFFFFFFFFFFFFFFFFFFFFFFFFFFFFFFFFF AND EQ PUSH2 0xEE7 JUMPI PUSH0 PUSH2 0xE8D PUSH2 0x7D7 JUMP JUMPDEST SWAP1 POP DUP2 ISZERO PUSH2 0xEA8 JUMPI PUSH2 0xEA3 DUP2 DUP9 DUP9 DUP9 DUP9 DUP9 PUSH2 0x12B2 JUMP JUMPDEST PUSH2 0xEE5 JUMP JUMPDEST PUSH0 PUSH2 0xEBC PUSH0 DUP8 PUSH2 0x972 SWAP1 SWAP2 SWAP1 PUSH4 0xFFFFFFFF AND JUMP JUMPDEST SWAP1 POP PUSH0 PUSH2 0xED2 PUSH0 DUP8 PUSH2 0x972 SWAP1 SWAP2 SWAP1 PUSH4 0xFFFFFFFF AND JUMP JUMPDEST SWAP1 POP PUSH2 0xEE2 DUP4 DUP11 DUP11 DUP6 DUP6 DUP11 PUSH2 0x1461 JUMP JUMPDEST POP POP JUMPDEST POP JUMPDEST POP POP POP POP POP POP JUMP JUMPDEST PUSH1 0x60 DUP1 PUSH1 0x40 MLOAD SWAP2 POP PUSH1 0x1 DUP3 MSTORE DUP4 PUSH1 0x20 DUP4 ADD MSTORE PUSH1 0x40 DUP3 ADD SWAP1 POP PUSH1 0x1 DUP2 MSTORE DUP3 PUSH1 0x20 DUP3 ADD MSTORE PUSH1 0x40 DUP2 ADD PUSH1 0x40 MSTORE SWAP3 POP SWAP3 SWAP1 POP JUMP JUMPDEST DUP1 MLOAD DUP3 MLOAD EQ PUSH2 0xF69 JUMPI DUP2 MLOAD DUP2 MLOAD PUSH1 0x40 MLOAD PUSH32 0x5B05999100000000000000000000000000000000000000000000000000000000 DUP2 MSTORE PUSH1 0x4 ADD PUSH2 0xF60 SWAP3 SWAP2 SWAP1 PUSH2 0x1FB3 JUMP JUMPDEST PUSH1 0x40 MLOAD DUP1 SWAP2 SUB SWAP1 REVERT JUMPDEST PUSH0 PUSH2 0xF72 PUSH2 0x7D7 JUMP JUMPDEST SWAP1 POP PUSH0 PUSH0 SWAP1 POP JUMPDEST DUP4 MLOAD DUP2 LT ISZERO PUSH2 0x1171 JUMPI PUSH0 PUSH2 0xF96 DUP3 DUP7 PUSH2 0x972 SWAP1 SWAP2 SWAP1 PUSH4 0xFFFFFFFF AND JUMP JUMPDEST SWAP1 POP PUSH0 PUSH2 0xFAC DUP4 DUP7 PUSH2 0x972 SWAP1 SWAP2 SWAP1 PUSH4 0xFFFFFFFF AND JUMP JUMPDEST SWAP1 POP PUSH0 PUSH20 0xFFFFFFFFFFFFFFFFFFFFFFFFFFFFFFFFFFFFFFFF AND DUP9 PUSH20 0xFFFFFFFFFFFFFFFFFFFFFFFFFFFFFFFFFFFFFFFF AND EQ PUSH2 0x10CF JUMPI PUSH0 PUSH0 PUSH0 DUP5 DUP2 MSTORE PUSH1 0x20 ADD SWAP1 DUP2 MSTORE PUSH1 0x20 ADD PUSH0 KECCAK256 PUSH0 DUP11 PUSH20 0xFFFFFFFFFFFFFFFFFFFFFFFFFFFFFFFFFFFFFFFF AND PUSH20 0xFFFFFFFFFFFFFFFFFFFFFFFFFFFFFFFFFFFFFFFF AND DUP2 MSTORE PUSH1 0x20 ADD SWAP1 DUP2 MSTORE PUSH1 0x20 ADD PUSH0 KECCAK256 SLOAD SWAP1 POP DUP2 DUP2 LT ISZERO PUSH2 0x107B JUMPI DUP9 DUP2 DUP4 DUP6 PUSH1 0x40 MLOAD PUSH32 0x3DEE4C500000000000000000000000000000000000000000000000000000000 DUP2 MSTORE PUSH1 0x4 ADD PUSH2 0x1072 SWAP5 SWAP4 SWAP3 SWAP2 SWAP1 PUSH2 0x202E JUMP JUMPDEST PUSH1 0x40 MLOAD DUP1 SWAP2 SUB SWAP1 REVERT JUMPDEST DUP2 DUP2 SUB PUSH0 PUSH0 DUP6 DUP2 MSTORE PUSH1 0x20 ADD SWAP1 DUP2 MSTORE PUSH1 0x20 ADD PUSH0 KECCAK256 PUSH0 DUP12 PUSH20 0xFFFFFFFFFFFFFFFFFFFFFFFFFFFFFFFFFFFFFFFF AND PUSH20 0xFFFFFFFFFFFFFFFFFFFFFFFFFFFFFFFFFFFFFFFF AND DUP2 MSTORE PUSH1 0x20 ADD SWAP1 DUP2 MSTORE PUSH1 0x20 ADD PUSH0 KECCAK256 DUP2 SWAP1 SSTORE POP POP JUMPDEST PUSH0 PUSH20 0xFFFFFFFFFFFFFFFFFFFFFFFFFFFFFFFFFFFFFFFF AND DUP8 PUSH20 0xFFFFFFFFFFFFFFFFFFFFFFFFFFFFFFFFFFFFFFFF AND EQ PUSH2 0x1164 JUMPI DUP1 PUSH0 PUSH0 DUP5 DUP2 MSTORE PUSH1 0x20 ADD SWAP1 DUP2 MSTORE PUSH1 0x20 ADD PUSH0 KECCAK256 PUSH0 DUP10 PUSH20 0xFFFFFFFFFFFFFFFFFFFFFFFFFFFFFFFFFFFFFFFF AND PUSH20 0xFFFFFFFFFFFFFFFFFFFFFFFFFFFFFFFFFFFFFFFF AND DUP2 MSTORE PUSH1 0x20 ADD SWAP1 DUP2 MSTORE PUSH1 0x20 ADD PUSH0 KECCAK256 PUSH0 DUP3 DUP3 SLOAD PUSH2 0x115C SWAP2 SWAP1 PUSH2 0x209E JUMP JUMPDEST SWAP3 POP POP DUP2 SWAP1 SSTORE POP JUMPDEST POP POP DUP1 PUSH1 0x1 ADD SWAP1 POP PUSH2 0xF79 JUMP JUMPDEST POP PUSH1 0x1 DUP4 MLOAD SUB PUSH2 0x122C JUMPI PUSH0 PUSH2 0x118F PUSH0 DUP6 PUSH2 0x972 SWAP1 SWAP2 SWAP1 PUSH4 0xFFFFFFFF AND JUMP JUMPDEST SWAP1 POP PUSH0 PUSH2 0x11A5 PUSH0 DUP6 PUSH2 0x972 SWAP1 SWAP2 SWAP1 PUSH4 0xFFFFFFFF AND JUMP JUMPDEST SWAP1 POP DUP6 PUSH20 0xFFFFFFFFFFFFFFFFFFFFFFFFFFFFFFFFFFFFFFFF AND DUP8 PUSH20 0xFFFFFFFFFFFFFFFFFFFFFFFFFFFFFFFFFFFFFFFF AND DUP5 PUSH20 0xFFFFFFFFFFFFFFFFFFFFFFFFFFFFFFFFFFFFFFFF AND PUSH32 0xC3D58168C5AE7397731D063D5BBF3D657854427343F4C083240F7AACAA2D0F62 DUP6 DUP6 PUSH1 0x40 MLOAD PUSH2 0x121D SWAP3 SWAP2 SWAP1 PUSH2 0x1FB3 JUMP JUMPDEST PUSH1 0x40 MLOAD DUP1 SWAP2 SUB SWAP1 LOG4 POP POP PUSH2 0x12AB JUMP JUMPDEST DUP4 PUSH20 0xFFFFFFFFFFFFFFFFFFFFFFFFFFFFFFFFFFFFFFFF AND DUP6 PUSH20 0xFFFFFFFFFFFFFFFFFFFFFFFFFFFFFFFFFFFFFFFF AND DUP3 PUSH20 0xFFFFFFFFFFFFFFFFFFFFFFFFFFFFFFFFFFFFFFFF AND PUSH32 0x4A39DC06D4C0DBC64B70AF90FD698A233A518AA5D07E595D983B8C0526C8F7FB DUP7 DUP7 PUSH1 0x40 MLOAD PUSH2 0x12A2 SWAP3 SWAP2 SWAP1 PUSH2 0x20D1 JUMP JUMPDEST PUSH1 0x40 MLOAD DUP1 SWAP2 SUB SWAP1 LOG4 JUMPDEST POP POP POP POP POP JUMP JUMPDEST PUSH0 DUP5 PUSH20 0xFFFFFFFFFFFFFFFFFFFFFFFFFFFFFFFFFFFFFFFF AND EXTCODESIZE GT ISZERO PUSH2 0x1459 JUMPI DUP4 PUSH20 0xFFFFFFFFFFFFFFFFFFFFFFFFFFFFFFFFFFFFFFFF AND PUSH4 0xBC197C81 DUP8 DUP8 DUP7 DUP7 DUP7 PUSH1 0x40 MLOAD DUP7 PUSH4 0xFFFFFFFF AND PUSH1 0xE0 SHL DUP2 MSTORE PUSH1 0x4 ADD PUSH2 0x1312 SWAP6 SWAP5 SWAP4 SWAP3 SWAP2 SWAP1 PUSH2 0x2158 JUMP JUMPDEST PUSH1 0x20 PUSH1 0x40 MLOAD DUP1 DUP4 SUB DUP2 PUSH0 DUP8 GAS CALL SWAP3 POP POP POP DUP1 ISZERO PUSH2 0x134D JUMPI POP PUSH1 0x40 MLOAD RETURNDATASIZE PUSH1 0x1F NOT PUSH1 0x1F DUP3 ADD AND DUP3 ADD DUP1 PUSH1 0x40 MSTORE POP DUP2 ADD SWAP1 PUSH2 0x134A SWAP2 SWAP1 PUSH2 0x21D2 JUMP JUMPDEST PUSH1 0x1 JUMPDEST PUSH2 0x13CE JUMPI RETURNDATASIZE DUP1 PUSH0 DUP2 EQ PUSH2 0x137B JUMPI PUSH1 0x40 MLOAD SWAP2 POP PUSH1 0x1F NOT PUSH1 0x3F RETURNDATASIZE ADD AND DUP3 ADD PUSH1 0x40 MSTORE RETURNDATASIZE DUP3 MSTORE RETURNDATASIZE PUSH0 PUSH1 0x20 DUP5 ADD RETURNDATACOPY PUSH2 0x1380 JUMP JUMPDEST PUSH1 0x60 SWAP2 POP JUMPDEST POP PUSH0 DUP2 MLOAD SUB PUSH2 0x13C6 JUMPI DUP5 PUSH1 0x40 MLOAD PUSH32 0x57F447CE00000000000000000000000000000000000000000000000000000000 DUP2 MSTORE PUSH1 0x4 ADD PUSH2 0x13BD SWAP2 SWAP1 PUSH2 0x1DD9 JUMP JUMPDEST PUSH1 0x40 MLOAD DUP1 SWAP2 SUB SWAP1 REVERT JUMPDEST DUP1 MLOAD PUSH1 0x20 DUP3 ADD REVERT JUMPDEST PUSH4 0xBC197C81 PUSH1 0xE0 SHL PUSH28 0xFFFFFFFFFFFFFFFFFFFFFFFFFFFFFFFFFFFFFFFFFFFFFFFFFFFFFFFF NOT AND DUP2 PUSH28 0xFFFFFFFFFFFFFFFFFFFFFFFFFFFFFFFFFFFFFFFFFFFFFFFFFFFFFFFF NOT AND EQ PUSH2 0x1457 JUMPI DUP5 PUSH1 0x40 MLOAD PUSH32 0x57F447CE00000000000000000000000000000000000000000000000000000000 DUP2 MSTORE PUSH1 0x4 ADD PUSH2 0x144E SWAP2 SWAP1 PUSH2 0x1DD9 JUMP JUMPDEST PUSH1 0x40 MLOAD DUP1 SWAP2 SUB SWAP1 REVERT JUMPDEST POP JUMPDEST POP POP POP POP POP POP JUMP JUMPDEST PUSH0 DUP5 PUSH20 0xFFFFFFFFFFFFFFFFFFFFFFFFFFFFFFFFFFFFFFFF AND EXTCODESIZE GT ISZERO PUSH2 0x1608 JUMPI DUP4 PUSH20 0xFFFFFFFFFFFFFFFFFFFFFFFFFFFFFFFFFFFFFFFF AND PUSH4 0xF23A6E61 DUP8 DUP8 DUP7 DUP7 DUP7 PUSH1 0x40 MLOAD DUP7 PUSH4 0xFFFFFFFF AND PUSH1 0xE0 SHL DUP2 MSTORE PUSH1 0x4 ADD PUSH2 0x14C1 SWAP6 SWAP5 SWAP4 SWAP3 SWAP2 SWAP1 PUSH2 0x21FD JUMP JUMPDEST PUSH1 0x20 PUSH1 0x40 MLOAD DUP1 DUP4 SUB DUP2 PUSH0 DUP8 GAS CALL SWAP3 POP POP POP DUP1 ISZERO PUSH2 0x14FC JUMPI POP PUSH1 0x40 MLOAD RETURNDATASIZE PUSH1 0x1F NOT PUSH1 0x1F DUP3 ADD AND DUP3 ADD DUP1 PUSH1 0x40 MSTORE POP DUP2 ADD SWAP1 PUSH2 0x14F9 SWAP2 SWAP1 PUSH2 0x21D2 JUMP JUMPDEST PUSH1 0x1 JUMPDEST PUSH2 0x157D JUMPI RETURNDATASIZE DUP1 PUSH0 DUP2 EQ PUSH2 0x152A JUMPI PUSH1 0x40 MLOAD SWAP2 POP PUSH1 0x1F NOT PUSH1 0x3F RETURNDATASIZE ADD AND DUP3 ADD PUSH1 0x40 MSTORE RETURNDATASIZE DUP3 MSTORE RETURNDATASIZE PUSH0 PUSH1 0x20 DUP5 ADD RETURNDATACOPY PUSH2 0x152F JUMP JUMPDEST PUSH1 0x60 SWAP2 POP JUMPDEST POP PUSH0 DUP2 MLOAD SUB PUSH2 0x1575 JUMPI DUP5 PUSH1 0x40 MLOAD PUSH32 0x57F447CE00000000000000000000000000000000000000000000000000000000 DUP2 MSTORE PUSH1 0x4 ADD PUSH2 0x156C SWAP2 SWAP1 PUSH2 0x1DD9 JUMP JUMPDEST PUSH1 0x40 MLOAD DUP1 SWAP2 SUB SWAP1 REVERT JUMPDEST DUP1 MLOAD PUSH1 0x20 DUP3 ADD REVERT JUMPDEST PUSH4 0xF23A6E61 PUSH1 0xE0 SHL PUSH28 0xFFFFFFFFFFFFFFFFFFFFFFFFFFFFFFFFFFFFFFFFFFFFFFFFFFFFFFFF NOT AND DUP2 PUSH28 0xFFFFFFFFFFFFFFFFFFFFFFFFFFFFFFFFFFFFFFFFFFFFFFFFFFFFFFFF NOT AND EQ PUSH2 0x1606 JUMPI DUP5 PUSH1 0x40 MLOAD PUSH32 0x57F447CE00000000000000000000000000000000000000000000000000000000 DUP2 MSTORE PUSH1 0x4 ADD PUSH2 0x15FD SWAP2 SWAP1 PUSH2 0x1DD9 JUMP JUMPDEST PUSH1 0x40 MLOAD DUP1 SWAP2 SUB SWAP1 REVERT JUMPDEST POP JUMPDEST POP POP POP POP POP POP JUMP JUMPDEST PUSH0 PUSH1 0x40 MLOAD SWAP1 POP SWAP1 JUMP JUMPDEST PUSH0 PUSH0 REVERT JUMPDEST PUSH0 PUSH0 REVERT JUMPDEST PUSH0 PUSH20 0xFFFFFFFFFFFFFFFFFFFFFFFFFFFFFFFFFFFFFFFF DUP3 AND SWAP1 POP SWAP2 SWAP1 POP JUMP JUMPDEST PUSH0 PUSH2 0x164A DUP3 PUSH2 0x1621 JUMP JUMPDEST SWAP1 POP SWAP2 SWAP1 POP JUMP JUMPDEST PUSH2 0x165A DUP2 PUSH2 0x1640 JUMP JUMPDEST DUP2 EQ PUSH2 0x1664 JUMPI PUSH0 PUSH0 REVERT JUMPDEST POP JUMP JUMPDEST PUSH0 DUP2 CALLDATALOAD SWAP1 POP PUSH2 0x1675 DUP2 PUSH2 0x1651 JUMP JUMPDEST SWAP3 SWAP2 POP POP JUMP JUMPDEST PUSH0 DUP2 SWAP1 POP SWAP2 SWAP1 POP JUMP JUMPDEST PUSH2 0x168D DUP2 PUSH2 0x167B JUMP JUMPDEST DUP2 EQ PUSH2 0x1697 JUMPI PUSH0 PUSH0 REVERT JUMPDEST POP JUMP JUMPDEST PUSH0 DUP2 CALLDATALOAD SWAP1 POP PUSH2 0x16A8 DUP2 PUSH2 0x1684 JUMP JUMPDEST SWAP3 SWAP2 POP POP JUMP JUMPDEST PUSH0 PUSH0 PUSH1 0x40 DUP4 DUP6 SUB SLT ISZERO PUSH2 0x16C4 JUMPI PUSH2 0x16C3 PUSH2 0x1619 JUMP JUMPDEST JUMPDEST PUSH0 PUSH2 0x16D1 DUP6 DUP3 DUP7 ADD PUSH2 0x1667 JUMP JUMPDEST SWAP3 POP POP PUSH1 0x20 PUSH2 0x16E2 DUP6 DUP3 DUP7 ADD PUSH2 0x169A JUMP JUMPDEST SWAP2 POP POP SWAP3 POP SWAP3 SWAP1 POP JUMP JUMPDEST PUSH2 0x16F5 DUP2 PUSH2 0x167B JUMP JUMPDEST DUP3 MSTORE POP POP JUMP JUMPDEST PUSH0 PUSH1 0x20 DUP3 ADD SWAP1 POP PUSH2 0x170E PUSH0 DUP4 ADD DUP5 PUSH2 0x16EC JUMP JUMPDEST SWAP3 SWAP2 POP POP JUMP JUMPDEST PUSH0 PUSH32 0xFFFFFFFF00000000000000000000000000000000000000000000000000000000 DUP3 AND SWAP1 POP SWAP2 SWAP1 POP JUMP JUMPDEST PUSH2 0x1748 DUP2 PUSH2 0x1714 JUMP JUMPDEST DUP2 EQ PUSH2 0x1752 JUMPI PUSH0 PUSH0 REVERT JUMPDEST POP JUMP JUMPDEST PUSH0 DUP2 CALLDATALOAD SWAP1 POP PUSH2 0x1763 DUP2 PUSH2 0x173F JUMP JUMPDEST SWAP3 SWAP2 POP POP JUMP JUMPDEST PUSH0 PUSH1 0x20 DUP3 DUP5 SUB SLT ISZERO PUSH2 0x177E JUMPI PUSH2 0x177D PUSH2 0x1619 JUMP JUMPDEST JUMPDEST PUSH0 PUSH2 0x178B DUP5 DUP3 DUP6 ADD PUSH2 0x1755 JUMP JUMPDEST SWAP2 POP POP SWAP3 SWAP2 POP POP JUMP JUMPDEST PUSH0 DUP2 ISZERO ISZERO SWAP1 POP SWAP2 SWAP1 POP JUMP JUMPDEST PUSH2 0x17A8 DUP2 PUSH2 0x1794 JUMP JUMPDEST DUP3 MSTORE POP POP JUMP JUMPDEST PUSH0 PUSH1 0x20 DUP3 ADD SWAP1 POP PUSH2 0x17C1 PUSH0 DUP4 ADD DUP5 PUSH2 0x179F JUMP JUMPDEST SWAP3 SWAP2 POP POP JUMP JUMPDEST PUSH0 PUSH1 0x20 DUP3 DUP5 SUB SLT ISZERO PUSH2 0x17DC JUMPI PUSH2 0x17DB PUSH2 0x1619 JUMP JUMPDEST JUMPDEST PUSH0 PUSH2 0x17E9 DUP5 DUP3 DUP6 ADD PUSH2 0x169A JUMP JUMPDEST SWAP2 POP POP SWAP3 SWAP2 POP POP JUMP JUMPDEST PUSH0 DUP2 MLOAD SWAP1 POP SWAP2 SWAP1 POP JUMP JUMPDEST PUSH0 DUP3 DUP3 MSTORE PUSH1 0x20 DUP3 ADD SWAP1 POP SWAP3 SWAP2 POP POP JUMP JUMPDEST DUP3 DUP2 DUP4 MCOPY PUSH0 DUP4 DUP4 ADD MSTORE POP POP POP JUMP JUMPDEST PUSH0 PUSH1 0x1F NOT PUSH1 0x1F DUP4 ADD AND SWAP1 POP SWAP2 SWAP1 POP JUMP JUMPDEST PUSH0 PUSH2 0x1834 DUP3 PUSH2 0x17F2 JUMP JUMPDEST PUSH2 0x183E DUP2 DUP6 PUSH2 0x17FC JUMP JUMPDEST SWAP4 POP PUSH2 0x184E DUP2 DUP6 PUSH1 0x20 DUP7 ADD PUSH2 0x180C JUMP JUMPDEST PUSH2 0x1857 DUP2 PUSH2 0x181A JUMP JUMPDEST DUP5 ADD SWAP2 POP POP SWAP3 SWAP2 POP POP JUMP JUMPDEST PUSH0 PUSH1 0x20 DUP3 ADD SWAP1 POP DUP2 DUP2 SUB PUSH0 DUP4 ADD MSTORE PUSH2 0x187A DUP2 DUP5 PUSH2 0x182A JUMP JUMPDEST SWAP1 POP SWAP3 SWAP2 POP POP JUMP JUMPDEST PUSH0 PUSH0 REVERT JUMPDEST PUSH32 0x4E487B7100000000000000000000000000000000000000000000000000000000 PUSH0 MSTORE PUSH1 0x41 PUSH1 0x4 MSTORE PUSH1 0x24 PUSH0 REVERT JUMPDEST PUSH2 0x18BC DUP3 PUSH2 0x181A JUMP JUMPDEST DUP2 ADD DUP2 DUP2 LT PUSH8 0xFFFFFFFFFFFFFFFF DUP3 GT OR ISZERO PUSH2 0x18DB JUMPI PUSH2 0x18DA PUSH2 0x1886 JUMP JUMPDEST JUMPDEST DUP1 PUSH1 0x40 MSTORE POP POP POP JUMP JUMPDEST PUSH0 PUSH2 0x18ED PUSH2 0x1610 JUMP JUMPDEST SWAP1 POP PUSH2 0x18F9 DUP3 DUP3 PUSH2 0x18B3 JUMP JUMPDEST SWAP2 SWAP1 POP JUMP JUMPDEST PUSH0 PUSH8 0xFFFFFFFFFFFFFFFF DUP3 GT ISZERO PUSH2 0x1918 JUMPI PUSH2 0x1917 PUSH2 0x1886 JUMP JUMPDEST JUMPDEST PUSH1 0x20 DUP3 MUL SWAP1 POP PUSH1 0x20 DUP2 ADD SWAP1 POP SWAP2 SWAP1 POP JUMP JUMPDEST PUSH0 PUSH0 REVERT JUMPDEST PUSH0 PUSH2 0x193F PUSH2 0x193A DUP5 PUSH2 0x18FE JUMP JUMPDEST PUSH2 0x18E4 JUMP JUMPDEST SWAP1 POP DUP1 DUP4 DUP3 MSTORE PUSH1 0x20 DUP3 ADD SWAP1 POP PUSH1 0x20 DUP5 MUL DUP4 ADD DUP6 DUP2 GT ISZERO PUSH2 0x1962 JUMPI PUSH2 0x1961 PUSH2 0x1929 JUMP JUMPDEST JUMPDEST DUP4 JUMPDEST DUP2 DUP2 LT ISZERO PUSH2 0x198B JUMPI DUP1 PUSH2 0x1977 DUP9 DUP3 PUSH2 0x169A JUMP JUMPDEST DUP5 MSTORE PUSH1 0x20 DUP5 ADD SWAP4 POP POP PUSH1 0x20 DUP2 ADD SWAP1 POP PUSH2 0x1964 JUMP JUMPDEST POP POP POP SWAP4 SWAP3 POP POP POP JUMP JUMPDEST PUSH0 DUP3 PUSH1 0x1F DUP4 ADD SLT PUSH2 0x19A9 JUMPI PUSH2 0x19A8 PUSH2 0x1882 JUMP JUMPDEST JUMPDEST DUP2 CALLDATALOAD PUSH2 0x19B9 DUP5 DUP3 PUSH1 0x20 DUP7 ADD PUSH2 0x192D JUMP JUMPDEST SWAP2 POP POP SWAP3 SWAP2 POP POP JUMP JUMPDEST PUSH0 PUSH0 REVERT JUMPDEST PUSH0 PUSH8 0xFFFFFFFFFFFFFFFF DUP3 GT ISZERO PUSH2 0x19E0 JUMPI PUSH2 0x19DF PUSH2 0x1886 JUMP JUMPDEST JUMPDEST PUSH2 0x19E9 DUP3 PUSH2 0x181A JUMP JUMPDEST SWAP1 POP PUSH1 0x20 DUP2 ADD SWAP1 POP SWAP2 SWAP1 POP JUMP JUMPDEST DUP3 DUP2 DUP4 CALLDATACOPY PUSH0 DUP4 DUP4 ADD MSTORE POP POP POP JUMP JUMPDEST PUSH0 PUSH2 0x1A16 PUSH2 0x1A11 DUP5 PUSH2 0x19C6 JUMP JUMPDEST PUSH2 0x18E4 JUMP JUMPDEST SWAP1 POP DUP3 DUP2 MSTORE PUSH1 0x20 DUP2 ADD DUP5 DUP5 DUP5 ADD GT ISZERO PUSH2 0x1A32 JUMPI PUSH2 0x1A31 PUSH2 0x19C2 JUMP JUMPDEST JUMPDEST PUSH2 0x1A3D DUP5 DUP3 DUP6 PUSH2 0x19F6 JUMP JUMPDEST POP SWAP4 SWAP3 POP POP POP JUMP JUMPDEST PUSH0 DUP3 PUSH1 0x1F DUP4 ADD SLT PUSH2 0x1A59 JUMPI PUSH2 0x1A58 PUSH2 0x1882 JUMP JUMPDEST JUMPDEST DUP2 CALLDATALOAD PUSH2 0x1A69 DUP5 DUP3 PUSH1 0x20 DUP7 ADD PUSH2 0x1A04 JUMP JUMPDEST SWAP2 POP POP SWAP3 SWAP2 POP POP JUMP JUMPDEST PUSH0 PUSH0 PUSH0 PUSH0 PUSH0 PUSH1 0xA0 DUP7 DUP9 SUB SLT ISZERO PUSH2 0x1A8B JUMPI PUSH2 0x1A8A PUSH2 0x1619 JUMP JUMPDEST JUMPDEST PUSH0 PUSH2 0x1A98 DUP9 DUP3 DUP10 ADD PUSH2 0x1667 JUMP JUMPDEST SWAP6 POP POP PUSH1 0x20 PUSH2 0x1AA9 DUP9 DUP3 DUP10 ADD PUSH2 0x1667 JUMP JUMPDEST SWAP5 POP POP PUSH1 0x40 DUP7 ADD CALLDATALOAD PUSH8 0xFFFFFFFFFFFFFFFF DUP2 GT ISZERO PUSH2 0x1ACA JUMPI PUSH2 0x1AC9 PUSH2 0x161D JUMP JUMPDEST JUMPDEST PUSH2 0x1AD6 DUP9 DUP3 DUP10 ADD PUSH2 0x1995 JUMP JUMPDEST SWAP4 POP POP PUSH1 0x60 DUP7 ADD CALLDATALOAD PUSH8 0xFFFFFFFFFFFFFFFF DUP2 GT ISZERO PUSH2 0x1AF7 JUMPI PUSH2 0x1AF6 PUSH2 0x161D JUMP JUMPDEST JUMPDEST PUSH2 0x1B03 DUP9 DUP3 DUP10 ADD PUSH2 0x1995 JUMP JUMPDEST SWAP3 POP POP PUSH1 0x80 DUP7 ADD CALLDATALOAD PUSH8 0xFFFFFFFFFFFFFFFF DUP2 GT ISZERO PUSH2 0x1B24 JUMPI PUSH2 0x1B23 PUSH2 0x161D JUMP JUMPDEST JUMPDEST PUSH2 0x1B30 DUP9 DUP3 DUP10 ADD PUSH2 0x1A45 JUMP JUMPDEST SWAP2 POP POP SWAP3 SWAP6 POP SWAP3 SWAP6 SWAP1 SWAP4 POP JUMP JUMPDEST PUSH0 PUSH8 0xFFFFFFFFFFFFFFFF DUP3 GT ISZERO PUSH2 0x1B57 JUMPI PUSH2 0x1B56 PUSH2 0x1886 JUMP JUMPDEST JUMPDEST PUSH1 0x20 DUP3 MUL SWAP1 POP PUSH1 0x20 DUP2 ADD SWAP1 POP SWAP2 SWAP1 POP JUMP JUMPDEST PUSH0 PUSH2 0x1B7A PUSH2 0x1B75 DUP5 PUSH2 0x1B3D JUMP JUMPDEST PUSH2 0x18E4 JUMP JUMPDEST SWAP1 POP DUP1 DUP4 DUP3 MSTORE PUSH1 0x20 DUP3 ADD SWAP1 POP PUSH1 0x20 DUP5 MUL DUP4 ADD DUP6 DUP2 GT ISZERO PUSH2 0x1B9D JUMPI PUSH2 0x1B9C PUSH2 0x1929 JUMP JUMPDEST JUMPDEST DUP4 JUMPDEST DUP2 DUP2 LT ISZERO PUSH2 0x1BC6 JUMPI DUP1 PUSH2 0x1BB2 DUP9 DUP3 PUSH2 0x1667 JUMP JUMPDEST DUP5 MSTORE PUSH1 0x20 DUP5 ADD SWAP4 POP POP PUSH1 0x20 DUP2 ADD SWAP1 POP PUSH2 0x1B9F JUMP JUMPDEST POP POP POP SWAP4 SWAP3 POP POP POP JUMP JUMPDEST PUSH0 DUP3 PUSH1 0x1F DUP4 ADD SLT PUSH2 0x1BE4 JUMPI PUSH2 0x1BE3 PUSH2 0x1882 JUMP JUMPDEST JUMPDEST DUP2 CALLDATALOAD PUSH2 0x1BF4 DUP5 DUP3 PUSH1 0x20 DUP7 ADD PUSH2 0x1B68 JUMP JUMPDEST SWAP2 POP POP SWAP3 SWAP2 POP POP JUMP JUMPDEST PUSH0 PUSH0 PUSH1 0x40 DUP4 DUP6 SUB SLT ISZERO PUSH2 0x1C13 JUMPI PUSH2 0x1C12 PUSH2 0x1619 JUMP JUMPDEST JUMPDEST PUSH0 DUP4 ADD CALLDATALOAD PUSH8 0xFFFFFFFFFFFFFFFF DUP2 GT ISZERO PUSH2 0x1C30 JUMPI PUSH2 0x1C2F PUSH2 0x161D JUMP JUMPDEST JUMPDEST PUSH2 0x1C3C DUP6 DUP3 DUP7 ADD PUSH2 0x1BD0 JUMP JUMPDEST SWAP3 POP POP PUSH1 0x20 DUP4 ADD CALLDATALOAD PUSH8 0xFFFFFFFFFFFFFFFF DUP2 GT ISZERO PUSH2 0x1C5D JUMPI PUSH2 0x1C5C PUSH2 0x161D JUMP JUMPDEST JUMPDEST PUSH2 0x1C69 DUP6 DUP3 DUP7 ADD PUSH2 0x1995 JUMP JUMPDEST SWAP2 POP POP SWAP3 POP SWAP3 SWAP1 POP JUMP JUMPDEST PUSH0 DUP2 MLOAD SWAP1 POP SWAP2 SWAP1 POP JUMP JUMPDEST PUSH0 DUP3 DUP3 MSTORE PUSH1 0x20 DUP3 ADD SWAP1 POP SWAP3 SWAP2 POP POP JUMP JUMPDEST PUSH0 DUP2 SWAP1 POP PUSH1 0x20 DUP3 ADD SWAP1 POP SWAP2 SWAP1 POP JUMP JUMPDEST PUSH2 0x1CA5 DUP2 PUSH2 0x167B JUMP JUMPDEST DUP3 MSTORE POP POP JUMP JUMPDEST PUSH0 PUSH2 0x1CB6 DUP4 DUP4 PUSH2 0x1C9C JUMP JUMPDEST PUSH1 0x20 DUP4 ADD SWAP1 POP SWAP3 SWAP2 POP POP JUMP JUMPDEST PUSH0 PUSH1 0x20 DUP3 ADD SWAP1 POP SWAP2 SWAP1 POP JUMP JUMPDEST PUSH0 PUSH2 0x1CD8 DUP3 PUSH2 0x1C73 JUMP JUMPDEST PUSH2 0x1CE2 DUP2 DUP6 PUSH2 0x1C7D JUMP JUMPDEST SWAP4 POP PUSH2 0x1CED DUP4 PUSH2 0x1C8D JUMP JUMPDEST DUP1 PUSH0 JUMPDEST DUP4 DUP2 LT ISZERO PUSH2 0x1D1D JUMPI DUP2 MLOAD PUSH2 0x1D04 DUP9 DUP3 PUSH2 0x1CAB JUMP JUMPDEST SWAP8 POP PUSH2 0x1D0F DUP4 PUSH2 0x1CC2 JUMP JUMPDEST SWAP3 POP POP PUSH1 0x1 DUP2 ADD SWAP1 POP PUSH2 0x1CF0 JUMP JUMPDEST POP DUP6 SWAP4 POP POP POP POP SWAP3 SWAP2 POP POP JUMP JUMPDEST PUSH0 PUSH1 0x20 DUP3 ADD SWAP1 POP DUP2 DUP2 SUB PUSH0 DUP4 ADD MSTORE PUSH2 0x1D42 DUP2 DUP5 PUSH2 0x1CCE JUMP JUMPDEST SWAP1 POP SWAP3 SWAP2 POP POP JUMP JUMPDEST PUSH0 PUSH0 PUSH0 PUSH0 PUSH1 0x80 DUP6 DUP8 SUB SLT ISZERO PUSH2 0x1D62 JUMPI PUSH2 0x1D61 PUSH2 0x1619 JUMP JUMPDEST JUMPDEST PUSH0 PUSH2 0x1D6F DUP8 DUP3 DUP9 ADD PUSH2 0x1667 JUMP JUMPDEST SWAP5 POP POP PUSH1 0x20 PUSH2 0x1D80 DUP8 DUP3 DUP9 ADD PUSH2 0x169A JUMP JUMPDEST SWAP4 POP POP PUSH1 0x40 PUSH2 0x1D91 DUP8 DUP3 DUP9 ADD PUSH2 0x169A JUMP JUMPDEST SWAP3 POP POP PUSH1 0x60 DUP6 ADD CALLDATALOAD PUSH8 0xFFFFFFFFFFFFFFFF DUP2 GT ISZERO PUSH2 0x1DB2 JUMPI PUSH2 0x1DB1 PUSH2 0x161D JUMP JUMPDEST JUMPDEST PUSH2 0x1DBE DUP8 DUP3 DUP9 ADD PUSH2 0x1A45 JUMP JUMPDEST SWAP2 POP POP SWAP3 SWAP6 SWAP2 SWAP5 POP SWAP3 POP JUMP JUMPDEST PUSH2 0x1DD3 DUP2 PUSH2 0x1640 JUMP JUMPDEST DUP3 MSTORE POP POP JUMP JUMPDEST PUSH0 PUSH1 0x20 DUP3 ADD SWAP1 POP PUSH2 0x1DEC PUSH0 DUP4 ADD DUP5 PUSH2 0x1DCA JUMP JUMPDEST SWAP3 SWAP2 POP POP JUMP JUMPDEST PUSH2 0x1DFB DUP2 PUSH2 0x1794 JUMP JUMPDEST DUP2 EQ PUSH2 0x1E05 JUMPI PUSH0 PUSH0 REVERT JUMPDEST POP JUMP JUMPDEST PUSH0 DUP2 CALLDATALOAD SWAP1 POP PUSH2 0x1E16 DUP2 PUSH2 0x1DF2 JUMP JUMPDEST SWAP3 SWAP2 POP POP JUMP JUMPDEST PUSH0 PUSH0 PUSH1 0x40 DUP4 DUP6 SUB SLT ISZERO PUSH2 0x1E32 JUMPI PUSH2 0x1E31 PUSH2 0x1619 JUMP JUMPDEST JUMPDEST PUSH0 PUSH2 0x1E3F DUP6 DUP3 DUP7 ADD PUSH2 0x1667 JUMP JUMPDEST SWAP3 POP POP PUSH1 0x20 PUSH2 0x1E50 DUP6 DUP3 DUP7 ADD PUSH2 0x1E08 JUMP JUMPDEST SWAP2 POP POP SWAP3 POP SWAP3 SWAP1 POP JUMP JUMPDEST PUSH0 PUSH0 PUSH1 0x40 DUP4 DUP6 SUB SLT ISZERO PUSH2 0x1E70 JUMPI PUSH2 0x1E6F PUSH2 0x1619 JUMP JUMPDEST JUMPDEST PUSH0 PUSH2 0x1E7D DUP6 DUP3 DUP7 ADD PUSH2 0x1667 JUMP JUMPDEST SWAP3 POP POP PUSH1 0x20 PUSH2 0x1E8E DUP6 DUP3 DUP7 ADD PUSH2 0x1667 JUMP JUMPDEST SWAP2 POP POP SWAP3 POP SWAP3 SWAP1 POP JUMP JUMPDEST PUSH0 PUSH0 PUSH0 PUSH0 PUSH0 PUSH1 0xA0 DUP7 DUP9 SUB SLT ISZERO PUSH2 0x1EB1 JUMPI PUSH2 0x1EB0 PUSH2 0x1619 JUMP JUMPDEST JUMPDEST PUSH0 PUSH2 0x1EBE DUP9 DUP3 DUP10 ADD PUSH2 0x1667 JUMP JUMPDEST SWAP6 POP POP PUSH1 0x20 PUSH2 0x1ECF DUP9 DUP3 DUP10 ADD PUSH2 0x1667 JUMP JUMPDEST SWAP5 POP POP PUSH1 0x40 PUSH2 0x1EE0 DUP9 DUP3 DUP10 ADD PUSH2 0x169A JUMP JUMPDEST SWAP4 POP POP PUSH1 0x60 PUSH2 0x1EF1 DUP9 DUP3 DUP10 ADD PUSH2 0x169A JUMP JUMPDEST SWAP3 POP POP PUSH1 0x80 DUP7 ADD CALLDATALOAD PUSH8 0xFFFFFFFFFFFFFFFF DUP2 GT ISZERO PUSH2 0x1F12 JUMPI PUSH2 0x1F11 PUSH2 0x161D JUMP JUMPDEST JUMPDEST PUSH2 0x1F1E DUP9 DUP3 DUP10 ADD PUSH2 0x1A45 JUMP JUMPDEST SWAP2 POP POP SWAP3 SWAP6 POP SWAP3 SWAP6 SWAP1 SWAP4 POP JUMP JUMPDEST PUSH0 PUSH1 0x20 DUP3 DUP5 SUB SLT ISZERO PUSH2 0x1F40 JUMPI PUSH2 0x1F3F PUSH2 0x1619 JUMP JUMPDEST JUMPDEST PUSH0 PUSH2 0x1F4D DUP5 DUP3 DUP6 ADD PUSH2 0x1667 JUMP JUMPDEST SWAP2 POP POP SWAP3 SWAP2 POP POP JUMP JUMPDEST PUSH32 0x4E487B7100000000000000000000000000000000000000000000000000000000 PUSH0 MSTORE PUSH1 0x22 PUSH1 0x4 MSTORE PUSH1 0x24 PUSH0 REVERT JUMPDEST PUSH0 PUSH1 0x2 DUP3 DIV SWAP1 POP PUSH1 0x1 DUP3 AND DUP1 PUSH2 0x1F9A JUMPI PUSH1 0x7F DUP3 AND SWAP2 POP JUMPDEST PUSH1 0x20 DUP3 LT DUP2 SUB PUSH2 0x1FAD JUMPI PUSH2 0x1FAC PUSH2 0x1F56 JUMP JUMPDEST JUMPDEST POP SWAP2 SWAP1 POP JUMP JUMPDEST PUSH0 PUSH1 0x40 DUP3 ADD SWAP1 POP PUSH2 0x1FC6 PUSH0 DUP4 ADD DUP6 PUSH2 0x16EC JUMP JUMPDEST PUSH2 0x1FD3 PUSH1 0x20 DUP4 ADD DUP5 PUSH2 0x16EC JUMP JUMPDEST SWAP4 SWAP3 POP POP POP JUMP JUMPDEST PUSH32 0x4E487B7100000000000000000000000000000000000000000000000000000000 PUSH0 MSTORE PUSH1 0x32 PUSH1 0x4 MSTORE PUSH1 0x24 PUSH0 REVERT JUMPDEST PUSH0 PUSH1 0x40 DUP3 ADD SWAP1 POP PUSH2 0x201A PUSH0 DUP4 ADD DUP6 PUSH2 0x1DCA JUMP JUMPDEST PUSH2 0x2027 PUSH1 0x20 DUP4 ADD DUP5 PUSH2 0x1DCA JUMP JUMPDEST SWAP4 SWAP3 POP POP POP JUMP JUMPDEST PUSH0 PUSH1 0x80 DUP3 ADD SWAP1 POP PUSH2 0x2041 PUSH0 DUP4 ADD DUP8 PUSH2 0x1DCA JUMP JUMPDEST PUSH2 0x204E PUSH1 0x20 DUP4 ADD DUP7 PUSH2 0x16EC JUMP JUMPDEST PUSH2 0x205B PUSH1 0x40 DUP4 ADD DUP6 PUSH2 0x16EC JUMP JUMPDEST PUSH2 0x2068 PUSH1 0x60 DUP4 ADD DUP5 PUSH2 0x16EC JUMP JUMPDEST SWAP6 SWAP5 POP POP POP POP POP JUMP JUMPDEST PUSH32 0x4E487B7100000000000000000000000000000000000000000000000000000000 PUSH0 MSTORE PUSH1 0x11 PUSH1 0x4 MSTORE PUSH1 0x24 PUSH0 REVERT JUMPDEST PUSH0 PUSH2 0x20A8 DUP3 PUSH2 0x167B JUMP JUMPDEST SWAP2 POP PUSH2 0x20B3 DUP4 PUSH2 0x167B JUMP JUMPDEST SWAP3 POP DUP3 DUP3 ADD SWAP1 POP DUP1 DUP3 GT ISZERO PUSH2 0x20CB JUMPI PUSH2 0x20CA PUSH2 0x2071 JUMP JUMPDEST JUMPDEST SWAP3 SWAP2 POP POP JUMP JUMPDEST PUSH0 PUSH1 0x40 DUP3 ADD SWAP1 POP DUP2 DUP2 SUB PUSH0 DUP4 ADD MSTORE PUSH2 0x20E9 DUP2 DUP6 PUSH2 0x1CCE JUMP JUMPDEST SWAP1 POP DUP2 DUP2 SUB PUSH1 0x20 DUP4 ADD MSTORE PUSH2 0x20FD DUP2 DUP5 PUSH2 0x1CCE JUMP JUMPDEST SWAP1 POP SWAP4 SWAP3 POP POP POP JUMP JUMPDEST PUSH0 DUP2 MLOAD SWAP1 POP SWAP2 SWAP1 POP JUMP JUMPDEST PUSH0 DUP3 DUP3 MSTORE PUSH1 0x20 DUP3 ADD SWAP1 POP SWAP3 SWAP2 POP POP JUMP JUMPDEST PUSH0 PUSH2 0x212A DUP3 PUSH2 0x2106 JUMP JUMPDEST PUSH2 0x2134 DUP2 DUP6 PUSH2 0x2110 JUMP JUMPDEST SWAP4 POP PUSH2 0x2144 DUP2 DUP6 PUSH1 0x20 DUP7 ADD PUSH2 0x180C JUMP JUMPDEST PUSH2 0x214D DUP2 PUSH2 0x181A JUMP JUMPDEST DUP5 ADD SWAP2 POP POP SWAP3 SWAP2 POP POP JUMP JUMPDEST PUSH0 PUSH1 0xA0 DUP3 ADD SWAP1 POP PUSH2 0x216B PUSH0 DUP4 ADD DUP9 PUSH2 0x1DCA JUMP JUMPDEST PUSH2 0x2178 PUSH1 0x20 DUP4 ADD DUP8 PUSH2 0x1DCA JUMP JUMPDEST DUP2 DUP2 SUB PUSH1 0x40 DUP4 ADD MSTORE PUSH2 0x218A DUP2 DUP7 PUSH2 0x1CCE JUMP JUMPDEST SWAP1 POP DUP2 DUP2 SUB PUSH1 0x60 DUP4 ADD MSTORE PUSH2 0x219E DUP2 DUP6 PUSH2 0x1CCE JUMP JUMPDEST SWAP1 POP DUP2 DUP2 SUB PUSH1 0x80 DUP4 ADD MSTORE PUSH2 0x21B2 DUP2 DUP5 PUSH2 0x2120 JUMP JUMPDEST SWAP1 POP SWAP7 SWAP6 POP POP POP POP POP POP JUMP JUMPDEST PUSH0 DUP2 MLOAD SWAP1 POP PUSH2 0x21CC DUP2 PUSH2 0x173F JUMP JUMPDEST SWAP3 SWAP2 POP POP JUMP JUMPDEST PUSH0 PUSH1 0x20 DUP3 DUP5 SUB SLT ISZERO PUSH2 0x21E7 JUMPI PUSH2 0x21E6 PUSH2 0x1619 JUMP JUMPDEST JUMPDEST PUSH0 PUSH2 0x21F4 DUP5 DUP3 DUP6 ADD PUSH2 0x21BE JUMP JUMPDEST SWAP2 POP POP SWAP3 SWAP2 POP POP JUMP JUMPDEST PUSH0 PUSH1 0xA0 DUP3 ADD SWAP1 POP PUSH2 0x2210 PUSH0 DUP4 ADD DUP9 PUSH2 0x1DCA JUMP JUMPDEST PUSH2 0x221D PUSH1 0x20 DUP4 ADD DUP8 PUSH2 0x1DCA JUMP JUMPDEST PUSH2 0x222A PUSH1 0x40 DUP4 ADD DUP7 PUSH2 0x16EC JUMP JUMPDEST PUSH2 0x2237 PUSH1 0x60 DUP4 ADD DUP6 PUSH2 0x16EC JUMP JUMPDEST DUP2 DUP2 SUB PUSH1 0x80 DUP4 ADD MSTORE PUSH2 0x2249 DUP2 DUP5 PUSH2 0x2120 JUMP JUMPDEST SWAP1 POP SWAP7 SWAP6 POP POP POP POP POP POP JUMP INVALID LOG2 PUSH5 0x6970667358 0x22 SLT KECCAK256 0x28 0x2A DUP6 PUSH10 0xA11047BDB4232942DCED CODESIZE 0xB0 PUSH29 0xEFC7FA2A6D5E94BCFD7EFBD46F278D64736F6C634300081F0033687474 PUSH17 0x733A2F2F6170692E626974736B77656C61 0x2E PUSH4 0x6F6D2F6D PUSH6 0x746164617461 0x2F PUSH28 0x69647D2E6A736F6E0000000000000000000000000000000000000000 "
		},
		"gasEstimates": {
			"creation": {
				"codeDepositCost": "1768600",
				"executionCost": "infinite",
				"totalCost": "infinite"
			},
			"external": {
				"ARTIFACT()": "370",
				"GOLD()": "370",
				"balanceOf(address,uint256)": "infinite",
				"balanceOfBatch(address[],uint256[])": "infinite",
				"isApprovedForAll(address,address)": "infinite",
				"mint(address,uint256,uint256,bytes)": "infinite",
				"owner()": "2582",
				"renounceOwnership()": "infinite",
				"safeBatchTransferFrom(address,address,uint256[],uint256[],bytes)": "infinite",
				"safeTransferFrom(address,address,uint256,uint256,bytes)": "infinite",
				"setApprovalForAll(address,bool)": "infinite",
				"supportsInterface(bytes4)": "809",
				"transferOwnership(address)": "infinite",
				"uri(uint256)": "infinite"
			}
		},
		"methodIdentifiers": {
			"ARTIFACT()": "8aee38c7",
			"GOLD()": "3e4bee38",
			"balanceOf(address,uint256)": "00fdd58e",
			"balanceOfBatch(address[],uint256[])": "4e1273f4",
			"isApprovedForAll(address,address)": "e985e9c5",
			"mint(address,uint256,uint256,bytes)": "731133e9",
			"owner()": "8da5cb5b",
			"renounceOwnership()": "715018a6",
			"safeBatchTransferFrom(address,address,uint256[],uint256[],bytes)": "2eb2c2d6",
			"safeTransferFrom(address,address,uint256,uint256,bytes)": "f242432a",
			"setApprovalForAll(address,bool)": "a22cb465",
			"supportsInterface(bytes4)": "01ffc9a7",
			"transferOwnership(address)": "f2fde38b",
			"uri(uint256)": "0e89341c"
		}
	},
	"abi": [
		{
			"inputs": [],
			"stateMutability": "nonpayable",
			"type": "constructor"
		},
		{
			"inputs": [
				{
					"internalType": "address",
					"name": "sender",
					"type": "address"
				},
				{
					"internalType": "uint256",
					"name": "balance",
					"type": "uint256"
				},
				{
					"internalType": "uint256",
					"name": "needed",
					"type": "uint256"
				},
				{
					"internalType": "uint256",
					"name": "tokenId",
					"type": "uint256"
				}
			],
			"name": "ERC1155InsufficientBalance",
			"type": "error"
		},
		{
			"inputs": [
				{
					"internalType": "address",
					"name": "approver",
					"type": "address"
				}
			],
			"name": "ERC1155InvalidApprover",
			"type": "error"
		},
		{
			"inputs": [
				{
					"internalType": "uint256",
					"name": "idsLength",
					"type": "uint256"
				},
				{
					"internalType": "uint256",
					"name": "valuesLength",
					"type": "uint256"
				}
			],
			"name": "ERC1155InvalidArrayLength",
			"type": "error"
		},
		{
			"inputs": [
				{
					"internalType": "address",
					"name": "operator",
					"type": "address"
				}
			],
			"name": "ERC1155InvalidOperator",
			"type": "error"
		},
		{
			"inputs": [
				{
					"internalType": "address",
					"name": "receiver",
					"type": "address"
				}
			],
			"name": "ERC1155InvalidReceiver",
			"type": "error"
		},
		{
			"inputs": [
				{
					"internalType": "address",
					"name": "sender",
					"type": "address"
				}
			],
			"name": "ERC1155InvalidSender",
			"type": "error"
		},
		{
			"inputs": [
				{
					"internalType": "address",
					"name": "operator",
					"type": "address"
				},
				{
					"internalType": "address",
					"name": "owner",
					"type": "address"
				}
			],
			"name": "ERC1155MissingApprovalForAll",
			"type": "error"
		},
		{
			"inputs": [
				{
					"internalType": "address",
					"name": "owner",
					"type": "address"
				}
			],
			"name": "OwnableInvalidOwner",
			"type": "error"
		},
		{
			"inputs": [
				{
					"internalType": "address",
					"name": "account",
					"type": "address"
				}
			],
			"name": "OwnableUnauthorizedAccount",
			"type": "error"
		},
		{
			"anonymous": false,
			"inputs": [
				{
					"indexed": true,
					"internalType": "address",
					"name": "account",
					"type": "address"
				},
				{
					"indexed": true,
					"internalType": "address",
					"name": "operator",
					"type": "address"
				},
				{
					"indexed": false,
					"internalType": "bool",
					"name": "approved",
					"type": "bool"
				}
			],
			"name": "ApprovalForAll",
			"type": "event"
		},
		{
			"anonymous": false,
			"inputs": [
				{
					"indexed": true,
					"internalType": "address",
					"name": "previousOwner",
					"type": "address"
				},
				{
					"indexed": true,
					"internalType": "address",
					"name": "newOwner",
					"type": "address"
				}
			],
			"name": "OwnershipTransferred",
			"type": "event"
		},
		{
			"anonymous": false,
			"inputs": [
				{
					"indexed": true,
					"internalType": "address",
					"name": "operator",
					"type": "address"
				},
				{
					"indexed": true,
					"internalType": "address",
					"name": "from",
					"type": "address"
				},
				{
					"indexed": true,
					"internalType": "address",
					"name": "to",
					"type": "address"
				},
				{
					"indexed": false,
					"internalType": "uint256[]",
					"name": "ids",
					"type": "uint256[]"
				},
				{
					"indexed": false,
					"internalType": "uint256[]",
					"name": "values",
					"type": "uint256[]"
				}
			],
			"name": "TransferBatch",
			"type": "event"
		},
		{
			"anonymous": false,
			"inputs": [
				{
					"indexed": true,
					"internalType": "address",
					"name": "operator",
					"type": "address"
				},
				{
					"indexed": true,
					"internalType": "address",
					"name": "from",
					"type": "address"
				},
				{
					"indexed": true,
					"internalType": "address",
					"name": "to",
					"type": "address"
				},
				{
					"indexed": false,
					"internalType": "uint256",
					"name": "id",
					"type": "uint256"
				},
				{
					"indexed": false,
					"internalType": "uint256",
					"name": "value",
					"type": "uint256"
				}
			],
			"name": "TransferSingle",
			"type": "event"
		},
		{
			"anonymous": false,
			"inputs": [
				{
					"indexed": false,
					"internalType": "string",
					"name": "value",
					"type": "string"
				},
				{
					"indexed": true,
					"internalType": "uint256",
					"name": "id",
					"type": "uint256"
				}
			],
			"name": "URI",
			"type": "event"
		},
		{
			"inputs": [],
			"name": "ARTIFACT",
			"outputs": [
				{
					"internalType": "uint256",
					"name": "",
					"type": "uint256"
				}
			],
			"stateMutability": "view",
			"type": "function"
		},
		{
			"inputs": [],
			"name": "GOLD",
			"outputs": [
				{
					"internalType": "uint256",
					"name": "",
					"type": "uint256"
				}
			],
			"stateMutability": "view",
			"type": "function"
		},
		{
			"inputs": [
				{
					"internalType": "address",
					"name": "account",
					"type": "address"
				},
				{
					"internalType": "uint256",
					"name": "id",
					"type": "uint256"
				}
			],
			"name": "balanceOf",
			"outputs": [
				{
					"internalType": "uint256",
					"name": "",
					"type": "uint256"
				}
			],
			"stateMutability": "view",
			"type": "function"
		},
		{
			"inputs": [
				{
					"internalType": "address[]",
					"name": "accounts",
					"type": "address[]"
				},
				{
					"internalType": "uint256[]",
					"name": "ids",
					"type": "uint256[]"
				}
			],
			"name": "balanceOfBatch",
			"outputs": [
				{
					"internalType": "uint256[]",
					"name": "",
					"type": "uint256[]"
				}
			],
			"stateMutability": "view",
			"type": "function"
		},
		{
			"inputs": [
				{
					"internalType": "address",
					"name": "account",
					"type": "address"
				},
				{
					"internalType": "address",
					"name": "operator",
					"type": "address"
				}
			],
			"name": "isApprovedForAll",
			"outputs": [
				{
					"internalType": "bool",
					"name": "",
					"type": "bool"
				}
			],
			"stateMutability": "view",
			"type": "function"
		},
		{
			"inputs": [
				{
					"internalType": "address",
					"name": "to",
					"type": "address"
				},
				{
					"internalType": "uint256",
					"name": "id",
					"type": "uint256"
				},
				{
					"internalType": "uint256",
					"name": "amount",
					"type": "uint256"
				},
				{
					"internalType": "bytes",
					"name": "data",
					"type": "bytes"
				}
			],
			"name": "mint",
			"outputs": [],
			"stateMutability": "nonpayable",
			"type": "function"
		},
		{
			"inputs": [],
			"name": "owner",
			"outputs": [
				{
					"internalType": "address",
					"name": "",
					"type": "address"
				}
			],
			"stateMutability": "view",
			"type": "function"
		},
		{
			"inputs": [],
			"name": "renounceOwnership",
			"outputs": [],
			"stateMutability": "nonpayable",
			"type": "function"
		},
		{
			"inputs": [
				{
					"internalType": "address",
					"name": "from",
					"type": "address"
				},
				{
					"internalType": "address",
					"name": "to",
					"type": "address"
				},
				{
					"internalType": "uint256[]",
					"name": "ids",
					"type": "uint256[]"
				},
				{
					"internalType": "uint256[]",
					"name": "values",
					"type": "uint256[]"
				},
				{
					"internalType": "bytes",
					"name": "data",
					"type": "bytes"
				}
			],
			"name": "safeBatchTransferFrom",
			"outputs": [],
			"stateMutability": "nonpayable",
			"type": "function"
		},
		{
			"inputs": [
				{
					"internalType": "address",
					"name": "from",
					"type": "address"
				},
				{
					"internalType": "address",
					"name": "to",
					"type": "address"
				},
				{
					"internalType": "uint256",
					"name": "id",
					"type": "uint256"
				},
				{
					"internalType": "uint256",
					"name": "value",
					"type": "uint256"
				},
				{
					"internalType": "bytes",
					"name": "data",
					"type": "bytes"
				}
			],
			"name": "safeTransferFrom",
			"outputs": [],
			"stateMutability": "nonpayable",
			"type": "function"
		},
		{
			"inputs": [
				{
					"internalType": "address",
					"name": "operator",
					"type": "address"
				},
				{
					"internalType": "bool",
					"name": "approved",
					"type": "bool"
				}
			],
			"name": "setApprovalForAll",
			"outputs": [],
			"stateMutability": "nonpayable",
			"type": "function"
		},
		{
			"inputs": [
				{
					"internalType": "bytes4",
					"name": "interfaceId",
					"type": "bytes4"
				}
			],
			"name": "supportsInterface",
			"outputs": [
				{
					"internalType": "bool",
					"name": "",
					"type": "bool"
				}
			],
			"stateMutability": "view",
			"type": "function"
		},
		{
			"inputs": [
				{
					"internalType": "address",
					"name": "newOwner",
					"type": "address"
				}
			],
			"name": "transferOwnership",
			"outputs": [],
			"stateMutability": "nonpayable",
			"type": "function"
		},
		{
			"inputs": [
				{
					"internalType": "uint256",
					"name": "",
					"type": "uint256"
				}
			],
			"name": "uri",
			"outputs": [
				{
					"internalType": "string",
					"name": "",
					"type": "string"
				}
			],
			"stateMutability": "view",
			"type": "function"
		}
	]
}