{
	"data": {
		"bytecode": {
			"linkReferences": {},
			"object": "6080604052348015600e575f5ffd5b506103098061001c5f395ff3fe608060405234801561000f575f5ffd5b506004361061004a575f3560e01c80633280a8361461004e578063708f29a61461007e57806387d817891461009c578063fefa9291146100cc575b5f5ffd5b610068600480360381019061006391906101db565b6100e8565b6040516100759190610215565b60405180910390f35b610086610152565b6040516100939190610215565b60405180910390f35b6100b660048036038101906100b191906101db565b61015d565b6040516100c39190610215565b60405180910390f35b6100e660048036038101906100e191906101db565b61017c565b005b5f5f80549050821061012f576040517f08c379a000000000000000000000000000000000000000000000000000000000815260040161012690610288565b60405180910390fd5b5f8281548110610142576101416102a6565b5b905f5260205f2001549050919050565b5f5f80549050905090565b5f818154811061016b575f80fd5b905f5260205f20015f915090505481565b5f81908060018154018082558091505060019003905f5260205f20015f909190919091505550565b5f5ffd5b5f819050919050565b6101ba816101a8565b81146101c4575f5ffd5b50565b5f813590506101d5816101b1565b92915050565b5f602082840312156101f0576101ef6101a4565b5b5f6101fd848285016101c7565b91505092915050565b61020f816101a8565b82525050565b5f6020820190506102285f830184610206565b92915050565b5f82825260208201905092915050565b7f496e76616c696420696e6465782e0000000000000000000000000000000000005f82015250565b5f610272600e8361022e565b915061027d8261023e565b602082019050919050565b5f6020820190508181035f83015261029f81610266565b9050919050565b7f4e487b71000000000000000000000000000000000000000000000000000000005f52603260045260245ffdfea2646970667358221220cdb141b72d064335e52b4732b4ce47c2d3f7fb6e81b4997c3d47d5da13895b7264736f6c634300081f0033",
			"opcodes": "PUSH1 0x80 PUSH1 0x40 MSTORE CALLVALUE DUP1 ISZERO PUSH1 0xE JUMPI PUSH0 PUSH0 REVERT JUMPDEST POP PUSH2 0x309 DUP1 PUSH2 0x1C PUSH0 CODECOPY PUSH0 RETURN INVALID PUSH1 0x80 PUSH1 0x40 MSTORE CALLVALUE DUP1 ISZERO PUSH2 0xF JUMPI PUSH0 PUSH0 REVERT JUMPDEST POP PUSH1 0x4 CALLDATASIZE LT PUSH2 0x4A JUMPI PUSH0 CALLDATALOAD PUSH1 0xE0 SHR DUP1 PUSH4 0x3280A836 EQ PUSH2 0x4E JUMPI DUP1 PUSH4 0x708F29A6 EQ PUSH2 0x7E JUMPI DUP1 PUSH4 0x87D81789 EQ PUSH2 0x9C JUMPI DUP1 PUSH4 0xFEFA9291 EQ PUSH2 0xCC JUMPI JUMPDEST PUSH0 PUSH0 REVERT JUMPDEST PUSH2 0x68 PUSH1 0x4 DUP1 CALLDATASIZE SUB DUP2 ADD SWAP1 PUSH2 0x63 SWAP2 SWAP1 PUSH2 0x1DB JUMP JUMPDEST PUSH2 0xE8 JUMP JUMPDEST PUSH1 0x40 MLOAD PUSH2 0x75 SWAP2 SWAP1 PUSH2 0x215 JUMP JUMPDEST PUSH1 0x40 MLOAD DUP1 SWAP2 SUB SWAP1 RETURN JUMPDEST PUSH2 0x86 PUSH2 0x152 JUMP JUMPDEST PUSH1 0x40 MLOAD PUSH2 0x93 SWAP2 SWAP1 PUSH2 0x215 JUMP JUMPDEST PUSH1 0x40 MLOAD DUP1 SWAP2 SUB SWAP1 RETURN JUMPDEST PUSH2 0xB6 PUSH1 0x4 DUP1 CALLDATASIZE SUB DUP2 ADD SWAP1 PUSH2 0xB1 SWAP2 SWAP1 PUSH2 0x1DB JUMP JUMPDEST PUSH2 0x15D JUMP JUMPDEST PUSH1 0x40 MLOAD PUSH2 0xC3 SWAP2 SWAP1 PUSH2 0x215 JUMP JUMPDEST PUSH1 0x40 MLOAD DUP1 SWAP2 SUB SWAP1 RETURN JUMPDEST PUSH2 0xE6 PUSH1 0x4 DUP1 CALLDATASIZE SUB DUP2 ADD SWAP1 PUSH2 0xE1 SWAP2 SWAP1 PUSH2 0x1DB JUMP JUMPDEST PUSH2 0x17C JUMP JUMPDEST STOP JUMPDEST PUSH0 PUSH0 DUP1 SLOAD SWAP1 POP DUP3 LT PUSH2 0x12F JUMPI PUSH1 0x40 MLOAD PUSH32 0x8C379A000000000000000000000000000000000000000000000000000000000 DUP2 MSTORE PUSH1 0x4 ADD PUSH2 0x126 SWAP1 PUSH2 0x288 JUMP JUMPDEST PUSH1 0x40 MLOAD DUP1 SWAP2 SUB SWAP1 REVERT JUMPDEST PUSH0 DUP3 DUP2 SLOAD DUP2 LT PUSH2 0x142 JUMPI PUSH2 0x141 PUSH2 0x2A6 JUMP JUMPDEST JUMPDEST SWAP1 PUSH0 MSTORE PUSH1 0x20 PUSH0 KECCAK256 ADD SLOAD SWAP1 POP SWAP2 SWAP1 POP JUMP JUMPDEST PUSH0 PUSH0 DUP1 SLOAD SWAP1 POP SWAP1 POP SWAP1 JUMP JUMPDEST PUSH0 DUP2 DUP2 SLOAD DUP2 LT PUSH2 0x16B JUMPI PUSH0 DUP1 REVERT JUMPDEST SWAP1 PUSH0 MSTORE PUSH1 0x20 PUSH0 KECCAK256 ADD PUSH0 SWAP2 POP SWAP1 POP SLOAD DUP2 JUMP JUMPDEST PUSH0 DUP2 SWAP1 DUP1 PUSH1 0x1 DUP2 SLOAD ADD DUP1 DUP3 SSTORE DUP1 SWAP2 POP POP PUSH1 0x1 SWAP1 SUB SWAP1 PUSH0 MSTORE PUSH1 0x20 PUSH0 KECCAK256 ADD PUSH0 SWAP1 SWAP2 SWAP1 SWAP2 SWAP1 SWAP2 POP SSTORE POP JUMP JUMPDEST PUSH0 PUSH0 REVERT JUMPDEST PUSH0 DUP2 SWAP1 POP SWAP2 SWAP1 POP JUMP JUMPDEST PUSH2 0x1BA DUP2 PUSH2 0x1A8 JUMP JUMPDEST DUP2 EQ PUSH2 0x1C4 JUMPI PUSH0 PUSH0 REVERT JUMPDEST POP JUMP JUMPDEST PUSH0 DUP2 CALLDATALOAD SWAP1 POP PUSH2 0x1D5 DUP2 PUSH2 0x1B1 JUMP JUMPDEST SWAP3 SWAP2 POP POP JUMP JUMPDEST PUSH0 PUSH1 0x20 DUP3 DUP5 SUB SLT ISZERO PUSH2 0x1F0 JUMPI PUSH2 0x1EF PUSH2 0x1A4 JUMP JUMPDEST JUMPDEST PUSH0 PUSH2 0x1FD DUP5 DUP3 DUP6 ADD PUSH2 0x1C7 JUMP JUMPDEST SWAP2 POP POP SWAP3 SWAP2 POP POP JUMP JUMPDEST PUSH2 0x20F DUP2 PUSH2 0x1A8 JUMP JUMPDEST DUP3 MSTORE POP POP JUMP JUMPDEST PUSH0 PUSH1 0x20 DUP3 ADD SWAP1 POP PUSH2 0x228 PUSH0 DUP4 ADD DUP5 PUSH2 0x206 JUMP JUMPDEST SWAP3 SWAP2 POP POP JUMP JUMPDEST PUSH0 DUP3 DUP3 MSTORE PUSH1 0x20 DUP3 ADD SWAP1 POP SWAP3 SWAP2 POP POP JUMP JUMPDEST PUSH32 0x496E76616C696420696E6465782E000000000000000000000000000000000000 PUSH0 DUP3 ADD MSTORE POP JUMP JUMPDEST PUSH0 PUSH2 0x272 PUSH1 0xE DUP4 PUSH2 0x22E JUMP JUMPDEST SWAP2 POP PUSH2 0x27D DUP3 PUSH2 0x23E JUMP JUMPDEST PUSH1 0x20 DUP3 ADD SWAP1 POP SWAP2 SWAP1 POP JUMP JUMPDEST PUSH0 PUSH1 0x20 DUP3 ADD SWAP1 POP DUP2 DUP2 SUB PUSH0 DUP4 ADD MSTORE PUSH2 0x29F DUP2 PUSH2 0x266 JUMP JUMPDEST SWAP1 POP SWAP2 SWAP1 POP JUMP JUMPDEST PUSH32 0x4E487B7100000000000000000000000000000000000000000000000000000000 PUSH0 MSTORE PUSH1 0x32 PUSH1 0x4 MSTORE PUSH1 0x24 PUSH0 REVERT INVALID LOG2 PUSH5 0x6970667358 0x22 SLT KECCAK256 0xCD 0xB1 COINBASE 0xB7 0x2D MOD NUMBER CALLDATALOAD JUMPF 0x2B47 ORIGIN 0xB4 0xCE SELFBALANCE 0xC2 0xD3 0xF7 EXTSTATICCALL PUSH15 0x81B4997C3D47D5DA13895B7264736F PUSH13 0x634300081F0033000000000000 "
		},
		"gasEstimates": {
			"creation": {
				"codeDepositCost": "155400",
				"executionCost": "200",
				"totalCost": "155600"
			},
			"external": {
				"getPayment(uint256)": "infinite",
				"getTotalPayments()": "2439",
				"payments(uint256)": "infinite",
				"recordPayment(uint256)": "46864"
			}
		},
		"methodIdentifiers": {
			"getPayment(uint256)": "3280a836",
			"getTotalPayments()": "708f29a6",
			"payments(uint256)": "87d81789",
			"recordPayment(uint256)": "fefa9291"
		}
	},
	"abi": [
		{
			"inputs": [
				{
					"internalType": "uint256",
					"name": "_index",
					"type": "uint256"
				}
			],
			"name": "getPayment",
			"outputs": [
				{
					"internalType": "uint256",
					"name": "",
					"type": "uint256"
				}
			],
			"stateMutability": "view",
			"type": "function"
		},
		{
			"inputs": [],
			"name": "getTotalPayments",
			"outputs": [
				{
					"internalType": "uint256",
					"name": "",
					"type": "uint256"
				}
			],
			"stateMutability": "view",
			"type": "function"
		},
		{
			"inputs": [
				{
					"internalType": "uint256",
					"name": "",
					"type": "uint256"
				}
			],
			"name": "payments",
			"outputs": [
				{
					"internalType": "uint256",
					"name": "",
					"type": "uint256"
				}
			],
			"stateMutability": "view",
			"type": "function"
		},
		{
			"inputs": [
				{
					"internalType": "uint256",
					"name": "_amount",
					"type": "uint256"
				}
			],
			"name": "recordPayment",
			"outputs": [],
			"stateMutability": "nonpayable",
			"type": "function"
		}
	]
}