{
	"data": {
		"bytecode": {
			"linkReferences": {},
			"object": "6080604052348015600e575f5ffd5b506107bd8061001c5f395ff3fe608060405234801561000f575f5ffd5b5060043610610049575f3560e01c80625b44871461004d5780631d5b09fd1461006b578063390493be1461008757806397768de3146100a5575b5f5ffd5b6100556100c3565b6040516100629190610223565b60405180910390f35b610085600480360381019061008091906103b3565b6100c9565b005b61008f6100f4565b60405161009c919061049b565b60405180910390f35b6100ad61017f565b6040516100ba919061049b565b60405180910390f35b60025481565b825f90816100d791906106b8565b508160028190555080600190816100ee91906106b8565b50505050565b5f8054610100906104e8565b80601f016020809104026020016040519081016040528092919081815260200182805461012c906104e8565b80156101775780601f1061014e57610100808354040283529160200191610177565b820191905f5260205f20905b81548152906001019060200180831161015a57829003601f168201915b505050505081565b6001805461018c906104e8565b80601f01602080910402602001604051908101604052809291908181526020018280546101b8906104e8565b80156102035780601f106101da57610100808354040283529160200191610203565b820191905f5260205f20905b8154815290600101906020018083116101e657829003601f168201915b505050505081565b5f819050919050565b61021d8161020b565b82525050565b5f6020820190506102365f830184610214565b92915050565b5f604051905090565b5f5ffd5b5f5ffd5b5f5ffd5b5f5ffd5b5f601f19601f8301169050919050565b7f4e487b71000000000000000000000000000000000000000000000000000000005f52604160045260245ffd5b61029b82610255565b810181811067ffffffffffffffff821117156102ba576102b9610265565b5b80604052505050565b5f6102cc61023c565b90506102d88282610292565b919050565b5f67ffffffffffffffff8211156102f7576102f6610265565b5b61030082610255565b9050602081019050919050565b828183375f83830152505050565b5f61032d610328846102dd565b6102c3565b90508281526020810184848401111561034957610348610251565b5b61035484828561030d565b509392505050565b5f82601f8301126103705761036f61024d565b5b813561038084826020860161031b565b91505092915050565b6103928161020b565b811461039c575f5ffd5b50565b5f813590506103ad81610389565b92915050565b5f5f5f606084860312156103ca576103c9610245565b5b5f84013567ffffffffffffffff8111156103e7576103e6610249565b5b6103f38682870161035c565b93505060206104048682870161039f565b925050604084013567ffffffffffffffff81111561042557610424610249565b5b6104318682870161035c565b9150509250925092565b5f81519050919050565b5f82825260208201905092915050565b8281835e5f83830152505050565b5f61046d8261043b565b6104778185610445565b9350610487818560208601610455565b61049081610255565b840191505092915050565b5f6020820190508181035f8301526104b38184610463565b905092915050565b7f4e487b71000000000000000000000000000000000000000000000000000000005f52602260045260245ffd5b5f60028204905060018216806104ff57607f821691505b602082108103610512576105116104bb565b5b50919050565b5f819050815f5260205f209050919050565b5f6020601f8301049050919050565b5f82821b905092915050565b5f600883026105747fffffffffffffffffffffffffffffffffffffffffffffffffffffffffffffffff82610539565b61057e8683610539565b95508019841693508086168417925050509392505050565b5f819050919050565b5f6105b96105b46105af8461020b565b610596565b61020b565b9050919050565b5f819050919050565b6105d28361059f565b6105e66105de826105c0565b848454610545565b825550505050565b5f5f905090565b6105fd6105ee565b6106088184846105c9565b505050565b5b8181101561062b576106205f826105f5565b60018101905061060e565b5050565b601f8211156106705761064181610518565b61064a8461052a565b81016020851015610659578190505b61066d6106658561052a565b83018261060d565b50505b505050565b5f82821c905092915050565b5f6106905f1984600802610675565b1980831691505092915050565b5f6106a88383610681565b9150826002028217905092915050565b6106c18261043b565b67ffffffffffffffff8111156106da576106d9610265565b5b6106e482546104e8565b6106ef82828561062f565b5f60209050601f831160018114610720575f841561070e578287015190505b610718858261069d565b86555061077f565b601f19841661072e86610518565b5f5b8281101561075557848901518255600182019150602085019450602081019050610730565b86831015610772578489015161076e601f891682610681565b8355505b6001600288020188555050505b50505050505056fea2646970667358221220f8e6d69441f652480fd5a9212585c851de87e989be494c234a6535e89d05843f64736f6c634300081f0033",
			"opcodes": "PUSH1 0x80 PUSH1 0x40 MSTORE CALLVALUE DUP1 ISZERO PUSH1 0xE JUMPI PUSH0 PUSH0 REVERT JUMPDEST POP PUSH2 0x7BD DUP1 PUSH2 0x1C PUSH0 CODECOPY PUSH0 RETURN INVALID PUSH1 0x80 PUSH1 0x40 MSTORE CALLVALUE DUP1 ISZERO PUSH2 0xF JUMPI PUSH0 PUSH0 REVERT JUMPDEST POP PUSH1 0x4 CALLDATASIZE LT PUSH2 0x49 JUMPI PUSH0 CALLDATALOAD PUSH1 0xE0 SHR DUP1 PUSH3 0x5B4487 EQ PUSH2 0x4D JUMPI DUP1 PUSH4 0x1D5B09FD EQ PUSH2 0x6B JUMPI DUP1 PUSH4 0x390493BE EQ PUSH2 0x87 JUMPI DUP1 PUSH4 0x97768DE3 EQ PUSH2 0xA5 JUMPI JUMPDEST PUSH0 PUSH0 REVERT JUMPDEST PUSH2 0x55 PUSH2 0xC3 JUMP JUMPDEST PUSH1 0x40 MLOAD PUSH2 0x62 SWAP2 SWAP1 PUSH2 0x223 JUMP JUMPDEST PUSH1 0x40 MLOAD DUP1 SWAP2 SUB SWAP1 RETURN JUMPDEST PUSH2 0x85 PUSH1 0x4 DUP1 CALLDATASIZE SUB DUP2 ADD SWAP1 PUSH2 0x80 SWAP2 SWAP1 PUSH2 0x3B3 JUMP JUMPDEST PUSH2 0xC9 JUMP JUMPDEST STOP JUMPDEST PUSH2 0x8F PUSH2 0xF4 JUMP JUMPDEST PUSH1 0x40 MLOAD PUSH2 0x9C SWAP2 SWAP1 PUSH2 0x49B JUMP JUMPDEST PUSH1 0x40 MLOAD DUP1 SWAP2 SUB SWAP1 RETURN JUMPDEST PUSH2 0xAD PUSH2 0x17F JUMP JUMPDEST PUSH1 0x40 MLOAD PUSH2 0xBA SWAP2 SWAP1 PUSH2 0x49B JUMP JUMPDEST PUSH1 0x40 MLOAD DUP1 SWAP2 SUB SWAP1 RETURN JUMPDEST PUSH1 0x2 SLOAD DUP2 JUMP JUMPDEST DUP3 PUSH0 SWAP1 DUP2 PUSH2 0xD7 SWAP2 SWAP1 PUSH2 0x6B8 JUMP JUMPDEST POP DUP2 PUSH1 0x2 DUP2 SWAP1 SSTORE POP DUP1 PUSH1 0x1 SWAP1 DUP2 PUSH2 0xEE SWAP2 SWAP1 PUSH2 0x6B8 JUMP JUMPDEST POP POP POP POP JUMP JUMPDEST PUSH0 DUP1 SLOAD PUSH2 0x100 SWAP1 PUSH2 0x4E8 JUMP JUMPDEST DUP1 PUSH1 0x1F ADD PUSH1 0x20 DUP1 SWAP2 DIV MUL PUSH1 0x20 ADD PUSH1 0x40 MLOAD SWAP1 DUP2 ADD PUSH1 0x40 MSTORE DUP1 SWAP3 SWAP2 SWAP1 DUP2 DUP2 MSTORE PUSH1 0x20 ADD DUP3 DUP1 SLOAD PUSH2 0x12C SWAP1 PUSH2 0x4E8 JUMP JUMPDEST DUP1 ISZERO PUSH2 0x177 JUMPI DUP1 PUSH1 0x1F LT PUSH2 0x14E JUMPI PUSH2 0x100 DUP1 DUP4 SLOAD DIV MUL DUP4 MSTORE SWAP2 PUSH1 0x20 ADD SWAP2 PUSH2 0x177 JUMP JUMPDEST DUP3 ADD SWAP2 SWAP1 PUSH0 MSTORE PUSH1 0x20 PUSH0 KECCAK256 SWAP1 JUMPDEST DUP2 SLOAD DUP2 MSTORE SWAP1 PUSH1 0x1 ADD SWAP1 PUSH1 0x20 ADD DUP1 DUP4 GT PUSH2 0x15A JUMPI DUP3 SWAP1 SUB PUSH1 0x1F AND DUP3 ADD SWAP2 JUMPDEST POP POP POP POP POP DUP2 JUMP JUMPDEST PUSH1 0x1 DUP1 SLOAD PUSH2 0x18C SWAP1 PUSH2 0x4E8 JUMP JUMPDEST DUP1 PUSH1 0x1F ADD PUSH1 0x20 DUP1 SWAP2 DIV MUL PUSH1 0x20 ADD PUSH1 0x40 MLOAD SWAP1 DUP2 ADD PUSH1 0x40 MSTORE DUP1 SWAP3 SWAP2 SWAP1 DUP2 DUP2 MSTORE PUSH1 0x20 ADD DUP3 DUP1 SLOAD PUSH2 0x1B8 SWAP1 PUSH2 0x4E8 JUMP JUMPDEST DUP1 ISZERO PUSH2 0x203 JUMPI DUP1 PUSH1 0x1F LT PUSH2 0x1DA JUMPI PUSH2 0x100 DUP1 DUP4 SLOAD DIV MUL DUP4 MSTORE SWAP2 PUSH1 0x20 ADD SWAP2 PUSH2 0x203 JUMP JUMPDEST DUP3 ADD SWAP2 SWAP1 PUSH0 MSTORE PUSH1 0x20 PUSH0 KECCAK256 SWAP1 JUMPDEST DUP2 SLOAD DUP2 MSTORE SWAP1 PUSH1 0x1 ADD SWAP1 PUSH1 0x20 ADD DUP1 DUP4 GT PUSH2 0x1E6 JUMPI DUP3 SWAP1 SUB PUSH1 0x1F AND DUP3 ADD SWAP2 JUMPDEST POP POP POP POP POP DUP2 JUMP JUMPDEST PUSH0 DUP2 SWAP1 POP SWAP2 SWAP1 POP JUMP JUMPDEST PUSH2 0x21D DUP2 PUSH2 0x20B JUMP JUMPDEST DUP3 MSTORE POP POP JUMP JUMPDEST PUSH0 PUSH1 0x20 DUP3 ADD SWAP1 POP PUSH2 0x236 PUSH0 DUP4 ADD DUP5 PUSH2 0x214 JUMP JUMPDEST SWAP3 SWAP2 POP POP JUMP JUMPDEST PUSH0 PUSH1 0x40 MLOAD SWAP1 POP SWAP1 JUMP JUMPDEST PUSH0 PUSH0 REVERT JUMPDEST PUSH0 PUSH0 REVERT JUMPDEST PUSH0 PUSH0 REVERT JUMPDEST PUSH0 PUSH0 REVERT JUMPDEST PUSH0 PUSH1 0x1F NOT PUSH1 0x1F DUP4 ADD AND SWAP1 POP SWAP2 SWAP1 POP JUMP JUMPDEST PUSH32 0x4E487B7100000000000000000000000000000000000000000000000000000000 PUSH0 MSTORE PUSH1 0x41 PUSH1 0x4 MSTORE PUSH1 0x24 PUSH0 REVERT JUMPDEST PUSH2 0x29B DUP3 PUSH2 0x255 JUMP JUMPDEST DUP2 ADD DUP2 DUP2 LT PUSH8 0xFFFFFFFFFFFFFFFF DUP3 GT OR ISZERO PUSH2 0x2BA JUMPI PUSH2 0x2B9 PUSH2 0x265 JUMP JUMPDEST JUMPDEST DUP1 PUSH1 0x40 MSTORE POP POP POP JUMP JUMPDEST PUSH0 PUSH2 0x2CC PUSH2 0x23C JUMP JUMPDEST SWAP1 POP PUSH2 0x2D8 DUP3 DUP3 PUSH2 0x292 JUMP JUMPDEST SWAP2 SWAP1 POP JUMP JUMPDEST PUSH0 PUSH8 0xFFFFFFFFFFFFFFFF DUP3 GT ISZERO PUSH2 0x2F7 JUMPI PUSH2 0x2F6 PUSH2 0x265 JUMP JUMPDEST JUMPDEST PUSH2 0x300 DUP3 PUSH2 0x255 JUMP JUMPDEST SWAP1 POP PUSH1 0x20 DUP2 ADD SWAP1 POP SWAP2 SWAP1 POP JUMP JUMPDEST DUP3 DUP2 DUP4 CALLDATACOPY PUSH0 DUP4 DUP4 ADD MSTORE POP POP POP JUMP JUMPDEST PUSH0 PUSH2 0x32D PUSH2 0x328 DUP5 PUSH2 0x2DD JUMP JUMPDEST PUSH2 0x2C3 JUMP JUMPDEST SWAP1 POP DUP3 DUP2 MSTORE PUSH1 0x20 DUP2 ADD DUP5 DUP5 DUP5 ADD GT ISZERO PUSH2 0x349 JUMPI PUSH2 0x348 PUSH2 0x251 JUMP JUMPDEST JUMPDEST PUSH2 0x354 DUP5 DUP3 DUP6 PUSH2 0x30D JUMP JUMPDEST POP SWAP4 SWAP3 POP POP POP JUMP JUMPDEST PUSH0 DUP3 PUSH1 0x1F DUP4 ADD SLT PUSH2 0x370 JUMPI PUSH2 0x36F PUSH2 0x24D JUMP JUMPDEST JUMPDEST DUP2 CALLDATALOAD PUSH2 0x380 DUP5 DUP3 PUSH1 0x20 DUP7 ADD PUSH2 0x31B JUMP JUMPDEST SWAP2 POP POP SWAP3 SWAP2 POP POP JUMP JUMPDEST PUSH2 0x392 DUP2 PUSH2 0x20B JUMP JUMPDEST DUP2 EQ PUSH2 0x39C JUMPI PUSH0 PUSH0 REVERT JUMPDEST POP JUMP JUMPDEST PUSH0 DUP2 CALLDATALOAD SWAP1 POP PUSH2 0x3AD DUP2 PUSH2 0x389 JUMP JUMPDEST SWAP3 SWAP2 POP POP JUMP JUMPDEST PUSH0 PUSH0 PUSH0 PUSH1 0x60 DUP5 DUP7 SUB SLT ISZERO PUSH2 0x3CA JUMPI PUSH2 0x3C9 PUSH2 0x245 JUMP JUMPDEST JUMPDEST PUSH0 DUP5 ADD CALLDATALOAD PUSH8 0xFFFFFFFFFFFFFFFF DUP2 GT ISZERO PUSH2 0x3E7 JUMPI PUSH2 0x3E6 PUSH2 0x249 JUMP JUMPDEST JUMPDEST PUSH2 0x3F3 DUP7 DUP3 DUP8 ADD PUSH2 0x35C JUMP JUMPDEST SWAP4 POP POP PUSH1 0x20 PUSH2 0x404 DUP7 DUP3 DUP8 ADD PUSH2 0x39F JUMP JUMPDEST SWAP3 POP POP PUSH1 0x40 DUP5 ADD CALLDATALOAD PUSH8 0xFFFFFFFFFFFFFFFF DUP2 GT ISZERO PUSH2 0x425 JUMPI PUSH2 0x424 PUSH2 0x249 JUMP JUMPDEST JUMPDEST PUSH2 0x431 DUP7 DUP3 DUP8 ADD PUSH2 0x35C JUMP JUMPDEST SWAP2 POP POP SWAP3 POP SWAP3 POP SWAP3 JUMP JUMPDEST PUSH0 DUP2 MLOAD SWAP1 POP SWAP2 SWAP1 POP JUMP JUMPDEST PUSH0 DUP3 DUP3 MSTORE PUSH1 0x20 DUP3 ADD SWAP1 POP SWAP3 SWAP2 POP POP JUMP JUMPDEST DUP3 DUP2 DUP4 MCOPY PUSH0 DUP4 DUP4 ADD MSTORE POP POP POP JUMP JUMPDEST PUSH0 PUSH2 0x46D DUP3 PUSH2 0x43B JUMP JUMPDEST PUSH2 0x477 DUP2 DUP6 PUSH2 0x445 JUMP JUMPDEST SWAP4 POP PUSH2 0x487 DUP2 DUP6 PUSH1 0x20 DUP7 ADD PUSH2 0x455 JUMP JUMPDEST PUSH2 0x490 DUP2 PUSH2 0x255 JUMP JUMPDEST DUP5 ADD SWAP2 POP POP SWAP3 SWAP2 POP POP JUMP JUMPDEST PUSH0 PUSH1 0x20 DUP3 ADD SWAP1 POP DUP2 DUP2 SUB PUSH0 DUP4 ADD MSTORE PUSH2 0x4B3 DUP2 DUP5 PUSH2 0x463 JUMP JUMPDEST SWAP1 POP SWAP3 SWAP2 POP POP JUMP JUMPDEST PUSH32 0x4E487B7100000000000000000000000000000000000000000000000000000000 PUSH0 MSTORE PUSH1 0x22 PUSH1 0x4 MSTORE PUSH1 0x24 PUSH0 REVERT JUMPDEST PUSH0 PUSH1 0x2 DUP3 DIV SWAP1 POP PUSH1 0x1 DUP3 AND DUP1 PUSH2 0x4FF JUMPI PUSH1 0x7F DUP3 AND SWAP2 POP JUMPDEST PUSH1 0x20 DUP3 LT DUP2 SUB PUSH2 0x512 JUMPI PUSH2 0x511 PUSH2 0x4BB JUMP JUMPDEST JUMPDEST POP SWAP2 SWAP1 POP JUMP JUMPDEST PUSH0 DUP2 SWAP1 POP DUP2 PUSH0 MSTORE PUSH1 0x20 PUSH0 KECCAK256 SWAP1 POP SWAP2 SWAP1 POP JUMP JUMPDEST PUSH0 PUSH1 0x20 PUSH1 0x1F DUP4 ADD DIV SWAP1 POP SWAP2 SWAP1 POP JUMP JUMPDEST PUSH0 DUP3 DUP3 SHL SWAP1 POP SWAP3 SWAP2 POP POP JUMP JUMPDEST PUSH0 PUSH1 0x8 DUP4 MUL PUSH2 0x574 PUSH32 0xFFFFFFFFFFFFFFFFFFFFFFFFFFFFFFFFFFFFFFFFFFFFFFFFFFFFFFFFFFFFFFFF DUP3 PUSH2 0x539 JUMP JUMPDEST PUSH2 0x57E DUP7 DUP4 PUSH2 0x539 JUMP JUMPDEST SWAP6 POP DUP1 NOT DUP5 AND SWAP4 POP DUP1 DUP7 AND DUP5 OR SWAP3 POP POP POP SWAP4 SWAP3 POP POP POP JUMP JUMPDEST PUSH0 DUP2 SWAP1 POP SWAP2 SWAP1 POP JUMP JUMPDEST PUSH0 PUSH2 0x5B9 PUSH2 0x5B4 PUSH2 0x5AF DUP5 PUSH2 0x20B JUMP JUMPDEST PUSH2 0x596 JUMP JUMPDEST PUSH2 0x20B JUMP JUMPDEST SWAP1 POP SWAP2 SWAP1 POP JUMP JUMPDEST PUSH0 DUP2 SWAP1 POP SWAP2 SWAP1 POP JUMP JUMPDEST PUSH2 0x5D2 DUP4 PUSH2 0x59F JUMP JUMPDEST PUSH2 0x5E6 PUSH2 0x5DE DUP3 PUSH2 0x5C0 JUMP JUMPDEST DUP5 DUP5 SLOAD PUSH2 0x545 JUMP JUMPDEST DUP3 SSTORE POP POP POP POP JUMP JUMPDEST PUSH0 PUSH0 SWAP1 POP SWAP1 JUMP JUMPDEST PUSH2 0x5FD PUSH2 0x5EE JUMP JUMPDEST PUSH2 0x608 DUP2 DUP5 DUP5 PUSH2 0x5C9 JUMP JUMPDEST POP POP POP JUMP JUMPDEST JUMPDEST DUP2 DUP2 LT ISZERO PUSH2 0x62B JUMPI PUSH2 0x620 PUSH0 DUP3 PUSH2 0x5F5 JUMP JUMPDEST PUSH1 0x1 DUP2 ADD SWAP1 POP PUSH2 0x60E JUMP JUMPDEST POP POP JUMP JUMPDEST PUSH1 0x1F DUP3 GT ISZERO PUSH2 0x670 JUMPI PUSH2 0x641 DUP2 PUSH2 0x518 JUMP JUMPDEST PUSH2 0x64A DUP5 PUSH2 0x52A JUMP JUMPDEST DUP2 ADD PUSH1 0x20 DUP6 LT ISZERO PUSH2 0x659 JUMPI DUP2 SWAP1 POP JUMPDEST PUSH2 0x66D PUSH2 0x665 DUP6 PUSH2 0x52A JUMP JUMPDEST DUP4 ADD DUP3 PUSH2 0x60D JUMP JUMPDEST POP POP JUMPDEST POP POP POP JUMP JUMPDEST PUSH0 DUP3 DUP3 SHR SWAP1 POP SWAP3 SWAP2 POP POP JUMP JUMPDEST PUSH0 PUSH2 0x690 PUSH0 NOT DUP5 PUSH1 0x8 MUL PUSH2 0x675 JUMP JUMPDEST NOT DUP1 DUP4 AND SWAP2 POP POP SWAP3 SWAP2 POP POP JUMP JUMPDEST PUSH0 PUSH2 0x6A8 DUP4 DUP4 PUSH2 0x681 JUMP JUMPDEST SWAP2 POP DUP3 PUSH1 0x2 MUL DUP3 OR SWAP1 POP SWAP3 SWAP2 POP POP JUMP JUMPDEST PUSH2 0x6C1 DUP3 PUSH2 0x43B JUMP JUMPDEST PUSH8 0xFFFFFFFFFFFFFFFF DUP2 GT ISZERO PUSH2 0x6DA JUMPI PUSH2 0x6D9 PUSH2 0x265 JUMP JUMPDEST JUMPDEST PUSH2 0x6E4 DUP3 SLOAD PUSH2 0x4E8 JUMP JUMPDEST PUSH2 0x6EF DUP3 DUP3 DUP6 PUSH2 0x62F JUMP JUMPDEST PUSH0 PUSH1 0x20 SWAP1 POP PUSH1 0x1F DUP4 GT PUSH1 0x1 DUP2 EQ PUSH2 0x720 JUMPI PUSH0 DUP5 ISZERO PUSH2 0x70E JUMPI DUP3 DUP8 ADD MLOAD SWAP1 POP JUMPDEST PUSH2 0x718 DUP6 DUP3 PUSH2 0x69D JUMP JUMPDEST DUP7 SSTORE POP PUSH2 0x77F JUMP JUMPDEST PUSH1 0x1F NOT DUP5 AND PUSH2 0x72E DUP7 PUSH2 0x518 JUMP JUMPDEST PUSH0 JUMPDEST DUP3 DUP2 LT ISZERO PUSH2 0x755 JUMPI DUP5 DUP10 ADD MLOAD DUP3 SSTORE PUSH1 0x1 DUP3 ADD SWAP2 POP PUSH1 0x20 DUP6 ADD SWAP5 POP PUSH1 0x20 DUP2 ADD SWAP1 POP PUSH2 0x730 JUMP JUMPDEST DUP7 DUP4 LT ISZERO PUSH2 0x772 JUMPI DUP5 DUP10 ADD MLOAD PUSH2 0x76E PUSH1 0x1F DUP10 AND DUP3 PUSH2 0x681 JUMP JUMPDEST DUP4 SSTORE POP JUMPDEST PUSH1 0x1 PUSH1 0x2 DUP9 MUL ADD DUP9 SSTORE POP POP POP JUMPDEST POP POP POP POP POP POP JUMP INVALID LOG2 PUSH5 0x6970667358 0x22 SLT KECCAK256 EXTCALL DUPN 0xD6 SWAP5 COINBASE 0xF6 MSTORE BASEFEE 0xF 0xD5 0xA9 0x21 0x25 DUP6 0xC8 MLOAD 0xDE DUP8 0xE9 DUP10 0xBE BLOBHASH 0x4C 0x23 BLOBBASEFEE PUSH6 0x35E89D05843F PUSH5 0x736F6C6343 STOP ADDMOD 0x1F STOP CALLER "
		},
		"gasEstimates": {
			"creation": {
				"codeDepositCost": "396200",
				"executionCost": "428",
				"totalCost": "396628"
			},
			"external": {
				"payerName()": "infinite",
				"recordPayment(string,uint256,string)": "infinite",
				"totalPayments()": "2403",
				"vendorName()": "infinite"
			}
		},
		"methodIdentifiers": {
			"payerName()": "97768de3",
			"recordPayment(string,uint256,string)": "1d5b09fd",
			"totalPayments()": "005b4487",
			"vendorName()": "390493be"
		}
	},
	"abi": [
		{
			"inputs": [],
			"name": "payerName",
			"outputs": [
				{
					"internalType": "string",
					"name": "",
					"type": "string"
				}
			],
			"stateMutability": "view",
			"type": "function"
		},
		{
			"inputs": [
				{
					"internalType": "string",
					"name": "_vendorName",
					"type": "string"
				},
				{
					"internalType": "uint256",
					"name": "_amount",
					"type": "uint256"
				},
				{
					"internalType": "string",
					"name": "_payee",
					"type": "string"
				}
			],
			"name": "recordPayment",
			"outputs": [],
			"stateMutability": "nonpayable",
			"type": "function"
		},
		{
			"inputs": [],
			"name": "totalPayments",
			"outputs": [
				{
					"internalType": "uint256",
					"name": "",
					"type": "uint256"
				}
			],
			"stateMutability": "view",
			"type": "function"
		},
		{
			"inputs": [],
			"name": "vendorName",
			"outputs": [
				{
					"internalType": "string",
					"name": "",
					"type": "string"
				}
			],
			"stateMutability": "view",
			"type": "function"
		}
	]
}